{
  "contractName": "ExecutorManager",
  "abi": [
    {
      "anonymous": false,
      "inputs": [
        {
          "indexed": false,
          "internalType": "address",
          "name": "executor",
          "type": "address"
        },
        {
          "indexed": false,
          "internalType": "address",
          "name": "owner",
          "type": "address"
        }
      ],
      "name": "ExecutorAdded",
      "type": "event"
    },
    {
      "anonymous": false,
      "inputs": [
        {
          "indexed": false,
          "internalType": "address",
          "name": "executor",
          "type": "address"
        },
        {
          "indexed": false,
          "internalType": "address",
          "name": "owner",
          "type": "address"
        }
      ],
      "name": "ExecutorRemoved",
      "type": "event"
    },
    {
      "anonymous": false,
      "inputs": [
        {
          "indexed": true,
          "internalType": "address",
          "name": "previousOwner",
          "type": "address"
        },
        {
          "indexed": true,
          "internalType": "address",
          "name": "newOwner",
          "type": "address"
        }
      ],
      "name": "OwnershipTransferred",
      "type": "event"
    },
    {
      "inputs": [],
      "name": "owner",
      "outputs": [
        {
          "internalType": "address",
          "name": "",
          "type": "address"
        }
      ],
      "stateMutability": "view",
      "type": "function"
    },
    {
      "inputs": [],
      "name": "renounceOwnership",
      "outputs": [],
      "stateMutability": "nonpayable",
      "type": "function"
    },
    {
      "inputs": [
        {
          "internalType": "address",
          "name": "newOwner",
          "type": "address"
        }
      ],
      "name": "transferOwnership",
      "outputs": [],
      "stateMutability": "nonpayable",
      "type": "function"
    },
    {
      "inputs": [
        {
          "internalType": "address",
          "name": "executor",
          "type": "address"
        }
      ],
      "name": "getExecutorStatus",
      "outputs": [
        {
          "internalType": "bool",
          "name": "status",
          "type": "bool"
        }
      ],
      "stateMutability": "view",
      "type": "function"
    },
    {
      "inputs": [],
      "name": "getAllExecutors",
      "outputs": [
        {
          "internalType": "address[]",
          "name": "",
          "type": "address[]"
        }
      ],
      "stateMutability": "view",
      "type": "function"
    },
    {
      "inputs": [
        {
          "internalType": "address[]",
          "name": "executorArray",
          "type": "address[]"
        }
      ],
      "name": "addExecutors",
      "outputs": [],
      "stateMutability": "nonpayable",
      "type": "function"
    },
    {
      "inputs": [
        {
          "internalType": "address",
          "name": "executorAddress",
          "type": "address"
        }
      ],
      "name": "addExecutor",
      "outputs": [],
      "stateMutability": "nonpayable",
      "type": "function"
    },
    {
      "inputs": [
        {
          "internalType": "address[]",
          "name": "executorArray",
          "type": "address[]"
        }
      ],
      "name": "removeExecutors",
      "outputs": [],
      "stateMutability": "nonpayable",
      "type": "function"
    },
    {
      "inputs": [
        {
          "internalType": "address",
          "name": "executorAddress",
          "type": "address"
        }
      ],
      "name": "removeExecutor",
      "outputs": [],
      "stateMutability": "nonpayable",
      "type": "function"
    }
  ],
  "bytecode": "0x608060405234801561001057600080fd5b5061002d61002261003260201b60201c565b61003a60201b60201c565b6100fe565b600033905090565b60008060009054906101000a900473ffffffffffffffffffffffffffffffffffffffff169050816000806101000a81548173ffffffffffffffffffffffffffffffffffffffff021916908373ffffffffffffffffffffffffffffffffffffffff1602179055508173ffffffffffffffffffffffffffffffffffffffff168173ffffffffffffffffffffffffffffffffffffffff167f8be0079c531659141344cd1fd0a4f28419497f9722a3daafe3b4186f6b6457e060405160405180910390a35050565b610fdd8061010d6000396000f3fe608060405234801561001057600080fd5b50600436106100935760003560e01c8063715018a611610066578063715018a61461011c5780638da5cb5b14610126578063dc09c3e414610144578063f2fde38b14610160578063fdfebffe1461017c57610093565b80630768d65c146100985780631ecd9cd8146100c85780631f5a0bbe146100e45780632478842914610100575b600080fd5b6100b260048036038101906100ad9190610a12565b61019a565b6040516100bf9190610a5a565b60405180910390f35b6100e260048036038101906100dd9190610ada565b6101b7565b005b6100fe60048036038101906100f99190610a12565b610213565b005b61011a60048036038101906101159190610a12565b610324565b005b6101246103c5565b005b61012e6103d9565b60405161013b9190610b36565b60405180910390f35b61015e60048036038101906101599190610ada565b610402565b005b61017a60048036038101906101759190610a12565b61045e565b005b6101846104e1565b6040516101919190610c0f565b60405180910390f35b60006101b08260016105be90919063ffffffff16565b9050919050565b6101bf6105ee565b600082829050905060005b8181101561020d576102028484838181106101e8576101e7610c31565b5b90506020020160208101906101fd9190610a12565b610213565b8060010190506101ca565b50505050565b61021b6105ee565b600073ffffffffffffffffffffffffffffffffffffffff168173ffffffffffffffffffffffffffffffffffffffff160361028a576040517f08c379a000000000000000000000000000000000000000000000000000000000815260040161028190610cbd565b60405180910390fd5b6102938161019a565b156102d3576040517f08c379a00000000000000000000000000000000000000000000000000000000081526004016102ca90610d29565b60405180910390fd5b6102e781600161066c90919063ffffffff16565b507f8a39fc6d5142759acd84b3e96ccde9187266ecb0df56c8ff08bf2aedc7c93c478133604051610319929190610d49565b60405180910390a150565b61032c6105ee565b6103358161019a565b610374576040517f08c379a000000000000000000000000000000000000000000000000000000000815260040161036b90610dbe565b60405180910390fd5b61038881600161069c90919063ffffffff16565b507f5eda3a085bbb9fa8a317839dd47d7ef8a77f89a24470445af7fec61cbb8c990b81336040516103ba929190610d49565b60405180910390a150565b6103cd6105ee565b6103d760006106cc565b565b60008060009054906101000a900473ffffffffffffffffffffffffffffffffffffffff16905090565b61040a6105ee565b600082829050905060005b818110156104585761044d84848381811061043357610432610c31565b5b90506020020160208101906104489190610a12565b610324565b806001019050610415565b50505050565b6104666105ee565b600073ffffffffffffffffffffffffffffffffffffffff168173ffffffffffffffffffffffffffffffffffffffff16036104d5576040517f08c379a00000000000000000000000000000000000000000000000000000000081526004016104cc90610e50565b60405180910390fd5b6104de816106cc565b50565b606060006104ef6001610790565b905060008167ffffffffffffffff81111561050d5761050c610e70565b5b60405190808252806020026020018201604052801561053b5781602001602082028036833780820191505090505b50905060005b828110156105b55761055d8160016107a590919063ffffffff16565b8282815181106105705761056f610c31565b5b602002602001019073ffffffffffffffffffffffffffffffffffffffff16908173ffffffffffffffffffffffffffffffffffffffff1681525050806001019050610541565b50809250505090565b60006105e6836000018373ffffffffffffffffffffffffffffffffffffffff1660001b6107bf565b905092915050565b6105f66107e2565b73ffffffffffffffffffffffffffffffffffffffff166106146103d9565b73ffffffffffffffffffffffffffffffffffffffff161461066a576040517f08c379a000000000000000000000000000000000000000000000000000000000815260040161066190610eeb565b60405180910390fd5b565b6000610694836000018373ffffffffffffffffffffffffffffffffffffffff1660001b6107ea565b905092915050565b60006106c4836000018373ffffffffffffffffffffffffffffffffffffffff1660001b61085a565b905092915050565b60008060009054906101000a900473ffffffffffffffffffffffffffffffffffffffff169050816000806101000a81548173ffffffffffffffffffffffffffffffffffffffff021916908373ffffffffffffffffffffffffffffffffffffffff1602179055508173ffffffffffffffffffffffffffffffffffffffff168173ffffffffffffffffffffffffffffffffffffffff167f8be0079c531659141344cd1fd0a4f28419497f9722a3daafe3b4186f6b6457e060405160405180910390a35050565b600061079e8260000161096e565b9050919050565b60006107b4836000018361097f565b60001c905092915050565b600080836001016000848152602001908152602001600020541415905092915050565b600033905090565b60006107f683836107bf565b61084f578260000182908060018154018082558091505060019003906000526020600020016000909190919091505582600001805490508360010160008481526020019081526020016000208190555060019050610854565b600090505b92915050565b6000808360010160008481526020019081526020016000205490506000811461096257600060018261088c9190610f44565b90506000600186600001805490506108a49190610f44565b90508181146109135760008660000182815481106108c5576108c4610c31565b5b90600052602060002001549050808760000184815481106108e9576108e8610c31565b5b90600052602060002001819055508387600101600083815260200190815260200160002081905550505b8560000180548061092757610926610f78565b5b600190038181906000526020600020016000905590558560010160008681526020019081526020016000206000905560019350505050610968565b60009150505b92915050565b600081600001805490509050919050565b600082600001828154811061099757610996610c31565b5b9060005260206000200154905092915050565b600080fd5b600080fd5b600073ffffffffffffffffffffffffffffffffffffffff82169050919050565b60006109df826109b4565b9050919050565b6109ef816109d4565b81146109fa57600080fd5b50565b600081359050610a0c816109e6565b92915050565b600060208284031215610a2857610a276109aa565b5b6000610a36848285016109fd565b91505092915050565b60008115159050919050565b610a5481610a3f565b82525050565b6000602082019050610a6f6000830184610a4b565b92915050565b600080fd5b600080fd5b600080fd5b60008083601f840112610a9a57610a99610a75565b5b8235905067ffffffffffffffff811115610ab757610ab6610a7a565b5b602083019150836020820283011115610ad357610ad2610a7f565b5b9250929050565b60008060208385031215610af157610af06109aa565b5b600083013567ffffffffffffffff811115610b0f57610b0e6109af565b5b610b1b85828601610a84565b92509250509250929050565b610b30816109d4565b82525050565b6000602082019050610b4b6000830184610b27565b92915050565b600081519050919050565b600082825260208201905092915050565b6000819050602082019050919050565b610b86816109d4565b82525050565b6000610b988383610b7d565b60208301905092915050565b6000602082019050919050565b6000610bbc82610b51565b610bc68185610b5c565b9350610bd183610b6d565b8060005b83811015610c02578151610be98882610b8c565b9750610bf483610ba4565b925050600181019050610bd5565b5085935050505092915050565b60006020820190508181036000830152610c298184610bb1565b905092915050565b7f4e487b7100000000000000000000000000000000000000000000000000000000600052603260045260246000fd5b600082825260208201905092915050565b7f6578656375746f7220616464726573732063616e206e6f742062652030000000600082015250565b6000610ca7601d83610c60565b9150610cb282610c71565b602082019050919050565b60006020820190508181036000830152610cd681610c9a565b9050919050565b7f4578656375746f7220616c726561647920726567697374657265640000000000600082015250565b6000610d13601b83610c60565b9150610d1e82610cdd565b602082019050919050565b60006020820190508181036000830152610d4281610d06565b9050919050565b6000604082019050610d5e6000830185610b27565b610d6b6020830184610b27565b9392505050565b7f4578656375746f72206e6f742072656769737465726564000000000000000000600082015250565b6000610da8601783610c60565b9150610db382610d72565b602082019050919050565b60006020820190508181036000830152610dd781610d9b565b9050919050565b7f4f776e61626c653a206e6577206f776e657220697320746865207a65726f206160008201527f6464726573730000000000000000000000000000000000000000000000000000602082015250565b6000610e3a602683610c60565b9150610e4582610dde565b604082019050919050565b60006020820190508181036000830152610e6981610e2d565b9050919050565b7f4e487b7100000000000000000000000000000000000000000000000000000000600052604160045260246000fd5b7f4f776e61626c653a2063616c6c6572206973206e6f7420746865206f776e6572600082015250565b6000610ed5602083610c60565b9150610ee082610e9f565b602082019050919050565b60006020820190508181036000830152610f0481610ec8565b9050919050565b6000819050919050565b7f4e487b7100000000000000000000000000000000000000000000000000000000600052601160045260246000fd5b6000610f4f82610f0b565b9150610f5a83610f0b565b925082821015610f6d57610f6c610f15565b5b828203905092915050565b7f4e487b7100000000000000000000000000000000000000000000000000000000600052603160045260246000fdfea26469706673582212202bd436fcbbfbd795374a80e775bc9aeedf74cd360c5ccd114ac9216c3e0602bd64736f6c634300080f0033",
  "immutableReferences": {},
  "source": "// $$$$$$$$\\                                           $$\\                               $$\\      $$\\                                                             \n// $$  _____|                                          $$ |                              $$$\\    $$$ |                                                            \n// $$ |      $$\\   $$\\  $$$$$$\\   $$$$$$$\\ $$\\   $$\\ $$$$$$\\    $$$$$$\\   $$$$$$\\        $$$$\\  $$$$ | $$$$$$\\  $$$$$$$\\   $$$$$$\\   $$$$$$\\   $$$$$$\\   $$$$$$\\  \n// $$$$$\\    \\$$\\ $$  |$$  __$$\\ $$  _____|$$ |  $$ |\\_$$  _|  $$  __$$\\ $$  __$$\\       $$\\$$\\$$ $$ | \\____$$\\ $$  __$$\\  \\____$$\\ $$  __$$\\ $$  __$$\\ $$  __$$\\ \n// $$  __|    \\$$$$  / $$$$$$$$ |$$ /      $$ |  $$ |  $$ |    $$ /  $$ |$$ |  \\__|      $$ \\$$$  $$ | $$$$$$$ |$$ |  $$ | $$$$$$$ |$$ /  $$ |$$$$$$$$ |$$ |  \\__|\n// $$ |       $$  $$<  $$   ____|$$ |      $$ |  $$ |  $$ |$$\\ $$ |  $$ |$$ |            $$ |\\$  /$$ |$$  __$$ |$$ |  $$ |$$  __$$ |$$ |  $$ |$$   ____|$$ |      \n// $$$$$$$$\\ $$  /\\$$\\ \\$$$$$$$\\ \\$$$$$$$\\ \\$$$$$$  |  \\$$$$  |\\$$$$$$  |$$ |            $$ | \\_/ $$ |\\$$$$$$$ |$$ |  $$ |\\$$$$$$$ |\\$$$$$$$ |\\$$$$$$$\\ $$ |      \n// \\________|\\__/  \\__| \\_______| \\_______| \\______/    \\____/  \\______/ \\__|            \\__|     \\__| \\_______|\\__|  \\__| \\_______| \\____$$ | \\_______|\\__|      \n//                                                                                                                                  $$\\   $$ |                    \n//                                                                                                                                  \\$$$$$$  |                    \n//                                                                                                                                   \\______/                     \n//\n// SPDX-License-Identifier: MIT\n\npragma solidity ^0.8.0;\n\nimport \"@openzeppelin/contracts/access/Ownable.sol\";\nimport \"@openzeppelin/contracts/utils/structs/EnumerableSet.sol\";\nimport \"./interfaces/IExecutorManager.sol\";\n\ncontract ExecutorManager is IExecutorManager, Ownable {\n    using EnumerableSet for EnumerableSet.AddressSet;\n    EnumerableSet.AddressSet private executors;\n\n    event ExecutorAdded(address executor, address owner);\n    event ExecutorRemoved(address executor, address owner);\n\n    // MODIFIERS\n    modifier onlyExecutor() {\n        require(getExecutorStatus(msg.sender), \"You are not allowed to perform this operation\");\n        _;\n    }\n\n    function getExecutorStatus(address executor) public view override returns (bool status) {\n        return executors.contains(executor);\n    }\n\n    function getAllExecutors() external view override returns (address[] memory) {\n        uint256 length = executors.length();\n        address[] memory result = new address[](length);\n        for (uint256 i; i < length; ) {\n            result[i] = executors.at(i);\n            unchecked {\n                ++i;\n            }\n        }\n        return result;\n    }\n\n    //Register new Executors\n    function addExecutors(address[] calldata executorArray) external override onlyOwner {\n        uint256 length = executorArray.length;\n        for (uint256 i; i < length; ) {\n            addExecutor(executorArray[i]);\n            unchecked {\n                ++i;\n            }\n        }\n    }\n\n    // Register single executor\n    function addExecutor(address executorAddress) public override onlyOwner {\n        require(executorAddress != address(0), \"executor address can not be 0\");\n        require(!getExecutorStatus(executorAddress), \"Executor already registered\");\n        executors.add(executorAddress);\n        emit ExecutorAdded(executorAddress, msg.sender);\n    }\n\n    //Remove registered Executors\n    function removeExecutors(address[] calldata executorArray) external override onlyOwner {\n        uint256 length = executorArray.length;\n        for (uint256 i; i < length; ) {\n            removeExecutor(executorArray[i]);\n            unchecked {\n                ++i;\n            }\n        }\n    }\n\n    // Remove Register single executor\n    function removeExecutor(address executorAddress) public override onlyOwner {\n        require(getExecutorStatus(executorAddress), \"Executor not registered\");\n        executors.remove(executorAddress);\n        emit ExecutorRemoved(executorAddress, msg.sender);\n    }\n}\n",
  "sourcePath": "/Users/nikhitakale/QA-Hyphen-V2/scribble-fuzzing/contracts/hyphen/ExecutorManager.sol",
  "compiler": {
    "name": "solc",
    "version": "0.8.15+commit.e14f2714.Emscripten.clang"
  },
  "schemaVersion": "3.4.7",
  "updatedAt": "2022-07-03T18:26:08.787Z",
  "devdoc": {
    "kind": "dev",
    "methods": {
      "owner()": {
        "details": "Returns the address of the current owner."
      },
      "renounceOwnership()": {
        "details": "Leaves the contract without owner. It will not be possible to call `onlyOwner` functions anymore. Can only be called by the current owner. NOTE: Renouncing ownership will leave the contract without an owner, thereby removing any functionality that is only available to the owner."
      },
      "transferOwnership(address)": {
        "details": "Transfers ownership of the contract to a new account (`newOwner`). Can only be called by the current owner."
      }
    },
    "version": 1
  },
  "userdoc": {
    "kind": "user",
    "methods": {},
    "version": 1
  },
  "db": {
    "callBytecode": {
      "id": "0x1eebe9a24ac88aea54a4966ff70f043ae2106241f8b6156d5ee3e060c2e071a4"
    },
    "createBytecode": {
      "id": "0xaaf3784d5b69b9bf2d6160b40c2bd0520b2c11e5d514830bdfd01cad4cb9b19d"
    },
    "contract": {
      "id": "0x2042497a0ebd564f67993742ed689f1e553e0dba2df1c09fd96b01545b3f4915"
    }
  }
}