{
  "contractName": "HyphenLiquidityFarmingV2",
  "abi": [
    {
      "anonymous": false,
      "inputs": [
        {
          "indexed": false,
          "internalType": "uint8",
          "name": "version",
          "type": "uint8"
        }
      ],
      "name": "Initialized",
      "type": "event"
    },
    {
      "anonymous": false,
      "inputs": [
        {
          "indexed": true,
          "internalType": "address",
          "name": "liquidityProviders",
          "type": "address"
        }
      ],
      "name": "LiquidityProviderUpdated",
      "type": "event"
    },
    {
      "anonymous": false,
      "inputs": [
        {
          "indexed": true,
          "internalType": "address",
          "name": "user",
          "type": "address"
        },
        {
          "indexed": true,
          "internalType": "address",
          "name": "baseToken",
          "type": "address"
        },
        {
          "indexed": false,
          "internalType": "uint256",
          "name": "nftId",
          "type": "uint256"
        }
      ],
      "name": "LogDeposit",
      "type": "event"
    },
    {
      "anonymous": false,
      "inputs": [
        {
          "indexed": true,
          "internalType": "address",
          "name": "sender",
          "type": "address"
        },
        {
          "indexed": false,
          "internalType": "uint256",
          "name": "value",
          "type": "uint256"
        }
      ],
      "name": "LogNativeReceived",
      "type": "event"
    },
    {
      "anonymous": false,
      "inputs": [
        {
          "indexed": true,
          "internalType": "address",
          "name": "user",
          "type": "address"
        },
        {
          "indexed": true,
          "internalType": "address",
          "name": "baseToken",
          "type": "address"
        },
        {
          "indexed": true,
          "internalType": "address",
          "name": "rewardToken",
          "type": "address"
        },
        {
          "indexed": false,
          "internalType": "uint256",
          "name": "amount",
          "type": "uint256"
        },
        {
          "indexed": false,
          "internalType": "address",
          "name": "to",
          "type": "address"
        }
      ],
      "name": "LogOnReward",
      "type": "event"
    },
    {
      "anonymous": false,
      "inputs": [
        {
          "indexed": true,
          "internalType": "address",
          "name": "baseToken",
          "type": "address"
        },
        {
          "indexed": true,
          "internalType": "address",
          "name": "rewardToken",
          "type": "address"
        },
        {
          "indexed": true,
          "internalType": "uint256",
          "name": "rewardPerSecond",
          "type": "uint256"
        }
      ],
      "name": "LogRewardPerSecond",
      "type": "event"
    },
    {
      "anonymous": false,
      "inputs": [
        {
          "indexed": true,
          "internalType": "address",
          "name": "baseToken",
          "type": "address"
        },
        {
          "indexed": false,
          "internalType": "uint256",
          "name": "lastRewardTime",
          "type": "uint256"
        },
        {
          "indexed": false,
          "internalType": "uint256",
          "name": "lpSupply",
          "type": "uint256"
        },
        {
          "indexed": false,
          "internalType": "uint256",
          "name": "accToken1PerShare",
          "type": "uint256"
        }
      ],
      "name": "LogUpdatePool",
      "type": "event"
    },
    {
      "anonymous": false,
      "inputs": [
        {
          "indexed": true,
          "internalType": "address",
          "name": "user",
          "type": "address"
        },
        {
          "indexed": false,
          "internalType": "address",
          "name": "baseToken",
          "type": "address"
        },
        {
          "indexed": false,
          "internalType": "uint256",
          "name": "nftId",
          "type": "uint256"
        },
        {
          "indexed": true,
          "internalType": "address",
          "name": "to",
          "type": "address"
        }
      ],
      "name": "LogWithdraw",
      "type": "event"
    },
    {
      "anonymous": false,
      "inputs": [
        {
          "indexed": true,
          "internalType": "address",
          "name": "previousOwner",
          "type": "address"
        },
        {
          "indexed": true,
          "internalType": "address",
          "name": "newOwner",
          "type": "address"
        }
      ],
      "name": "OwnershipTransferred",
      "type": "event"
    },
    {
      "anonymous": false,
      "inputs": [
        {
          "indexed": false,
          "internalType": "address",
          "name": "account",
          "type": "address"
        }
      ],
      "name": "Paused",
      "type": "event"
    },
    {
      "anonymous": false,
      "inputs": [
        {
          "indexed": true,
          "internalType": "address",
          "name": "previousPauser",
          "type": "address"
        },
        {
          "indexed": true,
          "internalType": "address",
          "name": "newPauser",
          "type": "address"
        }
      ],
      "name": "PauserChanged",
      "type": "event"
    },
    {
      "anonymous": false,
      "inputs": [
        {
          "indexed": true,
          "internalType": "address",
          "name": "_tf",
          "type": "address"
        }
      ],
      "name": "TrustedForwarderChanged",
      "type": "event"
    },
    {
      "anonymous": false,
      "inputs": [
        {
          "indexed": false,
          "internalType": "address",
          "name": "account",
          "type": "address"
        }
      ],
      "name": "Unpaused",
      "type": "event"
    },
    {
      "inputs": [
        {
          "internalType": "address",
          "name": "newPauser",
          "type": "address"
        }
      ],
      "name": "changePauser",
      "outputs": [],
      "stateMutability": "nonpayable",
      "type": "function"
    },
    {
      "inputs": [
        {
          "internalType": "address",
          "name": "pauser",
          "type": "address"
        }
      ],
      "name": "isPauser",
      "outputs": [
        {
          "internalType": "bool",
          "name": "",
          "type": "bool"
        }
      ],
      "stateMutability": "view",
      "type": "function"
    },
    {
      "inputs": [
        {
          "internalType": "address",
          "name": "forwarder",
          "type": "address"
        }
      ],
      "name": "isTrustedForwarder",
      "outputs": [
        {
          "internalType": "bool",
          "name": "",
          "type": "bool"
        }
      ],
      "stateMutability": "view",
      "type": "function"
    },
    {
      "inputs": [],
      "name": "liquidityProviders",
      "outputs": [
        {
          "internalType": "contract ILiquidityProviders",
          "name": "",
          "type": "address"
        }
      ],
      "stateMutability": "view",
      "type": "function"
    },
    {
      "inputs": [],
      "name": "lpToken",
      "outputs": [
        {
          "internalType": "contract ILPToken",
          "name": "",
          "type": "address"
        }
      ],
      "stateMutability": "view",
      "type": "function"
    },
    {
      "inputs": [
        {
          "internalType": "address",
          "name": "",
          "type": "address"
        },
        {
          "internalType": "uint256",
          "name": "",
          "type": "uint256"
        }
      ],
      "name": "nftIdsStaked",
      "outputs": [
        {
          "internalType": "uint256",
          "name": "",
          "type": "uint256"
        }
      ],
      "stateMutability": "view",
      "type": "function"
    },
    {
      "inputs": [
        {
          "internalType": "uint256",
          "name": "",
          "type": "uint256"
        }
      ],
      "name": "nftInfo",
      "outputs": [
        {
          "internalType": "address payable",
          "name": "staker",
          "type": "address"
        },
        {
          "internalType": "bool",
          "name": "isStaked",
          "type": "bool"
        }
      ],
      "stateMutability": "view",
      "type": "function"
    },
    {
      "inputs": [],
      "name": "owner",
      "outputs": [
        {
          "internalType": "address",
          "name": "",
          "type": "address"
        }
      ],
      "stateMutability": "view",
      "type": "function"
    },
    {
      "inputs": [],
      "name": "pause",
      "outputs": [],
      "stateMutability": "nonpayable",
      "type": "function"
    },
    {
      "inputs": [],
      "name": "paused",
      "outputs": [
        {
          "internalType": "bool",
          "name": "",
          "type": "bool"
        }
      ],
      "stateMutability": "view",
      "type": "function"
    },
    {
      "inputs": [
        {
          "internalType": "address",
          "name": "",
          "type": "address"
        },
        {
          "internalType": "address",
          "name": "",
          "type": "address"
        }
      ],
      "name": "poolInfo",
      "outputs": [
        {
          "internalType": "uint256",
          "name": "accTokenPerShare",
          "type": "uint256"
        },
        {
          "internalType": "uint256",
          "name": "lastRewardTime",
          "type": "uint256"
        }
      ],
      "stateMutability": "view",
      "type": "function"
    },
    {
      "inputs": [],
      "name": "renounceOwnership",
      "outputs": [],
      "stateMutability": "nonpayable",
      "type": "function"
    },
    {
      "inputs": [],
      "name": "renouncePauser",
      "outputs": [],
      "stateMutability": "nonpayable",
      "type": "function"
    },
    {
      "inputs": [
        {
          "internalType": "address",
          "name": "",
          "type": "address"
        },
        {
          "internalType": "address",
          "name": "",
          "type": "address"
        },
        {
          "internalType": "uint256",
          "name": "",
          "type": "uint256"
        }
      ],
      "name": "rewardRateLog",
      "outputs": [
        {
          "internalType": "uint256",
          "name": "rewardsPerSecond",
          "type": "uint256"
        },
        {
          "internalType": "uint256",
          "name": "timestamp",
          "type": "uint256"
        }
      ],
      "stateMutability": "view",
      "type": "function"
    },
    {
      "inputs": [
        {
          "internalType": "address",
          "name": "",
          "type": "address"
        }
      ],
      "name": "totalSharesStaked",
      "outputs": [
        {
          "internalType": "uint256",
          "name": "",
          "type": "uint256"
        }
      ],
      "stateMutability": "view",
      "type": "function"
    },
    {
      "inputs": [
        {
          "internalType": "address",
          "name": "newOwner",
          "type": "address"
        }
      ],
      "name": "transferOwnership",
      "outputs": [],
      "stateMutability": "nonpayable",
      "type": "function"
    },
    {
      "inputs": [],
      "name": "unpause",
      "outputs": [],
      "stateMutability": "nonpayable",
      "type": "function"
    },
    {
      "stateMutability": "payable",
      "type": "receive"
    },
    {
      "inputs": [
        {
          "internalType": "address",
          "name": "_trustedForwarder",
          "type": "address"
        },
        {
          "internalType": "address",
          "name": "_pauser",
          "type": "address"
        },
        {
          "internalType": "contract ILiquidityProviders",
          "name": "_liquidityProviders",
          "type": "address"
        },
        {
          "internalType": "contract ILPToken",
          "name": "_lpToken",
          "type": "address"
        }
      ],
      "name": "initialize",
      "outputs": [],
      "stateMutability": "nonpayable",
      "type": "function"
    },
    {
      "inputs": [
        {
          "internalType": "address",
          "name": "_tf",
          "type": "address"
        }
      ],
      "name": "setTrustedForwarder",
      "outputs": [],
      "stateMutability": "nonpayable",
      "type": "function"
    },
    {
      "inputs": [
        {
          "internalType": "address",
          "name": "_baseToken",
          "type": "address"
        },
        {
          "internalType": "address",
          "name": "_rewardToken",
          "type": "address"
        },
        {
          "internalType": "uint256",
          "name": "_rewardPerSecond",
          "type": "uint256"
        }
      ],
      "name": "setRewardPerSecond",
      "outputs": [],
      "stateMutability": "nonpayable",
      "type": "function"
    },
    {
      "inputs": [
        {
          "internalType": "address",
          "name": "_baseToken",
          "type": "address"
        }
      ],
      "name": "getRewardTokens",
      "outputs": [
        {
          "internalType": "address[]",
          "name": "",
          "type": "address[]"
        }
      ],
      "stateMutability": "view",
      "type": "function"
    },
    {
      "inputs": [
        {
          "internalType": "contract ILiquidityProviders",
          "name": "_liquidityProviders",
          "type": "address"
        }
      ],
      "name": "updateLiquidityProvider",
      "outputs": [],
      "stateMutability": "nonpayable",
      "type": "function"
    },
    {
      "inputs": [
        {
          "internalType": "address",
          "name": "_token",
          "type": "address"
        },
        {
          "internalType": "uint256",
          "name": "_amount",
          "type": "uint256"
        },
        {
          "internalType": "address payable",
          "name": "_to",
          "type": "address"
        }
      ],
      "name": "reclaimTokens",
      "outputs": [],
      "stateMutability": "nonpayable",
      "type": "function"
    },
    {
      "inputs": [
        {
          "internalType": "uint256",
          "name": "_nftId",
          "type": "uint256"
        },
        {
          "internalType": "address payable",
          "name": "_to",
          "type": "address"
        }
      ],
      "name": "deposit",
      "outputs": [],
      "stateMutability": "nonpayable",
      "type": "function"
    },
    {
      "inputs": [
        {
          "internalType": "address",
          "name": "_staker",
          "type": "address"
        },
        {
          "internalType": "uint256",
          "name": "_nftId",
          "type": "uint256"
        }
      ],
      "name": "getStakedNftIndex",
      "outputs": [
        {
          "internalType": "uint256",
          "name": "",
          "type": "uint256"
        }
      ],
      "stateMutability": "view",
      "type": "function"
    },
    {
      "inputs": [
        {
          "internalType": "uint256",
          "name": "_nftId",
          "type": "uint256"
        },
        {
          "internalType": "address payable",
          "name": "_to",
          "type": "address"
        },
        {
          "internalType": "uint256",
          "name": "_index",
          "type": "uint256"
        }
      ],
      "name": "withdrawAtIndex",
      "outputs": [],
      "stateMutability": "nonpayable",
      "type": "function"
    },
    {
      "inputs": [
        {
          "internalType": "uint256",
          "name": "_nftId",
          "type": "uint256"
        },
        {
          "internalType": "address payable",
          "name": "_to",
          "type": "address"
        }
      ],
      "name": "withdraw",
      "outputs": [],
      "stateMutability": "nonpayable",
      "type": "function"
    },
    {
      "inputs": [
        {
          "internalType": "uint256",
          "name": "_nftId",
          "type": "uint256"
        },
        {
          "internalType": "address[]",
          "name": "_rewardTokens",
          "type": "address[]"
        },
        {
          "internalType": "address payable",
          "name": "_to",
          "type": "address"
        }
      ],
      "name": "extractRewards",
      "outputs": [],
      "stateMutability": "nonpayable",
      "type": "function"
    },
    {
      "inputs": [
        {
          "internalType": "address",
          "name": "_baseToken",
          "type": "address"
        },
        {
          "internalType": "address",
          "name": "_rewardToken",
          "type": "address"
        }
      ],
      "name": "getUpdatedAccTokenPerShare",
      "outputs": [
        {
          "internalType": "uint256",
          "name": "",
          "type": "uint256"
        }
      ],
      "stateMutability": "view",
      "type": "function"
    },
    {
      "inputs": [
        {
          "internalType": "uint256",
          "name": "_nftId",
          "type": "uint256"
        },
        {
          "internalType": "address",
          "name": "_rewardToken",
          "type": "address"
        }
      ],
      "name": "pendingToken",
      "outputs": [
        {
          "internalType": "uint256",
          "name": "",
          "type": "uint256"
        }
      ],
      "stateMutability": "view",
      "type": "function"
    },
    {
      "inputs": [
        {
          "internalType": "address",
          "name": "_user",
          "type": "address"
        }
      ],
      "name": "getNftIdsStaked",
      "outputs": [
        {
          "internalType": "uint256[]",
          "name": "nftIds",
          "type": "uint256[]"
        }
      ],
      "stateMutability": "view",
      "type": "function"
    },
    {
      "inputs": [
        {
          "internalType": "address",
          "name": "_baseToken",
          "type": "address"
        },
        {
          "internalType": "address",
          "name": "_rewardToken",
          "type": "address"
        }
      ],
      "name": "getRewardRatePerSecond",
      "outputs": [
        {
          "internalType": "uint256",
          "name": "",
          "type": "uint256"
        }
      ],
      "stateMutability": "view",
      "type": "function"
    },
    {
      "inputs": [
        {
          "internalType": "address",
          "name": "",
          "type": "address"
        },
        {
          "internalType": "address",
          "name": "",
          "type": "address"
        },
        {
          "internalType": "uint256",
          "name": "",
          "type": "uint256"
        },
        {
          "internalType": "bytes",
          "name": "",
          "type": "bytes"
        }
      ],
      "name": "onERC721Received",
      "outputs": [
        {
          "internalType": "bytes4",
          "name": "",
          "type": "bytes4"
        }
      ],
      "stateMutability": "pure",
      "type": "function"
    }
  ],
  "bytecode": "0x608060405234801561001057600080fd5b5061693f80620000216000396000f3fe6080604052600436106101f05760003560e01c80636ef8d66d1161010d578063c82b882c116100a0578063e1b7cebd1161006f578063e1b7cebd1461076a578063eb35c574146107a8578063ed6dc0e0146107e6578063f2fde38b14610823578063f8c8765e1461084c5761024c565b8063c82b882c1461069e578063cd5c645c146106db578063ce8efa0e14610704578063da742228146107415761024c565b80638da5cb5b116100dc5780638da5cb5b146105f6578063926d276214610621578063a2419a6b1461064a578063c1ea3868146106755761024c565b80636ef8d66d14610588578063715018a61461059f578063762678c6146105b65780638456cb59146105df5761024c565b80633f4ba83a116101855780635c975abb116101545780635c975abb146104cc5780635fcbd285146104f75780636b5399b8146105225780636e553f651461055f5761024c565b80633f4ba83a146103fe57806346fbf68e1461041557806348e43af414610452578063572b6c051461048f5761024c565b80631f8bc790116101c15780631f8bc790146103315780632a55b2f81461036f5780632cd271e7146103ac5780633db1ec7d146103d55761024c565b806201b0b614610251578062f714ce1461028e57806309bd2fa7146102b7578063150b7a02146102f45761024c565b3661024c576101fd610875565b73ffffffffffffffffffffffffffffffffffffffff167fdc5856b3d7b3107afc1a59863f377452f210536a45526c9b4ea9c9b02980e6d6346040516102429190614c3b565b60405180910390a2005b600080fd5b34801561025d57600080fd5b5061027860048036038101906102739190614cbe565b610884565b6040516102859190614da9565b60405180910390f35b34801561029a57600080fd5b506102b560048036038101906102b09190614e35565b6109df565b005b3480156102c357600080fd5b506102de60048036038101906102d99190614e75565b610a61565b6040516102eb9190614c3b565b60405180910390f35b34801561030057600080fd5b5061031b60048036038101906103169190614f1a565b610bb0565b6040516103289190614fdd565b60405180910390f35b34801561033d57600080fd5b5061035860048036038101906103539190614ff8565b610bc5565b60405161036692919061504f565b60405180910390f35b34801561037b57600080fd5b5061039660048036038101906103919190615078565b610c16565b6040516103a39190614c3b565b60405180910390f35b3480156103b857600080fd5b506103d360048036038101906103ce9190614cbe565b610d23565b005b3480156103e157600080fd5b506103fc60048036038101906103f791906150b8565b610d7f565b005b34801561040a57600080fd5b50610413610dec565b005b34801561042157600080fd5b5061043c60048036038101906104379190614cbe565b610e3e565b604051610449919061510b565b60405180910390f35b34801561045e57600080fd5b5061047960048036038101906104749190615126565b610e98565b6040516104869190614c3b565b60405180910390f35b34801561049b57600080fd5b506104b660048036038101906104b19190614cbe565b61124a565b6040516104c3919061510b565b60405180910390f35b3480156104d857600080fd5b506104e16112a4565b6040516104ee919061510b565b60405180910390f35b34801561050357600080fd5b5061050c6112bb565b60405161051991906151c5565b60405180910390f35b34801561052e57600080fd5b5061054960048036038101906105449190614cbe565b6112e1565b6040516105569190614c3b565b60405180910390f35b34801561056b57600080fd5b5061058660048036038101906105819190614e35565b6112fa565b005b34801561059457600080fd5b5061059d611abc565b005b3480156105ab57600080fd5b506105b4611bcd565b005b3480156105c257600080fd5b506105dd60048036038101906105d891906151e0565b611be1565b005b3480156105eb57600080fd5b506105f4611ef6565b005b34801561060257600080fd5b5061060b611f48565b6040516106189190615242565b60405180910390f35b34801561062d57600080fd5b50610648600480360381019061064391906152b3565b611f72565b005b34801561065657600080fd5b5061065f61211b565b60405161066c9190615348565b60405180910390f35b34801561068157600080fd5b5061069c60048036038101906106979190615363565b612141565b005b3480156106aa57600080fd5b506106c560048036038101906106c09190615078565b612325565b6040516106d29190614c3b565b60405180910390f35b3480156106e757600080fd5b5061070260048036038101906106fd91906153f4565b612357565b005b34801561071057600080fd5b5061072b60048036038101906107269190614cbe565b612477565b60405161073891906154df565b60405180910390f35b34801561074d57600080fd5b5061076860048036038101906107639190614cbe565b61250f565b005b34801561077657600080fd5b50610791600480360381019061078c9190614e75565b612523565b60405161079f929190615501565b60405180910390f35b3480156107b457600080fd5b506107cf60048036038101906107ca91906151e0565b612554565b6040516107dd929190615501565b60405180910390f35b3480156107f257600080fd5b5061080d60048036038101906108089190614e75565b6125a3565b60405161081a9190614c3b565b60405180910390f35b34801561082f57600080fd5b5061084a60048036038101906108459190614cbe565b61287f565b005b34801561085857600080fd5b50610873600480360381019061086e9190615568565b612902565b005b600061087f612ae0565b905090565b606060006108d061010060008573ffffffffffffffffffffffffffffffffffffffff1673ffffffffffffffffffffffffffffffffffffffff168152602001908152602001600020612b12565b905060008167ffffffffffffffff8111156108ee576108ed6155cf565b5b60405190808252806020026020018201604052801561091c5781602001602082028036833780820191505090505b50905060005b828110156109d45761097c8161010060008873ffffffffffffffffffffffffffffffffffffffff1673ffffffffffffffffffffffffffffffffffffffff168152602001908152602001600020612b2790919063ffffffff16565b82828151811061098f5761098e6155fe565b5b602002602001019073ffffffffffffffffffffffffffffffffffffffff16908173ffffffffffffffffffffffffffffffffffffffff1681525050806001019050610922565b508092505050919050565b6109e7612b41565b600260ca5403610a2c576040517f08c379a0000000000000000000000000000000000000000000000000000000008152600401610a239061568a565b60405180910390fd5b600260ca819055506000610a47610a41610875565b84610c16565b9050610a54838383612b8b565b50600160ca819055505050565b60008061010360008573ffffffffffffffffffffffffffffffffffffffff1673ffffffffffffffffffffffffffffffffffffffff16815260200190815260200160002060008473ffffffffffffffffffffffffffffffffffffffff1673ffffffffffffffffffffffffffffffffffffffff16815260200190815260200160002080549050905060008103610af9576000915050610baa565b61010360008573ffffffffffffffffffffffffffffffffffffffff1673ffffffffffffffffffffffffffffffffffffffff16815260200190815260200160002060008473ffffffffffffffffffffffffffffffffffffffff1673ffffffffffffffffffffffffffffffffffffffff168152602001908152602001600020600182610b8391906156d9565b81548110610b9457610b936155fe565b5b9060005260206000209060020201600001549150505b92915050565b600063150b7a0260e01b905095945050505050565b60ff6020528060005260406000206000915090508060000160009054906101000a900473ffffffffffffffffffffffffffffffffffffffff16908060000160149054906101000a900460ff16905082565b60008061010160008573ffffffffffffffffffffffffffffffffffffffff1673ffffffffffffffffffffffffffffffffffffffff16815260200190815260200160002080549050905060005b81811015610ce2578361010160008773ffffffffffffffffffffffffffffffffffffffff1673ffffffffffffffffffffffffffffffffffffffff1681526020019081526020016000208281548110610cbd57610cbc6155fe565b5b906000526020600020015403610cd7578092505050610d1d565b806001019050610c62565b6040517f08c379a0000000000000000000000000000000000000000000000000000000008152600401610d1490615759565b60405180910390fd5b92915050565b610d2c33610e3e565b610d6b576040517f08c379a0000000000000000000000000000000000000000000000000000000008152600401610d62906157eb565b60405180910390fd5b610d73612b41565b610d7c81613294565b50565b610d87612b41565b600260ca5403610dcc576040517f08c379a0000000000000000000000000000000000000000000000000000000008152600401610dc39061568a565b60405180910390fd5b600260ca81905550610ddf838383612b8b565b600160ca81905550505050565b610df533610e3e565b610e34576040517f08c379a0000000000000000000000000000000000000000000000000000000008152600401610e2b906157eb565b60405180910390fd5b610e3c61338d565b565b600060c960009054906101000a900473ffffffffffffffffffffffffffffffffffffffff1673ffffffffffffffffffffffffffffffffffffffff168273ffffffffffffffffffffffffffffffffffffffff16149050919050565b60008060ff600085815260200190815260200160002090508060000160149054906101000a900460ff16610ed0576000915050611244565b60008060fc60009054906101000a900473ffffffffffffffffffffffffffffffffffffffff1673ffffffffffffffffffffffffffffffffffffffff16636914db60876040518263ffffffff1660e01b8152600401610f2e9190614c3b565b606060405180830381865afa158015610f4b573d6000803e3d6000fd5b505050506040513d601f19601f82011682018060405250810190610f6f9190615835565b925050915060fd60009054906101000a900473ffffffffffffffffffffffffffffffffffffffff1673ffffffffffffffffffffffffffffffffffffffff16633ed771146040518163ffffffff1660e01b8152600401602060405180830381865afa158015610fe1573d6000803e3d6000fd5b505050506040513d601f19601f820116820180604052508101906110059190615888565b8161101091906158e4565b90506110648561010060008573ffffffffffffffffffffffffffffffffffffffff1673ffffffffffffffffffffffffffffffffffffffff1681526020019081526020016000206133f090919063ffffffff16565b6110745760009350505050611244565b600060fe60008473ffffffffffffffffffffffffffffffffffffffff1673ffffffffffffffffffffffffffffffffffffffff16815260200190815260200160002060008773ffffffffffffffffffffffffffffffffffffffff1673ffffffffffffffffffffffffffffffffffffffff1681526020019081526020016000206040518060400160405290816000820154815260200160018201548152505090506000816000015190508160200151421180156111705750600061010260008673ffffffffffffffffffffffffffffffffffffffff1673ffffffffffffffffffffffffffffffffffffffff1681526020019081526020016000205414155b156111825761117f84886125a3565b90505b8460010160008873ffffffffffffffffffffffffffffffffffffffff1673ffffffffffffffffffffffffffffffffffffffff168152602001908152602001600020600101548560010160008973ffffffffffffffffffffffffffffffffffffffff1673ffffffffffffffffffffffffffffffffffffffff1681526020019081526020016000206000015464e8d4a51000838661121e9190615915565b61122891906158e4565b61123291906156d9565b61123c919061596f565b955050505050505b92915050565b6000603360009054906101000a900473ffffffffffffffffffffffffffffffffffffffff1673ffffffffffffffffffffffffffffffffffffffff168273ffffffffffffffffffffffffffffffffffffffff16149050919050565b6000609760009054906101000a900460ff16905090565b60fc60009054906101000a900473ffffffffffffffffffffffffffffffffffffffff1681565b6101026020528060005260406000206000915090505481565b611302612b41565b600260ca5403611347576040517f08c379a000000000000000000000000000000000000000000000000000000000815260040161133e9061568a565b60405180910390fd5b600260ca819055506000611359610875565b9050600073ffffffffffffffffffffffffffffffffffffffff168273ffffffffffffffffffffffffffffffffffffffff16036113ca576040517f08c379a00000000000000000000000000000000000000000000000000000000081526004016113c190615a11565b60405180910390fd5b60fc60009054906101000a900473ffffffffffffffffffffffffffffffffffffffff1673ffffffffffffffffffffffffffffffffffffffff1663e985e9c582306040518363ffffffff1660e01b8152600401611427929190615a31565b602060405180830381865afa158015611444573d6000803e3d6000fd5b505050506040513d601f19601f820116820180604052508101906114689190615a86565b8061153957503073ffffffffffffffffffffffffffffffffffffffff1660fc60009054906101000a900473ffffffffffffffffffffffffffffffffffffffff1673ffffffffffffffffffffffffffffffffffffffff1663081812fc856040518263ffffffff1660e01b81526004016114e09190614c3b565b602060405180830381865afa1580156114fd573d6000803e3d6000fd5b505050506040513d601f19601f820116820180604052508101906115219190615ab3565b73ffffffffffffffffffffffffffffffffffffffff16145b611578576040517f08c379a000000000000000000000000000000000000000000000000000000000815260040161156f90615b2c565b60405180910390fd5b600060ff600085815260200190815260200160002090508060000160149054906101000a900460ff16156115e1576040517f08c379a00000000000000000000000000000000000000000000000000000000081526004016115d890615b98565b60405180910390fd5b60018160000160146101000a81548160ff021916908315150217905550828160000160006101000a81548173ffffffffffffffffffffffffffffffffffffffff021916908373ffffffffffffffffffffffffffffffffffffffff16021790555060008060fc60009054906101000a900473ffffffffffffffffffffffffffffffffffffffff1673ffffffffffffffffffffffffffffffffffffffff16636914db60876040518263ffffffff1660e01b815260040161169f9190614c3b565b606060405180830381865afa1580156116bc573d6000803e3d6000fd5b505050506040513d601f19601f820116820180604052508101906116e09190615835565b925050915060fd60009054906101000a900473ffffffffffffffffffffffffffffffffffffffff1673ffffffffffffffffffffffffffffffffffffffff16633ed771146040518163ffffffff1660e01b8152600401602060405180830381865afa158015611752573d6000803e3d6000fd5b505050506040513d601f19601f820116820180604052508101906117769190615888565b8161178191906158e4565b905060fc60009054906101000a900473ffffffffffffffffffffffffffffffffffffffff1673ffffffffffffffffffffffffffffffffffffffff166342842e0e8530896040518463ffffffff1660e01b81526004016117e293929190615bb8565b600060405180830381600087803b1580156117fc57600080fd5b505af1158015611810573d6000803e3d6000fd5b50505050600061185e61010060008573ffffffffffffffffffffffffffffffffffffffff1673ffffffffffffffffffffffffffffffffffffffff168152602001908152602001600020612b12565b9050600081036118a3576040517f08c379a000000000000000000000000000000000000000000000000000000000815260040161189a90615c3b565b60405180910390fd5b60005b818110156119875760006119028261010060008873ffffffffffffffffffffffffffffffffffffffff1673ffffffffffffffffffffffffffffffffffffffff168152602001908152602001600020612b2790919063ffffffff16565b905060006119108683613420565b905064e8d4a510008160000151866119289190615915565b61193291906158e4565b8760010160008473ffffffffffffffffffffffffffffffffffffffff1673ffffffffffffffffffffffffffffffffffffffff1681526020019081526020016000206000018190555082600101925050506118a6565b5061010160008773ffffffffffffffffffffffffffffffffffffffff1673ffffffffffffffffffffffffffffffffffffffff1681526020019081526020016000208790806001815401808255809150506001900390600052602060002001600090919091909150558161010260008573ffffffffffffffffffffffffffffffffffffffff1673ffffffffffffffffffffffffffffffffffffffff1681526020019081526020016000206000828254611a3f919061596f565b925050819055508273ffffffffffffffffffffffffffffffffffffffff168573ffffffffffffffffffffffffffffffffffffffff167f5c8d1f77b6233deba47b516a690497af4c7f1be42a768e331832cb02b3400d6b89604051611aa39190614c3b565b60405180910390a35050505050600160ca819055505050565b611ac533610e3e565b611b04576040517f08c379a0000000000000000000000000000000000000000000000000000000008152600401611afb906157eb565b60405180910390fd5b611b0c612b41565b600073ffffffffffffffffffffffffffffffffffffffff1660c960009054906101000a900473ffffffffffffffffffffffffffffffffffffffff1673ffffffffffffffffffffffffffffffffffffffff167f95bb211a5a393c4d30c3edc9a745825fba4e6ad3e3bb949e6bf8ccdfe431a81160405160405180910390a3600060c960006101000a81548173ffffffffffffffffffffffffffffffffffffffff021916908373ffffffffffffffffffffffffffffffffffffffff160217905550565b611bd5613668565b611bdf60006136e6565b565b611be9613668565b701d6329f1c35ca4bfabb9f5610000000000811115611c3d576040517f08c379a0000000000000000000000000000000000000000000000000000000008152600401611c3490615ca7565b60405180910390fd5b600073ffffffffffffffffffffffffffffffffffffffff168373ffffffffffffffffffffffffffffffffffffffff1603611cac576040517f08c379a0000000000000000000000000000000000000000000000000000000008152600401611ca390615d13565b60405180910390fd5b600073ffffffffffffffffffffffffffffffffffffffff168273ffffffffffffffffffffffffffffffffffffffff1603611d1b576040517f08c379a0000000000000000000000000000000000000000000000000000000008152600401611d1290615d7f565b60405180910390fd5b611d6d8261010060008673ffffffffffffffffffffffffffffffffffffffff1673ffffffffffffffffffffffffffffffffffffffff1681526020019081526020016000206133f090919063ffffffff16565b611dc557611dc38261010060008673ffffffffffffffffffffffffffffffffffffffff1673ffffffffffffffffffffffffffffffffffffffff1681526020019081526020016000206137ac90919063ffffffff16565b505b61010360008473ffffffffffffffffffffffffffffffffffffffff1673ffffffffffffffffffffffffffffffffffffffff16815260200190815260200160002060008373ffffffffffffffffffffffffffffffffffffffff1673ffffffffffffffffffffffffffffffffffffffff168152602001908152602001600020604051806040016040528083815260200142815250908060018154018082558091505060019003906000526020600020906002020160009091909190915060008201518160000155602082015181600101555050808273ffffffffffffffffffffffffffffffffffffffff168473ffffffffffffffffffffffffffffffffffffffff167f055cc3df619cad57b808c270596bb82b5cf162f9cf6da0b454825a665469b4bb60405160405180910390a4505050565b611eff33610e3e565b611f3e576040517f08c379a0000000000000000000000000000000000000000000000000000000008152600401611f35906157eb565b60405180910390fd5b611f466137dc565b565b6000606560009054906101000a900473ffffffffffffffffffffffffffffffffffffffff16905090565b611f7a612b41565b600260ca5403611fbf576040517f08c379a0000000000000000000000000000000000000000000000000000000008152600401611fb69061568a565b60405180910390fd5b600260ca81905550611fcf610875565b73ffffffffffffffffffffffffffffffffffffffff1660ff600086815260200190815260200160002060000160009054906101000a900473ffffffffffffffffffffffffffffffffffffffff1673ffffffffffffffffffffffffffffffffffffffff1614612072576040517f08c379a000000000000000000000000000000000000000000000000000000000815260040161206990615deb565b60405180910390fd5b6000838390509050600081116120bd576040517f08c379a00000000000000000000000000000000000000000000000000000000081526004016120b490615e57565b60405180910390fd5b60005b8181101561210b5760008585838181106120dd576120dc6155fe565b5b90506020020160208101906120f29190614cbe565b90506120ff87828661383f565b816001019150506120c0565b5050600160ca8190555050505050565b60fd60009054906101000a900473ffffffffffffffffffffffffffffffffffffffff1681565b612149613668565b600073ffffffffffffffffffffffffffffffffffffffff168173ffffffffffffffffffffffffffffffffffffffff16036121b8576040517f08c379a00000000000000000000000000000000000000000000000000000000081526004016121af90615a11565b60405180910390fd5b600082036121fb576040517f08c379a00000000000000000000000000000000000000000000000000000000081526004016121f290615ec3565b60405180910390fd5b73eeeeeeeeeeeeeeeeeeeeeeeeeeeeeeeeeeeeeeee73ffffffffffffffffffffffffffffffffffffffff168373ffffffffffffffffffffffffffffffffffffffff16036122f45760008173ffffffffffffffffffffffffffffffffffffffff168360405161226890615f14565b60006040518083038185875af1925050503d80600081146122a5576040519150601f19603f3d011682016040523d82523d6000602084013e6122aa565b606091505b50509050806122ee576040517f08c379a00000000000000000000000000000000000000000000000000000000081526004016122e590615f75565b60405180910390fd5b50612320565b61231f81838573ffffffffffffffffffffffffffffffffffffffff16613e6b9092919063ffffffff16565b5b505050565b610101602052816000526040600020818154811061234257600080fd5b90600052602060002001600091509150505481565b61235f613668565b600073ffffffffffffffffffffffffffffffffffffffff168173ffffffffffffffffffffffffffffffffffffffff16036123ce576040517f08c379a00000000000000000000000000000000000000000000000000000000081526004016123c590615fe1565b60405180910390fd5b8060fd60006101000a81548173ffffffffffffffffffffffffffffffffffffffff021916908373ffffffffffffffffffffffffffffffffffffffff16021790555060fd60009054906101000a900473ffffffffffffffffffffffffffffffffffffffff1673ffffffffffffffffffffffffffffffffffffffff167fc4c228afa62bc2b81cbfa4764a417d7a0cb5267d32f5e3e34b34e35f44aa1ff360405160405180910390a250565b606061010160008373ffffffffffffffffffffffffffffffffffffffff1673ffffffffffffffffffffffffffffffffffffffff16815260200190815260200160002080548060200260200160405190810160405280929190818152602001828054801561250357602002820191906000526020600020905b8154815260200190600101908083116124ef575b50505050509050919050565b612517613668565b61252081613ef1565b50565b60fe602052816000526040600020602052806000526040600020600091509150508060000154908060010154905082565b610103602052826000526040600020602052816000526040600020818154811061257d57600080fd5b906000526020600020906002020160009250925050508060000154908060010154905082565b60008060fe60008573ffffffffffffffffffffffffffffffffffffffff1673ffffffffffffffffffffffffffffffffffffffff16815260200190815260200160002060008473ffffffffffffffffffffffffffffffffffffffff1673ffffffffffffffffffffffffffffffffffffffff168152602001908152602001600020604051806040016040529081600082015481526020016001820154815250509050600061010360008673ffffffffffffffffffffffffffffffffffffffff1673ffffffffffffffffffffffffffffffffffffffff16815260200190815260200160002060008573ffffffffffffffffffffffffffffffffffffffff1673ffffffffffffffffffffffffffffffffffffffff168152602001908152602001600020805480602002602001604051908101604052809291908181526020016000905b82821015612728578382906000526020600020906002020160405180604001604052908160008201548152602001600182015481525050815260200190600101906126e2565b5050505090506000815111612772576040517f08c379a00000000000000000000000000000000000000000000000000000000081526004016127699061604d565b60405180910390fd5b60008083602001519050600042905060006001855161279191906156d9565b90505b60011561280357818310156128035760008582815181106127b8576127b76155fe565b5b602002602001015190506127d0848260200151613fe7565b83038160000151028501945080602001519250600082036127f15750612803565b816127fb9061606d565b915050612794565b61010260008a73ffffffffffffffffffffffffffffffffffffffff1673ffffffffffffffffffffffffffffffffffffffff1681526020019081526020016000205464e8d4a51000856128559190615915565b61285f91906158e4565b9350856000015184612871919061596f565b965050505050505092915050565b612887613668565b600073ffffffffffffffffffffffffffffffffffffffff168173ffffffffffffffffffffffffffffffffffffffff16036128f6576040517f08c379a00000000000000000000000000000000000000000000000000000000081526004016128ed90616108565b60405180910390fd5b6128ff816136e6565b50565b60008060019054906101000a900460ff161590508080156129335750600160008054906101000a900460ff1660ff16105b80612960575061294230614001565b15801561295f5750600160008054906101000a900460ff1660ff16145b5b61299f576040517f08c379a00000000000000000000000000000000000000000000000000000000081526004016129969061619a565b60405180910390fd5b60016000806101000a81548160ff021916908360ff16021790555080156129dc576001600060016101000a81548160ff0219169083151502179055505b6129e585614024565b6129ed61416c565b6129f6846141c5565b6129fe6143b4565b8260fd60006101000a81548173ffffffffffffffffffffffffffffffffffffffff021916908373ffffffffffffffffffffffffffffffffffffffff1602179055508160fc60006101000a81548173ffffffffffffffffffffffffffffffffffffffff021916908373ffffffffffffffffffffffffffffffffffffffff1602179055508015612ad95760008060016101000a81548160ff0219169083151502179055507f7f26b83ff96e1f2b6a682f133852f6798a09c465da95921460cefb38474024986001604051612ad09190616202565b60405180910390a15b5050505050565b6000612aeb3361124a565b15612aff57601436033560601c9050612b0e565b612b0761440d565b9050612b0f565b5b90565b6000612b2082600001614415565b9050919050565b6000612b368360000183614426565b60001c905092915050565b612b496112a4565b15612b89576040517f08c379a0000000000000000000000000000000000000000000000000000000008152600401612b8090616269565b60405180910390fd5b565b6000612b95610875565b90508361010160008373ffffffffffffffffffffffffffffffffffffffff1673ffffffffffffffffffffffffffffffffffffffff1681526020019081526020016000208381548110612bea57612be96155fe565b5b906000526020600020015414612c35576040517f08c379a0000000000000000000000000000000000000000000000000000000008152600401612c2c90615deb565b60405180910390fd5b8073ffffffffffffffffffffffffffffffffffffffff1660ff600086815260200190815260200160002060000160009054906101000a900473ffffffffffffffffffffffffffffffffffffffff1673ffffffffffffffffffffffffffffffffffffffff1614612cd9576040517f08c379a0000000000000000000000000000000000000000000000000000000008152600401612cd090615deb565b60405180910390fd5b61010160008273ffffffffffffffffffffffffffffffffffffffff1673ffffffffffffffffffffffffffffffffffffffff168152602001908152602001600020600161010160008473ffffffffffffffffffffffffffffffffffffffff1673ffffffffffffffffffffffffffffffffffffffff16815260200190815260200160002080549050612d6991906156d9565b81548110612d7a57612d796155fe565b5b906000526020600020015461010160008373ffffffffffffffffffffffffffffffffffffffff1673ffffffffffffffffffffffffffffffffffffffff1681526020019081526020016000208381548110612dd757612dd66155fe565b5b906000526020600020018190555061010160008273ffffffffffffffffffffffffffffffffffffffff1673ffffffffffffffffffffffffffffffffffffffff168152602001908152602001600020805480612e3557612e34616289565b5b6001900381819060005260206000200160009055905560008060fc60009054906101000a900473ffffffffffffffffffffffffffffffffffffffff1673ffffffffffffffffffffffffffffffffffffffff16636914db60876040518263ffffffff1660e01b8152600401612ea99190614c3b565b606060405180830381865afa158015612ec6573d6000803e3d6000fd5b505050506040513d601f19601f82011682018060405250810190612eea9190615835565b92505091506000612f3961010060008573ffffffffffffffffffffffffffffffffffffffff1673ffffffffffffffffffffffffffffffffffffffff168152602001908152602001600020612b12565b905060005b8181101561304c576000612f9a8261010060008873ffffffffffffffffffffffffffffffffffffffff1673ffffffffffffffffffffffffffffffffffffffff168152602001908152602001600020612b2790919063ffffffff16565b9050612fa789828a61383f565b600060ff60008b815260200190815260200160002060010160008373ffffffffffffffffffffffffffffffffffffffff1673ffffffffffffffffffffffffffffffffffffffff1681526020019081526020016000206001015414613040576040517f08c379a000000000000000000000000000000000000000000000000000000000815260040161303790616304565b60405180910390fd5b81600101915050612f3e565b5060ff6000888152602001908152602001600020600080820160006101000a81549073ffffffffffffffffffffffffffffffffffffffff02191690556000820160146101000a81549060ff0219169055505060fd60009054906101000a900473ffffffffffffffffffffffffffffffffffffffff1673ffffffffffffffffffffffffffffffffffffffff16633ed771146040518163ffffffff1660e01b8152600401602060405180830381865afa15801561310b573d6000803e3d6000fd5b505050506040513d601f19601f8201168201806040525081019061312f9190615888565b8261313a91906158e4565b91508161010260008573ffffffffffffffffffffffffffffffffffffffff1673ffffffffffffffffffffffffffffffffffffffff168152602001908152602001600020600082825461318c91906156d9565b9250508190555060fc60009054906101000a900473ffffffffffffffffffffffffffffffffffffffff1673ffffffffffffffffffffffffffffffffffffffff166342842e0e30868a6040518463ffffffff1660e01b81526004016131f293929190615bb8565b600060405180830381600087803b15801561320c57600080fd5b505af1158015613220573d6000803e3d6000fd5b505050508573ffffffffffffffffffffffffffffffffffffffff168473ffffffffffffffffffffffffffffffffffffffff167f48ce91f1a4c01bb1d97a89b885877d2c4654fd733041b4ea000924fb306a8038858a604051613283929190616324565b60405180910390a350505050505050565b600073ffffffffffffffffffffffffffffffffffffffff168173ffffffffffffffffffffffffffffffffffffffff16036132cd57600080fd5b8073ffffffffffffffffffffffffffffffffffffffff1660c960009054906101000a900473ffffffffffffffffffffffffffffffffffffffff1673ffffffffffffffffffffffffffffffffffffffff167f95bb211a5a393c4d30c3edc9a745825fba4e6ad3e3bb949e6bf8ccdfe431a81160405160405180910390a38060c960006101000a81548173ffffffffffffffffffffffffffffffffffffffff021916908373ffffffffffffffffffffffffffffffffffffffff16021790555050565b613395614451565b6000609760006101000a81548160ff0219169083151502179055507f5db9ee0a495bf2e6ff9c91a7834c1ba4fdd244a5e8aa4e537bd38aeae4b073aa6133d9610875565b6040516133e69190615242565b60405180910390a1565b6000613418836000018373ffffffffffffffffffffffffffffffffffffffff1660001b61449a565b905092915050565b613428614c08565b613430612b41565b60fe60008473ffffffffffffffffffffffffffffffffffffffff1673ffffffffffffffffffffffffffffffffffffffff16815260200190815260200160002060008373ffffffffffffffffffffffffffffffffffffffff1673ffffffffffffffffffffffffffffffffffffffff168152602001908152602001600020604051806040016040529081600082015481526020016001820154815250509050600061010260008573ffffffffffffffffffffffffffffffffffffffff1673ffffffffffffffffffffffffffffffffffffffff16815260200190815260200160002054111561352a5761352083836125a3565b8160000181815250505b428160200181815250508060fe60008573ffffffffffffffffffffffffffffffffffffffff1673ffffffffffffffffffffffffffffffffffffffff16815260200190815260200160002060008473ffffffffffffffffffffffffffffffffffffffff1673ffffffffffffffffffffffffffffffffffffffff16815260200190815260200160002060008201518160000155602082015181600101559050508273ffffffffffffffffffffffffffffffffffffffff167ffa4534c55db3b65cd96eafe03e5ce9fd87638590f49d5907978ff8489ea66ecb826020015161010260008773ffffffffffffffffffffffffffffffffffffffff1673ffffffffffffffffffffffffffffffffffffffff16815260200190815260200160002054846000015160405161365a9392919061634d565b60405180910390a292915050565b613670610875565b73ffffffffffffffffffffffffffffffffffffffff1661368e611f48565b73ffffffffffffffffffffffffffffffffffffffff16146136e4576040517f08c379a00000000000000000000000000000000000000000000000000000000081526004016136db906163d0565b60405180910390fd5b565b6000606560009054906101000a900473ffffffffffffffffffffffffffffffffffffffff16905081606560006101000a81548173ffffffffffffffffffffffffffffffffffffffff021916908373ffffffffffffffffffffffffffffffffffffffff1602179055508173ffffffffffffffffffffffffffffffffffffffff168173ffffffffffffffffffffffffffffffffffffffff167f8be0079c531659141344cd1fd0a4f28419497f9722a3daafe3b4186f6b6457e060405160405180910390a35050565b60006137d4836000018373ffffffffffffffffffffffffffffffffffffffff1660001b6144bd565b905092915050565b6137e4612b41565b6001609760006101000a81548160ff0219169083151502179055507f62e78cea01bee320cd4e420270b5ea74000d11b0c9f74754ebdbfc544b05a258613828610875565b6040516138359190615242565b60405180910390a1565b600060ff600085815260200190815260200160002090508060000160149054906101000a900460ff166138a7576040517f08c379a000000000000000000000000000000000000000000000000000000000815260040161389e90615759565b60405180910390fd5b60008060fc60009054906101000a900473ffffffffffffffffffffffffffffffffffffffff1673ffffffffffffffffffffffffffffffffffffffff16636914db60876040518263ffffffff1660e01b81526004016139059190614c3b565b606060405180830381865afa158015613922573d6000803e3d6000fd5b505050506040513d601f19601f820116820180604052508101906139469190615835565b925050915060fd60009054906101000a900473ffffffffffffffffffffffffffffffffffffffff1673ffffffffffffffffffffffffffffffffffffffff16633ed771146040518163ffffffff1660e01b8152600401602060405180830381865afa1580156139b8573d6000803e3d6000fd5b505050506040513d601f19601f820116820180604052508101906139dc9190615888565b816139e791906158e4565b9050613a3b8561010060008573ffffffffffffffffffffffffffffffffffffffff1673ffffffffffffffffffffffffffffffffffffffff1681526020019081526020016000206133f090919063ffffffff16565b613a7a576040517f08c379a0000000000000000000000000000000000000000000000000000000008152600401613a719061643c565b60405180910390fd5b6000613a868387613420565b905060008060008660010160008a73ffffffffffffffffffffffffffffffffffffffff1673ffffffffffffffffffffffffffffffffffffffff16815260200190815260200160002090506000851115613db2578060010154816000015464e8d4a51000866000015188613af99190615915565b613b0391906158e4565b613b0d91906156d9565b613b17919061596f565b925073eeeeeeeeeeeeeeeeeeeeeeeeeeeeeeeeeeeeeeee73ffffffffffffffffffffffffffffffffffffffff168973ffffffffffffffffffffffffffffffffffffffff1603613cee57600047905080841115613c2d57808403826001018190555060008973ffffffffffffffffffffffffffffffffffffffff1682604051613b9e90615f14565b60006040518083038185875af1925050503d8060008114613bdb576040519150601f19603f3d011682016040523d82523d6000602084013e613be0565b606091505b5050905080613c24576040517f08c379a0000000000000000000000000000000000000000000000000000000008152600401613c1b90615f75565b60405180910390fd5b81935050613ce8565b6000826001018190555060008973ffffffffffffffffffffffffffffffffffffffff1685604051613c5d90615f14565b60006040518083038185875af1925050503d8060008114613c9a576040519150601f19603f3d011682016040523d82523d6000602084013e613c9f565b606091505b5050905080613ce3576040517f08c379a0000000000000000000000000000000000000000000000000000000008152600401613cda90615f75565b60405180910390fd5b849350505b50613db1565b600089905060008173ffffffffffffffffffffffffffffffffffffffff166370a08231306040518263ffffffff1660e01b8152600401613d2e9190615242565b602060405180830381865afa158015613d4b573d6000803e3d6000fd5b505050506040513d601f19601f82011682018060405250810190613d6f9190615888565b905080851115613d96578085038360010181905550613d8f82828c61452d565b9350613dae565b60008360010181905550613dab82868c61452d565b93505b50505b5b64e8d4a51000846000015186613dc89190615915565b613dd291906158e4565b81600001819055508873ffffffffffffffffffffffffffffffffffffffff168673ffffffffffffffffffffffffffffffffffffffff16613e10610875565b73ffffffffffffffffffffffffffffffffffffffff167f7fdaa69a813b8ca29d9805c601a1d87c54b327a216411209f1fe6213320c7031858c604051613e5792919061647d565b60405180910390a450505050505050505050565b613eec8363a9059cbb60e01b8484604051602401613e8a929190616324565b604051602081830303815290604052907bffffffffffffffffffffffffffffffffffffffffffffffffffffffff19166020820180517bffffffffffffffffffffffffffffffffffffffffffffffffffffffff8381831617835250505050614666565b505050565b600073ffffffffffffffffffffffffffffffffffffffff168173ffffffffffffffffffffffffffffffffffffffff1603613f60576040517f08c379a0000000000000000000000000000000000000000000000000000000008152600401613f57906164f2565b60405180910390fd5b80603360006101000a81548173ffffffffffffffffffffffffffffffffffffffff021916908373ffffffffffffffffffffffffffffffffffffffff1602179055508073ffffffffffffffffffffffffffffffffffffffff167f871264f4293af7d2865ae7eae628b228f4991c57cb45b39c99f0b774ebe2901860405160405180910390a250565b600081831015613ff75781613ff9565b825b905092915050565b6000808273ffffffffffffffffffffffffffffffffffffffff163b119050919050565b60008060019054906101000a900460ff161590508080156140555750600160008054906101000a900460ff1660ff16105b80614082575061406430614001565b1580156140815750600160008054906101000a900460ff1660ff16145b5b6140c1576040517f08c379a00000000000000000000000000000000000000000000000000000000081526004016140b89061619a565b60405180910390fd5b60016000806101000a81548160ff021916908360ff16021790555080156140fe576001600060016101000a81548160ff0219169083151502179055505b61410661472d565b61410f8261477e565b80156141685760008060016101000a81548160ff0219169083151502179055507f7f26b83ff96e1f2b6a682f133852f6798a09c465da95921460cefb3847402498600160405161415f9190616202565b60405180910390a15b5050565b600060019054906101000a900460ff166141bb576040517f08c379a00000000000000000000000000000000000000000000000000000000081526004016141b290616584565b60405180910390fd5b6141c36148f6565b565b60008060019054906101000a900460ff161590508080156141f65750600160008054906101000a900460ff1660ff16105b80614223575061420530614001565b1580156142225750600160008054906101000a900460ff1660ff16145b5b614262576040517f08c379a00000000000000000000000000000000000000000000000000000000081526004016142599061619a565b60405180910390fd5b60016000806101000a81548160ff021916908360ff160217905550801561429f576001600060016101000a81548160ff0219169083151502179055505b600073ffffffffffffffffffffffffffffffffffffffff168273ffffffffffffffffffffffffffffffffffffffff160361430e576040517f08c379a0000000000000000000000000000000000000000000000000000000008152600401614305906165f0565b60405180910390fd5b614316614957565b8160c960006101000a81548173ffffffffffffffffffffffffffffffffffffffff021916908373ffffffffffffffffffffffffffffffffffffffff16021790555080156143b05760008060016101000a81548160ff0219169083151502179055507f7f26b83ff96e1f2b6a682f133852f6798a09c465da95921460cefb384740249860016040516143a79190616202565b60405180910390a15b5050565b600060019054906101000a900460ff16614403576040517f08c379a00000000000000000000000000000000000000000000000000000000081526004016143fa90616584565b60405180910390fd5b61440b6149b0565b565b600033905090565b600081600001805490509050919050565b600082600001828154811061443e5761443d6155fe565b5b9060005260206000200154905092915050565b6144596112a4565b614498576040517f08c379a000000000000000000000000000000000000000000000000000000000815260040161448f9061665c565b60405180910390fd5b565b600080836001016000848152602001908152602001600020541415905092915050565b60006144c9838361449a565b614522578260000182908060018154018082558091505060019003906000526020600020016000909190919091505582600001805490508360010160008481526020019081526020016000208190555060019050614527565b600090505b92915050565b6000808473ffffffffffffffffffffffffffffffffffffffff166370a08231306040518263ffffffff1660e01b81526004016145699190615242565b602060405180830381865afa158015614586573d6000803e3d6000fd5b505050506040513d601f19601f820116820180604052508101906145aa9190615888565b90506145d783858773ffffffffffffffffffffffffffffffffffffffff16613e6b9092919063ffffffff16565b8473ffffffffffffffffffffffffffffffffffffffff166370a08231306040518263ffffffff1660e01b81526004016146109190615242565b602060405180830381865afa15801561462d573d6000803e3d6000fd5b505050506040513d601f19601f820116820180604052508101906146519190615888565b8161465c91906156d9565b9150509392505050565b60006146c8826040518060400160405280602081526020017f5361666545524332303a206c6f772d6c6576656c2063616c6c206661696c65648152508573ffffffffffffffffffffffffffffffffffffffff16614a099092919063ffffffff16565b905060008151111561472857808060200190518101906146e89190615a86565b614727576040517f08c379a000000000000000000000000000000000000000000000000000000000815260040161471e906166ee565b60405180910390fd5b5b505050565b600060019054906101000a900460ff1661477c576040517f08c379a000000000000000000000000000000000000000000000000000000000815260040161477390616584565b60405180910390fd5b565b60008060019054906101000a900460ff161590508080156147af5750600160008054906101000a900460ff1660ff16105b806147dc57506147be30614001565b1580156147db5750600160008054906101000a900460ff1660ff16145b5b61481b576040517f08c379a00000000000000000000000000000000000000000000000000000000081526004016148129061619a565b60405180910390fd5b60016000806101000a81548160ff021916908360ff1602179055508015614858576001600060016101000a81548160ff0219169083151502179055505b81603360006101000a81548173ffffffffffffffffffffffffffffffffffffffff021916908373ffffffffffffffffffffffffffffffffffffffff16021790555080156148f25760008060016101000a81548160ff0219169083151502179055507f7f26b83ff96e1f2b6a682f133852f6798a09c465da95921460cefb384740249860016040516148e99190616202565b60405180910390a15b5050565b600060019054906101000a900460ff16614945576040517f08c379a000000000000000000000000000000000000000000000000000000000815260040161493c90616584565b60405180910390fd5b614955614950610875565b6136e6565b565b600060019054906101000a900460ff166149a6576040517f08c379a000000000000000000000000000000000000000000000000000000000815260040161499d90616584565b60405180910390fd5b6149ae614a21565b565b600060019054906101000a900460ff166149ff576040517f08c379a00000000000000000000000000000000000000000000000000000000081526004016149f690616584565b60405180910390fd5b600160ca81905550565b6060614a188484600085614a8d565b90509392505050565b600060019054906101000a900460ff16614a70576040517f08c379a0000000000000000000000000000000000000000000000000000000008152600401614a6790616584565b60405180910390fd5b6000609760006101000a81548160ff021916908315150217905550565b606082471015614ad2576040517f08c379a0000000000000000000000000000000000000000000000000000000008152600401614ac990616780565b60405180910390fd5b614adb85614001565b614b1a576040517f08c379a0000000000000000000000000000000000000000000000000000000008152600401614b11906167ec565b60405180910390fd5b6000808673ffffffffffffffffffffffffffffffffffffffff168587604051614b43919061687b565b60006040518083038185875af1925050503d8060008114614b80576040519150601f19603f3d011682016040523d82523d6000602084013e614b85565b606091505b5091509150614b95828286614ba1565b92505050949350505050565b60608315614bb157829050614c01565b600083511115614bc45782518084602001fd5b816040517f08c379a0000000000000000000000000000000000000000000000000000000008152600401614bf891906168e7565b60405180910390fd5b9392505050565b604051806040016040528060008152602001600081525090565b6000819050919050565b614c3581614c22565b82525050565b6000602082019050614c506000830184614c2c565b92915050565b600080fd5b600080fd5b600073ffffffffffffffffffffffffffffffffffffffff82169050919050565b6000614c8b82614c60565b9050919050565b614c9b81614c80565b8114614ca657600080fd5b50565b600081359050614cb881614c92565b92915050565b600060208284031215614cd457614cd3614c56565b5b6000614ce284828501614ca9565b91505092915050565b600081519050919050565b600082825260208201905092915050565b6000819050602082019050919050565b614d2081614c80565b82525050565b6000614d328383614d17565b60208301905092915050565b6000602082019050919050565b6000614d5682614ceb565b614d608185614cf6565b9350614d6b83614d07565b8060005b83811015614d9c578151614d838882614d26565b9750614d8e83614d3e565b925050600181019050614d6f565b5085935050505092915050565b60006020820190508181036000830152614dc38184614d4b565b905092915050565b614dd481614c22565b8114614ddf57600080fd5b50565b600081359050614df181614dcb565b92915050565b6000614e0282614c60565b9050919050565b614e1281614df7565b8114614e1d57600080fd5b50565b600081359050614e2f81614e09565b92915050565b60008060408385031215614e4c57614e4b614c56565b5b6000614e5a85828601614de2565b9250506020614e6b85828601614e20565b9150509250929050565b60008060408385031215614e8c57614e8b614c56565b5b6000614e9a85828601614ca9565b9250506020614eab85828601614ca9565b9150509250929050565b600080fd5b600080fd5b600080fd5b60008083601f840112614eda57614ed9614eb5565b5b8235905067ffffffffffffffff811115614ef757614ef6614eba565b5b602083019150836001820283011115614f1357614f12614ebf565b5b9250929050565b600080600080600060808688031215614f3657614f35614c56565b5b6000614f4488828901614ca9565b9550506020614f5588828901614ca9565b9450506040614f6688828901614de2565b935050606086013567ffffffffffffffff811115614f8757614f86614c5b565b5b614f9388828901614ec4565b92509250509295509295909350565b60007fffffffff0000000000000000000000000000000000000000000000000000000082169050919050565b614fd781614fa2565b82525050565b6000602082019050614ff26000830184614fce565b92915050565b60006020828403121561500e5761500d614c56565b5b600061501c84828501614de2565b91505092915050565b61502e81614df7565b82525050565b60008115159050919050565b61504981615034565b82525050565b60006040820190506150646000830185615025565b6150716020830184615040565b9392505050565b6000806040838503121561508f5761508e614c56565b5b600061509d85828601614ca9565b92505060206150ae85828601614de2565b9150509250929050565b6000806000606084860312156150d1576150d0614c56565b5b60006150df86828701614de2565b93505060206150f086828701614e20565b925050604061510186828701614de2565b9150509250925092565b60006020820190506151206000830184615040565b92915050565b6000806040838503121561513d5761513c614c56565b5b600061514b85828601614de2565b925050602061515c85828601614ca9565b9150509250929050565b6000819050919050565b600061518b61518661518184614c60565b615166565b614c60565b9050919050565b600061519d82615170565b9050919050565b60006151af82615192565b9050919050565b6151bf816151a4565b82525050565b60006020820190506151da60008301846151b6565b92915050565b6000806000606084860312156151f9576151f8614c56565b5b600061520786828701614ca9565b935050602061521886828701614ca9565b925050604061522986828701614de2565b9150509250925092565b61523c81614c80565b82525050565b60006020820190506152576000830184615233565b92915050565b60008083601f84011261527357615272614eb5565b5b8235905067ffffffffffffffff8111156152905761528f614eba565b5b6020830191508360208202830111156152ac576152ab614ebf565b5b9250929050565b600080600080606085870312156152cd576152cc614c56565b5b60006152db87828801614de2565b945050602085013567ffffffffffffffff8111156152fc576152fb614c5b565b5b6153088782880161525d565b9350935050604061531b87828801614e20565b91505092959194509250565b600061533282615192565b9050919050565b61534281615327565b82525050565b600060208201905061535d6000830184615339565b92915050565b60008060006060848603121561537c5761537b614c56565b5b600061538a86828701614ca9565b935050602061539b86828701614de2565b92505060406153ac86828701614e20565b9150509250925092565b60006153c182614c80565b9050919050565b6153d1816153b6565b81146153dc57600080fd5b50565b6000813590506153ee816153c8565b92915050565b60006020828403121561540a57615409614c56565b5b6000615418848285016153df565b91505092915050565b600081519050919050565b600082825260208201905092915050565b6000819050602082019050919050565b61545681614c22565b82525050565b6000615468838361544d565b60208301905092915050565b6000602082019050919050565b600061548c82615421565b615496818561542c565b93506154a18361543d565b8060005b838110156154d25781516154b9888261545c565b97506154c483615474565b9250506001810190506154a5565b5085935050505092915050565b600060208201905081810360008301526154f98184615481565b905092915050565b60006040820190506155166000830185614c2c565b6155236020830184614c2c565b9392505050565b600061553582614c80565b9050919050565b6155458161552a565b811461555057600080fd5b50565b6000813590506155628161553c565b92915050565b6000806000806080858703121561558257615581614c56565b5b600061559087828801614ca9565b94505060206155a187828801614ca9565b93505060406155b2878288016153df565b92505060606155c387828801615553565b91505092959194509250565b7f4e487b7100000000000000000000000000000000000000000000000000000000600052604160045260246000fd5b7f4e487b7100000000000000000000000000000000000000000000000000000000600052603260045260246000fd5b600082825260208201905092915050565b7f5265656e7472616e637947756172643a207265656e7472616e742063616c6c00600082015250565b6000615674601f8361562d565b915061567f8261563e565b602082019050919050565b600060208201905081810360008301526156a381615667565b9050919050565b7f4e487b7100000000000000000000000000000000000000000000000000000000600052601160045260246000fd5b60006156e482614c22565b91506156ef83614c22565b925082821015615702576157016156aa565b5b828203905092915050565b7f4552525f5f4e46545f4e4f545f5354414b454400000000000000000000000000600082015250565b600061574360138361562d565b915061574e8261570d565b602082019050919050565b6000602082019050818103600083015261577281615736565b9050919050565b7f4f6e6c792070617573657220697320616c6c6f77656420746f20706572666f7260008201527f6d2074686973206f7065726174696f6e00000000000000000000000000000000602082015250565b60006157d560308361562d565b91506157e082615779565b604082019050919050565b60006020820190508181036000830152615804816157c8565b9050919050565b60008151905061581a81614c92565b92915050565b60008151905061582f81614dcb565b92915050565b60008060006060848603121561584e5761584d614c56565b5b600061585c8682870161580b565b935050602061586d86828701615820565b925050604061587e86828701615820565b9150509250925092565b60006020828403121561589e5761589d614c56565b5b60006158ac84828501615820565b91505092915050565b7f4e487b7100000000000000000000000000000000000000000000000000000000600052601260045260246000fd5b60006158ef82614c22565b91506158fa83614c22565b92508261590a576159096158b5565b5b828204905092915050565b600061592082614c22565b915061592b83614c22565b9250817fffffffffffffffffffffffffffffffffffffffffffffffffffffffffffffffff0483118215151615615964576159636156aa565b5b828202905092915050565b600061597a82614c22565b915061598583614c22565b9250827fffffffffffffffffffffffffffffffffffffffffffffffffffffffffffffffff038211156159ba576159b96156aa565b5b828201905092915050565b7f4552525f5f544f5f49535f5a45524f0000000000000000000000000000000000600082015250565b60006159fb600f8361562d565b9150615a06826159c5565b602082019050919050565b60006020820190508181036000830152615a2a816159ee565b9050919050565b6000604082019050615a466000830185615233565b615a536020830184615233565b9392505050565b615a6381615034565b8114615a6e57600080fd5b50565b600081519050615a8081615a5a565b92915050565b600060208284031215615a9c57615a9b614c56565b5b6000615aaa84828501615a71565b91505092915050565b600060208284031215615ac957615ac8614c56565b5b6000615ad78482850161580b565b91505092915050565b7f4552525f5f4e4f545f415050524f564544000000000000000000000000000000600082015250565b6000615b1660118361562d565b9150615b2182615ae0565b602082019050919050565b60006020820190508181036000830152615b4581615b09565b9050919050565b7f4552525f5f4e46545f414c52454144595f5354414b4544000000000000000000600082015250565b6000615b8260178361562d565b9150615b8d82615b4c565b602082019050919050565b60006020820190508181036000830152615bb181615b75565b9050919050565b6000606082019050615bcd6000830186615233565b615bda6020830185615233565b615be76040830184614c2c565b949350505050565b7f4552525f5f504f4f4c5f4e4f545f494e495449414c495a454400000000000000600082015250565b6000615c2560198361562d565b9150615c3082615bef565b602082019050919050565b60006020820190508181036000830152615c5481615c18565b9050919050565b7f4552525f5f5245574152445f5045525f5345434f4e445f544f4f5f4849474800600082015250565b6000615c91601f8361562d565b9150615c9c82615c5b565b602082019050919050565b60006020820190508181036000830152615cc081615c84565b9050919050565b7f4552525f5f424153455f544f4b454e5f49535f5a45524f000000000000000000600082015250565b6000615cfd60178361562d565b9150615d0882615cc7565b602082019050919050565b60006020820190508181036000830152615d2c81615cf0565b9050919050565b7f4552525f5245574152445f544f4b454e5f49535f5a45524f0000000000000000600082015250565b6000615d6960188361562d565b9150615d7482615d33565b602082019050919050565b60006020820190508181036000830152615d9881615d5c565b9050919050565b7f4552525f5f4e4f545f4f574e4552000000000000000000000000000000000000600082015250565b6000615dd5600e8361562d565b9150615de082615d9f565b602082019050919050565b60006020820190508181036000830152615e0481615dc8565b9050919050565b7f4552525f5f4e4f5f5245574152445f544f4b454e530000000000000000000000600082015250565b6000615e4160158361562d565b9150615e4c82615e0b565b602082019050919050565b60006020820190508181036000830152615e7081615e34565b9050919050565b7f4552525f5f414d4f554e545f49535f5a45524f00000000000000000000000000600082015250565b6000615ead60138361562d565b9150615eb882615e77565b602082019050919050565b60006020820190508181036000830152615edc81615ea0565b9050919050565b600081905092915050565b50565b6000615efe600083615ee3565b9150615f0982615eee565b600082019050919050565b6000615f1f82615ef1565b9150819050919050565b7f4552525f5f4e41544956455f5452414e534645525f4641494c45440000000000600082015250565b6000615f5f601b8361562d565b9150615f6a82615f29565b602082019050919050565b60006020820190508181036000830152615f8e81615f52565b9050919050565b7f4552525f5f4c49515549444954595f50524f56494445525f49535f5a45524f00600082015250565b6000615fcb601f8361562d565b9150615fd682615f95565b602082019050919050565b60006020820190508181036000830152615ffa81615fbe565b9050919050565b7f4552525f5f4e4f5f5245574152445f524154455f4c4f47530000000000000000600082015250565b600061603760188361562d565b915061604282616001565b602082019050919050565b600060208201905081810360008301526160668161602a565b9050919050565b600061607882614c22565b91506000820361608b5761608a6156aa565b5b600182039050919050565b7f4f776e61626c653a206e6577206f776e657220697320746865207a65726f206160008201527f6464726573730000000000000000000000000000000000000000000000000000602082015250565b60006160f260268361562d565b91506160fd82616096565b604082019050919050565b60006020820190508181036000830152616121816160e5565b9050919050565b7f496e697469616c697a61626c653a20636f6e747261637420697320616c72656160008201527f647920696e697469616c697a6564000000000000000000000000000000000000602082015250565b6000616184602e8361562d565b915061618f82616128565b604082019050919050565b600060208201905081810360008301526161b381616177565b9050919050565b6000819050919050565b600060ff82169050919050565b60006161ec6161e76161e2846161ba565b615166565b6161c4565b9050919050565b6161fc816161d1565b82525050565b600060208201905061621760008301846161f3565b92915050565b7f5061757361626c653a2070617573656400000000000000000000000000000000600082015250565b600061625360108361562d565b915061625e8261621d565b602082019050919050565b6000602082019050818103600083015261628281616246565b9050919050565b7f4e487b7100000000000000000000000000000000000000000000000000000000600052603160045260246000fd5b7f4552525f5f554e504149445f524557415244535f455849535400000000000000600082015250565b60006162ee60198361562d565b91506162f9826162b8565b602082019050919050565b6000602082019050818103600083015261631d816162e1565b9050919050565b60006040820190506163396000830185615233565b6163466020830184614c2c565b9392505050565b60006060820190506163626000830186614c2c565b61636f6020830185614c2c565b61637c6040830184614c2c565b949350505050565b7f4f776e61626c653a2063616c6c6572206973206e6f7420746865206f776e6572600082015250565b60006163ba60208361562d565b91506163c582616384565b602082019050919050565b600060208201905081810360008301526163e9816163ad565b9050919050565b7f4552525f5f5245574152445f544f4b454e5f4e4f545f535550504f5254454400600082015250565b6000616426601f8361562d565b9150616431826163f0565b602082019050919050565b6000602082019050818103600083015261645581616419565b9050919050565b600061646782615192565b9050919050565b6164778161645c565b82525050565b60006040820190506164926000830185614c2c565b61649f602083018461646e565b9392505050565b7f54727573746564466f727761726465722063616e277420626520300000000000600082015250565b60006164dc601b8361562d565b91506164e7826164a6565b602082019050919050565b6000602082019050818103600083015261650b816164cf565b9050919050565b7f496e697469616c697a61626c653a20636f6e7472616374206973206e6f74206960008201527f6e697469616c697a696e67000000000000000000000000000000000000000000602082015250565b600061656e602b8361562d565b915061657982616512565b604082019050919050565b6000602082019050818103600083015261659d81616561565b9050919050565b7f50617573657220416464726573732063616e6e6f742062652030000000000000600082015250565b60006165da601a8361562d565b91506165e5826165a4565b602082019050919050565b60006020820190508181036000830152616609816165cd565b9050919050565b7f5061757361626c653a206e6f7420706175736564000000000000000000000000600082015250565b600061664660148361562d565b915061665182616610565b602082019050919050565b6000602082019050818103600083015261667581616639565b9050919050565b7f5361666545524332303a204552433230206f7065726174696f6e20646964206e60008201527f6f74207375636365656400000000000000000000000000000000000000000000602082015250565b60006166d8602a8361562d565b91506166e38261667c565b604082019050919050565b60006020820190508181036000830152616707816166cb565b9050919050565b7f416464726573733a20696e73756666696369656e742062616c616e636520666f60008201527f722063616c6c0000000000000000000000000000000000000000000000000000602082015250565b600061676a60268361562d565b91506167758261670e565b604082019050919050565b600060208201905081810360008301526167998161675d565b9050919050565b7f416464726573733a2063616c6c20746f206e6f6e2d636f6e7472616374000000600082015250565b60006167d6601d8361562d565b91506167e1826167a0565b602082019050919050565b60006020820190508181036000830152616805816167c9565b9050919050565b600081519050919050565b60005b8381101561683557808201518184015260208101905061681a565b83811115616844576000848401525b50505050565b60006168558261680c565b61685f8185615ee3565b935061686f818560208601616817565b80840191505092915050565b6000616887828461684a565b915081905092915050565b600081519050919050565b6000601f19601f8301169050919050565b60006168b982616892565b6168c3818561562d565b93506168d3818560208601616817565b6168dc8161689d565b840191505092915050565b6000602082019050818103600083015261690181846168ae565b90509291505056fea2646970667358221220cfd50046e68fe7f38c65aee12590f3a4806c48cf85206ff37140720ed587dfaf64736f6c634300080f0033",
  "immutableReferences": {},
  "source": "// $$\\       $$\\                     $$\\       $$\\ $$\\   $$\\                     $$$$$$$$\\                               $$\\\n// $$ |      \\__|                    \\__|      $$ |\\__|  $$ |                    $$  _____|                              \\__|\n// $$ |      $$\\  $$$$$$\\  $$\\   $$\\ $$\\  $$$$$$$ |$$\\ $$$$$$\\   $$\\   $$\\       $$ |   $$$$$$\\   $$$$$$\\  $$$$$$\\$$$$\\  $$\\ $$$$$$$\\   $$$$$$\\\n// $$ |      $$ |$$  __$$\\ $$ |  $$ |$$ |$$  __$$ |$$ |\\_$$  _|  $$ |  $$ |      $$$$$\\ \\____$$\\ $$  __$$\\ $$  _$$  _$$\\ $$ |$$  __$$\\ $$  __$$\\\n// $$ |      $$ |$$ /  $$ |$$ |  $$ |$$ |$$ /  $$ |$$ |  $$ |    $$ |  $$ |      $$  __|$$$$$$$ |$$ |  \\__|$$ / $$ / $$ |$$ |$$ |  $$ |$$ /  $$ |\n// $$ |      $$ |$$ |  $$ |$$ |  $$ |$$ |$$ |  $$ |$$ |  $$ |$$\\ $$ |  $$ |      $$ |  $$  __$$ |$$ |      $$ | $$ | $$ |$$ |$$ |  $$ |$$ |  $$ |\n// $$$$$$$$\\ $$ |\\$$$$$$$ |\\$$$$$$  |$$ |\\$$$$$$$ |$$ |  \\$$$$  |\\$$$$$$$ |      $$ |  \\$$$$$$$ |$$ |      $$ | $$ | $$ |$$ |$$ |  $$ |\\$$$$$$$ |\n// \\________|\\__| \\____$$ | \\______/ \\__| \\_______|\\__|   \\____/  \\____$$ |      \\__|   \\_______|\\__|      \\__| \\__| \\__|\\__|\\__|  \\__| \\____$$ |\n//                     $$ |                                      $$\\   $$ |                                                            $$\\   $$ |\n//                     $$ |                                      \\$$$$$$  |                                                            \\$$$$$$  |\n//                     \\__|                                       \\______/                                                              \\______/\n//\n// SPDX-License-Identifier: MIT\npragma solidity ^0.8.0;\n\nimport \"@openzeppelin/contracts-upgradeable/interfaces/IERC721ReceiverUpgradeable.sol\";\nimport \"@openzeppelin/contracts-upgradeable/security/ReentrancyGuardUpgradeable.sol\";\nimport \"@openzeppelin/contracts-upgradeable/proxy/utils/Initializable.sol\";\nimport \"@openzeppelin/contracts-upgradeable/access/OwnableUpgradeable.sol\";\nimport \"@openzeppelin/contracts-upgradeable/token/ERC20/IERC20Upgradeable.sol\";\nimport \"@openzeppelin/contracts-upgradeable/token/ERC20/utils/SafeERC20Upgradeable.sol\";\nimport \"@openzeppelin/contracts/utils/structs/EnumerableSet.sol\";\nimport \"./metatx/ERC2771ContextUpgradeable.sol\";\n\nimport \"../security/Pausable.sol\";\nimport \"./interfaces/ILPToken.sol\";\nimport \"./interfaces/ILiquidityProviders.sol\";\n\ncontract HyphenLiquidityFarmingV2 is\n    Initializable,\n    ERC2771ContextUpgradeable,\n    OwnableUpgradeable,\n    Pausable,\n    ReentrancyGuardUpgradeable,\n    IERC721ReceiverUpgradeable\n{\n    using SafeERC20Upgradeable for IERC20Upgradeable;\n    using EnumerableSet for EnumerableSet.AddressSet;\n\n    ILPToken public lpToken;\n    ILiquidityProviders public liquidityProviders;\n\n    struct RewardInfo {\n        uint256 rewardDebt;\n        uint256 unpaidRewards;\n    }\n\n    struct NFTInfo {\n        address payable staker;\n        bool isStaked;\n        // Reward Token -> Reward Info\n        mapping(address => RewardInfo) rewardInfo;\n    }\n\n    struct PoolInfo {\n        uint256 accTokenPerShare;\n        uint256 lastRewardTime;\n    }\n\n    struct RewardsPerSecondEntry {\n        uint256 rewardsPerSecond;\n        uint256 timestamp;\n    }\n\n    /// @notice Mapping to track the rewarder pool. baseToken -> rewardToken -> poolInfo\n    mapping(address => mapping(address => PoolInfo)) public poolInfo;\n\n    /// @notice Info of each NFT that is staked.\n    mapping(uint256 => NFTInfo) public nftInfo;\n\n    // Reward Tokens. Base Token -> Array of Reward Tokens\n    mapping(address => EnumerableSet.AddressSet) internal rewardTokens;\n\n    /// @notice Staker => NFTs staked\n    mapping(address => uint256[]) public nftIdsStaked;\n\n    /// @notice Base Token => Total Shares Staked\n    mapping(address => uint256) public totalSharesStaked;\n\n    /// @notice Token => Reward Rate Updation history. baseToken -> rewardToken -> rewardsPerSecondEntry\n    mapping(address => mapping(address => RewardsPerSecondEntry[])) public rewardRateLog;\n\n    uint256 private constant ACC_TOKEN_PRECISION = 1e12;\n    address internal constant NATIVE = 0xEeeeeEeeeEeEeeEeEeEeeEEEeeeeEeeeeeeeEEeE;\n\n    event LogDeposit(address indexed user, address indexed baseToken, uint256 nftId);\n    event LogWithdraw(address indexed user, address baseToken, uint256 nftId, address indexed to);\n    event LogOnReward(\n        address indexed user,\n        address indexed baseToken,\n        address indexed rewardToken,\n        uint256 amount,\n        address to\n    );\n    event LogUpdatePool(address indexed baseToken, uint256 lastRewardTime, uint256 lpSupply, uint256 accToken1PerShare);\n    event LogRewardPerSecond(address indexed baseToken, address indexed rewardToken, uint256 indexed rewardPerSecond);\n    event LogNativeReceived(address indexed sender, uint256 value);\n    event LiquidityProviderUpdated(address indexed liquidityProviders);\n\n    function initialize(\n        address _trustedForwarder,\n        address _pauser,\n        ILiquidityProviders _liquidityProviders,\n        ILPToken _lpToken\n    ) public initializer {\n        __ERC2771Context_init(_trustedForwarder);\n        __Ownable_init();\n        __Pausable_init(_pauser);\n        __ReentrancyGuard_init();\n        liquidityProviders = _liquidityProviders;\n        lpToken = _lpToken;\n    }\n\n    function setTrustedForwarder(address _tf) external onlyOwner {\n        _setTrustedForwarder(_tf);\n    }\n\n    /// @notice Sets the sushi per second to be distributed. Can only be called by the owner.\n    /// @param _rewardPerSecond The amount of Sushi to be distributed per second.\n    function setRewardPerSecond(\n        address _baseToken,\n        address _rewardToken,\n        uint256 _rewardPerSecond\n    ) external onlyOwner {\n        require(_rewardPerSecond <= 10**40, \"ERR__REWARD_PER_SECOND_TOO_HIGH\");\n        require(_baseToken != address(0), \"ERR__BASE_TOKEN_IS_ZERO\");\n        require(_rewardToken != address(0), \"ERR_REWARD_TOKEN_IS_ZERO\");\n\n        if (!rewardTokens[_baseToken].contains(_rewardToken)) {\n            rewardTokens[_baseToken].add(_rewardToken);\n        }\n        rewardRateLog[_baseToken][_rewardToken].push(RewardsPerSecondEntry(_rewardPerSecond, block.timestamp));\n\n        emit LogRewardPerSecond(_baseToken, _rewardToken, _rewardPerSecond);\n    }\n\n    function getRewardTokens(address _baseToken) external view returns (address[] memory) {\n        uint256 length = rewardTokens[_baseToken].length();\n        address[] memory tokens = new address[](length);\n        unchecked {\n            for (uint256 i = 0; i < length; ++i) {\n                tokens[i] = rewardTokens[_baseToken].at(i);\n            }\n        }\n        return tokens;\n    }\n\n    function updateLiquidityProvider(ILiquidityProviders _liquidityProviders) external onlyOwner {\n        require(address(_liquidityProviders) != address(0), \"ERR__LIQUIDITY_PROVIDER_IS_ZERO\");\n        liquidityProviders = _liquidityProviders;\n        emit LiquidityProviderUpdated(address(liquidityProviders));\n    }\n\n    function _sendErc20AndGetSentAmount(\n        IERC20Upgradeable _token,\n        uint256 _amount,\n        address _to\n    ) private returns (uint256) {\n        uint256 beforeBalance = _token.balanceOf(address(this));\n        _token.safeTransfer(_to, _amount);\n        return beforeBalance - _token.balanceOf(address(this));\n    }\n\n    /// @notice Update the reward state of a nft, and if possible send reward funds to _to.\n    /// @param _nftId NFT ID that is being locked\n    /// @param _rewardToken Reward Token to be used for the reward\n    /// @param _to Address to which rewards will be credited.\n    function _sendRewardsForNft(\n        uint256 _nftId,\n        address _rewardToken,\n        address payable _to\n    ) internal {\n        NFTInfo storage nft = nftInfo[_nftId];\n        require(nft.isStaked, \"ERR__NFT_NOT_STAKED\");\n\n        (address baseToken, , uint256 amount) = lpToken.tokenMetadata(_nftId);\n        amount /= liquidityProviders.BASE_DIVISOR();\n\n        require(rewardTokens[baseToken].contains(_rewardToken), \"ERR__REWARD_TOKEN_NOT_SUPPORTED\");\n\n        PoolInfo memory pool = _updateRewardTokenParameters(baseToken, _rewardToken);\n        uint256 pending;\n        uint256 amountSent;\n        RewardInfo storage rewardInfo = nft.rewardInfo[_rewardToken];\n\n        if (amount > 0) {\n            pending =\n                ((amount * pool.accTokenPerShare) / ACC_TOKEN_PRECISION) -\n                rewardInfo.rewardDebt +\n                rewardInfo.unpaidRewards;\n            if (_rewardToken == NATIVE) {\n                uint256 balance = address(this).balance;\n                if (pending > balance) {\n                    unchecked {\n                        rewardInfo.unpaidRewards = pending - balance;\n                    }\n                    (bool success, ) = _to.call{value: balance}(\"\");\n                    require(success, \"ERR__NATIVE_TRANSFER_FAILED\");\n                    amountSent = balance;\n                } else {\n                    rewardInfo.unpaidRewards = 0;\n                    (bool success, ) = _to.call{value: pending}(\"\");\n                    require(success, \"ERR__NATIVE_TRANSFER_FAILED\");\n                    amountSent = pending;\n                }\n            } else {\n                IERC20Upgradeable rewardToken = IERC20Upgradeable(_rewardToken);\n                uint256 balance = rewardToken.balanceOf(address(this));\n                if (pending > balance) {\n                    unchecked {\n                        rewardInfo.unpaidRewards = pending - balance;\n                    }\n                    amountSent = _sendErc20AndGetSentAmount(rewardToken, balance, _to);\n                } else {\n                    rewardInfo.unpaidRewards = 0;\n                    amountSent = _sendErc20AndGetSentAmount(rewardToken, pending, _to);\n                }\n            }\n        }\n\n        rewardInfo.rewardDebt = (amount * pool.accTokenPerShare) / ACC_TOKEN_PRECISION;\n\n        emit LogOnReward(_msgSender(), baseToken, _rewardToken, amountSent, _to);\n    }\n\n    /// @notice Allows owner to reclaim/withdraw any tokens (including reward tokens) held by this contract\n    /// @param _token Token to reclaim, use 0x00 for Ethereum\n    /// @param _amount Amount of tokens to reclaim\n    /// @param _to Receiver of the tokens, first of his name, rightful heir to the lost tokens,\n    /// reightful owner of the extra tokens, and ether, protector of mistaken transfers, mother of token reclaimers,\n    /// the Khaleesi of the Great Token Sea, the Unburnt, the Breaker of blockchains.\n    function reclaimTokens(\n        address _token,\n        uint256 _amount,\n        address payable _to\n    ) external onlyOwner {\n        require(_to != address(0), \"ERR__TO_IS_ZERO\");\n        require(_amount != 0, \"ERR__AMOUNT_IS_ZERO\");\n        if (_token == NATIVE) {\n            (bool success, ) = payable(_to).call{value: _amount}(\"\");\n            require(success, \"ERR__NATIVE_TRANSFER_FAILED\");\n        } else {\n            IERC20Upgradeable(_token).safeTransfer(_to, _amount);\n        }\n    }\n\n    /// @notice Deposit LP tokens\n    /// @param _nftId LP token nftId to deposit.\n    function deposit(uint256 _nftId, address payable _to) external whenNotPaused nonReentrant {\n        address msgSender = _msgSender();\n\n        require(_to != address(0), \"ERR__TO_IS_ZERO\");\n        require(\n            lpToken.isApprovedForAll(msgSender, address(this)) || lpToken.getApproved(_nftId) == address(this),\n            \"ERR__NOT_APPROVED\"\n        );\n\n        NFTInfo storage nft = nftInfo[_nftId];\n\n        require(!nft.isStaked, \"ERR__NFT_ALREADY_STAKED\");\n        nft.isStaked = true;\n        nft.staker = _to;\n\n        (address baseToken, , uint256 amount) = lpToken.tokenMetadata(_nftId);\n        amount /= liquidityProviders.BASE_DIVISOR();\n\n        lpToken.safeTransferFrom(msgSender, address(this), _nftId);\n\n        uint256 totalRewardTokens = rewardTokens[baseToken].length();\n        require(totalRewardTokens != 0, \"ERR__POOL_NOT_INITIALIZED\");\n\n        for (uint256 i = 0; i < totalRewardTokens; ) {\n            address rewardToken = rewardTokens[baseToken].at(i);\n            PoolInfo memory pool = _updateRewardTokenParameters(baseToken, rewardToken);\n            nft.rewardInfo[rewardToken].rewardDebt = (amount * pool.accTokenPerShare) / ACC_TOKEN_PRECISION;\n            unchecked {\n                ++i;\n            }\n        }\n\n        nftIdsStaked[_to].push(_nftId);\n        totalSharesStaked[baseToken] += amount;\n\n        emit LogDeposit(msgSender, baseToken, _nftId);\n    }\n\n    function getStakedNftIndex(address _staker, uint256 _nftId) public view returns (uint256) {\n        uint256 nftsStakedLength = nftIdsStaked[_staker].length;\n        uint256 index;\n        unchecked {\n            for (index = 0; index < nftsStakedLength; ++index) {\n                if (nftIdsStaked[_staker][index] == _nftId) {\n                    return index;\n                }\n            }\n        }\n        revert(\"ERR__NFT_NOT_STAKED\");\n    }\n\n    function _withdraw(\n        uint256 _nftId,\n        address payable _to,\n        uint256 _index\n    ) private {\n        address msgSender = _msgSender();\n\n        require(nftIdsStaked[msgSender][_index] == _nftId, \"ERR__NOT_OWNER\");\n        require(nftInfo[_nftId].staker == msgSender, \"ERR__NOT_OWNER\");\n\n        nftIdsStaked[msgSender][_index] = nftIdsStaked[msgSender][nftIdsStaked[msgSender].length - 1];\n        nftIdsStaked[msgSender].pop();\n\n        (address baseToken, , uint256 amount) = lpToken.tokenMetadata(_nftId);\n        uint256 totalRewardTokens = rewardTokens[baseToken].length();\n\n        for (uint256 i = 0; i < totalRewardTokens; ) {\n            address rewardToken = rewardTokens[baseToken].at(i);\n            _sendRewardsForNft(_nftId, rewardToken, _to);\n            require(nftInfo[_nftId].rewardInfo[rewardToken].unpaidRewards == 0, \"ERR__UNPAID_REWARDS_EXIST\");\n            unchecked {\n                ++i;\n            }\n        }\n        delete nftInfo[_nftId];\n\n        amount /= liquidityProviders.BASE_DIVISOR();\n        totalSharesStaked[baseToken] -= amount;\n\n        lpToken.safeTransferFrom(address(this), msgSender, _nftId);\n\n        emit LogWithdraw(msgSender, baseToken, _nftId, _to);\n    }\n\n    function withdrawAtIndex(\n        uint256 _nftId,\n        address payable _to,\n        uint256 _index\n    ) external whenNotPaused nonReentrant {\n        _withdraw(_nftId, _to, _index);\n    }\n\n    /// @notice Withdraw LP tokens\n    /// @param _nftId LP token nftId to withdraw.\n    /// @param _to The receiver of `amount` withdraw benefit.\n    function withdraw(uint256 _nftId, address payable _to) external whenNotPaused nonReentrant {\n        uint256 index = getStakedNftIndex(_msgSender(), _nftId);\n        _withdraw(_nftId, _to, index);\n    }\n\n    /// @notice Extract all rewards without withdrawing LP tokens\n    /// @param _nftId LP token nftId for which rewards are to be withdrawn\n    /// @param _to The receiver of withdraw benefit.\n    function extractRewards(\n        uint256 _nftId,\n        address[] calldata _rewardTokens,\n        address payable _to\n    ) external whenNotPaused nonReentrant {\n        require(nftInfo[_nftId].staker == _msgSender(), \"ERR__NOT_OWNER\");\n\n        uint256 length = _rewardTokens.length;\n        require(length > 0, \"ERR__NO_REWARD_TOKENS\");\n\n        for (uint256 i = 0; i < length; ) {\n            address rewardToken = _rewardTokens[i];\n            _sendRewardsForNft(_nftId, rewardToken, _to);\n            unchecked {\n                ++i;\n            }\n        }\n    }\n\n    /// @notice Calculates an up to date value of accTokenPerShare\n    /// @notice An updated value of accTokenPerShare is comitted to storage every time a new NFT is deposited, withdrawn or rewards are extracted\n    function getUpdatedAccTokenPerShare(address _baseToken, address _rewardToken) public view returns (uint256) {\n        PoolInfo memory pool = poolInfo[_baseToken][_rewardToken];\n        RewardsPerSecondEntry[] memory logs = rewardRateLog[_baseToken][_rewardToken];\n        require(logs.length > 0, \"ERR__NO_REWARD_RATE_LOGS\");\n\n        uint256 accumulator = 0;\n        uint256 lastUpdatedTime = pool.lastRewardTime;\n        uint256 counter = block.timestamp;\n        uint256 i = logs.length - 1;\n\n        while (true) {\n            if (lastUpdatedTime >= counter) {\n                break;\n            }\n            RewardsPerSecondEntry memory log = logs[i];\n            unchecked {\n                accumulator += log.rewardsPerSecond * (counter - max(lastUpdatedTime, log.timestamp));\n            }\n            counter = log.timestamp;\n            if (i == 0) {\n                break;\n            }\n            --i;\n        }\n\n        // We know that during all the periods that were included in the current iterations,\n        // the value of totalSharesStaked[_baseToken] would not have changed, as we only consider the\n        // updates to the pool that happened after the lastUpdatedTime.\n        accumulator = (accumulator * ACC_TOKEN_PRECISION) / totalSharesStaked[_baseToken];\n        return accumulator + pool.accTokenPerShare;\n    }\n\n    /// @notice View function to see pending Token\n    /// @param _nftId NFT for which pending tokens are to be viewed\n    /// @param _rewardToken reward token for which pending tokens are to be viewed\n    /// @return pending reward for a given user.\n    function pendingToken(uint256 _nftId, address _rewardToken) external view returns (uint256) {\n        NFTInfo storage nft = nftInfo[_nftId];\n        if (!nft.isStaked) {\n            return 0;\n        }\n\n        (address baseToken, , uint256 amount) = lpToken.tokenMetadata(_nftId);\n        amount /= liquidityProviders.BASE_DIVISOR();\n\n        if(!rewardTokens[baseToken].contains(_rewardToken)) {\n            return 0;\n        }\n\n        PoolInfo memory pool = poolInfo[baseToken][_rewardToken];\n        uint256 accToken1PerShare = pool.accTokenPerShare;\n        if (block.timestamp > pool.lastRewardTime && totalSharesStaked[baseToken] != 0) {\n            accToken1PerShare = getUpdatedAccTokenPerShare(baseToken, _rewardToken);\n        }\n        return\n            ((amount * accToken1PerShare) / ACC_TOKEN_PRECISION) -\n            nft.rewardInfo[_rewardToken].rewardDebt +\n            nft.rewardInfo[_rewardToken].unpaidRewards;\n    }\n\n    /// @notice Update reward variables of the given pool.\n    /// @return pool Returns the pool that was updated.\n    function _updateRewardTokenParameters(address _baseToken, address _rewardToken)\n        internal\n        whenNotPaused\n        returns (PoolInfo memory pool)\n    {\n        pool = poolInfo[_baseToken][_rewardToken];\n        if (totalSharesStaked[_baseToken] > 0) {\n            pool.accTokenPerShare = getUpdatedAccTokenPerShare(_baseToken, _rewardToken);\n        }\n        pool.lastRewardTime = block.timestamp;\n        poolInfo[_baseToken][_rewardToken] = pool;\n        emit LogUpdatePool(_baseToken, pool.lastRewardTime, totalSharesStaked[_baseToken], pool.accTokenPerShare);\n    }\n\n    /// @notice View function to see the tokens staked by a given user.\n    /// @param _user Address of user.\n    function getNftIdsStaked(address _user) external view returns (uint256[] memory nftIds) {\n        nftIds = nftIdsStaked[_user];\n    }\n\n    function getRewardRatePerSecond(address _baseToken, address _rewardToken) external view returns (uint256) {\n        uint256 length = rewardRateLog[_baseToken][_rewardToken].length;\n        if (length == 0) {\n            return 0;\n        }\n        return rewardRateLog[_baseToken][_rewardToken][length - 1].rewardsPerSecond;\n    }\n\n    function onERC721Received(\n        address,\n        address,\n        uint256,\n        bytes calldata\n    ) external pure override(IERC721ReceiverUpgradeable) returns (bytes4) {\n        return this.onERC721Received.selector;\n    }\n\n    function _msgSender()\n        internal\n        view\n        virtual\n        override(ContextUpgradeable, ERC2771ContextUpgradeable)\n        returns (address sender)\n    {\n        return ERC2771ContextUpgradeable._msgSender();\n    }\n\n    function _msgData()\n        internal\n        view\n        virtual\n        override(ContextUpgradeable, ERC2771ContextUpgradeable)\n        returns (bytes calldata)\n    {\n        return ERC2771ContextUpgradeable._msgData();\n    }\n\n    receive() external payable {\n        emit LogNativeReceived(_msgSender(), msg.value);\n    }\n\n    function max(uint256 _a, uint256 _b) private pure returns (uint256) {\n        return _a >= _b ? _a : _b;\n    }\n}\n",
  "sourcePath": "/Users/nikhitakale/QA-Hyphen-V2/scribble-fuzzing/contracts/hyphen/LiquidityFarmingV2.sol",
  "compiler": {
    "name": "solc",
    "version": "0.8.15+commit.e14f2714.Emscripten.clang"
  },
  "schemaVersion": "3.4.7",
  "updatedAt": "2022-07-03T18:30:45.604Z",
  "devdoc": {
    "kind": "dev",
    "methods": {
      "changePauser(address)": {
        "details": "Allows the current pauser to transfer control of the contract to a newPauser.",
        "params": {
          "newPauser": "The address to transfer pauserShip to."
        }
      },
      "deposit(uint256,address)": {
        "params": {
          "_nftId": "LP token nftId to deposit."
        }
      },
      "extractRewards(uint256,address[],address)": {
        "params": {
          "_nftId": "LP token nftId for which rewards are to be withdrawn",
          "_to": "The receiver of withdraw benefit."
        }
      },
      "getNftIdsStaked(address)": {
        "params": {
          "_user": "Address of user."
        }
      },
      "isPauser(address)": {
        "returns": {
          "_0": "true if `msg.sender` is the owner of the contract."
        }
      },
      "owner()": {
        "details": "Returns the address of the current owner."
      },
      "paused()": {
        "details": "Returns true if the contract is paused, and false otherwise."
      },
      "pendingToken(uint256,address)": {
        "params": {
          "_nftId": "NFT for which pending tokens are to be viewed",
          "_rewardToken": "reward token for which pending tokens are to be viewed"
        },
        "returns": {
          "_0": "pending reward for a given user."
        }
      },
      "reclaimTokens(address,uint256,address)": {
        "params": {
          "_amount": "Amount of tokens to reclaim",
          "_to": "Receiver of the tokens, first of his name, rightful heir to the lost tokens, reightful owner of the extra tokens, and ether, protector of mistaken transfers, mother of token reclaimers, the Khaleesi of the Great Token Sea, the Unburnt, the Breaker of blockchains.",
          "_token": "Token to reclaim, use 0x00 for Ethereum"
        }
      },
      "renounceOwnership()": {
        "details": "Leaves the contract without owner. It will not be possible to call `onlyOwner` functions anymore. Can only be called by the current owner. NOTE: Renouncing ownership will leave the contract without an owner, thereby removing any functionality that is only available to the owner."
      },
      "setRewardPerSecond(address,address,uint256)": {
        "params": {
          "_rewardPerSecond": "The amount of Sushi to be distributed per second."
        }
      },
      "transferOwnership(address)": {
        "details": "Transfers ownership of the contract to a new account (`newOwner`). Can only be called by the current owner."
      },
      "withdraw(uint256,address)": {
        "params": {
          "_nftId": "LP token nftId to withdraw.",
          "_to": "The receiver of `amount` withdraw benefit."
        }
      }
    },
    "version": 1
  },
  "userdoc": {
    "kind": "user",
    "methods": {
      "deposit(uint256,address)": {
        "notice": "Deposit LP tokens"
      },
      "extractRewards(uint256,address[],address)": {
        "notice": "Extract all rewards without withdrawing LP tokens"
      },
      "getNftIdsStaked(address)": {
        "notice": "View function to see the tokens staked by a given user."
      },
      "getUpdatedAccTokenPerShare(address,address)": {
        "notice": "Calculates an up to date value of accTokenPerShareAn updated value of accTokenPerShare is comitted to storage every time a new NFT is deposited, withdrawn or rewards are extracted"
      },
      "nftIdsStaked(address,uint256)": {
        "notice": "Staker => NFTs staked"
      },
      "nftInfo(uint256)": {
        "notice": "Info of each NFT that is staked."
      },
      "pendingToken(uint256,address)": {
        "notice": "View function to see pending Token"
      },
      "poolInfo(address,address)": {
        "notice": "Mapping to track the rewarder pool. baseToken -> rewardToken -> poolInfo"
      },
      "reclaimTokens(address,uint256,address)": {
        "notice": "Allows owner to reclaim/withdraw any tokens (including reward tokens) held by this contract"
      },
      "rewardRateLog(address,address,uint256)": {
        "notice": "Token => Reward Rate Updation history. baseToken -> rewardToken -> rewardsPerSecondEntry"
      },
      "setRewardPerSecond(address,address,uint256)": {
        "notice": "Sets the sushi per second to be distributed. Can only be called by the owner."
      },
      "totalSharesStaked(address)": {
        "notice": "Base Token => Total Shares Staked"
      },
      "withdraw(uint256,address)": {
        "notice": "Withdraw LP tokens"
      }
    },
    "version": 1
  },
  "db": {
    "callBytecode": {
      "id": "0xb262b04d5ab193c0b23647f70938caaf3e950bfabc5dc5ae6df0a67acb7707b6"
    },
    "createBytecode": {
      "id": "0xa723cc30e19329b23cb0afeed0cdce88b4a0ff79a3a5b8c508023dfe80785f0b"
    },
    "contract": {
      "id": "0xc5ae0b01b2f8c1b85b4371631ddd45a3c3f4b8fceba7837612f1c4f2c319d40f"
    }
  }
}