{
  "contractName": "HyphenLiquidityFarming",
  "abi": [
    {
      "anonymous": false,
      "inputs": [
        {
          "indexed": false,
          "internalType": "uint8",
          "name": "version",
          "type": "uint8"
        }
      ],
      "name": "Initialized",
      "type": "event"
    },
    {
      "anonymous": false,
      "inputs": [
        {
          "indexed": true,
          "internalType": "address",
          "name": "liquidityProviders",
          "type": "address"
        }
      ],
      "name": "LiquidityProviderUpdated",
      "type": "event"
    },
    {
      "anonymous": false,
      "inputs": [
        {
          "indexed": true,
          "internalType": "address",
          "name": "user",
          "type": "address"
        },
        {
          "indexed": true,
          "internalType": "address",
          "name": "baseToken",
          "type": "address"
        },
        {
          "indexed": false,
          "internalType": "uint256",
          "name": "nftId",
          "type": "uint256"
        }
      ],
      "name": "LogDeposit",
      "type": "event"
    },
    {
      "anonymous": false,
      "inputs": [
        {
          "indexed": true,
          "internalType": "address",
          "name": "sender",
          "type": "address"
        },
        {
          "indexed": false,
          "internalType": "uint256",
          "name": "value",
          "type": "uint256"
        }
      ],
      "name": "LogNativeReceived",
      "type": "event"
    },
    {
      "anonymous": false,
      "inputs": [
        {
          "indexed": true,
          "internalType": "address",
          "name": "owner",
          "type": "address"
        },
        {
          "indexed": true,
          "internalType": "uint256",
          "name": "nftId",
          "type": "uint256"
        },
        {
          "indexed": false,
          "internalType": "contract IHyphenLiquidityFarmingV2",
          "name": "farmingContract",
          "type": "address"
        }
      ],
      "name": "LogNftMigrated",
      "type": "event"
    },
    {
      "anonymous": false,
      "inputs": [
        {
          "indexed": true,
          "internalType": "address",
          "name": "user",
          "type": "address"
        },
        {
          "indexed": true,
          "internalType": "address",
          "name": "baseToken",
          "type": "address"
        },
        {
          "indexed": false,
          "internalType": "uint256",
          "name": "amount",
          "type": "uint256"
        },
        {
          "indexed": true,
          "internalType": "address",
          "name": "to",
          "type": "address"
        }
      ],
      "name": "LogOnReward",
      "type": "event"
    },
    {
      "anonymous": false,
      "inputs": [
        {
          "indexed": true,
          "internalType": "address",
          "name": "baseToken",
          "type": "address"
        },
        {
          "indexed": false,
          "internalType": "uint256",
          "name": "rewardPerSecond",
          "type": "uint256"
        }
      ],
      "name": "LogRewardPerSecond",
      "type": "event"
    },
    {
      "anonymous": false,
      "inputs": [
        {
          "indexed": false,
          "internalType": "address",
          "name": "_baseToken",
          "type": "address"
        },
        {
          "indexed": false,
          "internalType": "address",
          "name": "_rewardToken",
          "type": "address"
        },
        {
          "indexed": false,
          "internalType": "uint256",
          "name": "_rewardPerSecond",
          "type": "uint256"
        }
      ],
      "name": "LogRewardPoolInitialized",
      "type": "event"
    },
    {
      "anonymous": false,
      "inputs": [
        {
          "indexed": true,
          "internalType": "address",
          "name": "baseToken",
          "type": "address"
        },
        {
          "indexed": false,
          "internalType": "uint256",
          "name": "lastRewardTime",
          "type": "uint256"
        },
        {
          "indexed": false,
          "internalType": "uint256",
          "name": "lpSupply",
          "type": "uint256"
        },
        {
          "indexed": false,
          "internalType": "uint256",
          "name": "accToken1PerShare",
          "type": "uint256"
        }
      ],
      "name": "LogUpdatePool",
      "type": "event"
    },
    {
      "anonymous": false,
      "inputs": [
        {
          "indexed": true,
          "internalType": "address",
          "name": "user",
          "type": "address"
        },
        {
          "indexed": false,
          "internalType": "address",
          "name": "baseToken",
          "type": "address"
        },
        {
          "indexed": false,
          "internalType": "uint256",
          "name": "nftId",
          "type": "uint256"
        },
        {
          "indexed": true,
          "internalType": "address",
          "name": "to",
          "type": "address"
        }
      ],
      "name": "LogWithdraw",
      "type": "event"
    },
    {
      "anonymous": false,
      "inputs": [
        {
          "indexed": true,
          "internalType": "address",
          "name": "previousOwner",
          "type": "address"
        },
        {
          "indexed": true,
          "internalType": "address",
          "name": "newOwner",
          "type": "address"
        }
      ],
      "name": "OwnershipTransferred",
      "type": "event"
    },
    {
      "anonymous": false,
      "inputs": [
        {
          "indexed": false,
          "internalType": "address",
          "name": "account",
          "type": "address"
        }
      ],
      "name": "Paused",
      "type": "event"
    },
    {
      "anonymous": false,
      "inputs": [
        {
          "indexed": true,
          "internalType": "address",
          "name": "previousPauser",
          "type": "address"
        },
        {
          "indexed": true,
          "internalType": "address",
          "name": "newPauser",
          "type": "address"
        }
      ],
      "name": "PauserChanged",
      "type": "event"
    },
    {
      "anonymous": false,
      "inputs": [
        {
          "indexed": true,
          "internalType": "address",
          "name": "_tf",
          "type": "address"
        }
      ],
      "name": "TrustedForwarderChanged",
      "type": "event"
    },
    {
      "anonymous": false,
      "inputs": [
        {
          "indexed": false,
          "internalType": "address",
          "name": "account",
          "type": "address"
        }
      ],
      "name": "Unpaused",
      "type": "event"
    },
    {
      "inputs": [
        {
          "internalType": "address",
          "name": "newPauser",
          "type": "address"
        }
      ],
      "name": "changePauser",
      "outputs": [],
      "stateMutability": "nonpayable",
      "type": "function"
    },
    {
      "inputs": [
        {
          "internalType": "address",
          "name": "pauser",
          "type": "address"
        }
      ],
      "name": "isPauser",
      "outputs": [
        {
          "internalType": "bool",
          "name": "",
          "type": "bool"
        }
      ],
      "stateMutability": "view",
      "type": "function"
    },
    {
      "inputs": [
        {
          "internalType": "address",
          "name": "forwarder",
          "type": "address"
        }
      ],
      "name": "isTrustedForwarder",
      "outputs": [
        {
          "internalType": "bool",
          "name": "",
          "type": "bool"
        }
      ],
      "stateMutability": "view",
      "type": "function"
    },
    {
      "inputs": [],
      "name": "liquidityProviders",
      "outputs": [
        {
          "internalType": "contract ILiquidityProviders",
          "name": "",
          "type": "address"
        }
      ],
      "stateMutability": "view",
      "type": "function"
    },
    {
      "inputs": [],
      "name": "lpToken",
      "outputs": [
        {
          "internalType": "contract ILPToken",
          "name": "",
          "type": "address"
        }
      ],
      "stateMutability": "view",
      "type": "function"
    },
    {
      "inputs": [
        {
          "internalType": "address",
          "name": "",
          "type": "address"
        },
        {
          "internalType": "uint256",
          "name": "",
          "type": "uint256"
        }
      ],
      "name": "nftIdsStaked",
      "outputs": [
        {
          "internalType": "uint256",
          "name": "",
          "type": "uint256"
        }
      ],
      "stateMutability": "view",
      "type": "function"
    },
    {
      "inputs": [
        {
          "internalType": "uint256",
          "name": "",
          "type": "uint256"
        }
      ],
      "name": "nftInfo",
      "outputs": [
        {
          "internalType": "address payable",
          "name": "staker",
          "type": "address"
        },
        {
          "internalType": "uint256",
          "name": "rewardDebt",
          "type": "uint256"
        },
        {
          "internalType": "uint256",
          "name": "unpaidRewards",
          "type": "uint256"
        },
        {
          "internalType": "bool",
          "name": "isStaked",
          "type": "bool"
        }
      ],
      "stateMutability": "view",
      "type": "function"
    },
    {
      "inputs": [],
      "name": "owner",
      "outputs": [
        {
          "internalType": "address",
          "name": "",
          "type": "address"
        }
      ],
      "stateMutability": "view",
      "type": "function"
    },
    {
      "inputs": [],
      "name": "pause",
      "outputs": [],
      "stateMutability": "nonpayable",
      "type": "function"
    },
    {
      "inputs": [],
      "name": "paused",
      "outputs": [
        {
          "internalType": "bool",
          "name": "",
          "type": "bool"
        }
      ],
      "stateMutability": "view",
      "type": "function"
    },
    {
      "inputs": [
        {
          "internalType": "address",
          "name": "",
          "type": "address"
        }
      ],
      "name": "poolInfo",
      "outputs": [
        {
          "internalType": "uint256",
          "name": "accTokenPerShare",
          "type": "uint256"
        },
        {
          "internalType": "uint256",
          "name": "lastRewardTime",
          "type": "uint256"
        }
      ],
      "stateMutability": "view",
      "type": "function"
    },
    {
      "inputs": [],
      "name": "renounceOwnership",
      "outputs": [],
      "stateMutability": "nonpayable",
      "type": "function"
    },
    {
      "inputs": [],
      "name": "renouncePauser",
      "outputs": [],
      "stateMutability": "nonpayable",
      "type": "function"
    },
    {
      "inputs": [
        {
          "internalType": "address",
          "name": "",
          "type": "address"
        },
        {
          "internalType": "uint256",
          "name": "",
          "type": "uint256"
        }
      ],
      "name": "rewardRateLog",
      "outputs": [
        {
          "internalType": "uint256",
          "name": "rewardsPerSecond",
          "type": "uint256"
        },
        {
          "internalType": "uint256",
          "name": "timestamp",
          "type": "uint256"
        }
      ],
      "stateMutability": "view",
      "type": "function"
    },
    {
      "inputs": [
        {
          "internalType": "address",
          "name": "",
          "type": "address"
        }
      ],
      "name": "rewardTokens",
      "outputs": [
        {
          "internalType": "address",
          "name": "",
          "type": "address"
        }
      ],
      "stateMutability": "view",
      "type": "function"
    },
    {
      "inputs": [
        {
          "internalType": "address",
          "name": "",
          "type": "address"
        }
      ],
      "name": "totalSharesStaked",
      "outputs": [
        {
          "internalType": "uint256",
          "name": "",
          "type": "uint256"
        }
      ],
      "stateMutability": "view",
      "type": "function"
    },
    {
      "inputs": [
        {
          "internalType": "address",
          "name": "newOwner",
          "type": "address"
        }
      ],
      "name": "transferOwnership",
      "outputs": [],
      "stateMutability": "nonpayable",
      "type": "function"
    },
    {
      "inputs": [],
      "name": "unpause",
      "outputs": [],
      "stateMutability": "nonpayable",
      "type": "function"
    },
    {
      "stateMutability": "payable",
      "type": "receive"
    },
    {
      "inputs": [
        {
          "internalType": "address",
          "name": "_trustedForwarder",
          "type": "address"
        },
        {
          "internalType": "address",
          "name": "_pauser",
          "type": "address"
        },
        {
          "internalType": "contract ILiquidityProviders",
          "name": "_liquidityProviders",
          "type": "address"
        },
        {
          "internalType": "contract ILPToken",
          "name": "_lpToken",
          "type": "address"
        }
      ],
      "name": "initialize",
      "outputs": [],
      "stateMutability": "nonpayable",
      "type": "function"
    },
    {
      "inputs": [
        {
          "internalType": "address",
          "name": "_tf",
          "type": "address"
        }
      ],
      "name": "setTrustedForwarder",
      "outputs": [],
      "stateMutability": "nonpayable",
      "type": "function"
    },
    {
      "inputs": [
        {
          "internalType": "address",
          "name": "_baseToken",
          "type": "address"
        },
        {
          "internalType": "address",
          "name": "_rewardToken",
          "type": "address"
        },
        {
          "internalType": "uint256",
          "name": "_rewardPerSecond",
          "type": "uint256"
        }
      ],
      "name": "initalizeRewardPool",
      "outputs": [],
      "stateMutability": "nonpayable",
      "type": "function"
    },
    {
      "inputs": [
        {
          "internalType": "contract ILiquidityProviders",
          "name": "_liquidityProviders",
          "type": "address"
        }
      ],
      "name": "updateLiquidityProvider",
      "outputs": [],
      "stateMutability": "nonpayable",
      "type": "function"
    },
    {
      "inputs": [
        {
          "internalType": "address",
          "name": "_baseToken",
          "type": "address"
        },
        {
          "internalType": "uint256",
          "name": "_rewardPerSecond",
          "type": "uint256"
        }
      ],
      "name": "setRewardPerSecond",
      "outputs": [],
      "stateMutability": "nonpayable",
      "type": "function"
    },
    {
      "inputs": [
        {
          "internalType": "address",
          "name": "_token",
          "type": "address"
        },
        {
          "internalType": "uint256",
          "name": "_amount",
          "type": "uint256"
        },
        {
          "internalType": "address payable",
          "name": "_to",
          "type": "address"
        }
      ],
      "name": "reclaimTokens",
      "outputs": [],
      "stateMutability": "nonpayable",
      "type": "function"
    },
    {
      "inputs": [
        {
          "internalType": "uint256",
          "name": "_nftId",
          "type": "uint256"
        },
        {
          "internalType": "address payable",
          "name": "_to",
          "type": "address"
        }
      ],
      "name": "deposit",
      "outputs": [],
      "stateMutability": "nonpayable",
      "type": "function"
    },
    {
      "inputs": [
        {
          "internalType": "uint256",
          "name": "_nftId",
          "type": "uint256"
        },
        {
          "internalType": "address payable",
          "name": "_to",
          "type": "address"
        }
      ],
      "name": "withdraw",
      "outputs": [],
      "stateMutability": "nonpayable",
      "type": "function"
    },
    {
      "inputs": [
        {
          "internalType": "address",
          "name": "_staker",
          "type": "address"
        },
        {
          "internalType": "uint256",
          "name": "_nftId",
          "type": "uint256"
        }
      ],
      "name": "getStakedNftIndex",
      "outputs": [
        {
          "internalType": "uint256",
          "name": "",
          "type": "uint256"
        }
      ],
      "stateMutability": "view",
      "type": "function"
    },
    {
      "inputs": [
        {
          "internalType": "uint256",
          "name": "_nftId",
          "type": "uint256"
        },
        {
          "internalType": "address payable",
          "name": "_to",
          "type": "address"
        },
        {
          "internalType": "uint256",
          "name": "_index",
          "type": "uint256"
        }
      ],
      "name": "withdrawV2",
      "outputs": [],
      "stateMutability": "nonpayable",
      "type": "function"
    },
    {
      "inputs": [
        {
          "internalType": "uint256",
          "name": "_nftId",
          "type": "uint256"
        },
        {
          "internalType": "address payable",
          "name": "_to",
          "type": "address"
        }
      ],
      "name": "extractRewards",
      "outputs": [],
      "stateMutability": "nonpayable",
      "type": "function"
    },
    {
      "inputs": [
        {
          "internalType": "address",
          "name": "_baseToken",
          "type": "address"
        }
      ],
      "name": "getUpdatedAccTokenPerShare",
      "outputs": [
        {
          "internalType": "uint256",
          "name": "",
          "type": "uint256"
        }
      ],
      "stateMutability": "view",
      "type": "function"
    },
    {
      "inputs": [
        {
          "internalType": "uint256",
          "name": "_nftId",
          "type": "uint256"
        }
      ],
      "name": "pendingToken",
      "outputs": [
        {
          "internalType": "uint256",
          "name": "",
          "type": "uint256"
        }
      ],
      "stateMutability": "view",
      "type": "function"
    },
    {
      "inputs": [
        {
          "internalType": "address",
          "name": "_baseToken",
          "type": "address"
        }
      ],
      "name": "updatePool",
      "outputs": [
        {
          "components": [
            {
              "internalType": "uint256",
              "name": "accTokenPerShare",
              "type": "uint256"
            },
            {
              "internalType": "uint256",
              "name": "lastRewardTime",
              "type": "uint256"
            }
          ],
          "internalType": "struct HyphenLiquidityFarming.PoolInfo",
          "name": "pool",
          "type": "tuple"
        }
      ],
      "stateMutability": "nonpayable",
      "type": "function"
    },
    {
      "inputs": [
        {
          "internalType": "address",
          "name": "_user",
          "type": "address"
        }
      ],
      "name": "getNftIdsStaked",
      "outputs": [
        {
          "internalType": "uint256[]",
          "name": "nftIds",
          "type": "uint256[]"
        }
      ],
      "stateMutability": "view",
      "type": "function"
    },
    {
      "inputs": [
        {
          "internalType": "address",
          "name": "_baseToken",
          "type": "address"
        }
      ],
      "name": "getRewardRatePerSecond",
      "outputs": [
        {
          "internalType": "uint256",
          "name": "",
          "type": "uint256"
        }
      ],
      "stateMutability": "view",
      "type": "function"
    },
    {
      "inputs": [
        {
          "internalType": "uint256[]",
          "name": "_nftIds",
          "type": "uint256[]"
        },
        {
          "internalType": "contract IHyphenLiquidityFarmingV2",
          "name": "_farmingV2",
          "type": "address"
        }
      ],
      "name": "migrateNftsToV2",
      "outputs": [],
      "stateMutability": "nonpayable",
      "type": "function"
    },
    {
      "inputs": [
        {
          "internalType": "address",
          "name": "",
          "type": "address"
        },
        {
          "internalType": "address",
          "name": "",
          "type": "address"
        },
        {
          "internalType": "uint256",
          "name": "",
          "type": "uint256"
        },
        {
          "internalType": "bytes",
          "name": "",
          "type": "bytes"
        }
      ],
      "name": "onERC721Received",
      "outputs": [
        {
          "internalType": "bytes4",
          "name": "",
          "type": "bytes4"
        }
      ],
      "stateMutability": "pure",
      "type": "function"
    }
  ],
  "bytecode": "0x608060405234801561001057600080fd5b50616a0d80620000216000396000f3fe6080604052600436106102125760003560e01c80637b46c54f11610118578063cd5c645c116100a0578063ea1503521161006f578063ea15035214610847578063f2fde38b14610870578063f5ab16cc14610899578063f8c8765e146108d6578063fdfaa519146108ff5761026e565b8063cd5c645c1461078f578063ce8efa0e146107b8578063da742228146107f5578063ddc645981461081e5761026e565b80639673d01b116100e75780639673d01b146106835780639a7b5f11146106c0578063a2419a6b146106fe578063c1ea386814610729578063c82b882c146107525761026e565b80637b46c54f146105c75780638456cb59146106045780638da5cb5b1461061b578063964efe81146106465761026e565b806346cf889c1161019b5780635fcbd2851161016a5780635fcbd285146105085780636b5399b8146105335780636e553f65146105705780636ef8d66d14610599578063715018a6146105b05761026e565b806346cf889c1461042657806346fbf68e14610463578063572b6c05146104a05780635c975abb146104dd5761026e565b80631f8bc790116101e25780631f8bc7901461034057806322b5c821146103805780632a55b2f8146103a95780632cd271e7146103e65780633f4ba83a1461040f5761026e565b8062f714ce14610273578063150b7a021461029c57806318a1f564146102d957806319c78b43146103025761026e565b3661026e5761021f610928565b73ffffffffffffffffffffffffffffffffffffffff167fdc5856b3d7b3107afc1a59863f377452f210536a45526c9b4ea9c9b02980e6d6346040516102649190614ea4565b60405180910390a2005b600080fd5b34801561027f57600080fd5b5061029a60048036038101906102959190614f53565b610937565b005b3480156102a857600080fd5b506102c360048036038101906102be9190615036565b6109b9565b6040516102d091906150f9565b60405180910390f35b3480156102e557600080fd5b5061030060048036038101906102fb9190615114565b6109e7565b005b34801561030e57600080fd5b5061032960048036038101906103249190615167565b610cef565b6040516103379291906151a7565b60405180910390f35b34801561034c57600080fd5b50610367600480360381019061036291906151d0565b610d31565b6040516103779493929190615227565b60405180910390f35b34801561038c57600080fd5b506103a760048036038101906103a29190615167565b610d8e565b005b3480156103b557600080fd5b506103d060048036038101906103cb9190615167565b610ed0565b6040516103dd9190614ea4565b60405180910390f35b3480156103f257600080fd5b5061040d6004803603810190610408919061526c565b610fdd565b005b34801561041b57600080fd5b50610424611039565b005b34801561043257600080fd5b5061044d6004803603810190610448919061526c565b61108b565b60405161045a9190614ea4565b60405180910390f35b34801561046f57600080fd5b5061048a6004803603810190610485919061526c565b611351565b6040516104979190615299565b60405180910390f35b3480156104ac57600080fd5b506104c760048036038101906104c2919061526c565b6113ab565b6040516104d49190615299565b60405180910390f35b3480156104e957600080fd5b506104f2611405565b6040516104ff9190615299565b60405180910390f35b34801561051457600080fd5b5061051d61141c565b60405161052a9190615313565b60405180910390f35b34801561053f57600080fd5b5061055a6004803603810190610555919061526c565b611442565b6040516105679190614ea4565b60405180910390f35b34801561057c57600080fd5b5061059760048036038101906105929190614f53565b61145b565b005b3480156105a557600080fd5b506105ae611c33565b005b3480156105bc57600080fd5b506105c5611d44565b005b3480156105d357600080fd5b506105ee60048036038101906105e9919061526c565b611d58565b6040516105fb919061536c565b60405180910390f35b34801561061057600080fd5b50610619611f24565b005b34801561062757600080fd5b50610630611f76565b60405161063d9190615396565b60405180910390f35b34801561065257600080fd5b5061066d6004803603810190610668919061526c565b611fa0565b60405161067a9190614ea4565b60405180910390f35b34801561068f57600080fd5b506106aa60048036038101906106a591906151d0565b61205c565b6040516106b79190614ea4565b60405180910390f35b3480156106cc57600080fd5b506106e760048036038101906106e2919061526c565b6122ed565b6040516106f59291906151a7565b60405180910390f35b34801561070a57600080fd5b50610713612311565b60405161072091906153d2565b60405180910390f35b34801561073557600080fd5b50610750600480360381019061074b91906153ed565b612337565b005b34801561075e57600080fd5b5061077960048036038101906107749190615167565b61251b565b6040516107869190614ea4565b60405180910390f35b34801561079b57600080fd5b506107b660048036038101906107b1919061547e565b61254d565b005b3480156107c457600080fd5b506107df60048036038101906107da919061526c565b61266d565b6040516107ec919061555a565b60405180910390f35b34801561080157600080fd5b5061081c6004803603810190610817919061526c565b612705565b005b34801561082a57600080fd5b5061084560048036038101906108409190614f53565b612719565b005b34801561085357600080fd5b5061086e6004803603810190610869919061557c565b61282f565b005b34801561087c57600080fd5b506108976004803603810190610892919061526c565b61289c565b005b3480156108a557600080fd5b506108c060048036038101906108bb919061526c565b61291f565b6040516108cd9190615396565b60405180910390f35b3480156108e257600080fd5b506108fd60048036038101906108f8919061560d565b612953565b005b34801561090b57600080fd5b5061092660048036038101906109219190615708565b612b31565b005b60006109326131f6565b905090565b61093f613228565b600260ca5403610984576040517f08c379a000000000000000000000000000000000000000000000000000000000815260040161097b906157c5565b60405180910390fd5b600260ca81905550600061099f610999610928565b84610ed0565b90506109ac838383613272565b50600160ca819055505050565b60007f150b7a023d4804d13e8c85fb27262cb750cf6ba9f9dd3bb30d90f482ceeb4b1f905095945050505050565b6109ef61388f565b600073ffffffffffffffffffffffffffffffffffffffff1661010060008573ffffffffffffffffffffffffffffffffffffffff1673ffffffffffffffffffffffffffffffffffffffff16815260200190815260200160002060009054906101000a900473ffffffffffffffffffffffffffffffffffffffff1673ffffffffffffffffffffffffffffffffffffffff1614610abe576040517f08c379a0000000000000000000000000000000000000000000000000000000008152600401610ab590615831565b60405180910390fd5b600073ffffffffffffffffffffffffffffffffffffffff168373ffffffffffffffffffffffffffffffffffffffff1603610b2d576040517f08c379a0000000000000000000000000000000000000000000000000000000008152600401610b249061589d565b60405180910390fd5b600073ffffffffffffffffffffffffffffffffffffffff168273ffffffffffffffffffffffffffffffffffffffff1603610b9c576040517f08c379a0000000000000000000000000000000000000000000000000000000008152600401610b9390615909565b60405180910390fd5b8161010060008573ffffffffffffffffffffffffffffffffffffffff1673ffffffffffffffffffffffffffffffffffffffff16815260200190815260200160002060006101000a81548173ffffffffffffffffffffffffffffffffffffffff021916908373ffffffffffffffffffffffffffffffffffffffff16021790555061010360008473ffffffffffffffffffffffffffffffffffffffff1673ffffffffffffffffffffffffffffffffffffffff1681526020019081526020016000206040518060400160405280838152602001428152509080600181540180825580915050600190039060005260206000209060020201600090919091909150600082015181600001556020820151816001015550507f7c250d928c82e44e43a3f894c7ea93f9be918af0d8f6b945fdcce8445bfb4522838383604051610ce293929190615929565b60405180910390a1505050565b6101036020528160005260406000208181548110610d0c57600080fd5b9060005260206000209060020201600091509150508060000154908060010154905082565b60ff6020528060005260406000206000915090508060000160009054906101000a900473ffffffffffffffffffffffffffffffffffffffff16908060010154908060020154908060030160009054906101000a900460ff16905084565b610d9661388f565b701d6329f1c35ca4bfabb9f5610000000000811115610dea576040517f08c379a0000000000000000000000000000000000000000000000000000000008152600401610de1906159ac565b60405180910390fd5b61010360008373ffffffffffffffffffffffffffffffffffffffff1673ffffffffffffffffffffffffffffffffffffffff1681526020019081526020016000206040518060400160405280838152602001428152509080600181540180825580915050600190039060005260206000209060020201600090919091909150600082015181600001556020820151816001015550508173ffffffffffffffffffffffffffffffffffffffff167f4c0d746c25d43d18da7b1762d9676c9256f91be526076a4e67d37a24624adcef82604051610ec49190614ea4565b60405180910390a25050565b60008061010160008573ffffffffffffffffffffffffffffffffffffffff1673ffffffffffffffffffffffffffffffffffffffff16815260200190815260200160002080549050905060005b81811015610f9c578361010160008773ffffffffffffffffffffffffffffffffffffffff1673ffffffffffffffffffffffffffffffffffffffff1681526020019081526020016000208281548110610f7757610f766159cc565b5b906000526020600020015403610f91578092505050610fd7565b806001019050610f1c565b6040517f08c379a0000000000000000000000000000000000000000000000000000000008152600401610fce90615a47565b60405180910390fd5b92915050565b610fe633611351565b611025576040517f08c379a000000000000000000000000000000000000000000000000000000000815260040161101c90615ad9565b60405180910390fd5b61102d613228565b6110368161390d565b50565b61104233611351565b611081576040517f08c379a000000000000000000000000000000000000000000000000000000000815260040161107890615ad9565b60405180910390fd5b611089613a06565b565b60008060009050600060fe60008573ffffffffffffffffffffffffffffffffffffffff1673ffffffffffffffffffffffffffffffffffffffff16815260200190815260200160002060010154905060004290506000600161010360008873ffffffffffffffffffffffffffffffffffffffff1673ffffffffffffffffffffffffffffffffffffffff168152602001908152602001600020805490506111309190615b28565b90505b60011561129a578183101561129a576111af8361010360008973ffffffffffffffffffffffffffffffffffffffff1673ffffffffffffffffffffffffffffffffffffffff1681526020019081526020016000208381548110611198576111976159cc565b5b906000526020600020906002020160010154613a69565b820361010360008873ffffffffffffffffffffffffffffffffffffffff1673ffffffffffffffffffffffffffffffffffffffff1681526020019081526020016000208281548110611203576112026159cc565b5b906000526020600020906002020160000154028401935061010360008773ffffffffffffffffffffffffffffffffffffffff1673ffffffffffffffffffffffffffffffffffffffff168152602001908152602001600020818154811061126c5761126b6159cc565b5b9060005260206000209060020201600101549150600081031561129a578061129390615b5c565b9050611133565b61010260008773ffffffffffffffffffffffffffffffffffffffff1673ffffffffffffffffffffffffffffffffffffffff1681526020019081526020016000205464e8d4a51000856112ec9190615b85565b6112f69190615c0e565b935060fe60008773ffffffffffffffffffffffffffffffffffffffff1673ffffffffffffffffffffffffffffffffffffffff16815260200190815260200160002060000154846113469190615c3f565b945050505050919050565b600060c960009054906101000a900473ffffffffffffffffffffffffffffffffffffffff1673ffffffffffffffffffffffffffffffffffffffff168273ffffffffffffffffffffffffffffffffffffffff16149050919050565b6000603360009054906101000a900473ffffffffffffffffffffffffffffffffffffffff1673ffffffffffffffffffffffffffffffffffffffff168273ffffffffffffffffffffffffffffffffffffffff16149050919050565b6000609760009054906101000a900460ff16905090565b60fc60009054906101000a900473ffffffffffffffffffffffffffffffffffffffff1681565b6101026020528060005260406000206000915090505481565b611463613228565b600260ca54036114a8576040517f08c379a000000000000000000000000000000000000000000000000000000000815260040161149f906157c5565b60405180910390fd5b600260ca8190555060006114ba610928565b9050600073ffffffffffffffffffffffffffffffffffffffff168273ffffffffffffffffffffffffffffffffffffffff160361152b576040517f08c379a000000000000000000000000000000000000000000000000000000000815260040161152290615ce1565b60405180910390fd5b60fc60009054906101000a900473ffffffffffffffffffffffffffffffffffffffff1673ffffffffffffffffffffffffffffffffffffffff1663e985e9c582306040518363ffffffff1660e01b8152600401611588929190615d01565b602060405180830381865afa1580156115a5573d6000803e3d6000fd5b505050506040513d601f19601f820116820180604052508101906115c99190615d56565b8061169a57503073ffffffffffffffffffffffffffffffffffffffff1660fc60009054906101000a900473ffffffffffffffffffffffffffffffffffffffff1673ffffffffffffffffffffffffffffffffffffffff1663081812fc856040518263ffffffff1660e01b81526004016116419190614ea4565b602060405180830381865afa15801561165e573d6000803e3d6000fd5b505050506040513d601f19601f820116820180604052508101906116829190615d98565b73ffffffffffffffffffffffffffffffffffffffff16145b6116d9576040517f08c379a00000000000000000000000000000000000000000000000000000000081526004016116d090615e11565b60405180910390fd5b600060ff600085815260200190815260200160002090508060030160009054906101000a900460ff1615611742576040517f08c379a000000000000000000000000000000000000000000000000000000000815260040161173990615e7d565b60405180910390fd5b60008060fc60009054906101000a900473ffffffffffffffffffffffffffffffffffffffff1673ffffffffffffffffffffffffffffffffffffffff16636914db60876040518263ffffffff1660e01b81526004016117a09190614ea4565b606060405180830381865afa1580156117bd573d6000803e3d6000fd5b505050506040513d601f19601f820116820180604052508101906117e19190615eb2565b925050915060fd60009054906101000a900473ffffffffffffffffffffffffffffffffffffffff1673ffffffffffffffffffffffffffffffffffffffff16633ed771146040518163ffffffff1660e01b8152600401602060405180830381865afa158015611853573d6000803e3d6000fd5b505050506040513d601f19601f820116820180604052508101906118779190615f05565b816118829190615c0e565b9050600073ffffffffffffffffffffffffffffffffffffffff1661010060008473ffffffffffffffffffffffffffffffffffffffff1673ffffffffffffffffffffffffffffffffffffffff16815260200190815260200160002060009054906101000a900473ffffffffffffffffffffffffffffffffffffffff1673ffffffffffffffffffffffffffffffffffffffff1603611953576040517f08c379a000000000000000000000000000000000000000000000000000000000815260040161194a90615f7e565b60405180910390fd5b600061010360008473ffffffffffffffffffffffffffffffffffffffff1673ffffffffffffffffffffffffffffffffffffffff16815260200190815260200160002080549050036119d9576040517f08c379a00000000000000000000000000000000000000000000000000000000081526004016119d090615f7e565b60405180910390fd5b60fc60009054906101000a900473ffffffffffffffffffffffffffffffffffffffff1673ffffffffffffffffffffffffffffffffffffffff166342842e0e8530896040518463ffffffff1660e01b8152600401611a3893929190615929565b600060405180830381600087803b158015611a5257600080fd5b505af1158015611a66573d6000803e3d6000fd5b505050506000611a7583611d58565b905060018460030160006101000a81548160ff021916908315150217905550858460000160006101000a81548173ffffffffffffffffffffffffffffffffffffffff021916908373ffffffffffffffffffffffffffffffffffffffff16021790555064e8d4a51000816000015183611aed9190615b85565b611af79190615c0e565b846001018190555061010160008773ffffffffffffffffffffffffffffffffffffffff1673ffffffffffffffffffffffffffffffffffffffff1681526020019081526020016000208790806001815401808255809150506001900390600052602060002001600090919091909150558161010260008573ffffffffffffffffffffffffffffffffffffffff1673ffffffffffffffffffffffffffffffffffffffff1681526020019081526020016000206000828254611bb69190615c3f565b925050819055508273ffffffffffffffffffffffffffffffffffffffff168573ffffffffffffffffffffffffffffffffffffffff167f5c8d1f77b6233deba47b516a690497af4c7f1be42a768e331832cb02b3400d6b89604051611c1a9190614ea4565b60405180910390a35050505050600160ca819055505050565b611c3c33611351565b611c7b576040517f08c379a0000000000000000000000000000000000000000000000000000000008152600401611c7290615ad9565b60405180910390fd5b611c83613228565b600073ffffffffffffffffffffffffffffffffffffffff1660c960009054906101000a900473ffffffffffffffffffffffffffffffffffffffff1673ffffffffffffffffffffffffffffffffffffffff167f95bb211a5a393c4d30c3edc9a745825fba4e6ad3e3bb949e6bf8ccdfe431a81160405160405180910390a3600060c960006101000a81548173ffffffffffffffffffffffffffffffffffffffff021916908373ffffffffffffffffffffffffffffffffffffffff160217905550565b611d4c61388f565b611d566000613a83565b565b611d60614e71565b611d68613228565b60fe60008373ffffffffffffffffffffffffffffffffffffffff1673ffffffffffffffffffffffffffffffffffffffff168152602001908152602001600020604051806040016040529081600082015481526020016001820154815250509050600061010260008473ffffffffffffffffffffffffffffffffffffffff1673ffffffffffffffffffffffffffffffffffffffff168152602001908152602001600020541115611e2457611e1a8261108b565b8160000181815250505b428160200181815250508060fe60008473ffffffffffffffffffffffffffffffffffffffff1673ffffffffffffffffffffffffffffffffffffffff16815260200190815260200160002060008201518160000155602082015181600101559050508173ffffffffffffffffffffffffffffffffffffffff167ffa4534c55db3b65cd96eafe03e5ce9fd87638590f49d5907978ff8489ea66ecb826020015161010260008673ffffffffffffffffffffffffffffffffffffffff1673ffffffffffffffffffffffffffffffffffffffff168152602001908152602001600020548460000151604051611f1793929190615f9e565b60405180910390a2919050565b611f2d33611351565b611f6c576040517f08c379a0000000000000000000000000000000000000000000000000000000008152600401611f6390615ad9565b60405180910390fd5b611f74613b49565b565b6000606560009054906101000a900473ffffffffffffffffffffffffffffffffffffffff16905090565b600061010360008373ffffffffffffffffffffffffffffffffffffffff1673ffffffffffffffffffffffffffffffffffffffff168152602001908152602001600020600161010360008573ffffffffffffffffffffffffffffffffffffffff1673ffffffffffffffffffffffffffffffffffffffff168152602001908152602001600020805490506120329190615b28565b81548110612043576120426159cc565b5b9060005260206000209060020201600001549050919050565b60008060ff600084815260200190815260200160002090508060030160009054906101000a900460ff166120945760009150506122e8565b60008060fc60009054906101000a900473ffffffffffffffffffffffffffffffffffffffff1673ffffffffffffffffffffffffffffffffffffffff16636914db60866040518263ffffffff1660e01b81526004016120f29190614ea4565b606060405180830381865afa15801561210f573d6000803e3d6000fd5b505050506040513d601f19601f820116820180604052508101906121339190615eb2565b925050915060fd60009054906101000a900473ffffffffffffffffffffffffffffffffffffffff1673ffffffffffffffffffffffffffffffffffffffff16633ed771146040518163ffffffff1660e01b8152600401602060405180830381865afa1580156121a5573d6000803e3d6000fd5b505050506040513d601f19601f820116820180604052508101906121c99190615f05565b816121d49190615c0e565b9050600060fe60008473ffffffffffffffffffffffffffffffffffffffff1673ffffffffffffffffffffffffffffffffffffffff1681526020019081526020016000206040518060400160405290816000820154815260200160018201548152505090506000816000015190508160200151421180156122955750600061010260008673ffffffffffffffffffffffffffffffffffffffff1673ffffffffffffffffffffffffffffffffffffffff1681526020019081526020016000205414155b156122a6576122a38461108b565b90505b8460020154856001015464e8d4a5100083866122c29190615b85565b6122cc9190615c0e565b6122d69190615b28565b6122e09190615c3f565b955050505050505b919050565b60fe6020528060005260406000206000915090508060000154908060010154905082565b60fd60009054906101000a900473ffffffffffffffffffffffffffffffffffffffff1681565b61233f61388f565b600073ffffffffffffffffffffffffffffffffffffffff168173ffffffffffffffffffffffffffffffffffffffff16036123ae576040517f08c379a00000000000000000000000000000000000000000000000000000000081526004016123a590615ce1565b60405180910390fd5b600082036123f1576040517f08c379a00000000000000000000000000000000000000000000000000000000081526004016123e890616021565b60405180910390fd5b73eeeeeeeeeeeeeeeeeeeeeeeeeeeeeeeeeeeeeeee73ffffffffffffffffffffffffffffffffffffffff168373ffffffffffffffffffffffffffffffffffffffff16036124ea5760008173ffffffffffffffffffffffffffffffffffffffff168360405161245e90616072565b60006040518083038185875af1925050503d806000811461249b576040519150601f19603f3d011682016040523d82523d6000602084013e6124a0565b606091505b50509050806124e4576040517f08c379a00000000000000000000000000000000000000000000000000000000081526004016124db906160d3565b60405180910390fd5b50612516565b61251581838573ffffffffffffffffffffffffffffffffffffffff16613bac9092919063ffffffff16565b5b505050565b610101602052816000526040600020818154811061253857600080fd5b90600052602060002001600091509150505481565b61255561388f565b600073ffffffffffffffffffffffffffffffffffffffff168173ffffffffffffffffffffffffffffffffffffffff16036125c4576040517f08c379a00000000000000000000000000000000000000000000000000000000081526004016125bb9061613f565b60405180910390fd5b8060fd60006101000a81548173ffffffffffffffffffffffffffffffffffffffff021916908373ffffffffffffffffffffffffffffffffffffffff16021790555060fd60009054906101000a900473ffffffffffffffffffffffffffffffffffffffff1673ffffffffffffffffffffffffffffffffffffffff167fc4c228afa62bc2b81cbfa4764a417d7a0cb5267d32f5e3e34b34e35f44aa1ff360405160405180910390a250565b606061010160008373ffffffffffffffffffffffffffffffffffffffff1673ffffffffffffffffffffffffffffffffffffffff1681526020019081526020016000208054806020026020016040519081016040528092919081815260200182805480156126f957602002820191906000526020600020905b8154815260200190600101908083116126e5575b50505050509050919050565b61270d61388f565b61271681613c32565b50565b612721613228565b600260ca5403612766576040517f08c379a000000000000000000000000000000000000000000000000000000000815260040161275d906157c5565b60405180910390fd5b600260ca81905550612776610928565b73ffffffffffffffffffffffffffffffffffffffff1660ff600084815260200190815260200160002060000160009054906101000a900473ffffffffffffffffffffffffffffffffffffffff1673ffffffffffffffffffffffffffffffffffffffff1614612819576040517f08c379a0000000000000000000000000000000000000000000000000000000008152600401612810906161ab565b60405180910390fd5b6128238282613d28565b600160ca819055505050565b612837613228565b600260ca540361287c576040517f08c379a0000000000000000000000000000000000000000000000000000000008152600401612873906157c5565b60405180910390fd5b600260ca8190555061288f838383613272565b600160ca81905550505050565b6128a461388f565b600073ffffffffffffffffffffffffffffffffffffffff168173ffffffffffffffffffffffffffffffffffffffff1603612913576040517f08c379a000000000000000000000000000000000000000000000000000000000815260040161290a9061623d565b60405180910390fd5b61291c81613a83565b50565b6101006020528060005260406000206000915054906101000a900473ffffffffffffffffffffffffffffffffffffffff1681565b60008060019054906101000a900460ff161590508080156129845750600160008054906101000a900460ff1660ff16105b806129b1575061299330614339565b1580156129b05750600160008054906101000a900460ff1660ff16145b5b6129f0576040517f08c379a00000000000000000000000000000000000000000000000000000000081526004016129e7906162cf565b60405180910390fd5b60016000806101000a81548160ff021916908360ff1602179055508015612a2d576001600060016101000a81548160ff0219169083151502179055505b612a368561435c565b612a3e6144a4565b612a47846144fd565b612a4f6146ec565b8260fd60006101000a81548173ffffffffffffffffffffffffffffffffffffffff021916908373ffffffffffffffffffffffffffffffffffffffff1602179055508160fc60006101000a81548173ffffffffffffffffffffffffffffffffffffffff021916908373ffffffffffffffffffffffffffffffffffffffff1602179055508015612b2a5760008060016101000a81548160ff0219169083151502179055507f7f26b83ff96e1f2b6a682f133852f6798a09c465da95921460cefb38474024986001604051612b219190616337565b60405180910390a15b5050505050565b60008383905090506000612b43610928565b905060005b828110156131ee576000868683818110612b6557612b646159cc565b5b9050602002013590506000612b81612b7b610928565b83610ed0565b90508161010160008673ffffffffffffffffffffffffffffffffffffffff1673ffffffffffffffffffffffffffffffffffffffff1681526020019081526020016000208281548110612bd657612bd56159cc565b5b906000526020600020015414612c21576040517f08c379a0000000000000000000000000000000000000000000000000000000008152600401612c18906161ab565b60405180910390fd5b8373ffffffffffffffffffffffffffffffffffffffff1660ff600084815260200190815260200160002060000160009054906101000a900473ffffffffffffffffffffffffffffffffffffffff1673ffffffffffffffffffffffffffffffffffffffff1614612cc5576040517f08c379a0000000000000000000000000000000000000000000000000000000008152600401612cbc906161ab565b60405180910390fd5b61010160008573ffffffffffffffffffffffffffffffffffffffff1673ffffffffffffffffffffffffffffffffffffffff168152602001908152602001600020600161010160008773ffffffffffffffffffffffffffffffffffffffff1673ffffffffffffffffffffffffffffffffffffffff16815260200190815260200160002080549050612d559190615b28565b81548110612d6657612d656159cc565b5b906000526020600020015461010160008673ffffffffffffffffffffffffffffffffffffffff1673ffffffffffffffffffffffffffffffffffffffff1681526020019081526020016000208281548110612dc357612dc26159cc565b5b906000526020600020018190555061010160008573ffffffffffffffffffffffffffffffffffffffff1673ffffffffffffffffffffffffffffffffffffffff168152602001908152602001600020805480612e2157612e20616352565b5b60019003818190600052602060002001600090559055612e418285613d28565b600060ff60008481526020019081526020016000206002015414612e9a576040517f08c379a0000000000000000000000000000000000000000000000000000000008152600401612e91906163cd565b60405180910390fd5b60ff6000838152602001908152602001600020600080820160006101000a81549073ffffffffffffffffffffffffffffffffffffffff0219169055600182016000905560028201600090556003820160006101000a81549060ff0219169055505060008060fc60009054906101000a900473ffffffffffffffffffffffffffffffffffffffff1673ffffffffffffffffffffffffffffffffffffffff16636914db60856040518263ffffffff1660e01b8152600401612f599190614ea4565b606060405180830381865afa158015612f76573d6000803e3d6000fd5b505050506040513d601f19601f82011682018060405250810190612f9a9190615eb2565b925050915060fd60009054906101000a900473ffffffffffffffffffffffffffffffffffffffff1673ffffffffffffffffffffffffffffffffffffffff16633ed771146040518163ffffffff1660e01b8152600401602060405180830381865afa15801561300c573d6000803e3d6000fd5b505050506040513d601f19601f820116820180604052508101906130309190615f05565b8161303b9190615c0e565b90508061010260008473ffffffffffffffffffffffffffffffffffffffff1673ffffffffffffffffffffffffffffffffffffffff168152602001908152602001600020600082825461308d9190615b28565b9250508190555060fc60009054906101000a900473ffffffffffffffffffffffffffffffffffffffff1673ffffffffffffffffffffffffffffffffffffffff1663095ea7b389866040518363ffffffff1660e01b81526004016130f19291906163ed565b600060405180830381600087803b15801561310b57600080fd5b505af115801561311f573d6000803e3d6000fd5b505050508773ffffffffffffffffffffffffffffffffffffffff16636e553f6585886040518363ffffffff1660e01b815260040161315e929190616437565b600060405180830381600087803b15801561317857600080fd5b505af115801561318c573d6000803e3d6000fd5b50505050838673ffffffffffffffffffffffffffffffffffffffff167f3329b4b4c61470b3b9f49cf5926845067bd98c601a4cb7f8dcf46cb8c45c77c58a6040516131d79190616481565b60405180910390a384600101945050505050612b48565b505050505050565b6000613201336113ab565b1561321557601436033560601c9050613224565b61321d614745565b9050613225565b5b90565b613230611405565b15613270576040517f08c379a0000000000000000000000000000000000000000000000000000000008152600401613267906164e8565b60405180910390fd5b565b600061327c610928565b90508361010160008373ffffffffffffffffffffffffffffffffffffffff1673ffffffffffffffffffffffffffffffffffffffff16815260200190815260200160002083815481106132d1576132d06159cc565b5b90600052602060002001541461331c576040517f08c379a0000000000000000000000000000000000000000000000000000000008152600401613313906161ab565b60405180910390fd5b8073ffffffffffffffffffffffffffffffffffffffff1660ff600086815260200190815260200160002060000160009054906101000a900473ffffffffffffffffffffffffffffffffffffffff1673ffffffffffffffffffffffffffffffffffffffff16146133c0576040517f08c379a00000000000000000000000000000000000000000000000000000000081526004016133b7906161ab565b60405180910390fd5b600060ff60008681526020019081526020016000206002015414613419576040517f08c379a0000000000000000000000000000000000000000000000000000000008152600401613410906163cd565b60405180910390fd5b61010160008273ffffffffffffffffffffffffffffffffffffffff1673ffffffffffffffffffffffffffffffffffffffff168152602001908152602001600020600161010160008473ffffffffffffffffffffffffffffffffffffffff1673ffffffffffffffffffffffffffffffffffffffff168152602001908152602001600020805490506134a99190615b28565b815481106134ba576134b96159cc565b5b906000526020600020015461010160008373ffffffffffffffffffffffffffffffffffffffff1673ffffffffffffffffffffffffffffffffffffffff1681526020019081526020016000208381548110613517576135166159cc565b5b906000526020600020018190555061010160008273ffffffffffffffffffffffffffffffffffffffff1673ffffffffffffffffffffffffffffffffffffffff16815260200190815260200160002080548061357557613574616352565b5b600190038181906000526020600020016000905590556135958484613d28565b60ff6000858152602001908152602001600020600080820160006101000a81549073ffffffffffffffffffffffffffffffffffffffff0219169055600182016000905560028201600090556003820160006101000a81549060ff0219169055505060008060fc60009054906101000a900473ffffffffffffffffffffffffffffffffffffffff1673ffffffffffffffffffffffffffffffffffffffff16636914db60876040518263ffffffff1660e01b81526004016136549190614ea4565b606060405180830381865afa158015613671573d6000803e3d6000fd5b505050506040513d601f19601f820116820180604052508101906136959190615eb2565b925050915060fd60009054906101000a900473ffffffffffffffffffffffffffffffffffffffff1673ffffffffffffffffffffffffffffffffffffffff16633ed771146040518163ffffffff1660e01b8152600401602060405180830381865afa158015613707573d6000803e3d6000fd5b505050506040513d601f19601f8201168201806040525081019061372b9190615f05565b816137369190615c0e565b90508061010260008473ffffffffffffffffffffffffffffffffffffffff1673ffffffffffffffffffffffffffffffffffffffff16815260200190815260200160002060008282546137889190615b28565b9250508190555060fc60009054906101000a900473ffffffffffffffffffffffffffffffffffffffff1673ffffffffffffffffffffffffffffffffffffffff166342842e0e3085896040518463ffffffff1660e01b81526004016137ee93929190615929565b600060405180830381600087803b15801561380857600080fd5b505af115801561381c573d6000803e3d6000fd5b505050508473ffffffffffffffffffffffffffffffffffffffff168373ffffffffffffffffffffffffffffffffffffffff167f48ce91f1a4c01bb1d97a89b885877d2c4654fd733041b4ea000924fb306a8038848960405161387f9291906163ed565b60405180910390a3505050505050565b613897610928565b73ffffffffffffffffffffffffffffffffffffffff166138b5611f76565b73ffffffffffffffffffffffffffffffffffffffff161461390b576040517f08c379a000000000000000000000000000000000000000000000000000000000815260040161390290616554565b60405180910390fd5b565b600073ffffffffffffffffffffffffffffffffffffffff168173ffffffffffffffffffffffffffffffffffffffff160361394657600080fd5b8073ffffffffffffffffffffffffffffffffffffffff1660c960009054906101000a900473ffffffffffffffffffffffffffffffffffffffff1673ffffffffffffffffffffffffffffffffffffffff167f95bb211a5a393c4d30c3edc9a745825fba4e6ad3e3bb949e6bf8ccdfe431a81160405160405180910390a38060c960006101000a81548173ffffffffffffffffffffffffffffffffffffffff021916908373ffffffffffffffffffffffffffffffffffffffff16021790555050565b613a0e61474d565b6000609760006101000a81548160ff0219169083151502179055507f5db9ee0a495bf2e6ff9c91a7834c1ba4fdd244a5e8aa4e537bd38aeae4b073aa613a52610928565b604051613a5f9190615396565b60405180910390a1565b600081831015613a795781613a7b565b825b905092915050565b6000606560009054906101000a900473ffffffffffffffffffffffffffffffffffffffff16905081606560006101000a81548173ffffffffffffffffffffffffffffffffffffffff021916908373ffffffffffffffffffffffffffffffffffffffff1602179055508173ffffffffffffffffffffffffffffffffffffffff168173ffffffffffffffffffffffffffffffffffffffff167f8be0079c531659141344cd1fd0a4f28419497f9722a3daafe3b4186f6b6457e060405160405180910390a35050565b613b51613228565b6001609760006101000a81548160ff0219169083151502179055507f62e78cea01bee320cd4e420270b5ea74000d11b0c9f74754ebdbfc544b05a258613b95610928565b604051613ba29190615396565b60405180910390a1565b613c2d8363a9059cbb60e01b8484604051602401613bcb9291906163ed565b604051602081830303815290604052907bffffffffffffffffffffffffffffffffffffffffffffffffffffffff19166020820180517bffffffffffffffffffffffffffffffffffffffffffffffffffffffff8381831617835250505050614796565b505050565b600073ffffffffffffffffffffffffffffffffffffffff168173ffffffffffffffffffffffffffffffffffffffff1603613ca1576040517f08c379a0000000000000000000000000000000000000000000000000000000008152600401613c98906165c0565b60405180910390fd5b80603360006101000a81548173ffffffffffffffffffffffffffffffffffffffff021916908373ffffffffffffffffffffffffffffffffffffffff1602179055508073ffffffffffffffffffffffffffffffffffffffff167f871264f4293af7d2865ae7eae628b228f4991c57cb45b39c99f0b774ebe2901860405160405180910390a250565b600060ff600084815260200190815260200160002090508060030160009054906101000a900460ff16613d90576040517f08c379a0000000000000000000000000000000000000000000000000000000008152600401613d8790615a47565b60405180910390fd5b60008060fc60009054906101000a900473ffffffffffffffffffffffffffffffffffffffff1673ffffffffffffffffffffffffffffffffffffffff16636914db60866040518263ffffffff1660e01b8152600401613dee9190614ea4565b606060405180830381865afa158015613e0b573d6000803e3d6000fd5b505050506040513d601f19601f82011682018060405250810190613e2f9190615eb2565b925050915060fd60009054906101000a900473ffffffffffffffffffffffffffffffffffffffff1673ffffffffffffffffffffffffffffffffffffffff16633ed771146040518163ffffffff1660e01b8152600401602060405180830381865afa158015613ea1573d6000803e3d6000fd5b505050506040513d601f19601f82011682018060405250810190613ec59190615f05565b81613ed09190615c0e565b90506000613edd83611d58565b90506000806000841115614284578560020154866001015464e8d4a51000856000015187613f0b9190615b85565b613f159190615c0e565b613f1f9190615b28565b613f299190615c3f565b915073eeeeeeeeeeeeeeeeeeeeeeeeeeeeeeeeeeeeeeee73ffffffffffffffffffffffffffffffffffffffff1661010060008773ffffffffffffffffffffffffffffffffffffffff1673ffffffffffffffffffffffffffffffffffffffff16815260200190815260200160002060009054906101000a900473ffffffffffffffffffffffffffffffffffffffff1673ffffffffffffffffffffffffffffffffffffffff16036141605760004790508083111561409f57808303876002018190555060008873ffffffffffffffffffffffffffffffffffffffff168260405161401090616072565b60006040518083038185875af1925050503d806000811461404d576040519150601f19603f3d011682016040523d82523d6000602084013e614052565b606091505b5050905080614096576040517f08c379a000000000000000000000000000000000000000000000000000000000815260040161408d906160d3565b60405180910390fd5b8192505061415a565b6000876002018190555060008873ffffffffffffffffffffffffffffffffffffffff16846040516140cf90616072565b60006040518083038185875af1925050503d806000811461410c576040519150601f19603f3d011682016040523d82523d6000602084013e614111565b606091505b5050905080614155576040517f08c379a000000000000000000000000000000000000000000000000000000000815260040161414c906160d3565b60405180910390fd5b839250505b50614283565b600061010060008773ffffffffffffffffffffffffffffffffffffffff1673ffffffffffffffffffffffffffffffffffffffff16815260200190815260200160002060009054906101000a900473ffffffffffffffffffffffffffffffffffffffff16905060008173ffffffffffffffffffffffffffffffffffffffff166370a08231306040518263ffffffff1660e01b81526004016142009190615396565b602060405180830381865afa15801561421d573d6000803e3d6000fd5b505050506040513d601f19601f820116820180604052508101906142419190615f05565b90508084111561426857808403886002018190555061426182828b61485d565b9250614280565b6000886002018190555061427d82858b61485d565b92505b50505b5b64e8d4a5100083600001518561429a9190615b85565b6142a49190615c0e565b86600101819055508673ffffffffffffffffffffffffffffffffffffffff168573ffffffffffffffffffffffffffffffffffffffff166142e2610928565b73ffffffffffffffffffffffffffffffffffffffff167f9a10eacd1c879d4cddc2387cfbc23057de5f4d554a91e9eb7e07c66ead11c9df846040516143279190614ea4565b60405180910390a45050505050505050565b6000808273ffffffffffffffffffffffffffffffffffffffff163b119050919050565b60008060019054906101000a900460ff1615905080801561438d5750600160008054906101000a900460ff1660ff16105b806143ba575061439c30614339565b1580156143b95750600160008054906101000a900460ff1660ff16145b5b6143f9576040517f08c379a00000000000000000000000000000000000000000000000000000000081526004016143f0906162cf565b60405180910390fd5b60016000806101000a81548160ff021916908360ff1602179055508015614436576001600060016101000a81548160ff0219169083151502179055505b61443e614996565b614447826149e7565b80156144a05760008060016101000a81548160ff0219169083151502179055507f7f26b83ff96e1f2b6a682f133852f6798a09c465da95921460cefb384740249860016040516144979190616337565b60405180910390a15b5050565b600060019054906101000a900460ff166144f3576040517f08c379a00000000000000000000000000000000000000000000000000000000081526004016144ea90616652565b60405180910390fd5b6144fb614b5f565b565b60008060019054906101000a900460ff1615905080801561452e5750600160008054906101000a900460ff1660ff16105b8061455b575061453d30614339565b15801561455a5750600160008054906101000a900460ff1660ff16145b5b61459a576040517f08c379a0000000000000000000000000000000000000000000000000000000008152600401614591906162cf565b60405180910390fd5b60016000806101000a81548160ff021916908360ff16021790555080156145d7576001600060016101000a81548160ff0219169083151502179055505b600073ffffffffffffffffffffffffffffffffffffffff168273ffffffffffffffffffffffffffffffffffffffff1603614646576040517f08c379a000000000000000000000000000000000000000000000000000000000815260040161463d906166be565b60405180910390fd5b61464e614bc0565b8160c960006101000a81548173ffffffffffffffffffffffffffffffffffffffff021916908373ffffffffffffffffffffffffffffffffffffffff16021790555080156146e85760008060016101000a81548160ff0219169083151502179055507f7f26b83ff96e1f2b6a682f133852f6798a09c465da95921460cefb384740249860016040516146df9190616337565b60405180910390a15b5050565b600060019054906101000a900460ff1661473b576040517f08c379a000000000000000000000000000000000000000000000000000000000815260040161473290616652565b60405180910390fd5b614743614c19565b565b600033905090565b614755611405565b614794576040517f08c379a000000000000000000000000000000000000000000000000000000000815260040161478b9061672a565b60405180910390fd5b565b60006147f8826040518060400160405280602081526020017f5361666545524332303a206c6f772d6c6576656c2063616c6c206661696c65648152508573ffffffffffffffffffffffffffffffffffffffff16614c729092919063ffffffff16565b905060008151111561485857808060200190518101906148189190615d56565b614857576040517f08c379a000000000000000000000000000000000000000000000000000000000815260040161484e906167bc565b60405180910390fd5b5b505050565b6000808473ffffffffffffffffffffffffffffffffffffffff166370a08231306040518263ffffffff1660e01b81526004016148999190615396565b602060405180830381865afa1580156148b6573d6000803e3d6000fd5b505050506040513d601f19601f820116820180604052508101906148da9190615f05565b905061490783858773ffffffffffffffffffffffffffffffffffffffff16613bac9092919063ffffffff16565b8473ffffffffffffffffffffffffffffffffffffffff166370a08231306040518263ffffffff1660e01b81526004016149409190615396565b602060405180830381865afa15801561495d573d6000803e3d6000fd5b505050506040513d601f19601f820116820180604052508101906149819190615f05565b8161498c9190615b28565b9150509392505050565b600060019054906101000a900460ff166149e5576040517f08c379a00000000000000000000000000000000000000000000000000000000081526004016149dc90616652565b60405180910390fd5b565b60008060019054906101000a900460ff16159050808015614a185750600160008054906101000a900460ff1660ff16105b80614a455750614a2730614339565b158015614a445750600160008054906101000a900460ff1660ff16145b5b614a84576040517f08c379a0000000000000000000000000000000000000000000000000000000008152600401614a7b906162cf565b60405180910390fd5b60016000806101000a81548160ff021916908360ff1602179055508015614ac1576001600060016101000a81548160ff0219169083151502179055505b81603360006101000a81548173ffffffffffffffffffffffffffffffffffffffff021916908373ffffffffffffffffffffffffffffffffffffffff1602179055508015614b5b5760008060016101000a81548160ff0219169083151502179055507f7f26b83ff96e1f2b6a682f133852f6798a09c465da95921460cefb38474024986001604051614b529190616337565b60405180910390a15b5050565b600060019054906101000a900460ff16614bae576040517f08c379a0000000000000000000000000000000000000000000000000000000008152600401614ba590616652565b60405180910390fd5b614bbe614bb9610928565b613a83565b565b600060019054906101000a900460ff16614c0f576040517f08c379a0000000000000000000000000000000000000000000000000000000008152600401614c0690616652565b60405180910390fd5b614c17614c8a565b565b600060019054906101000a900460ff16614c68576040517f08c379a0000000000000000000000000000000000000000000000000000000008152600401614c5f90616652565b60405180910390fd5b600160ca81905550565b6060614c818484600085614cf6565b90509392505050565b600060019054906101000a900460ff16614cd9576040517f08c379a0000000000000000000000000000000000000000000000000000000008152600401614cd090616652565b60405180910390fd5b6000609760006101000a81548160ff021916908315150217905550565b606082471015614d3b576040517f08c379a0000000000000000000000000000000000000000000000000000000008152600401614d329061684e565b60405180910390fd5b614d4485614339565b614d83576040517f08c379a0000000000000000000000000000000000000000000000000000000008152600401614d7a906168ba565b60405180910390fd5b6000808673ffffffffffffffffffffffffffffffffffffffff168587604051614dac9190616949565b60006040518083038185875af1925050503d8060008114614de9576040519150601f19603f3d011682016040523d82523d6000602084013e614dee565b606091505b5091509150614dfe828286614e0a565b92505050949350505050565b60608315614e1a57829050614e6a565b600083511115614e2d5782518084602001fd5b816040517f08c379a0000000000000000000000000000000000000000000000000000000008152600401614e6191906169b5565b60405180910390fd5b9392505050565b604051806040016040528060008152602001600081525090565b6000819050919050565b614e9e81614e8b565b82525050565b6000602082019050614eb96000830184614e95565b92915050565b600080fd5b600080fd5b614ed281614e8b565b8114614edd57600080fd5b50565b600081359050614eef81614ec9565b92915050565b600073ffffffffffffffffffffffffffffffffffffffff82169050919050565b6000614f2082614ef5565b9050919050565b614f3081614f15565b8114614f3b57600080fd5b50565b600081359050614f4d81614f27565b92915050565b60008060408385031215614f6a57614f69614ebf565b5b6000614f7885828601614ee0565b9250506020614f8985828601614f3e565b9150509250929050565b6000614f9e82614ef5565b9050919050565b614fae81614f93565b8114614fb957600080fd5b50565b600081359050614fcb81614fa5565b92915050565b600080fd5b600080fd5b600080fd5b60008083601f840112614ff657614ff5614fd1565b5b8235905067ffffffffffffffff81111561501357615012614fd6565b5b60208301915083600182028301111561502f5761502e614fdb565b5b9250929050565b60008060008060006080868803121561505257615051614ebf565b5b600061506088828901614fbc565b955050602061507188828901614fbc565b945050604061508288828901614ee0565b935050606086013567ffffffffffffffff8111156150a3576150a2614ec4565b5b6150af88828901614fe0565b92509250509295509295909350565b60007fffffffff0000000000000000000000000000000000000000000000000000000082169050919050565b6150f3816150be565b82525050565b600060208201905061510e60008301846150ea565b92915050565b60008060006060848603121561512d5761512c614ebf565b5b600061513b86828701614fbc565b935050602061514c86828701614fbc565b925050604061515d86828701614ee0565b9150509250925092565b6000806040838503121561517e5761517d614ebf565b5b600061518c85828601614fbc565b925050602061519d85828601614ee0565b9150509250929050565b60006040820190506151bc6000830185614e95565b6151c96020830184614e95565b9392505050565b6000602082840312156151e6576151e5614ebf565b5b60006151f484828501614ee0565b91505092915050565b61520681614f15565b82525050565b60008115159050919050565b6152218161520c565b82525050565b600060808201905061523c60008301876151fd565b6152496020830186614e95565b6152566040830185614e95565b6152636060830184615218565b95945050505050565b60006020828403121561528257615281614ebf565b5b600061529084828501614fbc565b91505092915050565b60006020820190506152ae6000830184615218565b92915050565b6000819050919050565b60006152d96152d46152cf84614ef5565b6152b4565b614ef5565b9050919050565b60006152eb826152be565b9050919050565b60006152fd826152e0565b9050919050565b61530d816152f2565b82525050565b60006020820190506153286000830184615304565b92915050565b61533781614e8b565b82525050565b604082016000820151615353600085018261532e565b506020820151615366602085018261532e565b50505050565b6000604082019050615381600083018461533d565b92915050565b61539081614f93565b82525050565b60006020820190506153ab6000830184615387565b92915050565b60006153bc826152e0565b9050919050565b6153cc816153b1565b82525050565b60006020820190506153e760008301846153c3565b92915050565b60008060006060848603121561540657615405614ebf565b5b600061541486828701614fbc565b935050602061542586828701614ee0565b925050604061543686828701614f3e565b9150509250925092565b600061544b82614f93565b9050919050565b61545b81615440565b811461546657600080fd5b50565b60008135905061547881615452565b92915050565b60006020828403121561549457615493614ebf565b5b60006154a284828501615469565b91505092915050565b600081519050919050565b600082825260208201905092915050565b6000819050602082019050919050565b60006154e3838361532e565b60208301905092915050565b6000602082019050919050565b6000615507826154ab565b61551181856154b6565b935061551c836154c7565b8060005b8381101561554d57815161553488826154d7565b975061553f836154ef565b925050600181019050615520565b5085935050505092915050565b6000602082019050818103600083015261557481846154fc565b905092915050565b60008060006060848603121561559557615594614ebf565b5b60006155a386828701614ee0565b93505060206155b486828701614f3e565b92505060406155c586828701614ee0565b9150509250925092565b60006155da82614f93565b9050919050565b6155ea816155cf565b81146155f557600080fd5b50565b600081359050615607816155e1565b92915050565b6000806000806080858703121561562757615626614ebf565b5b600061563587828801614fbc565b945050602061564687828801614fbc565b935050604061565787828801615469565b9250506060615668878288016155f8565b91505092959194509250565b60008083601f84011261568a57615689614fd1565b5b8235905067ffffffffffffffff8111156156a7576156a6614fd6565b5b6020830191508360208202830111156156c3576156c2614fdb565b5b9250929050565b60006156d582614f93565b9050919050565b6156e5816156ca565b81146156f057600080fd5b50565b600081359050615702816156dc565b92915050565b60008060006040848603121561572157615720614ebf565b5b600084013567ffffffffffffffff81111561573f5761573e614ec4565b5b61574b86828701615674565b9350935050602061575e868287016156f3565b9150509250925092565b600082825260208201905092915050565b7f5265656e7472616e637947756172643a207265656e7472616e742063616c6c00600082015250565b60006157af601f83615768565b91506157ba82615779565b602082019050919050565b600060208201905081810360008301526157de816157a2565b9050919050565b7f4552525f5f504f4f4c5f414c52454144595f494e495449414c495a4544000000600082015250565b600061581b601d83615768565b9150615826826157e5565b602082019050919050565b6000602082019050818103600083015261584a8161580e565b9050919050565b7f4552525f5f424153455f544f4b454e5f49535f5a45524f000000000000000000600082015250565b6000615887601783615768565b915061589282615851565b602082019050919050565b600060208201905081810360008301526158b68161587a565b9050919050565b7f4552525f5245574152445f544f4b454e5f49535f5a45524f0000000000000000600082015250565b60006158f3601883615768565b91506158fe826158bd565b602082019050919050565b60006020820190508181036000830152615922816158e6565b9050919050565b600060608201905061593e6000830186615387565b61594b6020830185615387565b6159586040830184614e95565b949350505050565b7f4552525f5f5245574152445f5045525f5345434f4e445f544f4f5f4849474800600082015250565b6000615996601f83615768565b91506159a182615960565b602082019050919050565b600060208201905081810360008301526159c581615989565b9050919050565b7f4e487b7100000000000000000000000000000000000000000000000000000000600052603260045260246000fd5b7f4552525f5f4e46545f4e4f545f5354414b454400000000000000000000000000600082015250565b6000615a31601383615768565b9150615a3c826159fb565b602082019050919050565b60006020820190508181036000830152615a6081615a24565b9050919050565b7f4f6e6c792070617573657220697320616c6c6f77656420746f20706572666f7260008201527f6d2074686973206f7065726174696f6e00000000000000000000000000000000602082015250565b6000615ac3603083615768565b9150615ace82615a67565b604082019050919050565b60006020820190508181036000830152615af281615ab6565b9050919050565b7f4e487b7100000000000000000000000000000000000000000000000000000000600052601160045260246000fd5b6000615b3382614e8b565b9150615b3e83614e8b565b925082821015615b5157615b50615af9565b5b828203905092915050565b6000615b6782614e8b565b915060008203615b7a57615b79615af9565b5b600182039050919050565b6000615b9082614e8b565b9150615b9b83614e8b565b9250817fffffffffffffffffffffffffffffffffffffffffffffffffffffffffffffffff0483118215151615615bd457615bd3615af9565b5b828202905092915050565b7f4e487b7100000000000000000000000000000000000000000000000000000000600052601260045260246000fd5b6000615c1982614e8b565b9150615c2483614e8b565b925082615c3457615c33615bdf565b5b828204905092915050565b6000615c4a82614e8b565b9150615c5583614e8b565b9250827fffffffffffffffffffffffffffffffffffffffffffffffffffffffffffffffff03821115615c8a57615c89615af9565b5b828201905092915050565b7f4552525f5f544f5f49535f5a45524f0000000000000000000000000000000000600082015250565b6000615ccb600f83615768565b9150615cd682615c95565b602082019050919050565b60006020820190508181036000830152615cfa81615cbe565b9050919050565b6000604082019050615d166000830185615387565b615d236020830184615387565b9392505050565b615d338161520c565b8114615d3e57600080fd5b50565b600081519050615d5081615d2a565b92915050565b600060208284031215615d6c57615d6b614ebf565b5b6000615d7a84828501615d41565b91505092915050565b600081519050615d9281614fa5565b92915050565b600060208284031215615dae57615dad614ebf565b5b6000615dbc84828501615d83565b91505092915050565b7f4552525f5f4e4f545f415050524f564544000000000000000000000000000000600082015250565b6000615dfb601183615768565b9150615e0682615dc5565b602082019050919050565b60006020820190508181036000830152615e2a81615dee565b9050919050565b7f4552525f5f4e46545f414c52454144595f5354414b4544000000000000000000600082015250565b6000615e67601783615768565b9150615e7282615e31565b602082019050919050565b60006020820190508181036000830152615e9681615e5a565b9050919050565b600081519050615eac81614ec9565b92915050565b600080600060608486031215615ecb57615eca614ebf565b5b6000615ed986828701615d83565b9350506020615eea86828701615e9d565b9250506040615efb86828701615e9d565b9150509250925092565b600060208284031215615f1b57615f1a614ebf565b5b6000615f2984828501615e9d565b91505092915050565b7f4552525f5f504f4f4c5f4e4f545f494e495449414c495a454400000000000000600082015250565b6000615f68601983615768565b9150615f7382615f32565b602082019050919050565b60006020820190508181036000830152615f9781615f5b565b9050919050565b6000606082019050615fb36000830186614e95565b615fc06020830185614e95565b615fcd6040830184614e95565b949350505050565b7f4552525f5f414d4f554e545f49535f5a45524f00000000000000000000000000600082015250565b600061600b601383615768565b915061601682615fd5565b602082019050919050565b6000602082019050818103600083015261603a81615ffe565b9050919050565b600081905092915050565b50565b600061605c600083616041565b91506160678261604c565b600082019050919050565b600061607d8261604f565b9150819050919050565b7f4552525f5f4e41544956455f5452414e534645525f4641494c45440000000000600082015250565b60006160bd601b83615768565b91506160c882616087565b602082019050919050565b600060208201905081810360008301526160ec816160b0565b9050919050565b7f4552525f5f4c49515549444954595f50524f56494445525f49535f5a45524f00600082015250565b6000616129601f83615768565b9150616134826160f3565b602082019050919050565b600060208201905081810360008301526161588161611c565b9050919050565b7f4552525f5f4e4f545f4f574e4552000000000000000000000000000000000000600082015250565b6000616195600e83615768565b91506161a08261615f565b602082019050919050565b600060208201905081810360008301526161c481616188565b9050919050565b7f4f776e61626c653a206e6577206f776e657220697320746865207a65726f206160008201527f6464726573730000000000000000000000000000000000000000000000000000602082015250565b6000616227602683615768565b9150616232826161cb565b604082019050919050565b600060208201905081810360008301526162568161621a565b9050919050565b7f496e697469616c697a61626c653a20636f6e747261637420697320616c72656160008201527f647920696e697469616c697a6564000000000000000000000000000000000000602082015250565b60006162b9602e83615768565b91506162c48261625d565b604082019050919050565b600060208201905081810360008301526162e8816162ac565b9050919050565b6000819050919050565b600060ff82169050919050565b600061632161631c616317846162ef565b6152b4565b6162f9565b9050919050565b61633181616306565b82525050565b600060208201905061634c6000830184616328565b92915050565b7f4e487b7100000000000000000000000000000000000000000000000000000000600052603160045260246000fd5b7f4552525f5f554e504149445f524557415244535f455849535400000000000000600082015250565b60006163b7601983615768565b91506163c282616381565b602082019050919050565b600060208201905081810360008301526163e6816163aa565b9050919050565b60006040820190506164026000830185615387565b61640f6020830184614e95565b9392505050565b6000616421826152e0565b9050919050565b61643181616416565b82525050565b600060408201905061644c6000830185614e95565b6164596020830184616428565b9392505050565b600061646b826152e0565b9050919050565b61647b81616460565b82525050565b60006020820190506164966000830184616472565b92915050565b7f5061757361626c653a2070617573656400000000000000000000000000000000600082015250565b60006164d2601083615768565b91506164dd8261649c565b602082019050919050565b60006020820190508181036000830152616501816164c5565b9050919050565b7f4f776e61626c653a2063616c6c6572206973206e6f7420746865206f776e6572600082015250565b600061653e602083615768565b915061654982616508565b602082019050919050565b6000602082019050818103600083015261656d81616531565b9050919050565b7f54727573746564466f727761726465722063616e277420626520300000000000600082015250565b60006165aa601b83615768565b91506165b582616574565b602082019050919050565b600060208201905081810360008301526165d98161659d565b9050919050565b7f496e697469616c697a61626c653a20636f6e7472616374206973206e6f74206960008201527f6e697469616c697a696e67000000000000000000000000000000000000000000602082015250565b600061663c602b83615768565b9150616647826165e0565b604082019050919050565b6000602082019050818103600083015261666b8161662f565b9050919050565b7f50617573657220416464726573732063616e6e6f742062652030000000000000600082015250565b60006166a8601a83615768565b91506166b382616672565b602082019050919050565b600060208201905081810360008301526166d78161669b565b9050919050565b7f5061757361626c653a206e6f7420706175736564000000000000000000000000600082015250565b6000616714601483615768565b915061671f826166de565b602082019050919050565b6000602082019050818103600083015261674381616707565b9050919050565b7f5361666545524332303a204552433230206f7065726174696f6e20646964206e60008201527f6f74207375636365656400000000000000000000000000000000000000000000602082015250565b60006167a6602a83615768565b91506167b18261674a565b604082019050919050565b600060208201905081810360008301526167d581616799565b9050919050565b7f416464726573733a20696e73756666696369656e742062616c616e636520666f60008201527f722063616c6c0000000000000000000000000000000000000000000000000000602082015250565b6000616838602683615768565b9150616843826167dc565b604082019050919050565b600060208201905081810360008301526168678161682b565b9050919050565b7f416464726573733a2063616c6c20746f206e6f6e2d636f6e7472616374000000600082015250565b60006168a4601d83615768565b91506168af8261686e565b602082019050919050565b600060208201905081810360008301526168d381616897565b9050919050565b600081519050919050565b60005b838110156169035780820151818401526020810190506168e8565b83811115616912576000848401525b50505050565b6000616923826168da565b61692d8185616041565b935061693d8185602086016168e5565b80840191505092915050565b60006169558284616918565b915081905092915050565b600081519050919050565b6000601f19601f8301169050919050565b600061698782616960565b6169918185615768565b93506169a18185602086016168e5565b6169aa8161696b565b840191505092915050565b600060208201905081810360008301526169cf818461697c565b90509291505056fea264697066735822122016616cb8d972619a5b873ceb4a0895ba5f5299d162b625eba208b5ebb2e162a464736f6c634300080f0033",
  "immutableReferences": {},
  "source": "// $$\\       $$\\                     $$\\       $$\\ $$\\   $$\\                     $$$$$$$$\\                               $$\\\n// $$ |      \\__|                    \\__|      $$ |\\__|  $$ |                    $$  _____|                              \\__|\n// $$ |      $$\\  $$$$$$\\  $$\\   $$\\ $$\\  $$$$$$$ |$$\\ $$$$$$\\   $$\\   $$\\       $$ |   $$$$$$\\   $$$$$$\\  $$$$$$\\$$$$\\  $$\\ $$$$$$$\\   $$$$$$\\\n// $$ |      $$ |$$  __$$\\ $$ |  $$ |$$ |$$  __$$ |$$ |\\_$$  _|  $$ |  $$ |      $$$$$\\ \\____$$\\ $$  __$$\\ $$  _$$  _$$\\ $$ |$$  __$$\\ $$  __$$\\\n// $$ |      $$ |$$ /  $$ |$$ |  $$ |$$ |$$ /  $$ |$$ |  $$ |    $$ |  $$ |      $$  __|$$$$$$$ |$$ |  \\__|$$ / $$ / $$ |$$ |$$ |  $$ |$$ /  $$ |\n// $$ |      $$ |$$ |  $$ |$$ |  $$ |$$ |$$ |  $$ |$$ |  $$ |$$\\ $$ |  $$ |      $$ |  $$  __$$ |$$ |      $$ | $$ | $$ |$$ |$$ |  $$ |$$ |  $$ |\n// $$$$$$$$\\ $$ |\\$$$$$$$ |\\$$$$$$  |$$ |\\$$$$$$$ |$$ |  \\$$$$  |\\$$$$$$$ |      $$ |  \\$$$$$$$ |$$ |      $$ | $$ | $$ |$$ |$$ |  $$ |\\$$$$$$$ |\n// \\________|\\__| \\____$$ | \\______/ \\__| \\_______|\\__|   \\____/  \\____$$ |      \\__|   \\_______|\\__|      \\__| \\__| \\__|\\__|\\__|  \\__| \\____$$ |\n//                     $$ |                                      $$\\   $$ |                                                            $$\\   $$ |\n//                     $$ |                                      \\$$$$$$  |                                                            \\$$$$$$  |\n//                     \\__|                                       \\______/                                                              \\______/\n//\n// SPDX-License-Identifier: MIT\npragma solidity ^0.8.0;\n\nimport \"@openzeppelin/contracts-upgradeable/interfaces/IERC721ReceiverUpgradeable.sol\";\nimport \"@openzeppelin/contracts-upgradeable/security/ReentrancyGuardUpgradeable.sol\";\nimport \"@openzeppelin/contracts-upgradeable/proxy/utils/Initializable.sol\";\nimport \"@openzeppelin/contracts-upgradeable/access/OwnableUpgradeable.sol\";\nimport \"@openzeppelin/contracts-upgradeable/token/ERC20/IERC20Upgradeable.sol\";\nimport \"@openzeppelin/contracts-upgradeable/token/ERC20/utils/SafeERC20Upgradeable.sol\";\nimport \"./metatx/ERC2771ContextUpgradeable.sol\";\nimport \"./interfaces/IHyphenLiquidityFarmingV2.sol\";\n\nimport \"../security/Pausable.sol\";\nimport \"./interfaces/ILPToken.sol\";\nimport \"./interfaces/ILiquidityProviders.sol\";\n\ncontract HyphenLiquidityFarming is\n    Initializable,\n    ERC2771ContextUpgradeable,\n    OwnableUpgradeable,\n    Pausable,\n    ReentrancyGuardUpgradeable,\n    IERC721ReceiverUpgradeable\n{\n    using SafeERC20Upgradeable for IERC20Upgradeable;\n\n    ILPToken public lpToken;\n    ILiquidityProviders public liquidityProviders;\n\n    struct NFTInfo {\n        address payable staker;\n        uint256 rewardDebt;\n        uint256 unpaidRewards;\n        bool isStaked;\n    }\n\n    struct PoolInfo {\n        uint256 accTokenPerShare;\n        uint256 lastRewardTime;\n    }\n\n    struct RewardsPerSecondEntry {\n        uint256 rewardsPerSecond;\n        uint256 timestamp;\n    }\n\n    /// @notice Mapping to track the rewarder pool.\n    mapping(address => PoolInfo) public poolInfo;\n\n    /// @notice Info of each NFT that is staked.\n    mapping(uint256 => NFTInfo) public nftInfo;\n\n    /// @notice Reward Token\n    mapping(address => address) public rewardTokens;\n\n    /// @notice Staker => NFTs staked\n    mapping(address => uint256[]) public nftIdsStaked;\n\n    /// @notice Token => Total Shares Staked\n    mapping(address => uint256) public totalSharesStaked;\n\n    /// @notice Token => Reward Rate Updation history\n    mapping(address => RewardsPerSecondEntry[]) public rewardRateLog;\n\n    uint256 private constant ACC_TOKEN_PRECISION = 1e12;\n    address internal constant NATIVE = 0xEeeeeEeeeEeEeeEeEeEeeEEEeeeeEeeeeeeeEEeE;\n\n    event LogDeposit(address indexed user, address indexed baseToken, uint256 nftId);\n    event LogWithdraw(address indexed user, address baseToken, uint256 nftId, address indexed to);\n    event LogOnReward(address indexed user, address indexed baseToken, uint256 amount, address indexed to);\n    event LogUpdatePool(address indexed baseToken, uint256 lastRewardTime, uint256 lpSupply, uint256 accToken1PerShare);\n    event LogRewardPerSecond(address indexed baseToken, uint256 rewardPerSecond);\n    event LogRewardPoolInitialized(address _baseToken, address _rewardToken, uint256 _rewardPerSecond);\n    event LogNativeReceived(address indexed sender, uint256 value);\n    event LiquidityProviderUpdated(address indexed liquidityProviders);\n    event LogNftMigrated(address indexed owner, uint256 indexed nftId, IHyphenLiquidityFarmingV2 farmingContract);\n\n    function initialize(\n        address _trustedForwarder,\n        address _pauser,\n        ILiquidityProviders _liquidityProviders,\n        ILPToken _lpToken\n    ) public initializer {\n        __ERC2771Context_init(_trustedForwarder);\n        __Ownable_init();\n        __Pausable_init(_pauser);\n        __ReentrancyGuard_init();\n        liquidityProviders = _liquidityProviders;\n        lpToken = _lpToken;\n    }\n\n    function setTrustedForwarder(address _tf) external onlyOwner {\n        _setTrustedForwarder(_tf);\n    }\n\n    /// @notice Initialize the rewarder pool.\n    /// @param _baseToken Base token to be used for the rewarder pool.\n    /// @param _rewardToken Reward token to be used for the rewarder pool.\n    /// @param _rewardPerSecond Reward rate per base token.\n    function initalizeRewardPool(\n        address _baseToken,\n        address _rewardToken,\n        uint256 _rewardPerSecond\n    ) external onlyOwner {\n        require(rewardTokens[_baseToken] == address(0), \"ERR__POOL_ALREADY_INITIALIZED\");\n        require(_baseToken != address(0), \"ERR__BASE_TOKEN_IS_ZERO\");\n        require(_rewardToken != address(0), \"ERR_REWARD_TOKEN_IS_ZERO\");\n        rewardTokens[_baseToken] = _rewardToken;\n        rewardRateLog[_baseToken].push(RewardsPerSecondEntry(_rewardPerSecond, block.timestamp));\n        emit LogRewardPoolInitialized(_baseToken, _rewardToken, _rewardPerSecond);\n    }\n\n    function updateLiquidityProvider(ILiquidityProviders _liquidityProviders) external onlyOwner {\n        require(address(_liquidityProviders) != address(0), \"ERR__LIQUIDITY_PROVIDER_IS_ZERO\");\n        liquidityProviders = _liquidityProviders;\n        emit LiquidityProviderUpdated(address(liquidityProviders));\n    }\n\n    function _sendErc20AndGetSentAmount(\n        IERC20Upgradeable _token,\n        uint256 _amount,\n        address _to\n    ) private returns (uint256) {\n        uint256 beforeBalance = _token.balanceOf(address(this));\n        _token.safeTransfer(_to, _amount);\n        return beforeBalance - _token.balanceOf(address(this));\n    }\n\n    /// @notice Update the reward state of a nft, and if possible send reward funds to _to.\n    /// @param _nftId NFT ID that is being locked\n    /// @param _to Address to which rewards will be credited.\n    function _sendRewardsForNft(uint256 _nftId, address payable _to) internal {\n        NFTInfo storage nft = nftInfo[_nftId];\n        require(nft.isStaked, \"ERR__NFT_NOT_STAKED\");\n\n        (address baseToken, , uint256 amount) = lpToken.tokenMetadata(_nftId);\n        amount /= liquidityProviders.BASE_DIVISOR();\n\n        PoolInfo memory pool = updatePool(baseToken);\n        uint256 pending;\n        uint256 amountSent;\n        if (amount > 0) {\n            pending = ((amount * pool.accTokenPerShare) / ACC_TOKEN_PRECISION) - nft.rewardDebt + nft.unpaidRewards;\n            if (rewardTokens[baseToken] == NATIVE) {\n                uint256 balance = address(this).balance;\n                if (pending > balance) {\n                    unchecked {\n                        nft.unpaidRewards = pending - balance;\n                    }\n                    (bool success, ) = _to.call{value: balance}(\"\");\n                    require(success, \"ERR__NATIVE_TRANSFER_FAILED\");\n                    amountSent = balance;\n                } else {\n                    nft.unpaidRewards = 0;\n                    (bool success, ) = _to.call{value: pending}(\"\");\n                    require(success, \"ERR__NATIVE_TRANSFER_FAILED\");\n                    amountSent = pending;\n                }\n            } else {\n                IERC20Upgradeable rewardToken = IERC20Upgradeable(rewardTokens[baseToken]);\n                uint256 balance = rewardToken.balanceOf(address(this));\n                if (pending > balance) {\n                    unchecked {\n                        nft.unpaidRewards = pending - balance;\n                    }\n                    amountSent = _sendErc20AndGetSentAmount(rewardToken, balance, _to);\n                } else {\n                    nft.unpaidRewards = 0;\n                    amountSent = _sendErc20AndGetSentAmount(rewardToken, pending, _to);\n                }\n            }\n        }\n        nft.rewardDebt = (amount * pool.accTokenPerShare) / ACC_TOKEN_PRECISION;\n        emit LogOnReward(_msgSender(), baseToken, amountSent, _to);\n    }\n\n    /// @notice Sets the sushi per second to be distributed. Can only be called by the owner.\n    /// @param _rewardPerSecond The amount of Sushi to be distributed per second.\n    function setRewardPerSecond(address _baseToken, uint256 _rewardPerSecond) external onlyOwner {\n        require(_rewardPerSecond <= 10**40, \"ERR__REWARD_PER_SECOND_TOO_HIGH\");\n        rewardRateLog[_baseToken].push(RewardsPerSecondEntry(_rewardPerSecond, block.timestamp));\n        emit LogRewardPerSecond(_baseToken, _rewardPerSecond);\n    }\n\n    /// @notice Allows owner to reclaim/withdraw any tokens (including reward tokens) held by this contract\n    /// @param _token Token to reclaim, use 0x00 for Ethereum\n    /// @param _amount Amount of tokens to reclaim\n    /// @param _to Receiver of the tokens, first of his name, rightful heir to the lost tokens,\n    /// reightful owner of the extra tokens, and ether, protector of mistaken transfers, mother of token reclaimers,\n    /// the Khaleesi of the Great Token Sea, the Unburnt, the Breaker of blockchains.\n    function reclaimTokens(\n        address _token,\n        uint256 _amount,\n        address payable _to\n    ) external onlyOwner {\n        require(_to != address(0), \"ERR__TO_IS_ZERO\");\n        require(_amount != 0, \"ERR__AMOUNT_IS_ZERO\");\n        if (_token == NATIVE) {\n            (bool success, ) = payable(_to).call{value: _amount}(\"\");\n            require(success, \"ERR__NATIVE_TRANSFER_FAILED\");\n        } else {\n            IERC20Upgradeable(_token).safeTransfer(_to, _amount);\n        }\n    }\n\n    /// @notice Deposit LP tokens\n    /// @param _nftId LP token nftId to deposit.\n    function deposit(uint256 _nftId, address payable _to) external whenNotPaused nonReentrant {\n        address msgSender = _msgSender();\n\n        require(_to != address(0), \"ERR__TO_IS_ZERO\");\n        require(\n            lpToken.isApprovedForAll(msgSender, address(this)) || lpToken.getApproved(_nftId) == address(this),\n            \"ERR__NOT_APPROVED\"\n        );\n\n        NFTInfo storage nft = nftInfo[_nftId];\n        require(!nft.isStaked, \"ERR__NFT_ALREADY_STAKED\");\n\n        (address baseToken, , uint256 amount) = lpToken.tokenMetadata(_nftId);\n        amount /= liquidityProviders.BASE_DIVISOR();\n\n        require(rewardTokens[baseToken] != address(0), \"ERR__POOL_NOT_INITIALIZED\");\n        require(rewardRateLog[baseToken].length != 0, \"ERR__POOL_NOT_INITIALIZED\");\n\n        lpToken.safeTransferFrom(msgSender, address(this), _nftId);\n\n        PoolInfo memory pool = updatePool(baseToken);\n        nft.isStaked = true;\n        nft.staker = _to;\n        nft.rewardDebt = (amount * pool.accTokenPerShare) / ACC_TOKEN_PRECISION;\n\n        nftIdsStaked[_to].push(_nftId);\n        totalSharesStaked[baseToken] += amount;\n\n        emit LogDeposit(msgSender, baseToken, _nftId);\n    }\n\n    /// @notice Withdraw LP tokens\n    /// @param _nftId LP token nftId to withdraw.\n    /// @param _to The receiver of `amount` withdraw benefit.\n    function withdraw(uint256 _nftId, address payable _to) external whenNotPaused nonReentrant {\n        uint256 index = getStakedNftIndex(_msgSender(), _nftId);\n        _withdraw(_nftId, _to, index);\n    }\n\n    function getStakedNftIndex(address _staker, uint256 _nftId) public view returns (uint256) {\n        uint256 nftsStakedLength = nftIdsStaked[_staker].length;\n        uint256 index;\n        unchecked {\n            for (index = 0; index < nftsStakedLength; ++index) {\n                if (nftIdsStaked[_staker][index] == _nftId) {\n                    return index;\n                }\n            }\n        }\n        revert(\"ERR__NFT_NOT_STAKED\");\n    }\n\n    function _withdraw(\n        uint256 _nftId,\n        address payable _to,\n        uint256 _index\n    ) private {\n        address msgSender = _msgSender();\n\n        require(nftIdsStaked[msgSender][_index] == _nftId, \"ERR__NOT_OWNER\");\n        require(nftInfo[_nftId].staker == msgSender, \"ERR__NOT_OWNER\");\n        require(nftInfo[_nftId].unpaidRewards == 0, \"ERR__UNPAID_REWARDS_EXIST\");\n\n        nftIdsStaked[msgSender][_index] = nftIdsStaked[msgSender][nftIdsStaked[msgSender].length - 1];\n        nftIdsStaked[msgSender].pop();\n\n        _sendRewardsForNft(_nftId, _to);\n        delete nftInfo[_nftId];\n\n        (address baseToken, , uint256 amount) = lpToken.tokenMetadata(_nftId);\n        amount /= liquidityProviders.BASE_DIVISOR();\n        totalSharesStaked[baseToken] -= amount;\n\n        lpToken.safeTransferFrom(address(this), msgSender, _nftId);\n\n        emit LogWithdraw(msgSender, baseToken, _nftId, _to);\n    }\n\n    function withdrawV2(\n        uint256 _nftId,\n        address payable _to,\n        uint256 _index\n    ) external whenNotPaused nonReentrant {\n        _withdraw(_nftId, _to, _index);\n    }\n\n    /// @notice Extract all rewards without withdrawing LP tokens\n    /// @param _nftId LP token nftId for which rewards are to be withdrawn\n    /// @param _to The receiver of withdraw benefit.\n    function extractRewards(uint256 _nftId, address payable _to) external whenNotPaused nonReentrant {\n        require(nftInfo[_nftId].staker == _msgSender(), \"ERR__NOT_OWNER\");\n        _sendRewardsForNft(_nftId, _to);\n    }\n\n    /// @notice Calculates an up to date value of accTokenPerShare\n    /// @notice An updated value of accTokenPerShare is comitted to storage every time a new NFT is deposited, withdrawn or rewards are extracted\n    function getUpdatedAccTokenPerShare(address _baseToken) public view returns (uint256) {\n        uint256 accumulator = 0;\n        uint256 lastUpdatedTime = poolInfo[_baseToken].lastRewardTime;\n        uint256 counter = block.timestamp;\n        uint256 i = rewardRateLog[_baseToken].length - 1;\n        while (true) {\n            if (lastUpdatedTime >= counter) {\n                break;\n            }\n            unchecked {\n                accumulator +=\n                    rewardRateLog[_baseToken][i].rewardsPerSecond *\n                    (counter - max(lastUpdatedTime, rewardRateLog[_baseToken][i].timestamp));\n            }\n            counter = rewardRateLog[_baseToken][i].timestamp;\n            if (i == 0) {\n                break;\n            }\n            --i;\n        }\n\n        // We know that during all the periods that were included in the current iterations,\n        // the value of totalSharesStaked[_baseToken] would not have changed, as we only consider the\n        // updates to the pool that happened after the lastUpdatedTime.\n        accumulator = (accumulator * ACC_TOKEN_PRECISION) / totalSharesStaked[_baseToken];\n        return accumulator + poolInfo[_baseToken].accTokenPerShare;\n    }\n\n    /// @notice View function to see pending Token\n    /// @param _nftId NFT for which pending tokens are to be viewed\n    /// @return pending reward for a given user.\n    function pendingToken(uint256 _nftId) external view returns (uint256) {\n        NFTInfo storage nft = nftInfo[_nftId];\n        if (!nft.isStaked) {\n            return 0;\n        }\n\n        (address baseToken, , uint256 amount) = lpToken.tokenMetadata(_nftId);\n        amount /= liquidityProviders.BASE_DIVISOR();\n\n        PoolInfo memory pool = poolInfo[baseToken];\n        uint256 accToken1PerShare = pool.accTokenPerShare;\n        if (block.timestamp > pool.lastRewardTime && totalSharesStaked[baseToken] != 0) {\n            accToken1PerShare = getUpdatedAccTokenPerShare(baseToken);\n        }\n        return ((amount * accToken1PerShare) / ACC_TOKEN_PRECISION) - nft.rewardDebt + nft.unpaidRewards;\n    }\n\n    /// @notice Update reward variables of the given pool.\n    /// @return pool Returns the pool that was updated.\n    function updatePool(address _baseToken) public whenNotPaused returns (PoolInfo memory pool) {\n        pool = poolInfo[_baseToken];\n        if (totalSharesStaked[_baseToken] > 0) {\n            pool.accTokenPerShare = getUpdatedAccTokenPerShare(_baseToken);\n        }\n        pool.lastRewardTime = block.timestamp;\n        poolInfo[_baseToken] = pool;\n        emit LogUpdatePool(_baseToken, pool.lastRewardTime, totalSharesStaked[_baseToken], pool.accTokenPerShare);\n    }\n\n    /// @notice View function to see the tokens staked by a given user.\n    /// @param _user Address of user.\n    function getNftIdsStaked(address _user) external view returns (uint256[] memory nftIds) {\n        nftIds = nftIdsStaked[_user];\n    }\n\n    function getRewardRatePerSecond(address _baseToken) external view returns (uint256) {\n        return rewardRateLog[_baseToken][rewardRateLog[_baseToken].length - 1].rewardsPerSecond;\n    }\n\n    function migrateNftsToV2(uint256[] calldata _nftIds, IHyphenLiquidityFarmingV2 _farmingV2) external {\n        uint256 length = _nftIds.length;\n        address payable msgSender = payable(_msgSender());\n\n        for (uint256 i = 0; i < length; ) {\n            uint256 nftId = _nftIds[i];\n            uint256 index = getStakedNftIndex(_msgSender(), nftId);\n\n            require(nftIdsStaked[msgSender][index] == nftId, \"ERR__NOT_OWNER\");\n            require(nftInfo[nftId].staker == msgSender, \"ERR__NOT_OWNER\");\n\n            nftIdsStaked[msgSender][index] = nftIdsStaked[msgSender][nftIdsStaked[msgSender].length - 1];\n            nftIdsStaked[msgSender].pop();\n\n            _sendRewardsForNft(nftId, msgSender);\n\n            require(nftInfo[nftId].unpaidRewards == 0, \"ERR__UNPAID_REWARDS_EXIST\");\n            delete nftInfo[nftId];\n\n            (address baseToken, , uint256 amount) = lpToken.tokenMetadata(nftId);\n            amount /= liquidityProviders.BASE_DIVISOR();\n            totalSharesStaked[baseToken] -= amount;\n\n            lpToken.approve(address(_farmingV2), nftId);\n            _farmingV2.deposit(nftId, msgSender);\n\n            emit LogNftMigrated(msgSender, nftId, _farmingV2);\n\n            unchecked {\n                ++i;\n            }\n        }\n    }\n\n    function onERC721Received(\n        address,\n        address,\n        uint256,\n        bytes calldata\n    ) external pure override(IERC721ReceiverUpgradeable) returns (bytes4) {\n        return bytes4(keccak256(\"onERC721Received(address,address,uint256,bytes)\"));\n    }\n\n    function _msgSender()\n        internal\n        view\n        virtual\n        override(ContextUpgradeable, ERC2771ContextUpgradeable)\n        returns (address sender)\n    {\n        return ERC2771ContextUpgradeable._msgSender();\n    }\n\n    function _msgData()\n        internal\n        view\n        virtual\n        override(ContextUpgradeable, ERC2771ContextUpgradeable)\n        returns (bytes calldata)\n    {\n        return ERC2771ContextUpgradeable._msgData();\n    }\n\n    receive() external payable {\n        emit LogNativeReceived(_msgSender(), msg.value);\n    }\n\n    function max(uint256 _a, uint256 _b) private pure returns (uint256) {\n        return _a >= _b ? _a : _b;\n    }\n}\n",
  "sourcePath": "/Users/nikhitakale/QA-Hyphen-V2/scribble-fuzzing/contracts/hyphen/LiquidityFarming.sol",
  "compiler": {
    "name": "solc",
    "version": "0.8.15+commit.e14f2714.Emscripten.clang"
  },
  "schemaVersion": "3.4.7",
  "updatedAt": "2022-07-03T18:30:45.584Z",
  "devdoc": {
    "kind": "dev",
    "methods": {
      "changePauser(address)": {
        "details": "Allows the current pauser to transfer control of the contract to a newPauser.",
        "params": {
          "newPauser": "The address to transfer pauserShip to."
        }
      },
      "deposit(uint256,address)": {
        "params": {
          "_nftId": "LP token nftId to deposit."
        }
      },
      "extractRewards(uint256,address)": {
        "params": {
          "_nftId": "LP token nftId for which rewards are to be withdrawn",
          "_to": "The receiver of withdraw benefit."
        }
      },
      "getNftIdsStaked(address)": {
        "params": {
          "_user": "Address of user."
        }
      },
      "initalizeRewardPool(address,address,uint256)": {
        "params": {
          "_baseToken": "Base token to be used for the rewarder pool.",
          "_rewardPerSecond": "Reward rate per base token.",
          "_rewardToken": "Reward token to be used for the rewarder pool."
        }
      },
      "isPauser(address)": {
        "returns": {
          "_0": "true if `msg.sender` is the owner of the contract."
        }
      },
      "owner()": {
        "details": "Returns the address of the current owner."
      },
      "paused()": {
        "details": "Returns true if the contract is paused, and false otherwise."
      },
      "pendingToken(uint256)": {
        "params": {
          "_nftId": "NFT for which pending tokens are to be viewed"
        },
        "returns": {
          "_0": "pending reward for a given user."
        }
      },
      "reclaimTokens(address,uint256,address)": {
        "params": {
          "_amount": "Amount of tokens to reclaim",
          "_to": "Receiver of the tokens, first of his name, rightful heir to the lost tokens, reightful owner of the extra tokens, and ether, protector of mistaken transfers, mother of token reclaimers, the Khaleesi of the Great Token Sea, the Unburnt, the Breaker of blockchains.",
          "_token": "Token to reclaim, use 0x00 for Ethereum"
        }
      },
      "renounceOwnership()": {
        "details": "Leaves the contract without owner. It will not be possible to call `onlyOwner` functions anymore. Can only be called by the current owner. NOTE: Renouncing ownership will leave the contract without an owner, thereby removing any functionality that is only available to the owner."
      },
      "setRewardPerSecond(address,uint256)": {
        "params": {
          "_rewardPerSecond": "The amount of Sushi to be distributed per second."
        }
      },
      "transferOwnership(address)": {
        "details": "Transfers ownership of the contract to a new account (`newOwner`). Can only be called by the current owner."
      },
      "updatePool(address)": {
        "returns": {
          "pool": "Returns the pool that was updated."
        }
      },
      "withdraw(uint256,address)": {
        "params": {
          "_nftId": "LP token nftId to withdraw.",
          "_to": "The receiver of `amount` withdraw benefit."
        }
      }
    },
    "version": 1
  },
  "userdoc": {
    "kind": "user",
    "methods": {
      "deposit(uint256,address)": {
        "notice": "Deposit LP tokens"
      },
      "extractRewards(uint256,address)": {
        "notice": "Extract all rewards without withdrawing LP tokens"
      },
      "getNftIdsStaked(address)": {
        "notice": "View function to see the tokens staked by a given user."
      },
      "getUpdatedAccTokenPerShare(address)": {
        "notice": "Calculates an up to date value of accTokenPerShareAn updated value of accTokenPerShare is comitted to storage every time a new NFT is deposited, withdrawn or rewards are extracted"
      },
      "initalizeRewardPool(address,address,uint256)": {
        "notice": "Initialize the rewarder pool."
      },
      "nftIdsStaked(address,uint256)": {
        "notice": "Staker => NFTs staked"
      },
      "nftInfo(uint256)": {
        "notice": "Info of each NFT that is staked."
      },
      "pendingToken(uint256)": {
        "notice": "View function to see pending Token"
      },
      "poolInfo(address)": {
        "notice": "Mapping to track the rewarder pool."
      },
      "reclaimTokens(address,uint256,address)": {
        "notice": "Allows owner to reclaim/withdraw any tokens (including reward tokens) held by this contract"
      },
      "rewardRateLog(address,uint256)": {
        "notice": "Token => Reward Rate Updation history"
      },
      "rewardTokens(address)": {
        "notice": "Reward Token"
      },
      "setRewardPerSecond(address,uint256)": {
        "notice": "Sets the sushi per second to be distributed. Can only be called by the owner."
      },
      "totalSharesStaked(address)": {
        "notice": "Token => Total Shares Staked"
      },
      "updatePool(address)": {
        "notice": "Update reward variables of the given pool."
      },
      "withdraw(uint256,address)": {
        "notice": "Withdraw LP tokens"
      }
    },
    "version": 1
  },
  "db": {
    "callBytecode": {
      "id": "0x15e5167727bc93fc1b974ecb08fccc84405fb41254426c888d289560f1b647db"
    },
    "createBytecode": {
      "id": "0x5ee7e0fd7b8dc478a01a5d9b8d8ea4343b5edf19f44957ed264271da515f6e22"
    },
    "contract": {
      "id": "0xae0652d138544a2fecc9e3ddddabdb836ed7ce72ee824c93eee2cb6b3861049c"
    }
  }
}