{
  "contractName": "LiquidityPool",
  "abi": [
    {
      "anonymous": false,
      "inputs": [
        {
          "indexed": true,
          "internalType": "address",
          "name": "asset",
          "type": "address"
        },
        {
          "indexed": true,
          "internalType": "uint256",
          "name": "amount",
          "type": "uint256"
        },
        {
          "indexed": true,
          "internalType": "uint256",
          "name": "transferredAmount",
          "type": "uint256"
        },
        {
          "indexed": false,
          "internalType": "address",
          "name": "target",
          "type": "address"
        },
        {
          "indexed": false,
          "internalType": "bytes",
          "name": "depositHash",
          "type": "bytes"
        },
        {
          "indexed": false,
          "internalType": "uint256",
          "name": "fromChainId",
          "type": "uint256"
        },
        {
          "indexed": false,
          "internalType": "uint256",
          "name": "lpFee",
          "type": "uint256"
        },
        {
          "indexed": false,
          "internalType": "uint256",
          "name": "transferFee",
          "type": "uint256"
        },
        {
          "indexed": false,
          "internalType": "uint256",
          "name": "gasFee",
          "type": "uint256"
        }
      ],
      "name": "AssetSent",
      "type": "event"
    },
    {
      "anonymous": false,
      "inputs": [
        {
          "indexed": true,
          "internalType": "uint256",
          "name": "baseGas",
          "type": "uint256"
        }
      ],
      "name": "BaseGasUpdated",
      "type": "event"
    },
    {
      "anonymous": false,
      "inputs": [
        {
          "indexed": true,
          "internalType": "address",
          "name": "from",
          "type": "address"
        },
        {
          "indexed": true,
          "internalType": "address",
          "name": "tokenAddress",
          "type": "address"
        },
        {
          "indexed": true,
          "internalType": "address",
          "name": "receiver",
          "type": "address"
        },
        {
          "indexed": false,
          "internalType": "uint256",
          "name": "toChainId",
          "type": "uint256"
        },
        {
          "indexed": false,
          "internalType": "uint256",
          "name": "amount",
          "type": "uint256"
        },
        {
          "indexed": false,
          "internalType": "uint256",
          "name": "reward",
          "type": "uint256"
        },
        {
          "indexed": false,
          "internalType": "string",
          "name": "tag",
          "type": "string"
        }
      ],
      "name": "Deposit",
      "type": "event"
    },
    {
      "anonymous": false,
      "inputs": [
        {
          "indexed": false,
          "internalType": "address",
          "name": "",
          "type": "address"
        },
        {
          "indexed": false,
          "internalType": "uint256",
          "name": "",
          "type": "uint256"
        }
      ],
      "name": "EthReceived",
      "type": "event"
    },
    {
      "anonymous": false,
      "inputs": [
        {
          "indexed": true,
          "internalType": "address",
          "name": "tokenAddress",
          "type": "address"
        },
        {
          "indexed": true,
          "internalType": "address",
          "name": "owner",
          "type": "address"
        },
        {
          "indexed": true,
          "internalType": "uint256",
          "name": "amount",
          "type": "uint256"
        }
      ],
      "name": "GasFeeWithdraw",
      "type": "event"
    },
    {
      "anonymous": false,
      "inputs": [
        {
          "indexed": false,
          "internalType": "uint8",
          "name": "version",
          "type": "uint8"
        }
      ],
      "name": "Initialized",
      "type": "event"
    },
    {
      "anonymous": false,
      "inputs": [
        {
          "indexed": true,
          "internalType": "address",
          "name": "liquidityProvidersAddress",
          "type": "address"
        }
      ],
      "name": "LiquidityProvidersChanged",
      "type": "event"
    },
    {
      "anonymous": false,
      "inputs": [
        {
          "indexed": true,
          "internalType": "address",
          "name": "previousOwner",
          "type": "address"
        },
        {
          "indexed": true,
          "internalType": "address",
          "name": "newOwner",
          "type": "address"
        }
      ],
      "name": "OwnershipTransferred",
      "type": "event"
    },
    {
      "anonymous": false,
      "inputs": [
        {
          "indexed": false,
          "internalType": "address",
          "name": "account",
          "type": "address"
        }
      ],
      "name": "Paused",
      "type": "event"
    },
    {
      "anonymous": false,
      "inputs": [
        {
          "indexed": true,
          "internalType": "address",
          "name": "previousPauser",
          "type": "address"
        },
        {
          "indexed": true,
          "internalType": "address",
          "name": "newPauser",
          "type": "address"
        }
      ],
      "name": "PauserChanged",
      "type": "event"
    },
    {
      "anonymous": false,
      "inputs": [
        {
          "indexed": true,
          "internalType": "address",
          "name": "from",
          "type": "address"
        },
        {
          "indexed": true,
          "internalType": "uint256",
          "name": "amount",
          "type": "uint256"
        }
      ],
      "name": "Received",
      "type": "event"
    },
    {
      "anonymous": false,
      "inputs": [
        {
          "indexed": true,
          "internalType": "address",
          "name": "tokenManagerAddress",
          "type": "address"
        }
      ],
      "name": "TokenManagerChanged",
      "type": "event"
    },
    {
      "anonymous": false,
      "inputs": [
        {
          "indexed": true,
          "internalType": "address",
          "name": "_tf",
          "type": "address"
        }
      ],
      "name": "TrustedForwarderChanged",
      "type": "event"
    },
    {
      "anonymous": false,
      "inputs": [
        {
          "indexed": false,
          "internalType": "address",
          "name": "account",
          "type": "address"
        }
      ],
      "name": "Unpaused",
      "type": "event"
    },
    {
      "inputs": [],
      "name": "baseGas",
      "outputs": [
        {
          "internalType": "uint256",
          "name": "",
          "type": "uint256"
        }
      ],
      "stateMutability": "view",
      "type": "function"
    },
    {
      "inputs": [
        {
          "internalType": "address",
          "name": "newPauser",
          "type": "address"
        }
      ],
      "name": "changePauser",
      "outputs": [],
      "stateMutability": "nonpayable",
      "type": "function"
    },
    {
      "inputs": [
        {
          "internalType": "address",
          "name": "",
          "type": "address"
        },
        {
          "internalType": "address",
          "name": "",
          "type": "address"
        }
      ],
      "name": "gasFeeAccumulated",
      "outputs": [
        {
          "internalType": "uint256",
          "name": "",
          "type": "uint256"
        }
      ],
      "stateMutability": "view",
      "type": "function"
    },
    {
      "inputs": [
        {
          "internalType": "address",
          "name": "",
          "type": "address"
        }
      ],
      "name": "gasFeeAccumulatedByToken",
      "outputs": [
        {
          "internalType": "uint256",
          "name": "",
          "type": "uint256"
        }
      ],
      "stateMutability": "view",
      "type": "function"
    },
    {
      "inputs": [
        {
          "internalType": "address",
          "name": "",
          "type": "address"
        }
      ],
      "name": "incentivePool",
      "outputs": [
        {
          "internalType": "uint256",
          "name": "",
          "type": "uint256"
        }
      ],
      "stateMutability": "view",
      "type": "function"
    },
    {
      "inputs": [
        {
          "internalType": "address",
          "name": "pauser",
          "type": "address"
        }
      ],
      "name": "isPauser",
      "outputs": [
        {
          "internalType": "bool",
          "name": "",
          "type": "bool"
        }
      ],
      "stateMutability": "view",
      "type": "function"
    },
    {
      "inputs": [
        {
          "internalType": "address",
          "name": "forwarder",
          "type": "address"
        }
      ],
      "name": "isTrustedForwarder",
      "outputs": [
        {
          "internalType": "bool",
          "name": "",
          "type": "bool"
        }
      ],
      "stateMutability": "view",
      "type": "function"
    },
    {
      "inputs": [],
      "name": "liquidityProviders",
      "outputs": [
        {
          "internalType": "contract ILiquidityProviders",
          "name": "",
          "type": "address"
        }
      ],
      "stateMutability": "view",
      "type": "function"
    },
    {
      "inputs": [],
      "name": "owner",
      "outputs": [
        {
          "internalType": "address",
          "name": "",
          "type": "address"
        }
      ],
      "stateMutability": "view",
      "type": "function"
    },
    {
      "inputs": [],
      "name": "pause",
      "outputs": [],
      "stateMutability": "nonpayable",
      "type": "function"
    },
    {
      "inputs": [],
      "name": "paused",
      "outputs": [
        {
          "internalType": "bool",
          "name": "",
          "type": "bool"
        }
      ],
      "stateMutability": "view",
      "type": "function"
    },
    {
      "inputs": [
        {
          "internalType": "bytes32",
          "name": "",
          "type": "bytes32"
        }
      ],
      "name": "processedHash",
      "outputs": [
        {
          "internalType": "bool",
          "name": "",
          "type": "bool"
        }
      ],
      "stateMutability": "view",
      "type": "function"
    },
    {
      "inputs": [],
      "name": "renounceOwnership",
      "outputs": [],
      "stateMutability": "nonpayable",
      "type": "function"
    },
    {
      "inputs": [],
      "name": "renouncePauser",
      "outputs": [],
      "stateMutability": "nonpayable",
      "type": "function"
    },
    {
      "inputs": [],
      "name": "tokenManager",
      "outputs": [
        {
          "internalType": "contract ITokenManager",
          "name": "",
          "type": "address"
        }
      ],
      "stateMutability": "view",
      "type": "function"
    },
    {
      "inputs": [
        {
          "internalType": "address",
          "name": "newOwner",
          "type": "address"
        }
      ],
      "name": "transferOwnership",
      "outputs": [],
      "stateMutability": "nonpayable",
      "type": "function"
    },
    {
      "inputs": [],
      "name": "unpause",
      "outputs": [],
      "stateMutability": "nonpayable",
      "type": "function"
    },
    {
      "stateMutability": "payable",
      "type": "receive"
    },
    {
      "inputs": [
        {
          "internalType": "address",
          "name": "_executorManagerAddress",
          "type": "address"
        },
        {
          "internalType": "address",
          "name": "_pauser",
          "type": "address"
        },
        {
          "internalType": "address",
          "name": "_trustedForwarder",
          "type": "address"
        },
        {
          "internalType": "address",
          "name": "_tokenManager",
          "type": "address"
        },
        {
          "internalType": "address",
          "name": "_liquidityProviders",
          "type": "address"
        }
      ],
      "name": "initialize",
      "outputs": [],
      "stateMutability": "nonpayable",
      "type": "function"
    },
    {
      "inputs": [
        {
          "internalType": "address",
          "name": "trustedForwarder",
          "type": "address"
        }
      ],
      "name": "setTrustedForwarder",
      "outputs": [],
      "stateMutability": "nonpayable",
      "type": "function"
    },
    {
      "inputs": [
        {
          "internalType": "address",
          "name": "_liquidityProviders",
          "type": "address"
        }
      ],
      "name": "setLiquidityProviders",
      "outputs": [],
      "stateMutability": "nonpayable",
      "type": "function"
    },
    {
      "inputs": [
        {
          "internalType": "address",
          "name": "_tokenManager",
          "type": "address"
        }
      ],
      "name": "setTokenManager",
      "outputs": [],
      "stateMutability": "nonpayable",
      "type": "function"
    },
    {
      "inputs": [
        {
          "internalType": "uint128",
          "name": "gas",
          "type": "uint128"
        }
      ],
      "name": "setBaseGas",
      "outputs": [],
      "stateMutability": "nonpayable",
      "type": "function"
    },
    {
      "inputs": [],
      "name": "getExecutorManager",
      "outputs": [
        {
          "internalType": "address",
          "name": "",
          "type": "address"
        }
      ],
      "stateMutability": "view",
      "type": "function"
    },
    {
      "inputs": [
        {
          "internalType": "address",
          "name": "_executorManagerAddress",
          "type": "address"
        }
      ],
      "name": "setExecutorManager",
      "outputs": [],
      "stateMutability": "nonpayable",
      "type": "function"
    },
    {
      "inputs": [
        {
          "internalType": "address",
          "name": "tokenAddress",
          "type": "address"
        }
      ],
      "name": "getCurrentLiquidity",
      "outputs": [
        {
          "internalType": "uint256",
          "name": "currentLiquidity",
          "type": "uint256"
        }
      ],
      "stateMutability": "view",
      "type": "function"
    },
    {
      "inputs": [
        {
          "internalType": "uint256",
          "name": "toChainId",
          "type": "uint256"
        },
        {
          "internalType": "address",
          "name": "tokenAddress",
          "type": "address"
        },
        {
          "internalType": "address",
          "name": "receiver",
          "type": "address"
        },
        {
          "internalType": "uint256",
          "name": "amount",
          "type": "uint256"
        },
        {
          "internalType": "string",
          "name": "tag",
          "type": "string"
        }
      ],
      "name": "depositErc20",
      "outputs": [],
      "stateMutability": "nonpayable",
      "type": "function"
    },
    {
      "inputs": [
        {
          "internalType": "uint256",
          "name": "amount",
          "type": "uint256"
        },
        {
          "internalType": "address",
          "name": "tokenAddress",
          "type": "address"
        }
      ],
      "name": "getRewardAmount",
      "outputs": [
        {
          "internalType": "uint256",
          "name": "rewardAmount",
          "type": "uint256"
        }
      ],
      "stateMutability": "view",
      "type": "function"
    },
    {
      "inputs": [
        {
          "internalType": "address",
          "name": "tokenAddress",
          "type": "address"
        },
        {
          "internalType": "address",
          "name": "receiver",
          "type": "address"
        },
        {
          "internalType": "uint256",
          "name": "amount",
          "type": "uint256"
        },
        {
          "internalType": "uint256",
          "name": "toChainId",
          "type": "uint256"
        },
        {
          "components": [
            {
              "internalType": "uint256",
              "name": "nonce",
              "type": "uint256"
            },
            {
              "internalType": "uint256",
              "name": "expiry",
              "type": "uint256"
            },
            {
              "internalType": "bool",
              "name": "allowed",
              "type": "bool"
            },
            {
              "internalType": "uint8",
              "name": "v",
              "type": "uint8"
            },
            {
              "internalType": "bytes32",
              "name": "r",
              "type": "bytes32"
            },
            {
              "internalType": "bytes32",
              "name": "s",
              "type": "bytes32"
            }
          ],
          "internalType": "struct LiquidityPool.PermitRequest",
          "name": "permitOptions",
          "type": "tuple"
        },
        {
          "internalType": "string",
          "name": "tag",
          "type": "string"
        }
      ],
      "name": "permitAndDepositErc20",
      "outputs": [],
      "stateMutability": "nonpayable",
      "type": "function"
    },
    {
      "inputs": [
        {
          "internalType": "address",
          "name": "tokenAddress",
          "type": "address"
        },
        {
          "internalType": "address",
          "name": "receiver",
          "type": "address"
        },
        {
          "internalType": "uint256",
          "name": "amount",
          "type": "uint256"
        },
        {
          "internalType": "uint256",
          "name": "toChainId",
          "type": "uint256"
        },
        {
          "components": [
            {
              "internalType": "uint256",
              "name": "nonce",
              "type": "uint256"
            },
            {
              "internalType": "uint256",
              "name": "expiry",
              "type": "uint256"
            },
            {
              "internalType": "bool",
              "name": "allowed",
              "type": "bool"
            },
            {
              "internalType": "uint8",
              "name": "v",
              "type": "uint8"
            },
            {
              "internalType": "bytes32",
              "name": "r",
              "type": "bytes32"
            },
            {
              "internalType": "bytes32",
              "name": "s",
              "type": "bytes32"
            }
          ],
          "internalType": "struct LiquidityPool.PermitRequest",
          "name": "permitOptions",
          "type": "tuple"
        },
        {
          "internalType": "string",
          "name": "tag",
          "type": "string"
        }
      ],
      "name": "permitEIP2612AndDepositErc20",
      "outputs": [],
      "stateMutability": "nonpayable",
      "type": "function"
    },
    {
      "inputs": [
        {
          "internalType": "address",
          "name": "receiver",
          "type": "address"
        },
        {
          "internalType": "uint256",
          "name": "toChainId",
          "type": "uint256"
        },
        {
          "internalType": "string",
          "name": "tag",
          "type": "string"
        }
      ],
      "name": "depositNative",
      "outputs": [],
      "stateMutability": "payable",
      "type": "function"
    },
    {
      "inputs": [
        {
          "internalType": "address",
          "name": "tokenAddress",
          "type": "address"
        },
        {
          "internalType": "uint256",
          "name": "amount",
          "type": "uint256"
        },
        {
          "internalType": "address payable",
          "name": "receiver",
          "type": "address"
        },
        {
          "internalType": "bytes",
          "name": "depositHash",
          "type": "bytes"
        },
        {
          "internalType": "uint256",
          "name": "tokenGasPrice",
          "type": "uint256"
        },
        {
          "internalType": "uint256",
          "name": "fromChainId",
          "type": "uint256"
        }
      ],
      "name": "sendFundsToUser",
      "outputs": [],
      "stateMutability": "nonpayable",
      "type": "function"
    },
    {
      "inputs": [
        {
          "internalType": "address",
          "name": "tokenAddress",
          "type": "address"
        },
        {
          "internalType": "uint256",
          "name": "amount",
          "type": "uint256"
        },
        {
          "internalType": "address payable",
          "name": "receiver",
          "type": "address"
        },
        {
          "internalType": "bytes",
          "name": "depositHash",
          "type": "bytes"
        },
        {
          "internalType": "uint256",
          "name": "nativeTokenPriceInTransferredToken",
          "type": "uint256"
        },
        {
          "internalType": "uint256",
          "name": "fromChainId",
          "type": "uint256"
        }
      ],
      "name": "sendFundsToUserV2",
      "outputs": [],
      "stateMutability": "nonpayable",
      "type": "function"
    },
    {
      "inputs": [
        {
          "internalType": "address",
          "name": "tokenAddress",
          "type": "address"
        },
        {
          "internalType": "uint256",
          "name": "amount",
          "type": "uint256"
        }
      ],
      "name": "getTransferFee",
      "outputs": [
        {
          "internalType": "uint256",
          "name": "",
          "type": "uint256"
        }
      ],
      "stateMutability": "view",
      "type": "function"
    },
    {
      "inputs": [
        {
          "internalType": "address",
          "name": "tokenAddress",
          "type": "address"
        },
        {
          "internalType": "uint256",
          "name": "amount",
          "type": "uint256"
        },
        {
          "internalType": "address payable",
          "name": "receiver",
          "type": "address"
        },
        {
          "internalType": "bytes",
          "name": "depositHash",
          "type": "bytes"
        }
      ],
      "name": "checkHashStatus",
      "outputs": [
        {
          "internalType": "bytes32",
          "name": "hashSendTransaction",
          "type": "bytes32"
        },
        {
          "internalType": "bool",
          "name": "status",
          "type": "bool"
        }
      ],
      "stateMutability": "view",
      "type": "function"
    },
    {
      "inputs": [
        {
          "internalType": "address",
          "name": "tokenAddress",
          "type": "address"
        }
      ],
      "name": "withdrawErc20GasFee",
      "outputs": [],
      "stateMutability": "nonpayable",
      "type": "function"
    },
    {
      "inputs": [],
      "name": "withdrawNativeGasFee",
      "outputs": [],
      "stateMutability": "nonpayable",
      "type": "function"
    },
    {
      "inputs": [
        {
          "internalType": "address",
          "name": "_tokenAddress",
          "type": "address"
        },
        {
          "internalType": "address",
          "name": "receiver",
          "type": "address"
        },
        {
          "internalType": "uint256",
          "name": "_tokenAmount",
          "type": "uint256"
        }
      ],
      "name": "transfer",
      "outputs": [],
      "stateMutability": "nonpayable",
      "type": "function"
    }
  ],
  "bytecode": "0x608060405234801561001057600080fd5b5061797880620000216000396000f3fe60806040526004361061021e5760003560e01c806385a2559711610123578063ca2ba943116100ab578063ea3684211161006f578063ea368421146107dd578063ef0d4572146107f9578063f16c2c2514610822578063f2fde38b1461085f578063fc42b58f1461088857610265565b8063ca2ba943146106fa578063ccb844e114610737578063da6f679414610760578063da74222814610777578063e06179fe146107a057610265565b8063a4479b48116100f2578063a4479b4814610617578063ab1635b714610654578063beabacc81461067f578063bf33e812146106a8578063c87e4e25146106d157610265565b806385a255971461055a5780638da5cb5b1461059857806391f6cda4146105c3578063a2419a6b146105ec57610265565b806359ca6c01116101a65780636ef8d66d116101755780636ef8d66d146104af578063715018a6146104c6578063760d098a146104dd5780637cb2b79c1461051a5780638456cb591461054357610265565b806359ca6c01146103f55780635c975abb1461041e57806367924a56146104495780636e8ae0a31461047257610265565b80633f4ba83a116101ed5780633f4ba83a1461031057806346fbf68e1461032757806355d7359514610364578063572b6c051461038d578063583bbc40146103ca57610265565b80631459457a1461026a5780631ef6626b146102935780632a709b14146102bc5780632cd271e7146102e757610265565b36610265577f85177f287940f2f05425a4029951af0e047a7f9c4eaa9a6e6917bcd869f8669561024c6108c5565b3460405161025b92919061564c565b60405180910390a1005b600080fd5b34801561027657600080fd5b50610291600480360381019061028c91906156b5565b6108d4565b005b34801561029f57600080fd5b506102ba60048036038101906102b591906157ff565b610c4a565b005b3480156102c857600080fd5b506102d161122a565b6040516102de919061590d565b60405180910390f35b3480156102f357600080fd5b5061030e60048036038101906103099190615928565b611250565b005b34801561031c57600080fd5b506103256112ac565b005b34801561033357600080fd5b5061034e60048036038101906103499190615928565b6112fe565b60405161035b9190615970565b60405180910390f35b34801561037057600080fd5b5061038b600480360381019061038691906159e1565b611358565b005b34801561039957600080fd5b506103b460048036038101906103af9190615928565b6118f1565b6040516103c19190615970565b60405180910390f35b3480156103d657600080fd5b506103df61194b565b6040516103ec9190615a7b565b60405180910390f35b34801561040157600080fd5b5061041c60048036038101906104179190615928565b611951565b005b34801561042a57600080fd5b50610433611a4f565b6040516104409190615970565b60405180910390f35b34801561045557600080fd5b50610470600480360381019061046b9190615aba565b611a66565b005b34801561047e57600080fd5b5061049960048036038101906104949190615b6b565b611b31565b6040516104a69190615a7b565b60405180910390f35b3480156104bb57600080fd5b506104c4611ccd565b005b3480156104d257600080fd5b506104db611dde565b005b3480156104e957600080fd5b5061050460048036038101906104ff9190615be1565b611df2565b6040516105119190615970565b60405180910390f35b34801561052657600080fd5b50610541600480360381019061053c9190615928565b611e13565b005b34801561054f57600080fd5b50610558611f11565b005b34801561056657600080fd5b50610581600480360381019061057c9190615c0e565b611f63565b60405161058f929190615ca5565b60405180910390f35b3480156105a457600080fd5b506105ad611fda565b6040516105ba9190615cce565b60405180910390f35b3480156105cf57600080fd5b506105ea60048036038101906105e591906157ff565b612004565b005b3480156105f857600080fd5b506106016125e4565b60405161060e9190615d0a565b60405180910390f35b34801561062357600080fd5b5061063e60048036038101906106399190615928565b61260a565b60405161064b9190615a7b565b60405180910390f35b34801561066057600080fd5b50610669612623565b6040516106769190615cce565b60405180910390f35b34801561068b57600080fd5b506106a660048036038101906106a19190615d25565b61264d565b005b3480156106b457600080fd5b506106cf60048036038101906106ca9190615aba565b6129be565b005b3480156106dd57600080fd5b506106f860048036038101906106f39190615928565b612a71565b005b34801561070657600080fd5b50610721600480360381019061071c9190615928565b612e8f565b60405161072e9190615a7b565b60405180910390f35b34801561074357600080fd5b5061075e60048036038101906107599190615dc0565b613075565b005b34801561076c57600080fd5b506107756130c8565b005b34801561078357600080fd5b5061079e60048036038101906107999190615928565b613555565b005b3480156107ac57600080fd5b506107c760048036038101906107c29190615928565b613569565b6040516107d49190615a7b565b60405180910390f35b6107f760048036038101906107f29190615ded565b613582565b005b34801561080557600080fd5b50610820600480360381019061081b9190615928565b613ac0565b005b34801561082e57600080fd5b5061084960048036038101906108449190615e61565b613b7b565b6040516108569190615a7b565b60405180910390f35b34801561086b57600080fd5b5061088660048036038101906108819190615928565b613ba1565b005b34801561089457600080fd5b506108af60048036038101906108aa9190615ea1565b613c24565b6040516108bc9190615a7b565b60405180910390f35b60006108cf613cd4565b905090565b60008060019054906101000a900460ff161590508080156109055750600160008054906101000a900460ff1660ff16105b80610932575061091430613d06565b1580156109315750600160008054906101000a900460ff1660ff16145b5b610971576040517f08c379a000000000000000000000000000000000000000000000000000000000815260040161096890615f64565b60405180910390fd5b60016000806101000a81548160ff021916908360ff16021790555080156109ae576001600060016101000a81548160ff0219169083151502179055505b600073ffffffffffffffffffffffffffffffffffffffff168673ffffffffffffffffffffffffffffffffffffffff1603610a1d576040517f08c379a0000000000000000000000000000000000000000000000000000000008152600401610a1490615fd0565b60405180910390fd5b600073ffffffffffffffffffffffffffffffffffffffff168473ffffffffffffffffffffffffffffffffffffffff1603610a8c576040517f08c379a0000000000000000000000000000000000000000000000000000000008152600401610a839061603c565b60405180910390fd5b600073ffffffffffffffffffffffffffffffffffffffff168273ffffffffffffffffffffffffffffffffffffffff1603610afb576040517f08c379a0000000000000000000000000000000000000000000000000000000008152600401610af2906160a8565b60405180910390fd5b610b0484613d29565b610b0c613e71565b610b14613eca565b610b1d85613f23565b8560fd60006101000a81548173ffffffffffffffffffffffffffffffffffffffff021916908373ffffffffffffffffffffffffffffffffffffffff1602179055508260fe60006101000a81548173ffffffffffffffffffffffffffffffffffffffff021916908373ffffffffffffffffffffffffffffffffffffffff1602179055508160ff60006101000a81548173ffffffffffffffffffffffffffffffffffffffff021916908373ffffffffffffffffffffffffffffffffffffffff16021790555061520860fc819055508015610c425760008060016101000a81548160ff0219169083151502179055507f7f26b83ff96e1f2b6a682f133852f6798a09c465da95921460cefb38474024986001604051610c399190616110565b60405180910390a15b505050505050565b600260015403610c8f576040517f08c379a0000000000000000000000000000000000000000000000000000000008152600401610c8690616177565b60405180910390fd5b600260018190555060fd60009054906101000a900473ffffffffffffffffffffffffffffffffffffffff1673ffffffffffffffffffffffffffffffffffffffff16630768d65c610cdd6108c5565b6040518263ffffffff1660e01b8152600401610cf99190615cce565b602060405180830381865afa158015610d16573d6000803e3d6000fd5b505050506040513d601f19601f82011682018060405250810190610d3a91906161c3565b610d79576040517f08c379a0000000000000000000000000000000000000000000000000000000008152600401610d709061623c565b60405180910390fd5b610d81614112565b60005a9050600060fe60009054906101000a900473ffffffffffffffffffffffffffffffffffffffff1673ffffffffffffffffffffffffffffffffffffffff1663128161a88a6040518263ffffffff1660e01b8152600401610de39190615cce565b6040805180830381865afa158015610dff573d6000803e3d6000fd5b505050506040513d601f19601f82011682018060405250810190610e239190616352565b905087816000015111158015610e3d575087816020015110155b610e7c576040517f08c379a0000000000000000000000000000000000000000000000000000000008152600401610e73906163cb565b60405180910390fd5b600073ffffffffffffffffffffffffffffffffffffffff168773ffffffffffffffffffffffffffffffffffffffff1603610eeb576040517f08c379a0000000000000000000000000000000000000000000000000000000008152600401610ee290616437565b60405180910390fd5b600080610efb8b8b8b8b8b611f63565b915091508015610f40576040517f08c379a0000000000000000000000000000000000000000000000000000000008152600401610f37906164a3565b60405180910390fd5b6001610100600084815260200190815260200160002060006101000a81548160ff0219169083151502179055506000610f7b858d8d8a61415c565b905060ff60009054906101000a900473ffffffffffffffffffffffffffffffffffffffff1673ffffffffffffffffffffffffffffffffffffffff1663dd8b99238d83600060048110610fd057610fcf6164c3565b5b60200201516040518363ffffffff1660e01b8152600401610ff292919061564c565b600060405180830381600087803b15801561100c57600080fd5b505af1158015611020573d6000803e3d6000fd5b5050505073eeeeeeeeeeeeeeeeeeeeeeeeeeeeeeeeeeeeeeee73ffffffffffffffffffffffffffffffffffffffff168c73ffffffffffffffffffffffffffffffffffffffff16036111355760008a73ffffffffffffffffffffffffffffffffffffffff1682600060048110611098576110976164c3565b5b60200201516040516110a990616523565b60006040518083038185875af1925050503d80600081146110e6576040519150601f19603f3d011682016040523d82523d6000602084013e6110eb565b606091505b505090508061112f576040517f08c379a000000000000000000000000000000000000000000000000000000000815260040161112690616584565b60405180910390fd5b50611159565b6111588c8b8360006004811061114e5761114d6164c3565b5b60200201516144fc565b5b8060006004811061116d5761116c6164c3565b5b60200201518b8d73ffffffffffffffffffffffffffffffffffffffff167f6bfd5ee5792d66b151a3fab9f56ee828a0f1c3216d4b752e267cd5590326b15c8d8d8d8c886001600481106111c3576111c26164c3565b5b6020020151896002600481106111dc576111db6164c3565b5b60200201518a6003600481106111f5576111f46164c3565b5b602002015160405161120d9796959493929190616612565b60405180910390a450505050506001808190555050505050505050565b60fe60009054906101000a900473ffffffffffffffffffffffffffffffffffffffff1681565b611259336112fe565b611298576040517f08c379a000000000000000000000000000000000000000000000000000000000815260040161128f906166ee565b60405180910390fd5b6112a0614112565b6112a981614582565b50565b6112b5336112fe565b6112f4576040517f08c379a00000000000000000000000000000000000000000000000000000000081526004016112eb906166ee565b60405180910390fd5b6112fc61467b565b565b6000609760009054906101000a900473ffffffffffffffffffffffffffffffffffffffff1673ffffffffffffffffffffffffffffffffffffffff168273ffffffffffffffffffffffffffffffffffffffff16149050919050565b84600060fe60009054906101000a900473ffffffffffffffffffffffffffffffffffffffff1673ffffffffffffffffffffffffffffffffffffffff1663ba8dbea2836040518263ffffffff1660e01b81526004016113b69190615cce565b60c060405180830381865afa1580156113d3573d6000803e3d6000fd5b505050506040513d601f19601f820116820180604052508101906113f7919061670e565b5050509150508061143d576040517f08c379a0000000000000000000000000000000000000000000000000000000008152600401611434906167d5565b60405180910390fd5b611445614112565b60026001540361148a576040517f08c379a000000000000000000000000000000000000000000000000000000000815260040161148190616177565b60405180910390fd5b60026001819055504688036114d4576040517f08c379a00000000000000000000000000000000000000000000000000000000081526004016114cb90616867565b60405180910390fd5b73eeeeeeeeeeeeeeeeeeeeeeeeeeeeeeeeeeeeeeee73ffffffffffffffffffffffffffffffffffffffff168773ffffffffffffffffffffffffffffffffffffffff1603611556576040517f08c379a000000000000000000000000000000000000000000000000000000000815260040161154d906168d3565b60405180910390fd5b600060fe60009054906101000a900473ffffffffffffffffffffffffffffffffffffffff1673ffffffffffffffffffffffffffffffffffffffff1663c0e4d6278a8a6040518363ffffffff1660e01b81526004016115b59291906168f3565b6040805180830381865afa1580156115d1573d6000803e3d6000fd5b505050506040513d601f19601f820116820180604052508101906115f59190616352565b90508581600001511115801561160f575085816020015110155b61164e576040517f08c379a000000000000000000000000000000000000000000000000000000000815260040161164590616968565b60405180910390fd5b600073ffffffffffffffffffffffffffffffffffffffff168773ffffffffffffffffffffffffffffffffffffffff16036116bd576040517f08c379a00000000000000000000000000000000000000000000000000000000081526004016116b4906169d4565b60405180910390fd5b60008603611700576040517f08c379a00000000000000000000000000000000000000000000000000000000081526004016116f790616a40565b60405180910390fd5b600061170a6108c5565b90506000611718888b611b31565b9050600081146117b3578061010360008c73ffffffffffffffffffffffffffffffffffffffff1673ffffffffffffffffffffffffffffffffffffffff1681526020019081526020016000205461176e9190616a8f565b61010360008c73ffffffffffffffffffffffffffffffffffffffff1673ffffffffffffffffffffffffffffffffffffffff168152602001908152602001600020819055505b60ff60009054906101000a900473ffffffffffffffffffffffffffffffffffffffff1673ffffffffffffffffffffffffffffffffffffffff166353403fb58b8a6040518363ffffffff1660e01b815260040161181092919061564c565b600060405180830381600087803b15801561182a57600080fd5b505af115801561183e573d6000803e3d6000fd5b5050505061184e8a83308b6146de565b8873ffffffffffffffffffffffffffffffffffffffff168a73ffffffffffffffffffffffffffffffffffffffff168373ffffffffffffffffffffffffffffffffffffffff167f522e11fa05593b306c8df10d2b0b8e01eec48f9d0a9427a7a93f21ff90d66fb18e858d6118c19190616ac3565b868d8d6040516118d5959493929190616b46565b60405180910390a4505050600180819055505050505050505050565b600060ca60009054906101000a900473ffffffffffffffffffffffffffffffffffffffff1673ffffffffffffffffffffffffffffffffffffffff168273ffffffffffffffffffffffffffffffffffffffff16149050919050565b60fc5481565b611959614767565b600073ffffffffffffffffffffffffffffffffffffffff168173ffffffffffffffffffffffffffffffffffffffff16036119c8576040517f08c379a00000000000000000000000000000000000000000000000000000000081526004016119bf90616be0565b60405180910390fd5b8060ff60006101000a81548173ffffffffffffffffffffffffffffffffffffffff021916908373ffffffffffffffffffffffffffffffffffffffff1602179055508073ffffffffffffffffffffffffffffffffffffffff167f0988d9952b4295aedfb755253e8d1dcebd105e8a5cf7507e419b544da764706660405160405180910390a250565b6000606560009054906101000a900460ff16905090565b8673ffffffffffffffffffffffffffffffffffffffff16638fcbaf0c611a8a6108c5565b3086600001358760200135886040016020810190611aa89190616c15565b896060016020810190611abb9190616c6e565b8a608001358b60a001356040518963ffffffff1660e01b8152600401611ae8989796959493929190616caa565b600060405180830381600087803b158015611b0257600080fd5b505af1158015611b16573d6000803e3d6000fd5b50505050611b28848888888686611358565b50505050505050565b600080611b3d83612e8f565b9050600060ff60009054906101000a900473ffffffffffffffffffffffffffffffffffffffff1673ffffffffffffffffffffffffffffffffffffffff1663b3524e30856040518263ffffffff1660e01b8152600401611b9c9190615cce565b602060405180830381865afa158015611bb9573d6000803e3d6000fd5b505050506040513d601f19601f82011682018060405250810190611bdd9190616d28565b905080821015611cc55760008282611bf59190616a8f565b9050808610611c465761010360008673ffffffffffffffffffffffffffffffffffffffff1673ffffffffffffffffffffffffffffffffffffffff168152602001908152602001600020549350611cc3565b806402540be40061010360008873ffffffffffffffffffffffffffffffffffffffff1673ffffffffffffffffffffffffffffffffffffffff1681526020019081526020016000205488611c999190616d55565b611ca39190616d55565b611cad9190616dde565b93506402540be40084611cc09190616dde565b93505b505b505092915050565b611cd6336112fe565b611d15576040517f08c379a0000000000000000000000000000000000000000000000000000000008152600401611d0c906166ee565b60405180910390fd5b611d1d614112565b600073ffffffffffffffffffffffffffffffffffffffff16609760009054906101000a900473ffffffffffffffffffffffffffffffffffffffff1673ffffffffffffffffffffffffffffffffffffffff167f95bb211a5a393c4d30c3edc9a745825fba4e6ad3e3bb949e6bf8ccdfe431a81160405160405180910390a36000609760006101000a81548173ffffffffffffffffffffffffffffffffffffffff021916908373ffffffffffffffffffffffffffffffffffffffff160217905550565b611de6614767565b611df060006147e5565b565b6101006020528060005260406000206000915054906101000a900460ff1681565b611e1b614767565b600073ffffffffffffffffffffffffffffffffffffffff168173ffffffffffffffffffffffffffffffffffffffff1603611e8a576040517f08c379a0000000000000000000000000000000000000000000000000000000008152600401611e8190616e5b565b60405180910390fd5b8060fe60006101000a81548173ffffffffffffffffffffffffffffffffffffffff021916908373ffffffffffffffffffffffffffffffffffffffff1602179055508073ffffffffffffffffffffffffffffffffffffffff167f331ea0c3b6547bb3d7c5798698a5f25c7b9f5484af90723a847eba9e885a3d7f60405160405180910390a250565b611f1a336112fe565b611f59576040517f08c379a0000000000000000000000000000000000000000000000000000000008152600401611f50906166ee565b60405180910390fd5b611f616148ab565b565b6000808686868686604051611f79929190616ea0565b6040518091039020604051602001611f949493929190616ec8565b604051602081830303815290604052805190602001209150610100600083815260200190815260200160002060009054906101000a900460ff1690509550959350505050565b6000609860009054906101000a900473ffffffffffffffffffffffffffffffffffffffff16905090565b600260015403612049576040517f08c379a000000000000000000000000000000000000000000000000000000000815260040161204090616177565b60405180910390fd5b600260018190555060fd60009054906101000a900473ffffffffffffffffffffffffffffffffffffffff1673ffffffffffffffffffffffffffffffffffffffff16630768d65c6120976108c5565b6040518263ffffffff1660e01b81526004016120b39190615cce565b602060405180830381865afa1580156120d0573d6000803e3d6000fd5b505050506040513d601f19601f820116820180604052508101906120f491906161c3565b612133576040517f08c379a000000000000000000000000000000000000000000000000000000000815260040161212a9061623c565b60405180910390fd5b61213b614112565b60005a9050600060fe60009054906101000a900473ffffffffffffffffffffffffffffffffffffffff1673ffffffffffffffffffffffffffffffffffffffff1663128161a88a6040518263ffffffff1660e01b815260040161219d9190615cce565b6040805180830381865afa1580156121b9573d6000803e3d6000fd5b505050506040513d601f19601f820116820180604052508101906121dd9190616352565b9050878160000151111580156121f7575087816020015110155b612236576040517f08c379a000000000000000000000000000000000000000000000000000000000815260040161222d906163cb565b60405180910390fd5b600073ffffffffffffffffffffffffffffffffffffffff168773ffffffffffffffffffffffffffffffffffffffff16036122a5576040517f08c379a000000000000000000000000000000000000000000000000000000000815260040161229c90616437565b60405180910390fd5b6000806122b58b8b8b8b8b611f63565b9150915080156122fa576040517f08c379a00000000000000000000000000000000000000000000000000000000081526004016122f1906164a3565b60405180910390fd5b6001610100600084815260200190815260200160002060006101000a81548160ff0219169083151502179055506000612335858d8d8a61490e565b905060ff60009054906101000a900473ffffffffffffffffffffffffffffffffffffffff1673ffffffffffffffffffffffffffffffffffffffff1663dd8b99238d8360006004811061238a576123896164c3565b5b60200201516040518363ffffffff1660e01b81526004016123ac92919061564c565b600060405180830381600087803b1580156123c657600080fd5b505af11580156123da573d6000803e3d6000fd5b5050505073eeeeeeeeeeeeeeeeeeeeeeeeeeeeeeeeeeeeeeee73ffffffffffffffffffffffffffffffffffffffff168c73ffffffffffffffffffffffffffffffffffffffff16036124ef5760008a73ffffffffffffffffffffffffffffffffffffffff1682600060048110612452576124516164c3565b5b602002015160405161246390616523565b60006040518083038185875af1925050503d80600081146124a0576040519150601f19603f3d011682016040523d82523d6000602084013e6124a5565b606091505b50509050806124e9576040517f08c379a00000000000000000000000000000000000000000000000000000000081526004016124e090616584565b60405180910390fd5b50612513565b6125128c8b83600060048110612508576125076164c3565b5b60200201516144fc565b5b80600060048110612527576125266164c3565b5b60200201518b8d73ffffffffffffffffffffffffffffffffffffffff167f6bfd5ee5792d66b151a3fab9f56ee828a0f1c3216d4b752e267cd5590326b15c8d8d8d8c8860016004811061257d5761257c6164c3565b5b602002015189600260048110612596576125956164c3565b5b60200201518a6003600481106125af576125ae6164c3565b5b60200201516040516125c79796959493929190616612565b60405180910390a450505050506001808190555050505050505050565b60ff60009054906101000a900473ffffffffffffffffffffffffffffffffffffffff1681565b6101036020528060005260406000206000915090505481565b600060fd60009054906101000a900473ffffffffffffffffffffffffffffffffffffffff16905090565b612655614112565b60ff60009054906101000a900473ffffffffffffffffffffffffffffffffffffffff1673ffffffffffffffffffffffffffffffffffffffff166126966108c5565b73ffffffffffffffffffffffffffffffffffffffff16146126ec576040517f08c379a00000000000000000000000000000000000000000000000000000000081526004016126e390616f7f565b60405180910390fd5b600260015403612731576040517f08c379a000000000000000000000000000000000000000000000000000000000815260040161272890616177565b60405180910390fd5b6002600181905550600073ffffffffffffffffffffffffffffffffffffffff168273ffffffffffffffffffffffffffffffffffffffff16036127a8576040517f08c379a000000000000000000000000000000000000000000000000000000000815260040161279f90616feb565b60405180910390fd5b73eeeeeeeeeeeeeeeeeeeeeeeeeeeeeeeeeeeeeeee73ffffffffffffffffffffffffffffffffffffffff168373ffffffffffffffffffffffffffffffffffffffff16036128e45780471015612832576040517f08c379a000000000000000000000000000000000000000000000000000000000815260040161282990617057565b60405180910390fd5b60008273ffffffffffffffffffffffffffffffffffffffff168260405161285890616523565b60006040518083038185875af1925050503d8060008114612895576040519150601f19603f3d011682016040523d82523d6000602084013e61289a565b606091505b50509050806128de576040517f08c379a00000000000000000000000000000000000000000000000000000000081526004016128d5906170c3565b60405180910390fd5b506129b2565b6000839050818173ffffffffffffffffffffffffffffffffffffffff166370a08231306040518263ffffffff1660e01b81526004016129239190615cce565b602060405180830381865afa158015612940573d6000803e3d6000fd5b505050506040513d601f19601f820116820180604052508101906129649190616d28565b10156129a5576040517f08c379a000000000000000000000000000000000000000000000000000000000815260040161299c90617057565b60405180910390fd5b6129b08184846144fc565b505b60018081905550505050565b8673ffffffffffffffffffffffffffffffffffffffff1663d505accf6129e26108c5565b308887602001358860600160208101906129fc9190616c6e565b89608001358a60a001356040518863ffffffff1660e01b8152600401612a2897969594939291906170e3565b600060405180830381600087803b158015612a4257600080fd5b505af1158015612a56573d6000803e3d6000fd5b50505050612a68848888888686611358565b50505050505050565b60fd60009054906101000a900473ffffffffffffffffffffffffffffffffffffffff1673ffffffffffffffffffffffffffffffffffffffff16630768d65c612ab76108c5565b6040518263ffffffff1660e01b8152600401612ad39190615cce565b602060405180830381865afa158015612af0573d6000803e3d6000fd5b505050506040513d601f19601f82011682018060405250810190612b1491906161c3565b612b53576040517f08c379a0000000000000000000000000000000000000000000000000000000008152600401612b4a9061623c565b60405180910390fd5b612b5b614112565b600260015403612ba0576040517f08c379a0000000000000000000000000000000000000000000000000000000008152600401612b9790616177565b60405180910390fd5b600260018190555073eeeeeeeeeeeeeeeeeeeeeeeeeeeeeeeeeeeeeeee73ffffffffffffffffffffffffffffffffffffffff168173ffffffffffffffffffffffffffffffffffffffff1603612c2a576040517f08c379a0000000000000000000000000000000000000000000000000000000008152600401612c219061719e565b60405180910390fd5b600061010260008373ffffffffffffffffffffffffffffffffffffffff1673ffffffffffffffffffffffffffffffffffffffff1681526020019081526020016000206000612c766108c5565b73ffffffffffffffffffffffffffffffffffffffff1673ffffffffffffffffffffffffffffffffffffffff16815260200190815260200160002054905060008103612cf6576040517f08c379a0000000000000000000000000000000000000000000000000000000008152600401612ced9061720a565b60405180910390fd5b8061010160008473ffffffffffffffffffffffffffffffffffffffff1673ffffffffffffffffffffffffffffffffffffffff16815260200190815260200160002054612d429190616a8f565b61010160008473ffffffffffffffffffffffffffffffffffffffff1673ffffffffffffffffffffffffffffffffffffffff16815260200190815260200160002081905550600061010260008473ffffffffffffffffffffffffffffffffffffffff1673ffffffffffffffffffffffffffffffffffffffff1681526020019081526020016000206000612dd26108c5565b73ffffffffffffffffffffffffffffffffffffffff1673ffffffffffffffffffffffffffffffffffffffff16815260200190815260200160002081905550612e2282612e1c6108c5565b836144fc565b80612e2b6108c5565b73ffffffffffffffffffffffffffffffffffffffff168373ffffffffffffffffffffffffffffffffffffffff167fc129cf8730ce23dfea8953a499f9b276ad5777855ff41fafe198ebc2a0d2324360405160405180910390a4506001808190555050565b60008060ff60009054906101000a900473ffffffffffffffffffffffffffffffffffffffff1673ffffffffffffffffffffffffffffffffffffffff1663ca2ba943846040518263ffffffff1660e01b8152600401612eed9190615cce565b602060405180830381865afa158015612f0a573d6000803e3d6000fd5b505050506040513d601f19601f82011682018060405250810190612f2e9190616d28565b905061010360008473ffffffffffffffffffffffffffffffffffffffff1673ffffffffffffffffffffffffffffffffffffffff1681526020019081526020016000205461010160008573ffffffffffffffffffffffffffffffffffffffff1673ffffffffffffffffffffffffffffffffffffffff1681526020019081526020016000205460ff60009054906101000a900473ffffffffffffffffffffffffffffffffffffffff1673ffffffffffffffffffffffffffffffffffffffff1663d1b4f192866040518263ffffffff1660e01b815260040161300d9190615cce565b602060405180830381865afa15801561302a573d6000803e3d6000fd5b505050506040513d601f19601f8201168201806040525081019061304e9190616d28565b836130599190616a8f565b6130639190616a8f565b61306d9190616a8f565b915050919050565b61307d614767565b806fffffffffffffffffffffffffffffffff1660fc8190555060fc547f1f7e24d1f8ac9b596a34502db87778da821b5ac198a6738cfb24ab379b969bfe60405160405180910390a250565b60fd60009054906101000a900473ffffffffffffffffffffffffffffffffffffffff1673ffffffffffffffffffffffffffffffffffffffff16630768d65c61310e6108c5565b6040518263ffffffff1660e01b815260040161312a9190615cce565b602060405180830381865afa158015613147573d6000803e3d6000fd5b505050506040513d601f19601f8201168201806040525081019061316b91906161c3565b6131aa576040517f08c379a00000000000000000000000000000000000000000000000000000000081526004016131a19061623c565b60405180910390fd5b6131b2614112565b6002600154036131f7576040517f08c379a00000000000000000000000000000000000000000000000000000000081526004016131ee90616177565b60405180910390fd5b60026001819055506000610102600073eeeeeeeeeeeeeeeeeeeeeeeeeeeeeeeeeeeeeeee73ffffffffffffffffffffffffffffffffffffffff1673ffffffffffffffffffffffffffffffffffffffff168152602001908152602001600020600061325f6108c5565b73ffffffffffffffffffffffffffffffffffffffff1673ffffffffffffffffffffffffffffffffffffffff168152602001908152602001600020549050600081036132df576040517f08c379a00000000000000000000000000000000000000000000000000000000081526004016132d69061720a565b60405180910390fd5b80610101600073eeeeeeeeeeeeeeeeeeeeeeeeeeeeeeeeeeeeeeee73ffffffffffffffffffffffffffffffffffffffff1673ffffffffffffffffffffffffffffffffffffffff1681526020019081526020016000205461333f9190616a8f565b610101600073eeeeeeeeeeeeeeeeeeeeeeeeeeeeeeeeeeeeeeee73ffffffffffffffffffffffffffffffffffffffff1673ffffffffffffffffffffffffffffffffffffffff168152602001908152602001600020819055506000610102600073eeeeeeeeeeeeeeeeeeeeeeeeeeeeeeeeeeeeeeee73ffffffffffffffffffffffffffffffffffffffff1673ffffffffffffffffffffffffffffffffffffffff16815260200190815260200160002060006133f76108c5565b73ffffffffffffffffffffffffffffffffffffffff1673ffffffffffffffffffffffffffffffffffffffff16815260200190815260200160002081905550600061343f6108c5565b73ffffffffffffffffffffffffffffffffffffffff168260405161346290616523565b60006040518083038185875af1925050503d806000811461349f576040519150601f19603f3d011682016040523d82523d6000602084013e6134a4565b606091505b50509050806134e8576040517f08c379a00000000000000000000000000000000000000000000000000000000081526004016134df90616584565b60405180910390fd5b816134f16108c5565b73ffffffffffffffffffffffffffffffffffffffff163073ffffffffffffffffffffffffffffffffffffffff167fc129cf8730ce23dfea8953a499f9b276ad5777855ff41fafe198ebc2a0d2324360405160405180910390a4505060018081905550565b61355d614767565b61356681614cc9565b50565b6101016020528060005260406000206000915090505481565b61358a614112565b6002600154036135cf576040517f08c379a00000000000000000000000000000000000000000000000000000000081526004016135c690616177565b60405180910390fd5b6002600181905550468303613619576040517f08c379a000000000000000000000000000000000000000000000000000000000815260040161361090616867565b60405180910390fd5b3460fe60009054906101000a900473ffffffffffffffffffffffffffffffffffffffff1673ffffffffffffffffffffffffffffffffffffffff1663c0e4d6278573eeeeeeeeeeeeeeeeeeeeeeeeeeeeeeeeeeeeeeee6040518363ffffffff1660e01b815260040161368b9291906168f3565b6040805180830381865afa1580156136a7573d6000803e3d6000fd5b505050506040513d601f19601f820116820180604052508101906136cb9190616352565b600001511115801561379157503460fe60009054906101000a900473ffffffffffffffffffffffffffffffffffffffff1673ffffffffffffffffffffffffffffffffffffffff1663c0e4d6278573eeeeeeeeeeeeeeeeeeeeeeeeeeeeeeeeeeeeeeee6040518363ffffffff1660e01b815260040161374a9291906168f3565b6040805180830381865afa158015613766573d6000803e3d6000fd5b505050506040513d601f19601f8201168201806040525081019061378a9190616352565b6020015110155b6137d0576040517f08c379a00000000000000000000000000000000000000000000000000000000081526004016137c790616968565b60405180910390fd5b600073ffffffffffffffffffffffffffffffffffffffff168473ffffffffffffffffffffffffffffffffffffffff160361383f576040517f08c379a0000000000000000000000000000000000000000000000000000000008152600401613836906169d4565b60405180910390fd5b60003403613882576040517f08c379a000000000000000000000000000000000000000000000000000000000815260040161387990616a40565b60405180910390fd5b60006138a23473eeeeeeeeeeeeeeeeeeeeeeeeeeeeeeeeeeeeeeee611b31565b9050600081146139655780610103600073eeeeeeeeeeeeeeeeeeeeeeeeeeeeeeeeeeeeeeee73ffffffffffffffffffffffffffffffffffffffff1673ffffffffffffffffffffffffffffffffffffffff1681526020019081526020016000205461390c9190616a8f565b610103600073eeeeeeeeeeeeeeeeeeeeeeeeeeeeeeeeeeeeeeee73ffffffffffffffffffffffffffffffffffffffff1673ffffffffffffffffffffffffffffffffffffffff168152602001908152602001600020819055505b60ff60009054906101000a900473ffffffffffffffffffffffffffffffffffffffff1673ffffffffffffffffffffffffffffffffffffffff166353403fb573eeeeeeeeeeeeeeeeeeeeeeeeeeeeeeeeeeeeeeee346040518363ffffffff1660e01b81526004016139d692919061564c565b600060405180830381600087803b1580156139f057600080fd5b505af1158015613a04573d6000803e3d6000fd5b505050508473ffffffffffffffffffffffffffffffffffffffff1673eeeeeeeeeeeeeeeeeeeeeeeeeeeeeeeeeeeeeeee73ffffffffffffffffffffffffffffffffffffffff16613a526108c5565b73ffffffffffffffffffffffffffffffffffffffff167f522e11fa05593b306c8df10d2b0b8e01eec48f9d0a9427a7a93f21ff90d66fb1878534613a969190616ac3565b868989604051613aaa959493929190616b46565b60405180910390a4506001808190555050505050565b613ac8614767565b600073ffffffffffffffffffffffffffffffffffffffff168173ffffffffffffffffffffffffffffffffffffffff1603613b37576040517f08c379a0000000000000000000000000000000000000000000000000000000008152600401613b2e90617276565b60405180910390fd5b8060fd60006101000a81548173ffffffffffffffffffffffffffffffffffffffff021916908373ffffffffffffffffffffffffffffffffffffffff16021790555050565b610102602052816000526040600020602052806000526040600020600091509150505481565b613ba9614767565b600073ffffffffffffffffffffffffffffffffffffffff168173ffffffffffffffffffffffffffffffffffffffff1603613c18576040517f08c379a0000000000000000000000000000000000000000000000000000000008152600401613c0f90617308565b60405180910390fd5b613c21816147e5565b50565b6000613ccc838360fe60009054906101000a900473ffffffffffffffffffffffffffffffffffffffff1673ffffffffffffffffffffffffffffffffffffffff1663fa5e2abc876040518263ffffffff1660e01b8152600401613c869190615cce565b60c060405180830381865afa158015613ca3573d6000803e3d6000fd5b505050506040513d601f19601f82011682018060405250810190613cc791906173b4565b614dbf565b905092915050565b6000613cdf336118f1565b15613cf357601436033560601c9050613d02565b613cfb614fde565b9050613d03565b5b90565b6000808273ffffffffffffffffffffffffffffffffffffffff163b119050919050565b60008060019054906101000a900460ff16159050808015613d5a5750600160008054906101000a900460ff1660ff16105b80613d875750613d6930613d06565b158015613d865750600160008054906101000a900460ff1660ff16145b5b613dc6576040517f08c379a0000000000000000000000000000000000000000000000000000000008152600401613dbd90615f64565b60405180910390fd5b60016000806101000a81548160ff021916908360ff1602179055508015613e03576001600060016101000a81548160ff0219169083151502179055505b613e0b614fe6565b613e1482615037565b8015613e6d5760008060016101000a81548160ff0219169083151502179055507f7f26b83ff96e1f2b6a682f133852f6798a09c465da95921460cefb38474024986001604051613e649190616110565b60405180910390a15b5050565b600060019054906101000a900460ff16613ec0576040517f08c379a0000000000000000000000000000000000000000000000000000000008152600401613eb790617453565b60405180910390fd5b613ec86151af565b565b600060019054906101000a900460ff16613f19576040517f08c379a0000000000000000000000000000000000000000000000000000000008152600401613f1090617453565b60405180910390fd5b613f21615207565b565b60008060019054906101000a900460ff16159050808015613f545750600160008054906101000a900460ff1660ff16105b80613f815750613f6330613d06565b158015613f805750600160008054906101000a900460ff1660ff16145b5b613fc0576040517f08c379a0000000000000000000000000000000000000000000000000000000008152600401613fb790615f64565b60405180910390fd5b60016000806101000a81548160ff021916908360ff1602179055508015613ffd576001600060016101000a81548160ff0219169083151502179055505b600073ffffffffffffffffffffffffffffffffffffffff168273ffffffffffffffffffffffffffffffffffffffff160361406c576040517f08c379a0000000000000000000000000000000000000000000000000000000008152600401614063906174bf565b60405180910390fd5b614074615268565b81609760006101000a81548173ffffffffffffffffffffffffffffffffffffffff021916908373ffffffffffffffffffffffffffffffffffffffff160217905550801561410e5760008060016101000a81548160ff0219169083151502179055507f7f26b83ff96e1f2b6a682f133852f6798a09c465da95921460cefb384740249860016040516141059190616110565b60405180910390a15b5050565b61411a611a4f565b1561415a576040517f08c379a00000000000000000000000000000000000000000000000000000000081526004016141519061752b565b60405180910390fd5b565b6141646155d0565b600060fe60009054906101000a900473ffffffffffffffffffffffffffffffffffffffff1673ffffffffffffffffffffffffffffffffffffffff1663fa5e2abc866040518263ffffffff1660e01b81526004016141c19190615cce565b60c060405180830381865afa1580156141de573d6000803e3d6000fd5b505050506040513d601f19601f8201168201806040525081019061420291906173b4565b90506000614211868684614dbf565b9050600082604001518211156142b3576402540be4008360400151876142379190616d55565b6142419190616dde565b90506402540be400836040015183038702816142605761425f616daf565b5b0461010360008973ffffffffffffffffffffffffffffffffffffffff1673ffffffffffffffffffffffffffffffffffffffff168152602001908152602001600020600082825401925050819055506142d2565b6402540be40082876142c59190616d55565b6142cf9190616dde565b90505b60006402540be40083886142e69190616d55565b6142f09190616dde565b905060ff60009054906101000a900473ffffffffffffffffffffffffffffffffffffffff1673ffffffffffffffffffffffffffffffffffffffff16639326b08a89846040518363ffffffff1660e01b815260040161434f92919061564c565b600060405180830381600087803b15801561436957600080fd5b505af115801561437d573d6000803e3d6000fd5b5050505060005a60fc5486600001518c6143979190616ac3565b6143a19190616ac3565b6143ab9190616a8f565b9050600087826143bb9190616d55565b90508061010160008c73ffffffffffffffffffffffffffffffffffffffff1673ffffffffffffffffffffffffffffffffffffffff168152602001908152602001600020600082825461440d9190616ac3565b925050819055508061010260008c73ffffffffffffffffffffffffffffffffffffffff1673ffffffffffffffffffffffffffffffffffffffff168152602001908152602001600020600061445f6108c5565b73ffffffffffffffffffffffffffffffffffffffff1673ffffffffffffffffffffffffffffffffffffffff16815260200190815260200160002060008282546144a89190616ac3565b92505081905550600081846144bd9190616ac3565b8a6144c89190616a8f565b9050604051806080016040528082815260200186815260200185815260200183815250975050505050505050949350505050565b61457d8363a9059cbb60e01b848460405160240161451b92919061564c565b604051602081830303815290604052907bffffffffffffffffffffffffffffffffffffffffffffffffffffffff19166020820180517bffffffffffffffffffffffffffffffffffffffffffffffffffffffff83818316178352505050506152c1565b505050565b600073ffffffffffffffffffffffffffffffffffffffff168173ffffffffffffffffffffffffffffffffffffffff16036145bb57600080fd5b8073ffffffffffffffffffffffffffffffffffffffff16609760009054906101000a900473ffffffffffffffffffffffffffffffffffffffff1673ffffffffffffffffffffffffffffffffffffffff167f95bb211a5a393c4d30c3edc9a745825fba4e6ad3e3bb949e6bf8ccdfe431a81160405160405180910390a380609760006101000a81548173ffffffffffffffffffffffffffffffffffffffff021916908373ffffffffffffffffffffffffffffffffffffffff16021790555050565b614683615388565b6000606560006101000a81548160ff0219169083151502179055507f5db9ee0a495bf2e6ff9c91a7834c1ba4fdd244a5e8aa4e537bd38aeae4b073aa6146c76108c5565b6040516146d49190615cce565b60405180910390a1565b614761846323b872dd60e01b8585856040516024016146ff9392919061754b565b604051602081830303815290604052907bffffffffffffffffffffffffffffffffffffffffffffffffffffffff19166020820180517bffffffffffffffffffffffffffffffffffffffffffffffffffffffff83818316178352505050506152c1565b50505050565b61476f6108c5565b73ffffffffffffffffffffffffffffffffffffffff1661478d611fda565b73ffffffffffffffffffffffffffffffffffffffff16146147e3576040517f08c379a00000000000000000000000000000000000000000000000000000000081526004016147da906175ce565b60405180910390fd5b565b6000609860009054906101000a900473ffffffffffffffffffffffffffffffffffffffff16905081609860006101000a81548173ffffffffffffffffffffffffffffffffffffffff021916908373ffffffffffffffffffffffffffffffffffffffff1602179055508173ffffffffffffffffffffffffffffffffffffffff168173ffffffffffffffffffffffffffffffffffffffff167f8be0079c531659141344cd1fd0a4f28419497f9722a3daafe3b4186f6b6457e060405160405180910390a35050565b6148b3614112565b6001606560006101000a81548160ff0219169083151502179055507f62e78cea01bee320cd4e420270b5ea74000d11b0c9f74754ebdbfc544b05a2586148f76108c5565b6040516149049190615cce565b60405180910390a1565b6149166155d0565b600060fe60009054906101000a900473ffffffffffffffffffffffffffffffffffffffff1673ffffffffffffffffffffffffffffffffffffffff1663fa5e2abc866040518263ffffffff1660e01b81526004016149739190615cce565b60c060405180830381865afa158015614990573d6000803e3d6000fd5b505050506040513d601f19601f820116820180604052508101906149b491906173b4565b905060006149c3868684614dbf565b905060008260400151821115614a65576402540be4008360400151876149e99190616d55565b6149f39190616dde565b90506402540be40083604001518303870281614a1257614a11616daf565b5b0461010360008973ffffffffffffffffffffffffffffffffffffffff1673ffffffffffffffffffffffffffffffffffffffff16815260200190815260200160002060008282540192505081905550614a84565b6402540be4008287614a779190616d55565b614a819190616dde565b90505b60006402540be4008388614a989190616d55565b614aa29190616dde565b905060ff60009054906101000a900473ffffffffffffffffffffffffffffffffffffffff1673ffffffffffffffffffffffffffffffffffffffff16639326b08a89846040518363ffffffff1660e01b8152600401614b0192919061564c565b600060405180830381600087803b158015614b1b57600080fd5b505af1158015614b2f573d6000803e3d6000fd5b5050505060005a60fc5486600001518c614b499190616ac3565b614b539190616ac3565b614b5d9190616a8f565b905060006402540be4003a8984614b749190616d55565b614b7e9190616d55565b614b889190616dde565b90508061010160008c73ffffffffffffffffffffffffffffffffffffffff1673ffffffffffffffffffffffffffffffffffffffff1681526020019081526020016000206000828254614bda9190616ac3565b925050819055508061010260008c73ffffffffffffffffffffffffffffffffffffffff1673ffffffffffffffffffffffffffffffffffffffff1681526020019081526020016000206000614c2c6108c5565b73ffffffffffffffffffffffffffffffffffffffff1673ffffffffffffffffffffffffffffffffffffffff1681526020019081526020016000206000828254614c759190616ac3565b9250508190555060008184614c8a9190616ac3565b8a614c959190616a8f565b9050604051806080016040528082815260200186815260200185815260200183815250975050505050505050949350505050565b600073ffffffffffffffffffffffffffffffffffffffff168173ffffffffffffffffffffffffffffffffffffffff1603614d38576040517f08c379a0000000000000000000000000000000000000000000000000000000008152600401614d2f9061763a565b60405180910390fd5b8060ca60006101000a81548173ffffffffffffffffffffffffffffffffffffffff021916908373ffffffffffffffffffffffffffffffffffffffff1602179055508073ffffffffffffffffffffffffffffffffffffffff167f871264f4293af7d2865ae7eae628b228f4991c57cb45b39c99f0b774ebe2901860405160405180910390a250565b600080614dcb85612e8f565b9050600060ff60009054906101000a900473ffffffffffffffffffffffffffffffffffffffff1673ffffffffffffffffffffffffffffffffffffffff1663b3524e30876040518263ffffffff1660e01b8152600401614e2a9190615cce565b602060405180830381865afa158015614e47573d6000803e3d6000fd5b505050506040513d601f19601f82011682018060405250810190614e6b9190616d28565b905060008583614e7b9190616a8f565b905081811115614f2b5760fe60009054906101000a900473ffffffffffffffffffffffffffffffffffffffff1673ffffffffffffffffffffffffffffffffffffffff166357be3468886040518263ffffffff1660e01b8152600401614ee09190615cce565b602060405180830381865afa158015614efd573d6000803e3d6000fd5b505050506040513d601f19601f82011682018060405250810190614f219190616d28565b9350505050614fd7565b6000856060015186604001518485614f439190616d55565b614f4d9190616d55565b614f579190616d55565b90506000828388604001518960600151614f719190616a8f565b614f7b9190616d55565b614f859190616d55565b84858960400151614f969190616d55565b614fa09190616d55565b614faa9190616ac3565b90506000808203614fbe5760009050614fcd565b8183614fca9190616dde565b90505b8096505050505050505b9392505050565b600033905090565b600060019054906101000a900460ff16615035576040517f08c379a000000000000000000000000000000000000000000000000000000000815260040161502c90617453565b60405180910390fd5b565b60008060019054906101000a900460ff161590508080156150685750600160008054906101000a900460ff1660ff16105b80615095575061507730613d06565b1580156150945750600160008054906101000a900460ff1660ff16145b5b6150d4576040517f08c379a00000000000000000000000000000000000000000000000000000000081526004016150cb90615f64565b60405180910390fd5b60016000806101000a81548160ff021916908360ff1602179055508015615111576001600060016101000a81548160ff0219169083151502179055505b8160ca60006101000a81548173ffffffffffffffffffffffffffffffffffffffff021916908373ffffffffffffffffffffffffffffffffffffffff16021790555080156151ab5760008060016101000a81548160ff0219169083151502179055507f7f26b83ff96e1f2b6a682f133852f6798a09c465da95921460cefb384740249860016040516151a29190616110565b60405180910390a15b5050565b600060019054906101000a900460ff166151fe576040517f08c379a00000000000000000000000000000000000000000000000000000000081526004016151f590617453565b60405180910390fd5b60018081905550565b600060019054906101000a900460ff16615256576040517f08c379a000000000000000000000000000000000000000000000000000000000815260040161524d90617453565b60405180910390fd5b6152666152616108c5565b6147e5565b565b600060019054906101000a900460ff166152b7576040517f08c379a00000000000000000000000000000000000000000000000000000000081526004016152ae90617453565b60405180910390fd5b6152bf6153d1565b565b6000615323826040518060400160405280602081526020017f5361666545524332303a206c6f772d6c6576656c2063616c6c206661696c65648152508573ffffffffffffffffffffffffffffffffffffffff1661543d9092919063ffffffff16565b9050600081511115615383578080602001905181019061534391906161c3565b615382576040517f08c379a0000000000000000000000000000000000000000000000000000000008152600401615379906176cc565b60405180910390fd5b5b505050565b615390611a4f565b6153cf576040517f08c379a00000000000000000000000000000000000000000000000000000000081526004016153c690617738565b60405180910390fd5b565b600060019054906101000a900460ff16615420576040517f08c379a000000000000000000000000000000000000000000000000000000000815260040161541790617453565b60405180910390fd5b6000606560006101000a81548160ff021916908315150217905550565b606061544c8484600085615455565b90509392505050565b60608247101561549a576040517f08c379a0000000000000000000000000000000000000000000000000000000008152600401615491906177ca565b60405180910390fd5b6154a385613d06565b6154e2576040517f08c379a00000000000000000000000000000000000000000000000000000000081526004016154d990617836565b60405180910390fd5b6000808673ffffffffffffffffffffffffffffffffffffffff16858760405161550b91906178c5565b60006040518083038185875af1925050503d8060008114615548576040519150601f19603f3d011682016040523d82523d6000602084013e61554d565b606091505b509150915061555d828286615569565b92505050949350505050565b60608315615579578290506155c9565b60008351111561558c5782518084602001fd5b816040517f08c379a00000000000000000000000000000000000000000000000000000000081526004016155c09190617920565b60405180910390fd5b9392505050565b6040518060800160405280600490602082028036833780820191505090505090565b600073ffffffffffffffffffffffffffffffffffffffff82169050919050565b600061561d826155f2565b9050919050565b61562d81615612565b82525050565b6000819050919050565b61564681615633565b82525050565b60006040820190506156616000830185615624565b61566e602083018461563d565b9392505050565b6000604051905090565b600080fd5b600080fd5b61569281615612565b811461569d57600080fd5b50565b6000813590506156af81615689565b92915050565b600080600080600060a086880312156156d1576156d061567f565b5b60006156df888289016156a0565b95505060206156f0888289016156a0565b9450506040615701888289016156a0565b9350506060615712888289016156a0565b9250506080615723888289016156a0565b9150509295509295909350565b61573981615633565b811461574457600080fd5b50565b60008135905061575681615730565b92915050565b6000615767826155f2565b9050919050565b6157778161575c565b811461578257600080fd5b50565b6000813590506157948161576e565b92915050565b600080fd5b600080fd5b600080fd5b60008083601f8401126157bf576157be61579a565b5b8235905067ffffffffffffffff8111156157dc576157db61579f565b5b6020830191508360018202830111156157f8576157f76157a4565b5b9250929050565b600080600080600080600060c0888a03121561581e5761581d61567f565b5b600061582c8a828b016156a0565b975050602061583d8a828b01615747565b965050604061584e8a828b01615785565b955050606088013567ffffffffffffffff81111561586f5761586e615684565b5b61587b8a828b016157a9565b9450945050608061588e8a828b01615747565b92505060a061589f8a828b01615747565b91505092959891949750929550565b6000819050919050565b60006158d36158ce6158c9846155f2565b6158ae565b6155f2565b9050919050565b60006158e5826158b8565b9050919050565b60006158f7826158da565b9050919050565b615907816158ec565b82525050565b600060208201905061592260008301846158fe565b92915050565b60006020828403121561593e5761593d61567f565b5b600061594c848285016156a0565b91505092915050565b60008115159050919050565b61596a81615955565b82525050565b60006020820190506159856000830184615961565b92915050565b60008083601f8401126159a1576159a061579a565b5b8235905067ffffffffffffffff8111156159be576159bd61579f565b5b6020830191508360018202830111156159da576159d96157a4565b5b9250929050565b60008060008060008060a087890312156159fe576159fd61567f565b5b6000615a0c89828a01615747565b9650506020615a1d89828a016156a0565b9550506040615a2e89828a016156a0565b9450506060615a3f89828a01615747565b935050608087013567ffffffffffffffff811115615a6057615a5f615684565b5b615a6c89828a0161598b565b92509250509295509295509295565b6000602082019050615a90600083018461563d565b92915050565b600080fd5b600060c08284031215615ab157615ab0615a96565b5b81905092915050565b6000806000806000806000610160888a031215615ada57615ad961567f565b5b6000615ae88a828b016156a0565b9750506020615af98a828b016156a0565b9650506040615b0a8a828b01615747565b9550506060615b1b8a828b01615747565b9450506080615b2c8a828b01615a9b565b93505061014088013567ffffffffffffffff811115615b4e57615b4d615684565b5b615b5a8a828b0161598b565b925092505092959891949750929550565b60008060408385031215615b8257615b8161567f565b5b6000615b9085828601615747565b9250506020615ba1858286016156a0565b9150509250929050565b6000819050919050565b615bbe81615bab565b8114615bc957600080fd5b50565b600081359050615bdb81615bb5565b92915050565b600060208284031215615bf757615bf661567f565b5b6000615c0584828501615bcc565b91505092915050565b600080600080600060808688031215615c2a57615c2961567f565b5b6000615c38888289016156a0565b9550506020615c4988828901615747565b9450506040615c5a88828901615785565b935050606086013567ffffffffffffffff811115615c7b57615c7a615684565b5b615c87888289016157a9565b92509250509295509295909350565b615c9f81615bab565b82525050565b6000604082019050615cba6000830185615c96565b615cc76020830184615961565b9392505050565b6000602082019050615ce36000830184615624565b92915050565b6000615cf4826158da565b9050919050565b615d0481615ce9565b82525050565b6000602082019050615d1f6000830184615cfb565b92915050565b600080600060608486031215615d3e57615d3d61567f565b5b6000615d4c868287016156a0565b9350506020615d5d868287016156a0565b9250506040615d6e86828701615747565b9150509250925092565b60006fffffffffffffffffffffffffffffffff82169050919050565b615d9d81615d78565b8114615da857600080fd5b50565b600081359050615dba81615d94565b92915050565b600060208284031215615dd657615dd561567f565b5b6000615de484828501615dab565b91505092915050565b60008060008060608587031215615e0757615e0661567f565b5b6000615e15878288016156a0565b9450506020615e2687828801615747565b935050604085013567ffffffffffffffff811115615e4757615e46615684565b5b615e538782880161598b565b925092505092959194509250565b60008060408385031215615e7857615e7761567f565b5b6000615e86858286016156a0565b9250506020615e97858286016156a0565b9150509250929050565b60008060408385031215615eb857615eb761567f565b5b6000615ec6858286016156a0565b9250506020615ed785828601615747565b9150509250929050565b600082825260208201905092915050565b7f496e697469616c697a61626c653a20636f6e747261637420697320616c72656160008201527f647920696e697469616c697a6564000000000000000000000000000000000000602082015250565b6000615f4e602e83615ee1565b9150615f5982615ef2565b604082019050919050565b60006020820190508181036000830152615f7d81615f41565b9050919050565b7f4578656375746f724d616e616765722063616e6e6f7420626520307830000000600082015250565b6000615fba601d83615ee1565b9150615fc582615f84565b602082019050919050565b60006020820190508181036000830152615fe981615fad565b9050919050565b7f54727573746564466f727761726465722063616e6e6f74206265203078300000600082015250565b6000616026601e83615ee1565b915061603182615ff0565b602082019050919050565b6000602082019050818103600083015261605581616019565b9050919050565b7f4c697175696469747950726f7669646572732063616e6e6f7420626520307830600082015250565b6000616092602083615ee1565b915061609d8261605c565b602082019050919050565b600060208201905081810360008301526160c181616085565b9050919050565b6000819050919050565b600060ff82169050919050565b60006160fa6160f56160f0846160c8565b6158ae565b6160d2565b9050919050565b61610a816160df565b82525050565b60006020820190506161256000830184616101565b92915050565b7f5265656e7472616e637947756172643a207265656e7472616e742063616c6c00600082015250565b6000616161601f83615ee1565b915061616c8261612b565b602082019050919050565b6000602082019050818103600083015261619081616154565b9050919050565b6161a081615955565b81146161ab57600080fd5b50565b6000815190506161bd81616197565b92915050565b6000602082840312156161d9576161d861567f565b5b60006161e7848285016161ae565b91505092915050565b7f4f6e6c79206578656375746f7220697320616c6c6f7765640000000000000000600082015250565b6000616226601883615ee1565b9150616231826161f0565b602082019050919050565b6000602082019050818103600083015261625581616219565b9050919050565b600080fd5b6000601f19601f8301169050919050565b7f4e487b7100000000000000000000000000000000000000000000000000000000600052604160045260246000fd5b6162aa82616261565b810181811067ffffffffffffffff821117156162c9576162c8616272565b5b80604052505050565b60006162dc615675565b90506162e882826162a1565b919050565b6000815190506162fc81615730565b92915050565b6000604082840312156163185761631761625c565b5b61632260406162d2565b90506000616332848285016162ed565b6000830152506020616346848285016162ed565b60208301525092915050565b6000604082840312156163685761636761567f565b5b600061637684828501616302565b91505092915050565b7f576974686472617720616d6f756e74206e6f7420696e20436170206c696d6974600082015250565b60006163b5602083615ee1565b91506163c08261637f565b602082019050919050565b600060208201905081810360008301526163e4816163a8565b9050919050565b7f4261642072656365697665722061646472657373000000000000000000000000600082015250565b6000616421601483615ee1565b915061642c826163eb565b602082019050919050565b6000602082019050818103600083015261645081616414565b9050919050565b7f416c72656164792050726f636573736564000000000000000000000000000000600082015250565b600061648d601183615ee1565b915061649882616457565b602082019050919050565b600060208201905081810360008301526164bc81616480565b9050919050565b7f4e487b7100000000000000000000000000000000000000000000000000000000600052603260045260246000fd5b600081905092915050565b50565b600061650d6000836164f2565b9150616518826164fd565b600082019050919050565b600061652e82616500565b9150819050919050565b7f4e6174697665205472616e73666572204661696c656400000000000000000000600082015250565b600061656e601683615ee1565b915061657982616538565b602082019050919050565b6000602082019050818103600083015261659d81616561565b9050919050565b60006165af826158da565b9050919050565b6165bf816165a4565b82525050565b600082825260208201905092915050565b82818337600083830152505050565b60006165f183856165c5565b93506165fe8385846165d6565b61660783616261565b840190509392505050565b600060c082019050616627600083018a6165b6565b818103602083015261663a81888a6165e5565b9050616649604083018761563d565b616656606083018661563d565b616663608083018561563d565b61667060a083018461563d565b98975050505050505050565b7f4f6e6c792070617573657220697320616c6c6f77656420746f20706572666f7260008201527f6d2074686973206f7065726174696f6e00000000000000000000000000000000602082015250565b60006166d8603083615ee1565b91506166e38261667c565b604082019050919050565b60006020820190508181036000830152616707816166cb565b9050919050565b600080600080600060c0868803121561672a5761672961567f565b5b6000616738888289016162ed565b9550506020616749888289016161ae565b945050604061675a888289016162ed565b935050606061676b888289016162ed565b925050608061677c88828901616302565b9150509295509295909350565b7f546f6b656e206e6f7420737570706f7274656400000000000000000000000000600082015250565b60006167bf601383615ee1565b91506167ca82616789565b602082019050919050565b600060208201905081810360008301526167ee816167b2565b9050919050565b7f546f20636861696e206d75737420626520646966666572656e74207468616e2060008201527f63757272656e7420636861696e00000000000000000000000000000000000000602082015250565b6000616851602d83615ee1565b915061685c826167f5565b604082019050919050565b6000602082019050818103600083015261688081616844565b9050919050565b7f77726f6e672066756e6374696f6e000000000000000000000000000000000000600082015250565b60006168bd600e83615ee1565b91506168c882616887565b602082019050919050565b600060208201905081810360008301526168ec816168b0565b9050919050565b6000604082019050616908600083018561563d565b6169156020830184615624565b9392505050565b7f4465706f73697420616d6f756e74206e6f7420696e20436170206c696d697400600082015250565b6000616952601f83615ee1565b915061695d8261691c565b602082019050919050565b6000602082019050818103600083015261698181616945565b9050919050565b7f526563656976657220616464726573732063616e6e6f74206265203000000000600082015250565b60006169be601c83615ee1565b91506169c982616988565b602082019050919050565b600060208201905081810360008301526169ed816169b1565b9050919050565b7f416d6f756e742063616e6e6f7420626520300000000000000000000000000000600082015250565b6000616a2a601283615ee1565b9150616a35826169f4565b602082019050919050565b60006020820190508181036000830152616a5981616a1d565b9050919050565b7f4e487b7100000000000000000000000000000000000000000000000000000000600052601160045260246000fd5b6000616a9a82615633565b9150616aa583615633565b925082821015616ab857616ab7616a60565b5b828203905092915050565b6000616ace82615633565b9150616ad983615633565b9250827fffffffffffffffffffffffffffffffffffffffffffffffffffffffffffffffff03821115616b0e57616b0d616a60565b5b828201905092915050565b6000616b258385615ee1565b9350616b328385846165d6565b616b3b83616261565b840190509392505050565b6000608082019050616b5b600083018861563d565b616b68602083018761563d565b616b75604083018661563d565b8181036060830152616b88818486616b19565b90509695505050505050565b7f4c697175696469747950726f7669646572732063616e27742062652030000000600082015250565b6000616bca601d83615ee1565b9150616bd582616b94565b602082019050919050565b60006020820190508181036000830152616bf981616bbd565b9050919050565b600081359050616c0f81616197565b92915050565b600060208284031215616c2b57616c2a61567f565b5b6000616c3984828501616c00565b91505092915050565b616c4b816160d2565b8114616c5657600080fd5b50565b600081359050616c6881616c42565b92915050565b600060208284031215616c8457616c8361567f565b5b6000616c9284828501616c59565b91505092915050565b616ca4816160d2565b82525050565b600061010082019050616cc0600083018b615624565b616ccd602083018a615624565b616cda604083018961563d565b616ce7606083018861563d565b616cf46080830187615961565b616d0160a0830186616c9b565b616d0e60c0830185615c96565b616d1b60e0830184615c96565b9998505050505050505050565b600060208284031215616d3e57616d3d61567f565b5b6000616d4c848285016162ed565b91505092915050565b6000616d6082615633565b9150616d6b83615633565b9250817fffffffffffffffffffffffffffffffffffffffffffffffffffffffffffffffff0483118215151615616da457616da3616a60565b5b828202905092915050565b7f4e487b7100000000000000000000000000000000000000000000000000000000600052601260045260246000fd5b6000616de982615633565b9150616df483615633565b925082616e0457616e03616daf565b5b828204905092915050565b7f546f6b656e4d616e616765722063616e27742062652030000000000000000000600082015250565b6000616e45601783615ee1565b9150616e5082616e0f565b602082019050919050565b60006020820190508181036000830152616e7481616e38565b9050919050565b6000616e8783856164f2565b9350616e948385846165d6565b82840190509392505050565b6000616ead828486616e7b565b91508190509392505050565b616ec28161575c565b82525050565b6000608082019050616edd6000830187615624565b616eea602083018661563d565b616ef76040830185616eb9565b616f046060830184615c96565b95945050505050565b7f4f6e6c79206c697175696469747950726f76696465727320697320616c6c6f7760008201527f6564000000000000000000000000000000000000000000000000000000000000602082015250565b6000616f69602283615ee1565b9150616f7482616f0d565b604082019050919050565b60006020820190508181036000830152616f9881616f5c565b9050919050565b7f496e76616c696420726563656976657200000000000000000000000000000000600082015250565b6000616fd5601083615ee1565b9150616fe082616f9f565b602082019050919050565b6000602082019050818103600083015261700481616fc8565b9050919050565b7f4552525f5f494e53554646494349454e545f42414c414e434500000000000000600082015250565b6000617041601983615ee1565b915061704c8261700b565b602082019050919050565b6000602082019050818103600083015261707081617034565b9050919050565b7f4552525f5f4e41544956455f5452414e534645525f4641494c45440000000000600082015250565b60006170ad601b83615ee1565b91506170b882617077565b602082019050919050565b600060208201905081810360008301526170dc816170a0565b9050919050565b600060e0820190506170f8600083018a615624565b6171056020830189615624565b617112604083018861563d565b61711f606083018761563d565b61712c6080830186616c9b565b61713960a0830185615c96565b61714660c0830184615c96565b98975050505050505050565b7f43616e2774207769746864726177206e617469766520746f6b656e2066656500600082015250565b6000617188601f83615ee1565b915061719382617152565b602082019050919050565b600060208201905081810360008301526171b78161717b565b9050919050565b7f47617320466565206561726e6564206973203000000000000000000000000000600082015250565b60006171f4601383615ee1565b91506171ff826171be565b602082019050919050565b60006020820190508181036000830152617223816171e7565b9050919050565b7f4578656375746f72204d616e616765722063616e6e6f74206265203000000000600082015250565b6000617260601c83615ee1565b915061726b8261722a565b602082019050919050565b6000602082019050818103600083015261728f81617253565b9050919050565b7f4f776e61626c653a206e6577206f776e657220697320746865207a65726f206160008201527f6464726573730000000000000000000000000000000000000000000000000000602082015250565b60006172f2602683615ee1565b91506172fd82617296565b604082019050919050565b60006020820190508181036000830152617321816172e5565b9050919050565b600060c0828403121561733e5761733d61625c565b5b61734860a06162d2565b90506000617358848285016162ed565b600083015250602061736c848285016161ae565b6020830152506040617380848285016162ed565b6040830152506060617394848285016162ed565b60608301525060806173a884828501616302565b60808301525092915050565b600060c082840312156173ca576173c961567f565b5b60006173d884828501617328565b91505092915050565b7f496e697469616c697a61626c653a20636f6e7472616374206973206e6f74206960008201527f6e697469616c697a696e67000000000000000000000000000000000000000000602082015250565b600061743d602b83615ee1565b9150617448826173e1565b604082019050919050565b6000602082019050818103600083015261746c81617430565b9050919050565b7f50617573657220416464726573732063616e6e6f742062652030000000000000600082015250565b60006174a9601a83615ee1565b91506174b482617473565b602082019050919050565b600060208201905081810360008301526174d88161749c565b9050919050565b7f5061757361626c653a2070617573656400000000000000000000000000000000600082015250565b6000617515601083615ee1565b9150617520826174df565b602082019050919050565b6000602082019050818103600083015261754481617508565b9050919050565b60006060820190506175606000830186615624565b61756d6020830185615624565b61757a604083018461563d565b949350505050565b7f4f776e61626c653a2063616c6c6572206973206e6f7420746865206f776e6572600082015250565b60006175b8602083615ee1565b91506175c382617582565b602082019050919050565b600060208201905081810360008301526175e7816175ab565b9050919050565b7f54727573746564466f727761726465722063616e277420626520300000000000600082015250565b6000617624601b83615ee1565b915061762f826175ee565b602082019050919050565b6000602082019050818103600083015261765381617617565b9050919050565b7f5361666545524332303a204552433230206f7065726174696f6e20646964206e60008201527f6f74207375636365656400000000000000000000000000000000000000000000602082015250565b60006176b6602a83615ee1565b91506176c18261765a565b604082019050919050565b600060208201905081810360008301526176e5816176a9565b9050919050565b7f5061757361626c653a206e6f7420706175736564000000000000000000000000600082015250565b6000617722601483615ee1565b915061772d826176ec565b602082019050919050565b6000602082019050818103600083015261775181617715565b9050919050565b7f416464726573733a20696e73756666696369656e742062616c616e636520666f60008201527f722063616c6c0000000000000000000000000000000000000000000000000000602082015250565b60006177b4602683615ee1565b91506177bf82617758565b604082019050919050565b600060208201905081810360008301526177e3816177a7565b9050919050565b7f416464726573733a2063616c6c20746f206e6f6e2d636f6e7472616374000000600082015250565b6000617820601d83615ee1565b915061782b826177ea565b602082019050919050565b6000602082019050818103600083015261784f81617813565b9050919050565b600081519050919050565b60005b8381101561787f578082015181840152602081019050617864565b8381111561788e576000848401525b50505050565b600061789f82617856565b6178a981856164f2565b93506178b9818560208601617861565b80840191505092915050565b60006178d18284617894565b915081905092915050565b600081519050919050565b60006178f2826178dc565b6178fc8185615ee1565b935061790c818560208601617861565b61791581616261565b840191505092915050565b6000602082019050818103600083015261793a81846178e7565b90509291505056fea2646970667358221220ece0a13840e7fc9d86386b6bd2d41f1c7bce024e3f55e2ee005bb5de74c4f7b864736f6c634300080f0033",
  "immutableReferences": {},
  "source": "// $$\\   $$\\                     $$\\                                 $$$$$$$\\                      $$\\\n// $$ |  $$ |                    $$ |                                $$  __$$\\                     $$ |\n// $$ |  $$ |$$\\   $$\\  $$$$$$\\  $$$$$$$\\   $$$$$$\\  $$$$$$$\\        $$ |  $$ | $$$$$$\\   $$$$$$\\  $$ |\n// $$$$$$$$ |$$ |  $$ |$$  __$$\\ $$  __$$\\ $$  __$$\\ $$  __$$\\       $$$$$$$  |$$  __$$\\ $$  __$$\\ $$ |\n// $$  __$$ |$$ |  $$ |$$ /  $$ |$$ |  $$ |$$$$$$$$ |$$ |  $$ |      $$  ____/ $$ /  $$ |$$ /  $$ |$$ |\n// $$ |  $$ |$$ |  $$ |$$ |  $$ |$$ |  $$ |$$   ____|$$ |  $$ |      $$ |      $$ |  $$ |$$ |  $$ |$$ |\n// $$ |  $$ |\\$$$$$$$ |$$$$$$$  |$$ |  $$ |\\$$$$$$$\\ $$ |  $$ |      $$ |      \\$$$$$$  |\\$$$$$$  |$$ |\n// \\__|  \\__| \\____$$ |$$  ____/ \\__|  \\__| \\_______|\\__|  \\__|      \\__|       \\______/  \\______/ \\__|\n//           $$\\   $$ |$$ |\n//           \\$$$$$$  |$$ |\n//            \\______/ \\__|\n//\n// SPDX-License-Identifier: MIT\n\npragma solidity ^0.8.0;\npragma abicoder v2;\n\nimport \"@openzeppelin/contracts-upgradeable/proxy/utils/Initializable.sol\";\nimport \"@openzeppelin/contracts-upgradeable/access/OwnableUpgradeable.sol\";\nimport \"@openzeppelin/contracts-upgradeable/security/ReentrancyGuardUpgradeable.sol\";\nimport \"@openzeppelin/contracts-upgradeable/token/ERC20/utils/SafeERC20Upgradeable.sol\";\nimport \"@openzeppelin/contracts-upgradeable/token/ERC20/IERC20Upgradeable.sol\";\nimport \"./metatx/ERC2771ContextUpgradeable.sol\";\nimport \"../security/Pausable.sol\";\nimport \"./structures/TokenConfig.sol\";\nimport \"./interfaces/IExecutorManager.sol\";\nimport \"./interfaces/ILiquidityProviders.sol\";\nimport \"../interfaces/IERC20Permit.sol\";\nimport \"./interfaces/ITokenManager.sol\";\n\n\n// Contract level assertions : INVARIANTS\n// Contract invariants are properties that we expect to be maintained by the contract at 'all times'.\n\n///#invariant currentLiquidity < providedLiquidity;\n\n\ncontract LiquidityPool is\n    Initializable,\n    ReentrancyGuardUpgradeable,\n    Pausable,\n    OwnableUpgradeable,\n    ERC2771ContextUpgradeable\n{\n    address private constant NATIVE = 0xEeeeeEeeeEeEeeEeEeEeeEEEeeeeEeeeeeeeEEeE;\n    uint256 private constant BASE_DIVISOR = 10000000000; // Basis Points * 100 for better accuracy\n\n    uint256 public baseGas;\n\n    IExecutorManager private executorManager;\n    ITokenManager public tokenManager;\n    ILiquidityProviders public liquidityProviders;\n\n    struct PermitRequest {\n        uint256 nonce;\n        uint256 expiry;\n        bool allowed;\n        uint8 v;\n        bytes32 r;\n        bytes32 s;\n    }\n\n    mapping(bytes32 => bool) public processedHash;\n    mapping(address => uint256) public gasFeeAccumulatedByToken;\n\n    // Gas fee accumulated by token address => executor address\n    mapping(address => mapping(address => uint256)) public gasFeeAccumulated;\n\n    // Incentive Pool amount per token address\n    mapping(address => uint256) public incentivePool;\n\n    event AssetSent(\n        address indexed asset,\n        uint256 indexed amount,\n        uint256 indexed transferredAmount,\n        address target,\n        bytes depositHash,\n        uint256 fromChainId,\n        uint256 lpFee,\n        uint256 transferFee,\n        uint256 gasFee\n    );\n    event Received(address indexed from, uint256 indexed amount);\n    event Deposit(\n        address indexed from,\n        address indexed tokenAddress,\n        address indexed receiver,\n        uint256 toChainId,\n        uint256 amount,\n        uint256 reward,\n        string tag\n    );\n    event GasFeeWithdraw(address indexed tokenAddress, address indexed owner, uint256 indexed amount);\n    event LiquidityProvidersChanged(address indexed liquidityProvidersAddress);\n    event TokenManagerChanged(address indexed tokenManagerAddress);\n    event BaseGasUpdated(uint256 indexed baseGas);\n    event EthReceived(address, uint256);\n\n    // MODIFIERS\n    modifier onlyExecutor() {\n        require(executorManager.getExecutorStatus(_msgSender()), \"Only executor is allowed\");\n        _;\n    }\n\n    modifier onlyLiquidityProviders() {\n        require(_msgSender() == address(liquidityProviders), \"Only liquidityProviders is allowed\");\n        _;\n    }\n\n    modifier tokenChecks(address tokenAddress) {\n        (, bool supportedToken, , , ) = tokenManager.tokensInfo(tokenAddress);\n        require(supportedToken, \"Token not supported\");\n        _;\n    }\n\n    function initialize(\n        address _executorManagerAddress,\n        address _pauser,\n        address _trustedForwarder,\n        address _tokenManager,\n        address _liquidityProviders\n    ) public initializer {\n        require(_executorManagerAddress != address(0), \"ExecutorManager cannot be 0x0\");\n        require(_trustedForwarder != address(0), \"TrustedForwarder cannot be 0x0\");\n        require(_liquidityProviders != address(0), \"LiquidityProviders cannot be 0x0\");\n        __ERC2771Context_init(_trustedForwarder);\n        __ReentrancyGuard_init();\n        __Ownable_init();\n        __Pausable_init(_pauser);\n        executorManager = IExecutorManager(_executorManagerAddress);\n        tokenManager = ITokenManager(_tokenManager);\n        liquidityProviders = ILiquidityProviders(_liquidityProviders);\n        baseGas = 21000;\n    }\n\n    function setTrustedForwarder(address trustedForwarder) external onlyOwner {\n        _setTrustedForwarder(trustedForwarder);\n    }\n\n    function setLiquidityProviders(address _liquidityProviders) external onlyOwner {\n        require(_liquidityProviders != address(0), \"LiquidityProviders can't be 0\");\n        liquidityProviders = ILiquidityProviders(_liquidityProviders);\n        emit LiquidityProvidersChanged(_liquidityProviders);\n    }\n\n    function setTokenManager(address _tokenManager) external onlyOwner {\n        require(_tokenManager != address(0), \"TokenManager can't be 0\");\n        tokenManager = ITokenManager(_tokenManager);\n        emit TokenManagerChanged(_tokenManager);\n    }\n\n    function setBaseGas(uint128 gas) external onlyOwner {\n        baseGas = gas;\n        emit BaseGasUpdated(baseGas);\n    }\n\n    function getExecutorManager() external view returns (address) {\n        return address(executorManager);\n    }\n\n    function setExecutorManager(address _executorManagerAddress) external onlyOwner {\n        require(_executorManagerAddress != address(0), \"Executor Manager cannot be 0\");\n        executorManager = IExecutorManager(_executorManagerAddress);\n    }\n\n/// #if_succeeds {:msg \"getCurrentLiquidity should be more than 0\"} result > 0;\n    function getCurrentLiquidity(address tokenAddress) public view returns (uint256 currentLiquidity) {\n        uint256 liquidityPoolBalance = liquidityProviders.getCurrentLiquidity(tokenAddress);\n\n        currentLiquidity =\n            liquidityPoolBalance -\n            liquidityProviders.totalLPFees(tokenAddress) -\n            gasFeeAccumulatedByToken[tokenAddress] -\n            incentivePool[tokenAddress];\n    }\n\n    /**\n     * @dev Function used to deposit tokens into pool to initiate a cross chain token transfer.\n     * @param toChainId Chain id where funds needs to be transfered\n     * @param tokenAddress ERC20 Token address that needs to be transfered\n     * @param receiver Address on toChainId where tokens needs to be transfered\n     * @param amount Amount of token being transfered\n     */\n    function depositErc20(\n        uint256 toChainId,\n        address tokenAddress,\n        address receiver,\n        uint256 amount,\n        string calldata tag\n    ) public tokenChecks(tokenAddress) whenNotPaused nonReentrant {\n        require(toChainId != block.chainid, \"To chain must be different than current chain\");\n        require(tokenAddress != NATIVE, \"wrong function\");\n        TokenConfig memory config = tokenManager.getDepositConfig(toChainId, tokenAddress);\n\n        require(config.min <= amount && config.max >= amount, \"Deposit amount not in Cap limit\");\n        require(receiver != address(0), \"Receiver address cannot be 0\");\n        require(amount != 0, \"Amount cannot be 0\");\n        address sender = _msgSender();\n\n        uint256 rewardAmount = getRewardAmount(amount, tokenAddress);\n        if (rewardAmount != 0) {\n            incentivePool[tokenAddress] = incentivePool[tokenAddress] - rewardAmount;\n        }\n        liquidityProviders.increaseCurrentLiquidity(tokenAddress, amount);\n        SafeERC20Upgradeable.safeTransferFrom(IERC20Upgradeable(tokenAddress), sender, address(this), amount);\n        // Emit (amount + reward amount) in event\n        emit Deposit(sender, tokenAddress, receiver, toChainId, amount + rewardAmount, rewardAmount, tag);\n    }\n\n\n    function getRewardAmount(uint256 amount, address tokenAddress) public view returns (uint256 rewardAmount) {\n        uint256 currentLiquidity = getCurrentLiquidity(tokenAddress);\n        uint256 providedLiquidity = liquidityProviders.getSuppliedLiquidityByToken(tokenAddress);\n        if (currentLiquidity < providedLiquidity) {\n            uint256 liquidityDifference = providedLiquidity - currentLiquidity;\n            if (amount >= liquidityDifference) {\n                rewardAmount = incentivePool[tokenAddress];\n            } else {\n                // Multiply by 10000000000 to avoid 0 reward amount for small amount and liquidity difference\n                rewardAmount = (amount * incentivePool[tokenAddress] * 10000000000) / liquidityDifference;\n                rewardAmount = rewardAmount / 10000000000;\n            }\n        }\n    }\n\n    /**\n     * DAI permit and Deposit.\n     */\n    function permitAndDepositErc20(\n        address tokenAddress,\n        address receiver,\n        uint256 amount,\n        uint256 toChainId,\n        PermitRequest calldata permitOptions,\n        string calldata tag\n    ) external {\n        IERC20Permit(tokenAddress).permit(\n            _msgSender(),\n            address(this),\n            permitOptions.nonce,\n            permitOptions.expiry,\n            permitOptions.allowed,\n            permitOptions.v,\n            permitOptions.r,\n            permitOptions.s\n        );\n        depositErc20(toChainId, tokenAddress, receiver, amount, tag);\n    }\n\n    /**\n     * EIP2612 and Deposit.\n     */\n    function permitEIP2612AndDepositErc20(\n        address tokenAddress,\n        address receiver,\n        uint256 amount,\n        uint256 toChainId,\n        PermitRequest calldata permitOptions,\n        string calldata tag\n    ) external {\n        IERC20Permit(tokenAddress).permit(\n            _msgSender(),\n            address(this),\n            amount,\n            permitOptions.expiry,\n            permitOptions.v,\n            permitOptions.r,\n            permitOptions.s\n        );\n        depositErc20(toChainId, tokenAddress, receiver, amount, tag);\n    }\n\n    /**\n     * @dev Function used to deposit native token into pool to initiate a cross chain token transfer.\n     * @param receiver Address on toChainId where tokens needs to be transfered\n     * @param toChainId Chain id where funds needs to be transfered\n     */\n    function depositNative(\n        address receiver,\n        uint256 toChainId,\n        string calldata tag\n    ) external payable whenNotPaused nonReentrant {\n        require(toChainId != block.chainid, \"To chain must be different than current chain\");\n        require(\n            tokenManager.getDepositConfig(toChainId, NATIVE).min <= msg.value &&\n                tokenManager.getDepositConfig(toChainId, NATIVE).max >= msg.value,\n            \"Deposit amount not in Cap limit\"\n        );\n        require(receiver != address(0), \"Receiver address cannot be 0\");\n        require(msg.value != 0, \"Amount cannot be 0\");\n\n        uint256 rewardAmount = getRewardAmount(msg.value, NATIVE);\n        if (rewardAmount != 0) {\n            incentivePool[NATIVE] = incentivePool[NATIVE] - rewardAmount;\n        }\n        liquidityProviders.increaseCurrentLiquidity(NATIVE, msg.value);\n        emit Deposit(_msgSender(), NATIVE, receiver, toChainId, msg.value + rewardAmount, rewardAmount, tag);\n    }\n\n    function sendFundsToUser(\n        address tokenAddress,\n        uint256 amount,\n        address payable receiver,\n        bytes calldata depositHash,\n        uint256 tokenGasPrice,\n        uint256 fromChainId\n    ) external nonReentrant onlyExecutor whenNotPaused {\n        uint256 initialGas = gasleft();\n        TokenConfig memory config = tokenManager.getTransferConfig(tokenAddress);\n        require(config.min <= amount && config.max >= amount, \"Withdraw amount not in Cap limit\");\n        require(receiver != address(0), \"Bad receiver address\");\n\n        (bytes32 hashSendTransaction, bool status) = checkHashStatus(tokenAddress, amount, receiver, depositHash);\n\n        require(!status, \"Already Processed\");\n        processedHash[hashSendTransaction] = true;\n\n        // uint256 amountToTransfer, uint256 lpFee, uint256 transferFeeAmount, uint256 gasFee\n        uint256[4] memory transferDetails = getAmountToTransfer(initialGas, tokenAddress, amount, tokenGasPrice);\n\n        liquidityProviders.decreaseCurrentLiquidity(tokenAddress, transferDetails[0]);\n\n        if (tokenAddress == NATIVE) {\n            (bool success, ) = receiver.call{value: transferDetails[0]}(\"\");\n            require(success, \"Native Transfer Failed\");\n        } else {\n            SafeERC20Upgradeable.safeTransfer(IERC20Upgradeable(tokenAddress), receiver, transferDetails[0]);\n        }\n\n        emit AssetSent(\n            tokenAddress,\n            amount,\n            transferDetails[0],\n            receiver,\n            depositHash,\n            fromChainId,\n            transferDetails[1],\n            transferDetails[2],\n            transferDetails[3]\n        );\n    }\n\n    /**\n     * @dev Internal function to calculate amount of token that needs to be transfered afetr deducting all required fees.\n     * Fee to be deducted includes gas fee, lp fee and incentive pool amount if needed.\n     * @param initialGas Gas provided initially before any calculations began\n     * @param tokenAddress Token address for which calculation needs to be done\n     * @param amount Amount of token to be transfered before deducting the fee\n     * @param tokenGasPrice Gas price in the token being transfered to be used to calculate gas fee\n     * @return [ amountToTransfer, lpFee, transferFeeAmount, gasFee ]\n     */\n    function getAmountToTransfer(\n        uint256 initialGas,\n        address tokenAddress,\n        uint256 amount,\n        uint256 tokenGasPrice\n    ) internal returns (uint256[4] memory) {\n        TokenInfo memory tokenInfo = tokenManager.getTokensInfo(tokenAddress);\n        uint256 transferFeePerc = _getTransferFee(tokenAddress, amount, tokenInfo);\n        uint256 lpFee;\n        if (transferFeePerc > tokenInfo.equilibriumFee) {\n            // Here add some fee to incentive pool also\n            lpFee = (amount * tokenInfo.equilibriumFee) / BASE_DIVISOR;\n            unchecked {\n                incentivePool[tokenAddress] += (amount * (transferFeePerc - tokenInfo.equilibriumFee)) / BASE_DIVISOR;\n            }\n        } else {\n            lpFee = (amount * transferFeePerc) / BASE_DIVISOR;\n        }\n        uint256 transferFeeAmount = (amount * transferFeePerc) / BASE_DIVISOR;\n\n        liquidityProviders.addLPFee(tokenAddress, lpFee);\n\n        uint256 totalGasUsed = initialGas + tokenInfo.transferOverhead + baseGas - gasleft();\n\n        uint256 gasFee = totalGasUsed * tokenGasPrice;\n        gasFeeAccumulatedByToken[tokenAddress] += gasFee;\n        gasFeeAccumulated[tokenAddress][_msgSender()] += gasFee;\n        uint256 amountToTransfer = amount - (transferFeeAmount + gasFee);\n        return [amountToTransfer, lpFee, transferFeeAmount, gasFee];\n    }\n\n    function sendFundsToUserV2(\n        address tokenAddress,\n        uint256 amount,\n        address payable receiver,\n        bytes calldata depositHash,\n        uint256 nativeTokenPriceInTransferredToken,\n        uint256 fromChainId\n    ) external nonReentrant onlyExecutor whenNotPaused {\n        uint256 initialGas = gasleft();\n        TokenConfig memory config = tokenManager.getTransferConfig(tokenAddress);\n        require(config.min <= amount && config.max >= amount, \"Withdraw amount not in Cap limit\");\n        require(receiver != address(0), \"Bad receiver address\");\n\n        (bytes32 hashSendTransaction, bool status) = checkHashStatus(tokenAddress, amount, receiver, depositHash);\n\n        require(!status, \"Already Processed\");\n        processedHash[hashSendTransaction] = true;\n\n        // uint256 amountToTransfer, uint256 lpFee, uint256 transferFeeAmount, uint256 gasFee\n        uint256[4] memory transferDetails = getAmountToTransferV2(\n            initialGas,\n            tokenAddress,\n            amount,\n            nativeTokenPriceInTransferredToken\n        );\n\n        liquidityProviders.decreaseCurrentLiquidity(tokenAddress, transferDetails[0]);\n\n        if (tokenAddress == NATIVE) {\n            (bool success, ) = receiver.call{value: transferDetails[0]}(\"\");\n            require(success, \"Native Transfer Failed\");\n        } else {\n            SafeERC20Upgradeable.safeTransfer(IERC20Upgradeable(tokenAddress), receiver, transferDetails[0]);\n        }\n\n        emit AssetSent(\n            tokenAddress,\n            amount,\n            transferDetails[0],\n            receiver,\n            depositHash,\n            fromChainId,\n            transferDetails[1],\n            transferDetails[2],\n            transferDetails[3]\n        );\n    }\n\n    /**\n     * @dev Internal function to calculate amount of token that needs to be transfered afetr deducting all required fees.\n     * Fee to be deducted includes gas fee, lp fee and incentive pool amount if needed.\n     * @param initialGas Gas provided initially before any calculations began\n     * @param tokenAddress Token address for which calculation needs to be done\n     * @param amount Amount of token to be transfered before deducting the fee\n     * @param nativeTokenPriceInTransferredToken Price of native token in terms of the token being transferred (multiplied base div), used to calculate gas fee\n     * @return [ amountToTransfer, lpFee, transferFeeAmount, gasFee ]\n     */\n    function getAmountToTransferV2(\n        uint256 initialGas,\n        address tokenAddress,\n        uint256 amount,\n        uint256 nativeTokenPriceInTransferredToken\n    ) internal returns (uint256[4] memory) {\n        TokenInfo memory tokenInfo = tokenManager.getTokensInfo(tokenAddress);\n        uint256 transferFeePerc = _getTransferFee(tokenAddress, amount, tokenInfo);\n        uint256 lpFee;\n        if (transferFeePerc > tokenInfo.equilibriumFee) {\n            // Here add some fee to incentive pool also\n            lpFee = (amount * tokenInfo.equilibriumFee) / BASE_DIVISOR;\n            unchecked {\n                incentivePool[tokenAddress] += (amount * (transferFeePerc - tokenInfo.equilibriumFee)) / BASE_DIVISOR;\n            }\n        } else {\n            lpFee = (amount * transferFeePerc) / BASE_DIVISOR;\n        }\n        uint256 transferFeeAmount = (amount * transferFeePerc) / BASE_DIVISOR;\n\n        liquidityProviders.addLPFee(tokenAddress, lpFee);\n\n        uint256 totalGasUsed = initialGas + tokenInfo.transferOverhead + baseGas - gasleft();\n        uint256 gasFee = (totalGasUsed * nativeTokenPriceInTransferredToken * tx.gasprice) / BASE_DIVISOR;\n\n        gasFeeAccumulatedByToken[tokenAddress] += gasFee;\n        gasFeeAccumulated[tokenAddress][_msgSender()] += gasFee;\n        uint256 amountToTransfer = amount - (transferFeeAmount + gasFee);\n        return [amountToTransfer, lpFee, transferFeeAmount, gasFee];\n    }\n\n    function _getTransferFee(\n        address tokenAddress,\n        uint256 amount,\n        TokenInfo memory tokenInfo\n    ) private view returns (uint256) {\n        uint256 currentLiquidity = getCurrentLiquidity(tokenAddress);\n        uint256 providedLiquidity = liquidityProviders.getSuppliedLiquidityByToken(tokenAddress);\n\n        uint256 resultingLiquidity = currentLiquidity - amount;\n\n        // We return a constant value in excess state\n        if (resultingLiquidity > providedLiquidity) {\n            return tokenManager.excessStateTransferFeePerc(tokenAddress);\n        }\n\n        // Fee is represented in basis points * 10 for better accuracy\n        uint256 numerator = providedLiquidity * providedLiquidity * tokenInfo.equilibriumFee * tokenInfo.maxFee; // F(max) * F(e) * L(e) ^ 2\n        uint256 denominator = tokenInfo.equilibriumFee *\n            providedLiquidity *\n            providedLiquidity +\n            (tokenInfo.maxFee - tokenInfo.equilibriumFee) *\n            resultingLiquidity *\n            resultingLiquidity; // F(e) * L(e) ^ 2 + (F(max) - F(e)) * L(r) ^ 2\n\n        uint256 fee;\n        if (denominator == 0) {\n            fee = 0;\n        } else {\n            fee = numerator / denominator;\n        }\n        return fee;\n    }\n\n    function getTransferFee(address tokenAddress, uint256 amount) external view returns (uint256) {\n        return _getTransferFee(tokenAddress, amount, tokenManager.getTokensInfo(tokenAddress));\n    }\n\n    function checkHashStatus(\n        address tokenAddress,\n        uint256 amount,\n        address payable receiver,\n        bytes calldata depositHash\n    ) public view returns (bytes32 hashSendTransaction, bool status) {\n        hashSendTransaction = keccak256(abi.encode(tokenAddress, amount, receiver, keccak256(depositHash)));\n\n        status = processedHash[hashSendTransaction];\n    }\n\n    function withdrawErc20GasFee(address tokenAddress) external onlyExecutor whenNotPaused nonReentrant {\n        require(tokenAddress != NATIVE, \"Can't withdraw native token fee\");\n        // uint256 gasFeeAccumulated = gasFeeAccumulatedByToken[tokenAddress];\n        uint256 _gasFeeAccumulated = gasFeeAccumulated[tokenAddress][_msgSender()];\n        require(_gasFeeAccumulated != 0, \"Gas Fee earned is 0\");\n        gasFeeAccumulatedByToken[tokenAddress] = gasFeeAccumulatedByToken[tokenAddress] - _gasFeeAccumulated;\n        gasFeeAccumulated[tokenAddress][_msgSender()] = 0;\n        SafeERC20Upgradeable.safeTransfer(IERC20Upgradeable(tokenAddress), _msgSender(), _gasFeeAccumulated);\n        emit GasFeeWithdraw(tokenAddress, _msgSender(), _gasFeeAccumulated);\n    }\n\n    function withdrawNativeGasFee() external onlyExecutor whenNotPaused nonReentrant {\n        uint256 _gasFeeAccumulated = gasFeeAccumulated[NATIVE][_msgSender()];\n        require(_gasFeeAccumulated != 0, \"Gas Fee earned is 0\");\n        gasFeeAccumulatedByToken[NATIVE] = gasFeeAccumulatedByToken[NATIVE] - _gasFeeAccumulated;\n        gasFeeAccumulated[NATIVE][_msgSender()] = 0;\n        (bool success, ) = payable(_msgSender()).call{value: _gasFeeAccumulated}(\"\");\n        require(success, \"Native Transfer Failed\");\n\n        emit GasFeeWithdraw(address(this), _msgSender(), _gasFeeAccumulated);\n    }\n\n    function transfer(\n        address _tokenAddress,\n        address receiver,\n        uint256 _tokenAmount\n    ) external whenNotPaused onlyLiquidityProviders nonReentrant {\n        require(receiver != address(0), \"Invalid receiver\");\n        if (_tokenAddress == NATIVE) {\n            require(address(this).balance >= _tokenAmount, \"ERR__INSUFFICIENT_BALANCE\");\n            (bool success, ) = receiver.call{value: _tokenAmount}(\"\");\n            require(success, \"ERR__NATIVE_TRANSFER_FAILED\");\n        } else {\n            IERC20Upgradeable baseToken = IERC20Upgradeable(_tokenAddress);\n            require(baseToken.balanceOf(address(this)) >= _tokenAmount, \"ERR__INSUFFICIENT_BALANCE\");\n            SafeERC20Upgradeable.safeTransfer(baseToken, receiver, _tokenAmount);\n        }\n    }\n\n    function _msgSender()\n        internal\n        view\n        virtual\n        override(ContextUpgradeable, ERC2771ContextUpgradeable)\n        returns (address sender)\n    {\n        return ERC2771ContextUpgradeable._msgSender();\n    }\n\n    function _msgData()\n        internal\n        view\n        virtual\n        override(ContextUpgradeable, ERC2771ContextUpgradeable)\n        returns (bytes calldata)\n    {\n        return ERC2771ContextUpgradeable._msgData();\n    }\n\n    receive() external payable {\n        emit EthReceived(_msgSender(), msg.value);\n    }\n}\n",
  "sourcePath": "/Users/nikhitakale/QA-Hyphen-V2/scribble-fuzzing/contracts/hyphen/LiquidityPool.sol",
  "compiler": {
    "name": "solc",
    "version": "0.8.15+commit.e14f2714.Emscripten.clang"
  },
  "schemaVersion": "3.4.7",
  "updatedAt": "2022-07-03T18:30:45.629Z",
  "devdoc": {
    "kind": "dev",
    "methods": {
      "changePauser(address)": {
        "details": "Allows the current pauser to transfer control of the contract to a newPauser.",
        "params": {
          "newPauser": "The address to transfer pauserShip to."
        }
      },
      "depositErc20(uint256,address,address,uint256,string)": {
        "details": "Function used to deposit tokens into pool to initiate a cross chain token transfer.",
        "params": {
          "amount": "Amount of token being transfered",
          "receiver": "Address on toChainId where tokens needs to be transfered",
          "toChainId": "Chain id where funds needs to be transfered",
          "tokenAddress": "ERC20 Token address that needs to be transfered"
        }
      },
      "depositNative(address,uint256,string)": {
        "details": "Function used to deposit native token into pool to initiate a cross chain token transfer.",
        "params": {
          "receiver": "Address on toChainId where tokens needs to be transfered",
          "toChainId": "Chain id where funds needs to be transfered"
        }
      },
      "isPauser(address)": {
        "returns": {
          "_0": "true if `msg.sender` is the owner of the contract."
        }
      },
      "owner()": {
        "details": "Returns the address of the current owner."
      },
      "paused()": {
        "details": "Returns true if the contract is paused, and false otherwise."
      },
      "renounceOwnership()": {
        "details": "Leaves the contract without owner. It will not be possible to call `onlyOwner` functions anymore. Can only be called by the current owner. NOTE: Renouncing ownership will leave the contract without an owner, thereby removing any functionality that is only available to the owner."
      },
      "transferOwnership(address)": {
        "details": "Transfers ownership of the contract to a new account (`newOwner`). Can only be called by the current owner."
      }
    },
    "version": 1
  },
  "userdoc": {
    "kind": "user",
    "methods": {
      "getCurrentLiquidity(address)": {
        "notice": "#if_succeeds {:msg \"getCurrentLiquidity should be more than 0\"} result > 0;"
      },
      "permitAndDepositErc20(address,address,uint256,uint256,(uint256,uint256,bool,uint8,bytes32,bytes32),string)": {
        "notice": "DAI permit and Deposit."
      },
      "permitEIP2612AndDepositErc20(address,address,uint256,uint256,(uint256,uint256,bool,uint8,bytes32,bytes32),string)": {
        "notice": "EIP2612 and Deposit."
      }
    },
    "notice": "#invariant currentLiquidity < providedLiquidity;",
    "version": 1
  },
  "db": {
    "callBytecode": {
      "id": "0xa950b09d9e4c89f0c468e9263bbd5a0507f0e7b24d79ff12c45fc5240b796dee"
    },
    "createBytecode": {
      "id": "0xdf69fa40004e2c5816ae488f4617d33b1d14b3db4921aa9924edc82d710d117d"
    },
    "contract": {
      "id": "0x4bc915b333295a099cfd58f4e1604bbbed35801e6e0fe7f622215821203a76cc"
    }
  }
}