{
  "contractName": "LiquidityProviders",
  "abi": [
    {
      "anonymous": false,
      "inputs": [
        {
          "indexed": true,
          "internalType": "address",
          "name": "token",
          "type": "address"
        },
        {
          "indexed": true,
          "internalType": "uint256",
          "name": "newValue",
          "type": "uint256"
        }
      ],
      "name": "CurrentLiquidityChanged",
      "type": "event"
    },
    {
      "anonymous": false,
      "inputs": [
        {
          "indexed": true,
          "internalType": "address",
          "name": "sender",
          "type": "address"
        },
        {
          "indexed": false,
          "internalType": "uint256",
          "name": "value",
          "type": "uint256"
        }
      ],
      "name": "EthReceived",
      "type": "event"
    },
    {
      "anonymous": false,
      "inputs": [
        {
          "indexed": true,
          "internalType": "address",
          "name": "tokenAddress",
          "type": "address"
        },
        {
          "indexed": true,
          "internalType": "uint256",
          "name": "fee",
          "type": "uint256"
        }
      ],
      "name": "FeeAdded",
      "type": "event"
    },
    {
      "anonymous": false,
      "inputs": [
        {
          "indexed": true,
          "internalType": "address",
          "name": "tokenAddress",
          "type": "address"
        },
        {
          "indexed": true,
          "internalType": "uint256",
          "name": "fee",
          "type": "uint256"
        },
        {
          "indexed": true,
          "internalType": "address",
          "name": "lp",
          "type": "address"
        },
        {
          "indexed": false,
          "internalType": "uint256",
          "name": "sharesBurnt",
          "type": "uint256"
        }
      ],
      "name": "FeeClaimed",
      "type": "event"
    },
    {
      "anonymous": false,
      "inputs": [
        {
          "indexed": false,
          "internalType": "uint8",
          "name": "version",
          "type": "uint8"
        }
      ],
      "name": "Initialized",
      "type": "event"
    },
    {
      "anonymous": false,
      "inputs": [
        {
          "indexed": true,
          "internalType": "address",
          "name": "tokenAddress",
          "type": "address"
        },
        {
          "indexed": true,
          "internalType": "uint256",
          "name": "amount",
          "type": "uint256"
        },
        {
          "indexed": true,
          "internalType": "address",
          "name": "lp",
          "type": "address"
        }
      ],
      "name": "LiquidityAdded",
      "type": "event"
    },
    {
      "anonymous": false,
      "inputs": [
        {
          "indexed": true,
          "internalType": "address",
          "name": "tokenAddress",
          "type": "address"
        },
        {
          "indexed": true,
          "internalType": "uint256",
          "name": "amount",
          "type": "uint256"
        },
        {
          "indexed": true,
          "internalType": "address",
          "name": "lp",
          "type": "address"
        }
      ],
      "name": "LiquidityRemoved",
      "type": "event"
    },
    {
      "anonymous": false,
      "inputs": [
        {
          "indexed": true,
          "internalType": "address",
          "name": "previousOwner",
          "type": "address"
        },
        {
          "indexed": true,
          "internalType": "address",
          "name": "newOwner",
          "type": "address"
        }
      ],
      "name": "OwnershipTransferred",
      "type": "event"
    },
    {
      "anonymous": false,
      "inputs": [
        {
          "indexed": false,
          "internalType": "address",
          "name": "account",
          "type": "address"
        }
      ],
      "name": "Paused",
      "type": "event"
    },
    {
      "anonymous": false,
      "inputs": [
        {
          "indexed": true,
          "internalType": "address",
          "name": "previousPauser",
          "type": "address"
        },
        {
          "indexed": true,
          "internalType": "address",
          "name": "newPauser",
          "type": "address"
        }
      ],
      "name": "PauserChanged",
      "type": "event"
    },
    {
      "anonymous": false,
      "inputs": [
        {
          "indexed": true,
          "internalType": "address",
          "name": "_tf",
          "type": "address"
        }
      ],
      "name": "TrustedForwarderChanged",
      "type": "event"
    },
    {
      "anonymous": false,
      "inputs": [
        {
          "indexed": false,
          "internalType": "address",
          "name": "account",
          "type": "address"
        }
      ],
      "name": "Unpaused",
      "type": "event"
    },
    {
      "inputs": [],
      "name": "BASE_DIVISOR",
      "outputs": [
        {
          "internalType": "uint256",
          "name": "",
          "type": "uint256"
        }
      ],
      "stateMutability": "view",
      "type": "function"
    },
    {
      "inputs": [
        {
          "internalType": "address",
          "name": "newPauser",
          "type": "address"
        }
      ],
      "name": "changePauser",
      "outputs": [],
      "stateMutability": "nonpayable",
      "type": "function"
    },
    {
      "inputs": [
        {
          "internalType": "address",
          "name": "",
          "type": "address"
        }
      ],
      "name": "currentLiquidity",
      "outputs": [
        {
          "internalType": "uint256",
          "name": "",
          "type": "uint256"
        }
      ],
      "stateMutability": "view",
      "type": "function"
    },
    {
      "inputs": [
        {
          "internalType": "address",
          "name": "pauser",
          "type": "address"
        }
      ],
      "name": "isPauser",
      "outputs": [
        {
          "internalType": "bool",
          "name": "",
          "type": "bool"
        }
      ],
      "stateMutability": "view",
      "type": "function"
    },
    {
      "inputs": [
        {
          "internalType": "address",
          "name": "forwarder",
          "type": "address"
        }
      ],
      "name": "isTrustedForwarder",
      "outputs": [
        {
          "internalType": "bool",
          "name": "",
          "type": "bool"
        }
      ],
      "stateMutability": "view",
      "type": "function"
    },
    {
      "inputs": [],
      "name": "owner",
      "outputs": [
        {
          "internalType": "address",
          "name": "",
          "type": "address"
        }
      ],
      "stateMutability": "view",
      "type": "function"
    },
    {
      "inputs": [],
      "name": "pause",
      "outputs": [],
      "stateMutability": "nonpayable",
      "type": "function"
    },
    {
      "inputs": [],
      "name": "paused",
      "outputs": [
        {
          "internalType": "bool",
          "name": "",
          "type": "bool"
        }
      ],
      "stateMutability": "view",
      "type": "function"
    },
    {
      "inputs": [],
      "name": "renounceOwnership",
      "outputs": [],
      "stateMutability": "nonpayable",
      "type": "function"
    },
    {
      "inputs": [],
      "name": "renouncePauser",
      "outputs": [],
      "stateMutability": "nonpayable",
      "type": "function"
    },
    {
      "inputs": [
        {
          "internalType": "address",
          "name": "",
          "type": "address"
        }
      ],
      "name": "totalLPFees",
      "outputs": [
        {
          "internalType": "uint256",
          "name": "",
          "type": "uint256"
        }
      ],
      "stateMutability": "view",
      "type": "function"
    },
    {
      "inputs": [
        {
          "internalType": "address",
          "name": "",
          "type": "address"
        }
      ],
      "name": "totalLiquidity",
      "outputs": [
        {
          "internalType": "uint256",
          "name": "",
          "type": "uint256"
        }
      ],
      "stateMutability": "view",
      "type": "function"
    },
    {
      "inputs": [
        {
          "internalType": "address",
          "name": "",
          "type": "address"
        }
      ],
      "name": "totalReserve",
      "outputs": [
        {
          "internalType": "uint256",
          "name": "",
          "type": "uint256"
        }
      ],
      "stateMutability": "view",
      "type": "function"
    },
    {
      "inputs": [
        {
          "internalType": "address",
          "name": "",
          "type": "address"
        }
      ],
      "name": "totalSharesMinted",
      "outputs": [
        {
          "internalType": "uint256",
          "name": "",
          "type": "uint256"
        }
      ],
      "stateMutability": "view",
      "type": "function"
    },
    {
      "inputs": [
        {
          "internalType": "address",
          "name": "newOwner",
          "type": "address"
        }
      ],
      "name": "transferOwnership",
      "outputs": [],
      "stateMutability": "nonpayable",
      "type": "function"
    },
    {
      "inputs": [],
      "name": "unpause",
      "outputs": [],
      "stateMutability": "nonpayable",
      "type": "function"
    },
    {
      "stateMutability": "payable",
      "type": "receive"
    },
    {
      "inputs": [
        {
          "internalType": "address",
          "name": "_trustedForwarder",
          "type": "address"
        },
        {
          "internalType": "address",
          "name": "_lpToken",
          "type": "address"
        },
        {
          "internalType": "address",
          "name": "_tokenManager",
          "type": "address"
        },
        {
          "internalType": "address",
          "name": "_pauser",
          "type": "address"
        }
      ],
      "name": "initialize",
      "outputs": [],
      "stateMutability": "nonpayable",
      "type": "function"
    },
    {
      "inputs": [
        {
          "internalType": "address",
          "name": "tokenAddress",
          "type": "address"
        }
      ],
      "name": "getTotalReserveByToken",
      "outputs": [
        {
          "internalType": "uint256",
          "name": "",
          "type": "uint256"
        }
      ],
      "stateMutability": "view",
      "type": "function"
    },
    {
      "inputs": [
        {
          "internalType": "address",
          "name": "tokenAddress",
          "type": "address"
        }
      ],
      "name": "getSuppliedLiquidityByToken",
      "outputs": [
        {
          "internalType": "uint256",
          "name": "",
          "type": "uint256"
        }
      ],
      "stateMutability": "view",
      "type": "function"
    },
    {
      "inputs": [
        {
          "internalType": "address",
          "name": "tokenAddress",
          "type": "address"
        }
      ],
      "name": "getTotalLPFeeByToken",
      "outputs": [
        {
          "internalType": "uint256",
          "name": "",
          "type": "uint256"
        }
      ],
      "stateMutability": "view",
      "type": "function"
    },
    {
      "inputs": [
        {
          "internalType": "address",
          "name": "tokenAddress",
          "type": "address"
        }
      ],
      "name": "getCurrentLiquidity",
      "outputs": [
        {
          "internalType": "uint256",
          "name": "",
          "type": "uint256"
        }
      ],
      "stateMutability": "view",
      "type": "function"
    },
    {
      "inputs": [
        {
          "internalType": "address",
          "name": "_lpToken",
          "type": "address"
        }
      ],
      "name": "setLpToken",
      "outputs": [],
      "stateMutability": "nonpayable",
      "type": "function"
    },
    {
      "inputs": [
        {
          "internalType": "address",
          "name": "tokenAddress",
          "type": "address"
        },
        {
          "internalType": "uint256",
          "name": "amount",
          "type": "uint256"
        }
      ],
      "name": "increaseCurrentLiquidity",
      "outputs": [],
      "stateMutability": "nonpayable",
      "type": "function"
    },
    {
      "inputs": [
        {
          "internalType": "address",
          "name": "tokenAddress",
          "type": "address"
        },
        {
          "internalType": "uint256",
          "name": "amount",
          "type": "uint256"
        }
      ],
      "name": "decreaseCurrentLiquidity",
      "outputs": [],
      "stateMutability": "nonpayable",
      "type": "function"
    },
    {
      "inputs": [
        {
          "internalType": "address",
          "name": "_tokenManager",
          "type": "address"
        }
      ],
      "name": "setTokenManager",
      "outputs": [],
      "stateMutability": "nonpayable",
      "type": "function"
    },
    {
      "inputs": [
        {
          "internalType": "address",
          "name": "_tf",
          "type": "address"
        }
      ],
      "name": "setTrustedForwarder",
      "outputs": [],
      "stateMutability": "nonpayable",
      "type": "function"
    },
    {
      "inputs": [
        {
          "internalType": "address",
          "name": "_whiteListPeriodManager",
          "type": "address"
        }
      ],
      "name": "setWhiteListPeriodManager",
      "outputs": [],
      "stateMutability": "nonpayable",
      "type": "function"
    },
    {
      "inputs": [
        {
          "internalType": "address",
          "name": "_liquidityPool",
          "type": "address"
        }
      ],
      "name": "setLiquidityPool",
      "outputs": [],
      "stateMutability": "nonpayable",
      "type": "function"
    },
    {
      "inputs": [
        {
          "internalType": "address",
          "name": "_baseToken",
          "type": "address"
        }
      ],
      "name": "getTokenPriceInLPShares",
      "outputs": [
        {
          "internalType": "uint256",
          "name": "",
          "type": "uint256"
        }
      ],
      "stateMutability": "view",
      "type": "function"
    },
    {
      "inputs": [
        {
          "internalType": "uint256",
          "name": "_shares",
          "type": "uint256"
        },
        {
          "internalType": "address",
          "name": "_tokenAddress",
          "type": "address"
        }
      ],
      "name": "sharesToTokenAmount",
      "outputs": [
        {
          "internalType": "uint256",
          "name": "",
          "type": "uint256"
        }
      ],
      "stateMutability": "view",
      "type": "function"
    },
    {
      "inputs": [
        {
          "internalType": "uint256",
          "name": "_nftId",
          "type": "uint256"
        }
      ],
      "name": "getFeeAccumulatedOnNft",
      "outputs": [
        {
          "internalType": "uint256",
          "name": "",
          "type": "uint256"
        }
      ],
      "stateMutability": "view",
      "type": "function"
    },
    {
      "inputs": [
        {
          "internalType": "address",
          "name": "_token",
          "type": "address"
        },
        {
          "internalType": "uint256",
          "name": "_amount",
          "type": "uint256"
        }
      ],
      "name": "addLPFee",
      "outputs": [],
      "stateMutability": "nonpayable",
      "type": "function"
    },
    {
      "inputs": [],
      "name": "addNativeLiquidity",
      "outputs": [],
      "stateMutability": "payable",
      "type": "function"
    },
    {
      "inputs": [
        {
          "internalType": "address",
          "name": "_token",
          "type": "address"
        },
        {
          "internalType": "uint256",
          "name": "_amount",
          "type": "uint256"
        }
      ],
      "name": "addTokenLiquidity",
      "outputs": [],
      "stateMutability": "nonpayable",
      "type": "function"
    },
    {
      "inputs": [
        {
          "internalType": "uint256",
          "name": "_nftId",
          "type": "uint256"
        },
        {
          "internalType": "uint256",
          "name": "_amount",
          "type": "uint256"
        }
      ],
      "name": "increaseTokenLiquidity",
      "outputs": [],
      "stateMutability": "nonpayable",
      "type": "function"
    },
    {
      "inputs": [
        {
          "internalType": "uint256",
          "name": "_nftId",
          "type": "uint256"
        }
      ],
      "name": "increaseNativeLiquidity",
      "outputs": [],
      "stateMutability": "payable",
      "type": "function"
    },
    {
      "inputs": [
        {
          "internalType": "uint256",
          "name": "_nftId",
          "type": "uint256"
        },
        {
          "internalType": "uint256",
          "name": "_amount",
          "type": "uint256"
        }
      ],
      "name": "removeLiquidity",
      "outputs": [],
      "stateMutability": "nonpayable",
      "type": "function"
    },
    {
      "inputs": [
        {
          "internalType": "uint256",
          "name": "_nftId",
          "type": "uint256"
        }
      ],
      "name": "claimFee",
      "outputs": [],
      "stateMutability": "nonpayable",
      "type": "function"
    },
    {
      "inputs": [
        {
          "internalType": "uint256",
          "name": "_nftId",
          "type": "uint256"
        }
      ],
      "name": "getSuppliedLiquidity",
      "outputs": [
        {
          "internalType": "uint256",
          "name": "",
          "type": "uint256"
        }
      ],
      "stateMutability": "view",
      "type": "function"
    }
  ],
  "bytecode": "0x608060405234801561001057600080fd5b5061666180620000216000396000f3fe6080604052600436106102345760003560e01c80639326b08a1161012e578063d1b4f192116100ab578063f0ff372e1161006f578063f0ff372e1461089d578063f2fde38b146108da578063f667526a14610903578063f8c8765e1461092c578063febb54071461095557610290565b8063d1b4f192146107a8578063d7ac683c146107e5578063da74222814610822578063dd8b99231461084b578063e479b0991461087457610290565b8063b238b533116100f2578063b238b533146106aa578063b3524e30146106b4578063c47296bd146106f1578063c56326de1461072e578063ca2ba9431461076b57610290565b80639326b08a146105d65780639500fefc146105ff5780639d7de6b31461061b5780639ee933b514610644578063b0261e531461066d57610290565b80634f20f840116101bc5780636ef8d66d116101805780636ef8d66d1461053d578063715018a6146105545780637cb2b79c1461056b5780638456cb59146105945780638da5cb5b146105ab57610290565b80634f20f8401461043257806352a301271461046f57806353403fb5146104ac578063572b6c05146104d55780635c975abb1461051257610290565b806339db7d0e1161020357806339db7d0e1461034d5780633ed77114146103765780633f4ba83a146103a157806346fbf68e146103b85780634e7e36e2146103f557610290565b80630102c1541461029557806301877020146102d257806314fe72aa146102fb5780632cd271e71461032457610290565b3661029057610241610992565b73ffffffffffffffffffffffffffffffffffffffff167f85177f287940f2f05425a4029951af0e047a7f9c4eaa9a6e6917bcd869f86695346040516102869190614fa0565b60405180910390a2005b600080fd5b3480156102a157600080fd5b506102bc60048036038101906102b79190615028565b6109a1565b6040516102c99190614fa0565b60405180910390f35b3480156102de57600080fd5b506102f960048036038101906102f49190615028565b6109eb565b005b34801561030757600080fd5b50610322600480360381019061031d9190615081565b610a37565b005b34801561033057600080fd5b5061034b60048036038101906103469190615028565b610cd6565b005b34801561035957600080fd5b50610374600480360381019061036f91906150c1565b610d32565b005b34801561038257600080fd5b5061038b611003565b6040516103989190614fa0565b60405180910390f35b3480156103ad57600080fd5b506103b661100f565b005b3480156103c457600080fd5b506103df60048036038101906103da9190615028565b611061565b6040516103ec919061511c565b60405180910390f35b34801561040157600080fd5b5061041c60048036038101906104179190615028565b6110bb565b6040516104299190614fa0565b60405180910390f35b34801561043e57600080fd5b5061045960048036038101906104549190615137565b6110d4565b6040516104669190614fa0565b60405180910390f35b34801561047b57600080fd5b5061049660048036038101906104919190615028565b611175565b6040516104a39190614fa0565b60405180910390f35b3480156104b857600080fd5b506104d360048036038101906104ce9190615081565b61126a565b005b3480156104e157600080fd5b506104fc60048036038101906104f79190615028565b61130f565b604051610509919061511c565b60405180910390f35b34801561051e57600080fd5b50610527611369565b604051610534919061511c565b60405180910390f35b34801561054957600080fd5b50610552611380565b005b34801561056057600080fd5b50610569611491565b005b34801561057757600080fd5b50610592600480360381019061058d9190615028565b6114a5565b005b3480156105a057600080fd5b506105a96114b9565b005b3480156105b757600080fd5b506105c061150b565b6040516105cd9190615186565b60405180910390f35b3480156105e257600080fd5b506105fd60048036038101906105f89190615081565b611535565b005b610619600480360381019061061491906151a1565b611783565b005b34801561062757600080fd5b50610642600480360381019061063d91906150c1565b611acd565b005b34801561065057600080fd5b5061066b60048036038101906106669190615028565b612251565b005b34801561067957600080fd5b50610694600480360381019061068f9190615028565b612265565b6040516106a19190614fa0565b60405180910390f35b6106b261227e565b005b3480156106c057600080fd5b506106db60048036038101906106d69190615028565b612527565b6040516106e89190614fa0565b60405180910390f35b3480156106fd57600080fd5b50610718600480360381019061071391906151a1565b612571565b6040516107259190614fa0565b60405180910390f35b34801561073a57600080fd5b5061075560048036038101906107509190615028565b61273e565b6040516107629190614fa0565b60405180910390f35b34801561077757600080fd5b50610792600480360381019061078d9190615028565b612757565b60405161079f9190614fa0565b60405180910390f35b3480156107b457600080fd5b506107cf60048036038101906107ca9190615028565b6127a1565b6040516107dc9190614fa0565b60405180910390f35b3480156107f157600080fd5b5061080c600480360381019061080791906151a1565b6127ba565b6040516108199190614fa0565b60405180910390f35b34801561082e57600080fd5b5061084960048036038101906108449190615028565b612866565b005b34801561085757600080fd5b50610872600480360381019061086d9190615081565b61287a565b005b34801561088057600080fd5b5061089b60048036038101906108969190615028565b61291f565b005b3480156108a957600080fd5b506108c460048036038101906108bf9190615028565b61296b565b6040516108d19190614fa0565b60405180910390f35b3480156108e657600080fd5b5061090160048036038101906108fc9190615028565b6129b5565b005b34801561090f57600080fd5b5061092a600480360381019061092591906151a1565b612a38565b005b34801561093857600080fd5b50610953600480360381019061094e91906151ce565b613039565b005b34801561096157600080fd5b5061097c60048036038101906109779190615028565b6131a7565b6040516109899190614fa0565b60405180910390f35b600061099c6131c0565b905090565b600061010060008373ffffffffffffffffffffffffffffffffffffffff1673ffffffffffffffffffffffffffffffffffffffff168152602001908152602001600020549050919050565b6109f36131f2565b8060fd60006101000a81548173ffffffffffffffffffffffffffffffffffffffff021916908373ffffffffffffffffffffffffffffffffffffffff16021790555050565b600260015403610a7c576040517f08c379a0000000000000000000000000000000000000000000000000000000008152600401610a7390615292565b60405180910390fd5b600260018190555081600073ffffffffffffffffffffffffffffffffffffffff168173ffffffffffffffffffffffffffffffffffffffff1603610af4576040517f08c379a0000000000000000000000000000000000000000000000000000000008152600401610aeb906152fe565b60405180910390fd5b610afd81613270565b610b3c576040517f08c379a0000000000000000000000000000000000000000000000000000000008152600401610b339061536a565b60405180910390fd5b610b44613319565b73eeeeeeeeeeeeeeeeeeeeeeeeeeeeeeeeeeeeeeee73ffffffffffffffffffffffffffffffffffffffff168373ffffffffffffffffffffffffffffffffffffffff1603610bc6576040517f08c379a0000000000000000000000000000000000000000000000000000000008152600401610bbd906153d6565b60405180910390fd5b818373ffffffffffffffffffffffffffffffffffffffff1663dd62ed3e610beb610992565b306040518363ffffffff1660e01b8152600401610c099291906153f6565b602060405180830381865afa158015610c26573d6000803e3d6000fd5b505050506040513d601f19601f82011682018060405250810190610c4a9190615434565b1015610c8b576040517f08c379a0000000000000000000000000000000000000000000000000000000008152600401610c82906154ad565b60405180910390fd5b610cc083610c97610992565b60fd60009054906101000a900473ffffffffffffffffffffffffffffffffffffffff1685613363565b610cca83836133ec565b50600180819055505050565b610cdf33611061565b610d1e576040517f08c379a0000000000000000000000000000000000000000000000000000000008152600401610d159061553f565b60405180910390fd5b610d26613319565b610d2f816135ae565b50565b600260015403610d77576040517f08c379a0000000000000000000000000000000000000000000000000000000008152600401610d6e90615292565b60405180910390fd5b6002600181905550610d87613319565b600060fc60009054906101000a900473ffffffffffffffffffffffffffffffffffffffff1673ffffffffffffffffffffffffffffffffffffffff16636914db60846040518263ffffffff1660e01b8152600401610de49190614fa0565b606060405180830381865afa158015610e01573d6000803e3d6000fd5b505050506040513d601f19601f82011682018060405250810190610e259190615574565b50509050610e3281613270565b610e71576040517f08c379a0000000000000000000000000000000000000000000000000000000008152600401610e6890615613565b60405180910390fd5b73eeeeeeeeeeeeeeeeeeeeeeeeeeeeeeeeeeeeeeee73ffffffffffffffffffffffffffffffffffffffff168173ffffffffffffffffffffffffffffffffffffffff1603610ef3576040517f08c379a0000000000000000000000000000000000000000000000000000000008152600401610eea906153d6565b60405180910390fd5b818173ffffffffffffffffffffffffffffffffffffffff1663dd62ed3e610f18610992565b306040518363ffffffff1660e01b8152600401610f369291906153f6565b602060405180830381865afa158015610f53573d6000803e3d6000fd5b505050506040513d601f19601f82011682018060405250810190610f779190615434565b1015610fb8576040517f08c379a0000000000000000000000000000000000000000000000000000000008152600401610faf906154ad565b60405180910390fd5b610fed81610fc4610992565b60fd60009054906101000a900473ffffffffffffffffffffffffffffffffffffffff1685613363565b610ff783836136a7565b50600180819055505050565b670de0b6b3a764000081565b61101833611061565b611057576040517f08c379a000000000000000000000000000000000000000000000000000000000815260040161104e9061553f565b60405180910390fd5b61105f613ea4565b565b600060fb60009054906101000a900473ffffffffffffffffffffffffffffffffffffffff1673ffffffffffffffffffffffffffffffffffffffff168273ffffffffffffffffffffffffffffffffffffffff16149050919050565b6101006020528060005260406000206000915090505481565b600061010460008373ffffffffffffffffffffffffffffffffffffffff1673ffffffffffffffffffffffffffffffffffffffff1681526020019081526020016000205461010060008473ffffffffffffffffffffffffffffffffffffffff1673ffffffffffffffffffffffffffffffffffffffff16815260200190815260200160002054846111639190615662565b61116d91906156eb565b905092915050565b60008061010060008473ffffffffffffffffffffffffffffffffffffffff1673ffffffffffffffffffffffffffffffffffffffff16815260200190815260200160002054905060008111156112585761010060008473ffffffffffffffffffffffffffffffffffffffff1673ffffffffffffffffffffffffffffffffffffffff1681526020019081526020016000205461010460008573ffffffffffffffffffffffffffffffffffffffff1673ffffffffffffffffffffffffffffffffffffffff1681526020019081526020016000205461125091906156eb565b915050611265565b670de0b6b3a76400009150505b919050565b60fd60009054906101000a900473ffffffffffffffffffffffffffffffffffffffff1673ffffffffffffffffffffffffffffffffffffffff166112ab610992565b73ffffffffffffffffffffffffffffffffffffffff1614611301576040517f08c379a00000000000000000000000000000000000000000000000000000000081526004016112f890615768565b60405180910390fd5b61130b8282613f07565b5050565b6000606560009054906101000a900473ffffffffffffffffffffffffffffffffffffffff1673ffffffffffffffffffffffffffffffffffffffff168273ffffffffffffffffffffffffffffffffffffffff16149050919050565b600060c960009054906101000a900460ff16905090565b61138933611061565b6113c8576040517f08c379a00000000000000000000000000000000000000000000000000000000081526004016113bf9061553f565b60405180910390fd5b6113d0613319565b600073ffffffffffffffffffffffffffffffffffffffff1660fb60009054906101000a900473ffffffffffffffffffffffffffffffffffffffff1673ffffffffffffffffffffffffffffffffffffffff167f95bb211a5a393c4d30c3edc9a745825fba4e6ad3e3bb949e6bf8ccdfe431a81160405160405180910390a3600060fb60006101000a81548173ffffffffffffffffffffffffffffffffffffffff021916908373ffffffffffffffffffffffffffffffffffffffff160217905550565b6114996131f2565b6114a36000613fe6565b565b6114ad6131f2565b6114b6816140ac565b50565b6114c233611061565b611501576040517f08c379a00000000000000000000000000000000000000000000000000000000081526004016114f89061553f565b60405180910390fd5b6115096140f0565b565b6000609760009054906101000a900473ffffffffffffffffffffffffffffffffffffffff16905090565b60fd60009054906101000a900473ffffffffffffffffffffffffffffffffffffffff1673ffffffffffffffffffffffffffffffffffffffff16611576610992565b73ffffffffffffffffffffffffffffffffffffffff16146115cc576040517f08c379a00000000000000000000000000000000000000000000000000000000081526004016115c390615768565b60405180910390fd5b81600073ffffffffffffffffffffffffffffffffffffffff168173ffffffffffffffffffffffffffffffffffffffff160361163c576040517f08c379a0000000000000000000000000000000000000000000000000000000008152600401611633906152fe565b60405180910390fd5b61164581613270565b611684576040517f08c379a000000000000000000000000000000000000000000000000000000000815260040161167b9061536a565b60405180910390fd5b61168c613319565b8161010060008573ffffffffffffffffffffffffffffffffffffffff1673ffffffffffffffffffffffffffffffffffffffff16815260200190815260200160002060008282546116dc9190615788565b925050819055508161010360008573ffffffffffffffffffffffffffffffffffffffff1673ffffffffffffffffffffffffffffffffffffffff16815260200190815260200160002060008282546117339190615788565b92505081905550818373ffffffffffffffffffffffffffffffffffffffff167fbf2b46285c2ba2766660d9f8cfafdb8abd51bbba1f29c584b7dd34ecf853dd4c60405160405180910390a3505050565b6002600154036117c8576040517f08c379a00000000000000000000000000000000000000000000000000000000081526004016117bf90615292565b60405180910390fd5b60026001819055506117d8613319565b600060fc60009054906101000a900473ffffffffffffffffffffffffffffffffffffffff1673ffffffffffffffffffffffffffffffffffffffff16636914db60836040518263ffffffff1660e01b81526004016118359190614fa0565b606060405180830381865afa158015611852573d6000803e3d6000fd5b505050506040513d601f19601f820116820180604052508101906118769190615574565b5050905061189773eeeeeeeeeeeeeeeeeeeeeeeeeeeeeeeeeeeeeeee613270565b6118d6576040517f08c379a00000000000000000000000000000000000000000000000000000000081526004016118cd90615613565b60405180910390fd5b73eeeeeeeeeeeeeeeeeeeeeeeeeeeeeeeeeeeeeeee73ffffffffffffffffffffffffffffffffffffffff168173ffffffffffffffffffffffffffffffffffffffff1614611958576040517f08c379a000000000000000000000000000000000000000000000000000000000815260040161194f906153d6565b60405180910390fd5b600073ffffffffffffffffffffffffffffffffffffffff1660fd60009054906101000a900473ffffffffffffffffffffffffffffffffffffffff1673ffffffffffffffffffffffffffffffffffffffff16036119e9576040517f08c379a00000000000000000000000000000000000000000000000000000000081526004016119e09061582a565b60405180910390fd5b600060fd60009054906101000a900473ffffffffffffffffffffffffffffffffffffffff1673ffffffffffffffffffffffffffffffffffffffff1634604051611a319061587b565b60006040518083038185875af1925050503d8060008114611a6e576040519150601f19603f3d011682016040523d82523d6000602084013e611a73565b606091505b5050905080611ab7576040517f08c379a0000000000000000000000000000000000000000000000000000000008152600401611aae906158dc565b60405180910390fd5b611ac183346136a7565b50506001808190555050565b600260015403611b12576040517f08c379a0000000000000000000000000000000000000000000000000000000008152600401611b0990615292565b60405180910390fd5b600260018190555081611b23610992565b600060fc60009054906101000a900473ffffffffffffffffffffffffffffffffffffffff1673ffffffffffffffffffffffffffffffffffffffff16636914db60846040518263ffffffff1660e01b8152600401611b809190614fa0565b606060405180830381865afa158015611b9d573d6000803e3d6000fd5b505050506040513d601f19601f82011682018060405250810190611bc19190615574565b5050905060fc60009054906101000a900473ffffffffffffffffffffffffffffffffffffffff1673ffffffffffffffffffffffffffffffffffffffff16634f558e79846040518263ffffffff1660e01b8152600401611c209190614fa0565b602060405180830381865afa158015611c3d573d6000803e3d6000fd5b505050506040513d601f19601f82011682018060405250810190611c619190615928565b611ca0576040517f08c379a0000000000000000000000000000000000000000000000000000000008152600401611c97906159a1565b60405180910390fd5b8173ffffffffffffffffffffffffffffffffffffffff1660fc60009054906101000a900473ffffffffffffffffffffffffffffffffffffffff1673ffffffffffffffffffffffffffffffffffffffff16636352211e856040518263ffffffff1660e01b8152600401611d129190614fa0565b602060405180830381865afa158015611d2f573d6000803e3d6000fd5b505050506040513d601f19601f82011682018060405250810190611d5391906159c1565b73ffffffffffffffffffffffffffffffffffffffff1614611da9576040517f08c379a0000000000000000000000000000000000000000000000000000000008152600401611da090615a3a565b60405180910390fd5b611db1613319565b600080600060fc60009054906101000a900473ffffffffffffffffffffffffffffffffffffffff1673ffffffffffffffffffffffffffffffffffffffff16636914db60896040518263ffffffff1660e01b8152600401611e119190614fa0565b606060405180830381865afa158015611e2e573d6000803e3d6000fd5b505050506040513d601f19601f82011682018060405250810190611e529190615574565b925092509250611e6183613270565b611ea0576040517f08c379a0000000000000000000000000000000000000000000000000000000008152600401611e9790615613565b60405180910390fd5b60008703611ee3576040517f08c379a0000000000000000000000000000000000000000000000000000000008152600401611eda90615aa6565b60405180910390fd5b86821015611f26576040517f08c379a0000000000000000000000000000000000000000000000000000000008152600401611f1d90615b12565b60405180910390fd5b60ff60009054906101000a900473ffffffffffffffffffffffffffffffffffffffff1673ffffffffffffffffffffffffffffffffffffffff1663e23fec91611f6c610992565b858a6040518463ffffffff1660e01b8152600401611f8c93929190615b32565b600060405180830381600087803b158015611fa657600080fd5b505af1158015611fba573d6000803e3d6000fd5b505050506000611fc984611175565b88611fd49190615662565b90506000611fe283866110d4565b9050600081851115611ff75760009050611ffd565b84820390505b600061200887611175565b826120139190615662565b90508161010360008973ffffffffffffffffffffffffffffffffffffffff1673ffffffffffffffffffffffffffffffffffffffff16815260200190815260200160002060008282546120659190615b69565b925050819055506000828c61207a9190615788565b90506000828661208a9190615788565b9050670de0b6b3a764000081886120a19190615b69565b10156120ab578690505b8161010060008b73ffffffffffffffffffffffffffffffffffffffff1673ffffffffffffffffffffffffffffffffffffffff16815260200190815260200160002060008282546120fb9190615b69565b925050819055508c61010160008b73ffffffffffffffffffffffffffffffffffffffff1673ffffffffffffffffffffffffffffffffffffffff16815260200190815260200160002060008282546121529190615b69565b925050819055508061010460008b73ffffffffffffffffffffffffffffffffffffffff1673ffffffffffffffffffffffffffffffffffffffff16815260200190815260200160002060008282546121a99190615b69565b925050819055506121ba898e614153565b6121c68e828f8c614232565b6121d8896121d2610992565b846143b9565b6121e0610992565b73ffffffffffffffffffffffffffffffffffffffff16828a73ffffffffffffffffffffffffffffffffffffffff167f70516e69d9b3069ff3184583d867f7a832772e850ba89b554ae06ff752474f9e60405160405180910390a4505050505050505050505050600180819055505050565b6122596131f2565b6122628161444f565b50565b6101046020528060005260406000206000915090505481565b6002600154036122c3576040517f08c379a00000000000000000000000000000000000000000000000000000000081526004016122ba90615292565b60405180910390fd5b600260018190555073eeeeeeeeeeeeeeeeeeeeeeeeeeeeeeeeeeeeeeee600073ffffffffffffffffffffffffffffffffffffffff168173ffffffffffffffffffffffffffffffffffffffff160361234f576040517f08c379a0000000000000000000000000000000000000000000000000000000008152600401612346906152fe565b60405180910390fd5b61235881613270565b612397576040517f08c379a000000000000000000000000000000000000000000000000000000000815260040161238e9061536a565b60405180910390fd5b61239f613319565b600073ffffffffffffffffffffffffffffffffffffffff1660fd60009054906101000a900473ffffffffffffffffffffffffffffffffffffffff1673ffffffffffffffffffffffffffffffffffffffff1603612430576040517f08c379a00000000000000000000000000000000000000000000000000000000081526004016124279061582a565b60405180910390fd5b600060fd60009054906101000a900473ffffffffffffffffffffffffffffffffffffffff1673ffffffffffffffffffffffffffffffffffffffff16346040516124789061587b565b60006040518083038185875af1925050503d80600081146124b5576040519150601f19603f3d011682016040523d82523d6000602084013e6124ba565b606091505b50509050806124fe576040517f08c379a00000000000000000000000000000000000000000000000000000000081526004016124f5906158dc565b60405180910390fd5b61251c73eeeeeeeeeeeeeeeeeeeeeeeeeeeeeeeeeeeeeeee346133ec565b505060018081905550565b600061010160008373ffffffffffffffffffffffffffffffffffffffff1673ffffffffffffffffffffffffffffffffffffffff168152602001908152602001600020549050919050565b600060fc60009054906101000a900473ffffffffffffffffffffffffffffffffffffffff1673ffffffffffffffffffffffffffffffffffffffff16634f558e79836040518263ffffffff1660e01b81526004016125ce9190614fa0565b602060405180830381865afa1580156125eb573d6000803e3d6000fd5b505050506040513d601f19601f8201168201806040525081019061260f9190615928565b61264e576040517f08c379a000000000000000000000000000000000000000000000000000000000815260040161264590615be9565b60405180910390fd5b600080600060fc60009054906101000a900473ffffffffffffffffffffffffffffffffffffffff1673ffffffffffffffffffffffffffffffffffffffff16636914db60866040518263ffffffff1660e01b81526004016126ae9190614fa0565b606060405180830381865afa1580156126cb573d6000803e3d6000fd5b505050506040513d601f19601f820116820180604052508101906126ef9190615574565b925092509250600081036127095760009350505050612739565b600061271582856110d4565b905060008184111561272a5760009050612730565b83820390505b80955050505050505b919050565b6101016020528060005260406000206000915090505481565b600061010260008373ffffffffffffffffffffffffffffffffffffffff1673ffffffffffffffffffffffffffffffffffffffff168152602001908152602001600020549050919050565b6101036020528060005260406000206000915090505481565b60008060fc60009054906101000a900473ffffffffffffffffffffffffffffffffffffffff1673ffffffffffffffffffffffffffffffffffffffff16636914db60846040518263ffffffff1660e01b81526004016128189190614fa0565b606060405180830381865afa158015612835573d6000803e3d6000fd5b505050506040513d601f19601f820116820180604052508101906128599190615574565b5091505080915050919050565b61286e6131f2565b61287781614493565b50565b60fd60009054906101000a900473ffffffffffffffffffffffffffffffffffffffff1673ffffffffffffffffffffffffffffffffffffffff166128bb610992565b73ffffffffffffffffffffffffffffffffffffffff1614612911576040517f08c379a000000000000000000000000000000000000000000000000000000000815260040161290890615768565b60405180910390fd5b61291b8282614153565b5050565b6129276131f2565b8060ff60006101000a81548173ffffffffffffffffffffffffffffffffffffffff021916908373ffffffffffffffffffffffffffffffffffffffff16021790555050565b600061010360008373ffffffffffffffffffffffffffffffffffffffff1673ffffffffffffffffffffffffffffffffffffffff168152602001908152602001600020549050919050565b6129bd6131f2565b600073ffffffffffffffffffffffffffffffffffffffff168173ffffffffffffffffffffffffffffffffffffffff1603612a2c576040517f08c379a0000000000000000000000000000000000000000000000000000000008152600401612a2390615c7b565b60405180910390fd5b612a3581613fe6565b50565b80612a41610992565b600060fc60009054906101000a900473ffffffffffffffffffffffffffffffffffffffff1673ffffffffffffffffffffffffffffffffffffffff16636914db60846040518263ffffffff1660e01b8152600401612a9e9190614fa0565b606060405180830381865afa158015612abb573d6000803e3d6000fd5b505050506040513d601f19601f82011682018060405250810190612adf9190615574565b5050905060fc60009054906101000a900473ffffffffffffffffffffffffffffffffffffffff1673ffffffffffffffffffffffffffffffffffffffff16634f558e79846040518263ffffffff1660e01b8152600401612b3e9190614fa0565b602060405180830381865afa158015612b5b573d6000803e3d6000fd5b505050506040513d601f19601f82011682018060405250810190612b7f9190615928565b612bbe576040517f08c379a0000000000000000000000000000000000000000000000000000000008152600401612bb5906159a1565b60405180910390fd5b8173ffffffffffffffffffffffffffffffffffffffff1660fc60009054906101000a900473ffffffffffffffffffffffffffffffffffffffff1673ffffffffffffffffffffffffffffffffffffffff16636352211e856040518263ffffffff1660e01b8152600401612c309190614fa0565b602060405180830381865afa158015612c4d573d6000803e3d6000fd5b505050506040513d601f19601f82011682018060405250810190612c7191906159c1565b73ffffffffffffffffffffffffffffffffffffffff1614612cc7576040517f08c379a0000000000000000000000000000000000000000000000000000000008152600401612cbe90615a3a565b60405180910390fd5b612ccf613319565b600260015403612d14576040517f08c379a0000000000000000000000000000000000000000000000000000000008152600401612d0b90615292565b60405180910390fd5b6002600181905550600080600060fc60009054906101000a900473ffffffffffffffffffffffffffffffffffffffff1673ffffffffffffffffffffffffffffffffffffffff16636914db60886040518263ffffffff1660e01b8152600401612d7c9190614fa0565b606060405180830381865afa158015612d99573d6000803e3d6000fd5b505050506040513d601f19601f82011682018060405250810190612dbd9190615574565b925092509250612dcc83613270565b612e0b576040517f08c379a0000000000000000000000000000000000000000000000000000000008152600401612e0290615613565b60405180910390fd5b6000612e1684611175565b83612e219190615662565b90506000612e2f83866110d4565b905060008482612e3f9190615b69565b905060008111612e84576040517f08c379a0000000000000000000000000000000000000000000000000000000008152600401612e7b90615ce7565b60405180910390fd5b60008385612e929190615b69565b90508161010060008973ffffffffffffffffffffffffffffffffffffffff1673ffffffffffffffffffffffffffffffffffffffff1681526020019081526020016000206000828254612ee49190615b69565b925050819055508061010460008973ffffffffffffffffffffffffffffffffffffffff1673ffffffffffffffffffffffffffffffffffffffff1681526020019081526020016000206000828254612f3b9190615b69565b925050819055508161010360008973ffffffffffffffffffffffffffffffffffffffff1673ffffffffffffffffffffffffffffffffffffffff1681526020019081526020016000206000828254612f929190615b69565b92505081905550612fa68b8260008a614232565b612fb887612fb2610992565b846143b9565b612fc0610992565b73ffffffffffffffffffffffffffffffffffffffff16828873ffffffffffffffffffffffffffffffffffffffff167f8e7bf3ba9a828655d38a8746fe5f122e5b02ada0764a356944630cff7eff35e28460405161301d9190614fa0565b60405180910390a4505050505050506001808190555050505050565b60008060019054906101000a900460ff1615905080801561306a5750600160008054906101000a900460ff1660ff16105b80613097575061307930614589565b1580156130965750600160008054906101000a900460ff1660ff16145b5b6130d6576040517f08c379a00000000000000000000000000000000000000000000000000000000081526004016130cd90615d79565b60405180910390fd5b60016000806101000a81548160ff021916908360ff1602179055508015613113576001600060016101000a81548160ff0219169083151502179055505b61311c856145ac565b6131246146f4565b61312d8261474d565b61313561493c565b61313e8461444f565b613147836140ac565b80156131a05760008060016101000a81548160ff0219169083151502179055507f7f26b83ff96e1f2b6a682f133852f6798a09c465da95921460cefb384740249860016040516131979190615deb565b60405180910390a15b5050505050565b6101026020528060005260406000206000915090505481565b60006131cb3361130f565b156131df57601436033560601c90506131ee565b6131e7614995565b90506131ef565b5b90565b6131fa610992565b73ffffffffffffffffffffffffffffffffffffffff1661321861150b565b73ffffffffffffffffffffffffffffffffffffffff161461326e576040517f08c379a000000000000000000000000000000000000000000000000000000000815260040161326590615e52565b60405180910390fd5b565b600060fe60009054906101000a900473ffffffffffffffffffffffffffffffffffffffff1673ffffffffffffffffffffffffffffffffffffffff1663fa5e2abc836040518263ffffffff1660e01b81526004016132cd9190615186565b60c060405180830381865afa1580156132ea573d6000803e3d6000fd5b505050506040513d601f19601f8201168201806040525081019061330e9190615fdf565b602001519050919050565b613321611369565b15613361576040517f08c379a000000000000000000000000000000000000000000000000000000000815260040161335890616058565b60405180910390fd5b565b6133e6846323b872dd60e01b85858560405160240161338493929190615b32565b604051602081830303815290604052907bffffffffffffffffffffffffffffffffffffffffffffffffffffffff19166020820180517bffffffffffffffffffffffffffffffffffffffffffffffffffffffff838183161783525050505061499d565b50505050565b6000811161342f576040517f08c379a0000000000000000000000000000000000000000000000000000000008152600401613426906160c4565b60405180910390fd5b600060fc60009054906101000a900473ffffffffffffffffffffffffffffffffffffffff1673ffffffffffffffffffffffffffffffffffffffff16636a627842613477610992565b6040518263ffffffff1660e01b81526004016134939190615186565b6020604051808303816000875af11580156134b2573d6000803e3d6000fd5b505050506040513d601f19601f820116820180604052508101906134d69190615434565b9050600060405180606001604052808573ffffffffffffffffffffffffffffffffffffffff168152602001600081526020016000815250905060fc60009054906101000a900473ffffffffffffffffffffffffffffffffffffffff1673ffffffffffffffffffffffffffffffffffffffff16634810f4ae83836040518363ffffffff1660e01b815260040161356c929190616144565b600060405180830381600087803b15801561358657600080fd5b505af115801561359a573d6000803e3d6000fd5b505050506135a882846136a7565b50505050565b600073ffffffffffffffffffffffffffffffffffffffff168173ffffffffffffffffffffffffffffffffffffffff16036135e757600080fd5b8073ffffffffffffffffffffffffffffffffffffffff1660fb60009054906101000a900473ffffffffffffffffffffffffffffffffffffffff1673ffffffffffffffffffffffffffffffffffffffff167f95bb211a5a393c4d30c3edc9a745825fba4e6ad3e3bb949e6bf8ccdfe431a81160405160405180910390a38060fb60006101000a81548173ffffffffffffffffffffffffffffffffffffffff021916908373ffffffffffffffffffffffffffffffffffffffff16021790555050565b816136b0610992565b600060fc60009054906101000a900473ffffffffffffffffffffffffffffffffffffffff1673ffffffffffffffffffffffffffffffffffffffff16636914db60846040518263ffffffff1660e01b815260040161370d9190614fa0565b606060405180830381865afa15801561372a573d6000803e3d6000fd5b505050506040513d601f19601f8201168201806040525081019061374e9190615574565b5050905060fc60009054906101000a900473ffffffffffffffffffffffffffffffffffffffff1673ffffffffffffffffffffffffffffffffffffffff16634f558e79846040518263ffffffff1660e01b81526004016137ad9190614fa0565b602060405180830381865afa1580156137ca573d6000803e3d6000fd5b505050506040513d601f19601f820116820180604052508101906137ee9190615928565b61382d576040517f08c379a0000000000000000000000000000000000000000000000000000000008152600401613824906159a1565b60405180910390fd5b8173ffffffffffffffffffffffffffffffffffffffff1660fc60009054906101000a900473ffffffffffffffffffffffffffffffffffffffff1673ffffffffffffffffffffffffffffffffffffffff16636352211e856040518263ffffffff1660e01b815260040161389f9190614fa0565b602060405180830381865afa1580156138bc573d6000803e3d6000fd5b505050506040513d601f19601f820116820180604052508101906138e091906159c1565b73ffffffffffffffffffffffffffffffffffffffff1614613936576040517f08c379a000000000000000000000000000000000000000000000000000000000815260040161392d90615a3a565b60405180910390fd5b600080600060fc60009054906101000a900473ffffffffffffffffffffffffffffffffffffffff1673ffffffffffffffffffffffffffffffffffffffff16636914db60896040518263ffffffff1660e01b81526004016139969190614fa0565b606060405180830381865afa1580156139b3573d6000803e3d6000fd5b505050506040513d601f19601f820116820180604052508101906139d79190615574565b92509250925060008703613a20576040517f08c379a0000000000000000000000000000000000000000000000000000000008152600401613a17906160c4565b60405180910390fd5b60ff60009054906101000a900473ffffffffffffffffffffffffffffffffffffffff1673ffffffffffffffffffffffffffffffffffffffff1663645625f3613a66610992565b858a6040518463ffffffff1660e01b8152600401613a8693929190615b32565b600060405180830381600087803b158015613aa057600080fd5b505af1158015613ab4573d6000803e3d6000fd5b5050505060008061010060008673ffffffffffffffffffffffffffffffffffffffff1673ffffffffffffffffffffffffffffffffffffffff168152602001908152602001600020541480613b485750600061010460008673ffffffffffffffffffffffffffffffffffffffff1673ffffffffffffffffffffffffffffffffffffffff16815260200190815260200160002054145b15613b685787670de0b6b3a7640000613b619190615662565b9050613c02565b61010060008573ffffffffffffffffffffffffffffffffffffffff1673ffffffffffffffffffffffffffffffffffffffff1681526020019081526020016000205461010460008673ffffffffffffffffffffffffffffffffffffffff1673ffffffffffffffffffffffffffffffffffffffff1681526020019081526020016000205489613bf59190615662565b613bff91906156eb565b90505b670de0b6b3a7640000811015613c4d576040517f08c379a0000000000000000000000000000000000000000000000000000000008152600401613c44906161b9565b60405180910390fd5b8761010160008673ffffffffffffffffffffffffffffffffffffffff1673ffffffffffffffffffffffffffffffffffffffff1681526020019081526020016000206000828254613c9d9190615788565b925050819055508761010060008673ffffffffffffffffffffffffffffffffffffffff1673ffffffffffffffffffffffffffffffffffffffff1681526020019081526020016000206000828254613cf49190615788565b925050819055508061010460008673ffffffffffffffffffffffffffffffffffffffff1673ffffffffffffffffffffffffffffffffffffffff1681526020019081526020016000206000828254613d4b9190615788565b92505081905550600060405180606001604052808673ffffffffffffffffffffffffffffffffffffffff1681526020018a86613d879190615788565b81526020018385613d989190615788565b815250905060fc60009054906101000a900473ffffffffffffffffffffffffffffffffffffffff1673ffffffffffffffffffffffffffffffffffffffff16634810f4ae8b836040518363ffffffff1660e01b8152600401613dfa929190616144565b600060405180830381600087803b158015613e1457600080fd5b505af1158015613e28573d6000803e3d6000fd5b50505050613e36858a613f07565b613e3e610992565b73ffffffffffffffffffffffffffffffffffffffff16898673ffffffffffffffffffffffffffffffffffffffff167fa21288bdd948f634bcd5a8bfc9825db1b01914f370ef82149e123b7c8dc3b65b60405160405180910390a450505050505050505050565b613eac614a64565b600060c960006101000a81548160ff0219169083151502179055507f5db9ee0a495bf2e6ff9c91a7834c1ba4fdd244a5e8aa4e537bd38aeae4b073aa613ef0610992565b604051613efd9190615186565b60405180910390a1565b8061010260008473ffffffffffffffffffffffffffffffffffffffff1673ffffffffffffffffffffffffffffffffffffffff1681526020019081526020016000206000828254613f579190615788565b9250508190555061010260008373ffffffffffffffffffffffffffffffffffffffff1673ffffffffffffffffffffffffffffffffffffffff168152602001908152602001600020548273ffffffffffffffffffffffffffffffffffffffff167ff28044030a28cf7d3fb8e8f7bbaa42aee92214081fd522b3a38afb279577db8960405160405180910390a35050565b6000609760009054906101000a900473ffffffffffffffffffffffffffffffffffffffff16905081609760006101000a81548173ffffffffffffffffffffffffffffffffffffffff021916908373ffffffffffffffffffffffffffffffffffffffff1602179055508173ffffffffffffffffffffffffffffffffffffffff168173ffffffffffffffffffffffffffffffffffffffff167f8be0079c531659141344cd1fd0a4f28419497f9722a3daafe3b4186f6b6457e060405160405180910390a35050565b8060fe60006101000a81548173ffffffffffffffffffffffffffffffffffffffff021916908373ffffffffffffffffffffffffffffffffffffffff16021790555050565b6140f8613319565b600160c960006101000a81548160ff0219169083151502179055507f62e78cea01bee320cd4e420270b5ea74000d11b0c9f74754ebdbfc544b05a25861413c610992565b6040516141499190615186565b60405180910390a1565b8061010260008473ffffffffffffffffffffffffffffffffffffffff1673ffffffffffffffffffffffffffffffffffffffff16815260200190815260200160002060008282546141a39190615b69565b9250508190555061010260008373ffffffffffffffffffffffffffffffffffffffff1673ffffffffffffffffffffffffffffffffffffffff168152602001908152602001600020548273ffffffffffffffffffffffffffffffffffffffff167ff28044030a28cf7d3fb8e8f7bbaa42aee92214081fd522b3a38afb279577db8960405160405180910390a35050565b60008060fc60009054906101000a900473ffffffffffffffffffffffffffffffffffffffff1673ffffffffffffffffffffffffffffffffffffffff16636914db60876040518263ffffffff1660e01b81526004016142909190614fa0565b606060405180830381865afa1580156142ad573d6000803e3d6000fd5b505050506040513d601f19601f820116820180604052508101906142d19190615574565b925092505084816142e29190615b69565b905083826142f09190615b69565b915060fc60009054906101000a900473ffffffffffffffffffffffffffffffffffffffff1673ffffffffffffffffffffffffffffffffffffffff16634810f4ae8760405180606001604052808773ffffffffffffffffffffffffffffffffffffffff168152602001868152602001858152506040518363ffffffff1660e01b815260040161437f929190616144565b600060405180830381600087803b15801561439957600080fd5b505af11580156143ad573d6000803e3d6000fd5b50505050505050505050565b60fd60009054906101000a900473ffffffffffffffffffffffffffffffffffffffff1673ffffffffffffffffffffffffffffffffffffffff1663beabacc88484846040518463ffffffff1660e01b815260040161441893929190615b32565b600060405180830381600087803b15801561443257600080fd5b505af1158015614446573d6000803e3d6000fd5b50505050505050565b8060fc60006101000a81548173ffffffffffffffffffffffffffffffffffffffff021916908373ffffffffffffffffffffffffffffffffffffffff16021790555050565b600073ffffffffffffffffffffffffffffffffffffffff168173ffffffffffffffffffffffffffffffffffffffff1603614502576040517f08c379a00000000000000000000000000000000000000000000000000000000081526004016144f990616225565b60405180910390fd5b80606560006101000a81548173ffffffffffffffffffffffffffffffffffffffff021916908373ffffffffffffffffffffffffffffffffffffffff1602179055508073ffffffffffffffffffffffffffffffffffffffff167f871264f4293af7d2865ae7eae628b228f4991c57cb45b39c99f0b774ebe2901860405160405180910390a250565b6000808273ffffffffffffffffffffffffffffffffffffffff163b119050919050565b60008060019054906101000a900460ff161590508080156145dd5750600160008054906101000a900460ff1660ff16105b8061460a57506145ec30614589565b1580156146095750600160008054906101000a900460ff1660ff16145b5b614649576040517f08c379a000000000000000000000000000000000000000000000000000000000815260040161464090615d79565b60405180910390fd5b60016000806101000a81548160ff021916908360ff1602179055508015614686576001600060016101000a81548160ff0219169083151502179055505b61468e614aad565b61469782614afe565b80156146f05760008060016101000a81548160ff0219169083151502179055507f7f26b83ff96e1f2b6a682f133852f6798a09c465da95921460cefb384740249860016040516146e79190615deb565b60405180910390a15b5050565b600060019054906101000a900460ff16614743576040517f08c379a000000000000000000000000000000000000000000000000000000000815260040161473a906162b7565b60405180910390fd5b61474b614c76565b565b60008060019054906101000a900460ff1615905080801561477e5750600160008054906101000a900460ff1660ff16105b806147ab575061478d30614589565b1580156147aa5750600160008054906101000a900460ff1660ff16145b5b6147ea576040517f08c379a00000000000000000000000000000000000000000000000000000000081526004016147e190615d79565b60405180910390fd5b60016000806101000a81548160ff021916908360ff1602179055508015614827576001600060016101000a81548160ff0219169083151502179055505b600073ffffffffffffffffffffffffffffffffffffffff168273ffffffffffffffffffffffffffffffffffffffff1603614896576040517f08c379a000000000000000000000000000000000000000000000000000000000815260040161488d90616323565b60405180910390fd5b61489e614cd7565b8160fb60006101000a81548173ffffffffffffffffffffffffffffffffffffffff021916908373ffffffffffffffffffffffffffffffffffffffff16021790555080156149385760008060016101000a81548160ff0219169083151502179055507f7f26b83ff96e1f2b6a682f133852f6798a09c465da95921460cefb3847402498600160405161492f9190615deb565b60405180910390a15b5050565b600060019054906101000a900460ff1661498b576040517f08c379a0000000000000000000000000000000000000000000000000000000008152600401614982906162b7565b60405180910390fd5b614993614d30565b565b600033905090565b60006149ff826040518060400160405280602081526020017f5361666545524332303a206c6f772d6c6576656c2063616c6c206661696c65648152508573ffffffffffffffffffffffffffffffffffffffff16614d889092919063ffffffff16565b9050600081511115614a5f5780806020019051810190614a1f9190615928565b614a5e576040517f08c379a0000000000000000000000000000000000000000000000000000000008152600401614a55906163b5565b60405180910390fd5b5b505050565b614a6c611369565b614aab576040517f08c379a0000000000000000000000000000000000000000000000000000000008152600401614aa290616421565b60405180910390fd5b565b600060019054906101000a900460ff16614afc576040517f08c379a0000000000000000000000000000000000000000000000000000000008152600401614af3906162b7565b60405180910390fd5b565b60008060019054906101000a900460ff16159050808015614b2f5750600160008054906101000a900460ff1660ff16105b80614b5c5750614b3e30614589565b158015614b5b5750600160008054906101000a900460ff1660ff16145b5b614b9b576040517f08c379a0000000000000000000000000000000000000000000000000000000008152600401614b9290615d79565b60405180910390fd5b60016000806101000a81548160ff021916908360ff1602179055508015614bd8576001600060016101000a81548160ff0219169083151502179055505b81606560006101000a81548173ffffffffffffffffffffffffffffffffffffffff021916908373ffffffffffffffffffffffffffffffffffffffff1602179055508015614c725760008060016101000a81548160ff0219169083151502179055507f7f26b83ff96e1f2b6a682f133852f6798a09c465da95921460cefb38474024986001604051614c699190615deb565b60405180910390a15b5050565b600060019054906101000a900460ff16614cc5576040517f08c379a0000000000000000000000000000000000000000000000000000000008152600401614cbc906162b7565b60405180910390fd5b614cd5614cd0610992565b613fe6565b565b600060019054906101000a900460ff16614d26576040517f08c379a0000000000000000000000000000000000000000000000000000000008152600401614d1d906162b7565b60405180910390fd5b614d2e614da0565b565b600060019054906101000a900460ff16614d7f576040517f08c379a0000000000000000000000000000000000000000000000000000000008152600401614d76906162b7565b60405180910390fd5b60018081905550565b6060614d978484600085614e0c565b90509392505050565b600060019054906101000a900460ff16614def576040517f08c379a0000000000000000000000000000000000000000000000000000000008152600401614de6906162b7565b60405180910390fd5b600060c960006101000a81548160ff021916908315150217905550565b606082471015614e51576040517f08c379a0000000000000000000000000000000000000000000000000000000008152600401614e48906164b3565b60405180910390fd5b614e5a85614589565b614e99576040517f08c379a0000000000000000000000000000000000000000000000000000000008152600401614e909061651f565b60405180910390fd5b6000808673ffffffffffffffffffffffffffffffffffffffff168587604051614ec291906165ae565b60006040518083038185875af1925050503d8060008114614eff576040519150601f19603f3d011682016040523d82523d6000602084013e614f04565b606091505b5091509150614f14828286614f20565b92505050949350505050565b60608315614f3057829050614f80565b600083511115614f435782518084602001fd5b816040517f08c379a0000000000000000000000000000000000000000000000000000000008152600401614f779190616609565b60405180910390fd5b9392505050565b6000819050919050565b614f9a81614f87565b82525050565b6000602082019050614fb56000830184614f91565b92915050565b6000604051905090565b600080fd5b600073ffffffffffffffffffffffffffffffffffffffff82169050919050565b6000614ff582614fca565b9050919050565b61500581614fea565b811461501057600080fd5b50565b60008135905061502281614ffc565b92915050565b60006020828403121561503e5761503d614fc5565b5b600061504c84828501615013565b91505092915050565b61505e81614f87565b811461506957600080fd5b50565b60008135905061507b81615055565b92915050565b6000806040838503121561509857615097614fc5565b5b60006150a685828601615013565b92505060206150b78582860161506c565b9150509250929050565b600080604083850312156150d8576150d7614fc5565b5b60006150e68582860161506c565b92505060206150f78582860161506c565b9150509250929050565b60008115159050919050565b61511681615101565b82525050565b6000602082019050615131600083018461510d565b92915050565b6000806040838503121561514e5761514d614fc5565b5b600061515c8582860161506c565b925050602061516d85828601615013565b9150509250929050565b61518081614fea565b82525050565b600060208201905061519b6000830184615177565b92915050565b6000602082840312156151b7576151b6614fc5565b5b60006151c58482850161506c565b91505092915050565b600080600080608085870312156151e8576151e7614fc5565b5b60006151f687828801615013565b945050602061520787828801615013565b935050604061521887828801615013565b925050606061522987828801615013565b91505092959194509250565b600082825260208201905092915050565b7f5265656e7472616e637947756172643a207265656e7472616e742063616c6c00600082015250565b600061527c601f83615235565b915061528782615246565b602082019050919050565b600060208201905081810360008301526152ab8161526f565b9050919050565b7f546f6b656e20616464726573732063616e6e6f74206265203000000000000000600082015250565b60006152e8601983615235565b91506152f3826152b2565b602082019050919050565b60006020820190508181036000830152615317816152db565b9050919050565b7f546f6b656e206e6f7420737570706f7274656400000000000000000000000000600082015250565b6000615354601383615235565b915061535f8261531e565b602082019050919050565b6000602082019050818103600083015261538381615347565b9050919050565b7f4552525f5f57524f4e475f46554e4354494f4e00000000000000000000000000600082015250565b60006153c0601383615235565b91506153cb8261538a565b602082019050919050565b600060208201905081810360008301526153ef816153b3565b9050919050565b600060408201905061540b6000830185615177565b6154186020830184615177565b9392505050565b60008151905061542e81615055565b92915050565b60006020828403121561544a57615449614fc5565b5b60006154588482850161541f565b91505092915050565b7f4552525f5f494e53554646494349454e545f414c4c4f57414e43450000000000600082015250565b6000615497601b83615235565b91506154a282615461565b602082019050919050565b600060208201905081810360008301526154c68161548a565b9050919050565b7f4f6e6c792070617573657220697320616c6c6f77656420746f20706572666f7260008201527f6d2074686973206f7065726174696f6e00000000000000000000000000000000602082015250565b6000615529603083615235565b9150615534826154cd565b604082019050919050565b600060208201905081810360008301526155588161551c565b9050919050565b60008151905061556e81614ffc565b92915050565b60008060006060848603121561558d5761558c614fc5565b5b600061559b8682870161555f565b93505060206155ac8682870161541f565b92505060406155bd8682870161541f565b9150509250925092565b7f4552525f5f544f4b454e5f4e4f545f535550504f525445440000000000000000600082015250565b60006155fd601883615235565b9150615608826155c7565b602082019050919050565b6000602082019050818103600083015261562c816155f0565b9050919050565b7f4e487b7100000000000000000000000000000000000000000000000000000000600052601160045260246000fd5b600061566d82614f87565b915061567883614f87565b9250817fffffffffffffffffffffffffffffffffffffffffffffffffffffffffffffffff04831182151516156156b1576156b0615633565b5b828202905092915050565b7f4e487b7100000000000000000000000000000000000000000000000000000000600052601260045260246000fd5b60006156f682614f87565b915061570183614f87565b925082615711576157106156bc565b5b828204905092915050565b7f4552525f5f554e415554484f52495a4544000000000000000000000000000000600082015250565b6000615752601183615235565b915061575d8261571c565b602082019050919050565b6000602082019050818103600083015261578181615745565b9050919050565b600061579382614f87565b915061579e83614f87565b9250827fffffffffffffffffffffffffffffffffffffffffffffffffffffffffffffffff038211156157d3576157d2615633565b5b828201905092915050565b7f4552525f5f4c49515549444954595f504f4f4c5f4e4f545f5345540000000000600082015250565b6000615814601b83615235565b915061581f826157de565b602082019050919050565b6000602082019050818103600083015261584381615807565b9050919050565b600081905092915050565b50565b600061586560008361584a565b915061587082615855565b600082019050919050565b600061588682615858565b9150819050919050565b7f4552525f5f4e41544956455f5452414e534645525f4641494c45440000000000600082015250565b60006158c6601b83615235565b91506158d182615890565b602082019050919050565b600060208201905081810360008301526158f5816158b9565b9050919050565b61590581615101565b811461591057600080fd5b50565b600081519050615922816158fc565b92915050565b60006020828403121561593e5761593d614fc5565b5b600061594c84828501615913565b91505092915050565b7f4552525f5f544f4b454e5f444f45535f4e4f545f455849535400000000000000600082015250565b600061598b601983615235565b915061599682615955565b602082019050919050565b600060208201905081810360008301526159ba8161597e565b9050919050565b6000602082840312156159d7576159d6614fc5565b5b60006159e58482850161555f565b91505092915050565b7f4552525f5f5452414e534143544f525f444f45535f4e4f545f4f574e5f4e4654600082015250565b6000615a24602083615235565b9150615a2f826159ee565b602082019050919050565b60006020820190508181036000830152615a5381615a17565b9050919050565b7f4552525f5f494e56414c49445f414d4f554e5400000000000000000000000000600082015250565b6000615a90601383615235565b9150615a9b82615a5a565b602082019050919050565b60006020820190508181036000830152615abf81615a83565b9050919050565b7f4552525f5f494e53554646494349454e545f4c49515549444954590000000000600082015250565b6000615afc601b83615235565b9150615b0782615ac6565b602082019050919050565b60006020820190508181036000830152615b2b81615aef565b9050919050565b6000606082019050615b476000830186615177565b615b546020830185615177565b615b616040830184614f91565b949350505050565b6000615b7482614f87565b9150615b7f83614f87565b925082821015615b9257615b91615633565b5b828203905092915050565b7f4552525f5f494e56414c49445f4e465400000000000000000000000000000000600082015250565b6000615bd3601083615235565b9150615bde82615b9d565b602082019050919050565b60006020820190508181036000830152615c0281615bc6565b9050919050565b7f4f776e61626c653a206e6577206f776e657220697320746865207a65726f206160008201527f6464726573730000000000000000000000000000000000000000000000000000602082015250565b6000615c65602683615235565b9150615c7082615c09565b604082019050919050565b60006020820190508181036000830152615c9481615c58565b9050919050565b7f4552525f5f4e4f5f524557415244535f544f5f434c41494d0000000000000000600082015250565b6000615cd1601883615235565b9150615cdc82615c9b565b602082019050919050565b60006020820190508181036000830152615d0081615cc4565b9050919050565b7f496e697469616c697a61626c653a20636f6e747261637420697320616c72656160008201527f647920696e697469616c697a6564000000000000000000000000000000000000602082015250565b6000615d63602e83615235565b9150615d6e82615d07565b604082019050919050565b60006020820190508181036000830152615d9281615d56565b9050919050565b6000819050919050565b600060ff82169050919050565b6000819050919050565b6000615dd5615dd0615dcb84615d99565b615db0565b615da3565b9050919050565b615de581615dba565b82525050565b6000602082019050615e006000830184615ddc565b92915050565b7f4f776e61626c653a2063616c6c6572206973206e6f7420746865206f776e6572600082015250565b6000615e3c602083615235565b9150615e4782615e06565b602082019050919050565b60006020820190508181036000830152615e6b81615e2f565b9050919050565b600080fd5b6000601f19601f8301169050919050565b7f4e487b7100000000000000000000000000000000000000000000000000000000600052604160045260246000fd5b615ec082615e77565b810181811067ffffffffffffffff82111715615edf57615ede615e88565b5b80604052505050565b6000615ef2614fbb565b9050615efe8282615eb7565b919050565b600060408284031215615f1957615f18615e72565b5b615f236040615ee8565b90506000615f338482850161541f565b6000830152506020615f478482850161541f565b60208301525092915050565b600060c08284031215615f6957615f68615e72565b5b615f7360a0615ee8565b90506000615f838482850161541f565b6000830152506020615f9784828501615913565b6020830152506040615fab8482850161541f565b6040830152506060615fbf8482850161541f565b6060830152506080615fd384828501615f03565b60808301525092915050565b600060c08284031215615ff557615ff4614fc5565b5b600061600384828501615f53565b91505092915050565b7f5061757361626c653a2070617573656400000000000000000000000000000000600082015250565b6000616042601083615235565b915061604d8261600c565b602082019050919050565b6000602082019050818103600083015261607181616035565b9050919050565b7f4552525f5f414d4f554e545f49535f3000000000000000000000000000000000600082015250565b60006160ae601083615235565b91506160b982616078565b602082019050919050565b600060208201905081810360008301526160dd816160a1565b9050919050565b6160ed81614fea565b82525050565b6160fc81614f87565b82525050565b60608201600082015161611860008501826160e4565b50602082015161612b60208501826160f3565b50604082015161613e60408501826160f3565b50505050565b60006080820190506161596000830185614f91565b6161666020830184616102565b9392505050565b7f4552525f5f414d4f554e545f42454c4f575f4d494e5f4c495155494449545900600082015250565b60006161a3601f83615235565b91506161ae8261616d565b602082019050919050565b600060208201905081810360008301526161d281616196565b9050919050565b7f54727573746564466f727761726465722063616e277420626520300000000000600082015250565b600061620f601b83615235565b915061621a826161d9565b602082019050919050565b6000602082019050818103600083015261623e81616202565b9050919050565b7f496e697469616c697a61626c653a20636f6e7472616374206973206e6f74206960008201527f6e697469616c697a696e67000000000000000000000000000000000000000000602082015250565b60006162a1602b83615235565b91506162ac82616245565b604082019050919050565b600060208201905081810360008301526162d081616294565b9050919050565b7f50617573657220416464726573732063616e6e6f742062652030000000000000600082015250565b600061630d601a83615235565b9150616318826162d7565b602082019050919050565b6000602082019050818103600083015261633c81616300565b9050919050565b7f5361666545524332303a204552433230206f7065726174696f6e20646964206e60008201527f6f74207375636365656400000000000000000000000000000000000000000000602082015250565b600061639f602a83615235565b91506163aa82616343565b604082019050919050565b600060208201905081810360008301526163ce81616392565b9050919050565b7f5061757361626c653a206e6f7420706175736564000000000000000000000000600082015250565b600061640b601483615235565b9150616416826163d5565b602082019050919050565b6000602082019050818103600083015261643a816163fe565b9050919050565b7f416464726573733a20696e73756666696369656e742062616c616e636520666f60008201527f722063616c6c0000000000000000000000000000000000000000000000000000602082015250565b600061649d602683615235565b91506164a882616441565b604082019050919050565b600060208201905081810360008301526164cc81616490565b9050919050565b7f416464726573733a2063616c6c20746f206e6f6e2d636f6e7472616374000000600082015250565b6000616509601d83615235565b9150616514826164d3565b602082019050919050565b60006020820190508181036000830152616538816164fc565b9050919050565b600081519050919050565b60005b8381101561656857808201518184015260208101905061654d565b83811115616577576000848401525b50505050565b60006165888261653f565b616592818561584a565b93506165a281856020860161654a565b80840191505092915050565b60006165ba828461657d565b915081905092915050565b600081519050919050565b60006165db826165c5565b6165e58185615235565b93506165f581856020860161654a565b6165fe81615e77565b840191505092915050565b6000602082019050818103600083015261662381846165d0565b90509291505056fea26469706673582212205202e5a2fe36096957a7b882cc62d8eb1c2cd2821900fabf709ea1742c2f82ba64736f6c634300080f0033",
  "immutableReferences": {},
  "source": "// $$\\       $$\\                     $$\\       $$\\ $$\\   $$\\                     $$$$$$$\\                                $$\\       $$\\\n// $$ |      \\__|                    \\__|      $$ |\\__|  $$ |                    $$  __$$\\                               \\__|      $$ |\n// $$ |      $$\\  $$$$$$\\  $$\\   $$\\ $$\\  $$$$$$$ |$$\\ $$$$$$\\   $$\\   $$\\       $$ |  $$ | $$$$$$\\   $$$$$$\\ $$\\    $$\\ $$\\  $$$$$$$ | $$$$$$\\   $$$$$$\\   $$$$$$$\\\n// $$ |      $$ |$$  __$$\\ $$ |  $$ |$$ |$$  __$$ |$$ |\\_$$  _|  $$ |  $$ |      $$$$$$$  |$$  __$$\\ $$  __$$\\\\$$\\  $$  |$$ |$$  __$$ |$$  __$$\\ $$  __$$\\ $$  _____|\n// $$ |      $$ |$$ /  $$ |$$ |  $$ |$$ |$$ /  $$ |$$ |  $$ |    $$ |  $$ |      $$  ____/ $$ |  \\__|$$ /  $$ |\\$$\\$$  / $$ |$$ /  $$ |$$$$$$$$ |$$ |  \\__|\\$$$$$$\\\n// $$ |      $$ |$$ |  $$ |$$ |  $$ |$$ |$$ |  $$ |$$ |  $$ |$$\\ $$ |  $$ |      $$ |      $$ |      $$ |  $$ | \\$$$  /  $$ |$$ |  $$ |$$   ____|$$ |       \\____$$\\\n// $$$$$$$$\\ $$ |\\$$$$$$$ |\\$$$$$$  |$$ |\\$$$$$$$ |$$ |  \\$$$$  |\\$$$$$$$ |      $$ |      $$ |      \\$$$$$$  |  \\$  /   $$ |\\$$$$$$$ |\\$$$$$$$\\ $$ |      $$$$$$$  |\n// \\________|\\__| \\____$$ | \\______/ \\__| \\_______|\\__|   \\____/  \\____$$ |      \\__|      \\__|       \\______/    \\_/    \\__| \\_______| \\_______|\\__|      \\_______/\n//                     $$ |                                      $$\\   $$ |\n//                     $$ |                                      \\$$$$$$  |\n//                     \\__|                                       \\______/\n// SPDX-License-Identifier: MIT\npragma solidity ^0.8.0;\n\nimport \"@openzeppelin/contracts-upgradeable/proxy/utils/Initializable.sol\";\nimport \"@openzeppelin/contracts-upgradeable/security/ReentrancyGuardUpgradeable.sol\";\nimport \"@openzeppelin/contracts-upgradeable/access/OwnableUpgradeable.sol\";\nimport \"@openzeppelin/contracts-upgradeable/token/ERC20/IERC20Upgradeable.sol\";\nimport \"@openzeppelin/contracts-upgradeable/token/ERC20/utils/SafeERC20Upgradeable.sol\";\nimport \"./metatx/ERC2771ContextUpgradeable.sol\";\n\nimport \"../security/Pausable.sol\";\nimport \"./interfaces/ILPToken.sol\";\nimport \"./interfaces/ITokenManager.sol\";\nimport \"./interfaces/IWhiteListPeriodManager.sol\";\nimport \"./interfaces/ILiquidityPool.sol\";\n\ncontract LiquidityProviders is\n    Initializable,\n    ReentrancyGuardUpgradeable,\n    ERC2771ContextUpgradeable,\n    OwnableUpgradeable,\n    Pausable\n{\n    using SafeERC20Upgradeable for IERC20Upgradeable;\n\n    address internal constant NATIVE = 0xEeeeeEeeeEeEeeEeEeEeeEEEeeeeEeeeeeeeEEeE;\n    uint256 public constant BASE_DIVISOR = 10**18;\n\n    ILPToken internal lpToken;\n    ILiquidityPool internal liquidityPool;\n    ITokenManager internal tokenManager;\n    IWhiteListPeriodManager internal whiteListPeriodManager;\n\n    event LiquidityAdded(address indexed tokenAddress, uint256 indexed amount, address indexed lp);\n    event LiquidityRemoved(address indexed tokenAddress, uint256 indexed amount, address indexed lp);\n    event FeeClaimed(address indexed tokenAddress, uint256 indexed fee, address indexed lp, uint256 sharesBurnt);\n    event FeeAdded(address indexed tokenAddress, uint256 indexed fee);\n    event EthReceived(address indexed sender, uint256 value);\n    event CurrentLiquidityChanged(address indexed token, uint256 indexed newValue);\n\n    // LP Fee Distribution\n    mapping(address => uint256) public totalReserve; // Include Liquidity + Fee accumulated\n    mapping(address => uint256) public totalLiquidity; // Include Liquidity only\n    mapping(address => uint256) public currentLiquidity; // Include current liquidity, updated on every in and out transfer\n    mapping(address => uint256) public totalLPFees;\n    mapping(address => uint256) public totalSharesMinted;\n\n    /**\n     * @dev Modifier for checking to validate a NFTId and it's ownership\n     * @param _tokenId token id to validate\n     * @param _transactor typically msgSender(), passed to verify against owner of _tokenId\n     */\n    modifier onlyValidLpToken(uint256 _tokenId, address _transactor) {\n        (address token, , ) = lpToken.tokenMetadata(_tokenId);\n        require(lpToken.exists(_tokenId), \"ERR__TOKEN_DOES_NOT_EXIST\");\n        require(lpToken.ownerOf(_tokenId) == _transactor, \"ERR__TRANSACTOR_DOES_NOT_OWN_NFT\");\n        _;\n    }\n\n    /**\n     * @dev Modifier for checking if msg.sender in liquiditypool\n     */\n    modifier onlyLiquidityPool() {\n        require(_msgSender() == address(liquidityPool), \"ERR__UNAUTHORIZED\");\n        _;\n    }\n\n    modifier tokenChecks(address tokenAddress) {\n        require(tokenAddress != address(0), \"Token address cannot be 0\");\n        require(_isSupportedToken(tokenAddress), \"Token not supported\");\n        _;\n    }\n\n    /**\n     * @dev initalizes the contract, acts as constructor\n     * @param _trustedForwarder address of trusted forwarder\n     */\n    function initialize(\n        address _trustedForwarder,\n        address _lpToken,\n        address _tokenManager,\n        address _pauser\n    ) public initializer {\n        __ERC2771Context_init(_trustedForwarder);\n        __Ownable_init();\n        __Pausable_init(_pauser);\n        __ReentrancyGuard_init();\n        _setLPToken(_lpToken);\n        _setTokenManager(_tokenManager);\n    }\n\n    function _isSupportedToken(address _token) internal view returns (bool) {\n        return tokenManager.getTokensInfo(_token).supportedToken;\n    }\n\n    function getTotalReserveByToken(address tokenAddress) public view returns (uint256) {\n        return totalReserve[tokenAddress];\n    }\n\n    function getSuppliedLiquidityByToken(address tokenAddress) public view returns (uint256) {\n        return totalLiquidity[tokenAddress];\n    }\n\n    function getTotalLPFeeByToken(address tokenAddress) public view returns (uint256) {\n        return totalLPFees[tokenAddress];\n    }\n\n    function getCurrentLiquidity(address tokenAddress) public view returns (uint256) {\n        return currentLiquidity[tokenAddress];\n    }\n\n    /**\n     * @dev To be called post initialization, used to set address of NFT Contract\n     * @param _lpToken address of lpToken\n     */\n    function setLpToken(address _lpToken) external onlyOwner {\n        _setLPToken(_lpToken);\n    }\n\n    /**\n     * Internal method to set LP token contract.\n     */\n    function _setLPToken(address _lpToken) internal {\n        lpToken = ILPToken(_lpToken);\n    }\n\n    function increaseCurrentLiquidity(address tokenAddress, uint256 amount) public onlyLiquidityPool {\n        _increaseCurrentLiquidity(tokenAddress, amount);\n    }\n\n    function decreaseCurrentLiquidity(address tokenAddress, uint256 amount) public onlyLiquidityPool {\n        _decreaseCurrentLiquidity(tokenAddress, amount);\n    }\n\n    function _increaseCurrentLiquidity(address tokenAddress, uint256 amount) private {\n        currentLiquidity[tokenAddress] += amount;\n        emit CurrentLiquidityChanged(tokenAddress, currentLiquidity[tokenAddress]);\n    }\n\n    function _decreaseCurrentLiquidity(address tokenAddress, uint256 amount) private {\n        currentLiquidity[tokenAddress] -= amount;\n        emit CurrentLiquidityChanged(tokenAddress, currentLiquidity[tokenAddress]);\n    }\n\n    /**\n     * Public method to set TokenManager contract.\n     */\n    function setTokenManager(address _tokenManager) external onlyOwner {\n        _setTokenManager(_tokenManager);\n    }\n\n    /**\n     * Internal method to set TokenManager contract.\n     */\n    function _setTokenManager(address _tokenManager) internal {\n        tokenManager = ITokenManager(_tokenManager);\n    }\n\n    function setTrustedForwarder(address _tf) external onlyOwner {\n        _setTrustedForwarder(_tf);\n    }\n\n    /**\n     * @dev To be called post initialization, used to set address of WhiteListPeriodManager Contract\n     * @param _whiteListPeriodManager address of WhiteListPeriodManager\n     */\n    function setWhiteListPeriodManager(address _whiteListPeriodManager) external onlyOwner {\n        whiteListPeriodManager = IWhiteListPeriodManager(_whiteListPeriodManager);\n    }\n\n    /**\n     * @dev To be called post initialization, used to set address of LiquidityPool Contract\n     * @param _liquidityPool address of LiquidityPool\n     */\n    function setLiquidityPool(address _liquidityPool) external onlyOwner {\n        liquidityPool = ILiquidityPool(_liquidityPool);\n    }\n\n    /**\n     * @dev Returns price of Base token in terms of LP Shares\n     * @param _baseToken address of baseToken\n     * @return Price of Base token in terms of LP Shares\n     */\n    function getTokenPriceInLPShares(address _baseToken) public view returns (uint256) {\n        uint256 reserve = totalReserve[_baseToken];\n        if (reserve > 0) {\n            return totalSharesMinted[_baseToken] / totalReserve[_baseToken];\n        }\n        return BASE_DIVISOR;\n    }\n\n    /**\n     * @dev Converts shares to token amount\n     */\n\n    function sharesToTokenAmount(uint256 _shares, address _tokenAddress) public view returns (uint256) {\n        return (_shares * totalReserve[_tokenAddress]) / totalSharesMinted[_tokenAddress];\n    }\n\n    /**\n     * @dev Returns the fee accumulated on a given NFT\n     * @param _nftId Id of NFT\n     * @return accumulated fee\n     */\n    function getFeeAccumulatedOnNft(uint256 _nftId) public view returns (uint256) {\n        require(lpToken.exists(_nftId), \"ERR__INVALID_NFT\");\n\n        (address _tokenAddress, uint256 nftSuppliedLiquidity, uint256 totalNFTShares) = lpToken.tokenMetadata(_nftId);\n\n        if (totalNFTShares == 0) {\n            return 0;\n        }\n        // Calculate rewards accumulated\n        uint256 eligibleLiquidity = sharesToTokenAmount(totalNFTShares, _tokenAddress);\n        uint256 lpFeeAccumulated;\n\n        // Handle edge cases where eligibleLiquidity is less than what was supplied by very small amount\n        if (nftSuppliedLiquidity > eligibleLiquidity) {\n            lpFeeAccumulated = 0;\n        } else {\n            unchecked {\n                lpFeeAccumulated = eligibleLiquidity - nftSuppliedLiquidity;\n            }\n        }\n        return lpFeeAccumulated;\n    }\n\n    /**\n     * @dev Records fee being added to total reserve\n     * @param _token Address of Token for which LP fee is being added\n     * @param _amount Amount being added\n     */\n    function addLPFee(address _token, uint256 _amount) external onlyLiquidityPool tokenChecks(_token) whenNotPaused {\n        totalReserve[_token] += _amount;\n        totalLPFees[_token] += _amount;\n        emit FeeAdded(_token, _amount);\n    }\n\n    /**\n     * @dev Internal function to add liquidity to a new NFT\n     */\n    function _addLiquidity(address _token, uint256 _amount) internal {\n        require(_amount > 0, \"ERR__AMOUNT_IS_0\");\n        uint256 nftId = lpToken.mint(_msgSender());\n        LpTokenMetadata memory data = LpTokenMetadata(_token, 0, 0);\n        lpToken.updateTokenMetadata(nftId, data);\n        _increaseLiquidity(nftId, _amount);\n    }\n\n    /**\n     * @dev Function to mint a new NFT for a user, add native liquidity and store the\n     *      record in the newly minted NFT\n     */\n    function addNativeLiquidity() external payable nonReentrant tokenChecks(NATIVE) whenNotPaused {\n        require(address(liquidityPool) != address(0), \"ERR__LIQUIDITY_POOL_NOT_SET\");\n        (bool success, ) = address(liquidityPool).call{value: msg.value}(\"\");\n        require(success, \"ERR__NATIVE_TRANSFER_FAILED\");\n        _addLiquidity(NATIVE, msg.value);\n    }\n\n    /**\n     * @dev Function to mint a new NFT for a user, add token liquidity and store the\n     *      record in the newly minted NFT\n     * @param _token Address of token for which liquidity is to be added\n     * @param _amount Amount of liquidity added\n     */\n    function addTokenLiquidity(address _token, uint256 _amount)\n        external\n        nonReentrant\n        tokenChecks(_token)\n        whenNotPaused\n    {\n        require(_token != NATIVE, \"ERR__WRONG_FUNCTION\");\n        require(\n            IERC20Upgradeable(_token).allowance(_msgSender(), address(this)) >= _amount,\n            \"ERR__INSUFFICIENT_ALLOWANCE\"\n        );\n        SafeERC20Upgradeable.safeTransferFrom(IERC20Upgradeable(_token), _msgSender(), address(liquidityPool), _amount);\n        _addLiquidity(_token, _amount);\n    }\n\n    /**\n     * @dev Internal helper function to increase liquidity in a given NFT\n     */\n    function _increaseLiquidity(uint256 _nftId, uint256 _amount) internal onlyValidLpToken(_nftId, _msgSender()) {\n        (address token, uint256 totalSuppliedLiquidity, uint256 totalShares) = lpToken.tokenMetadata(_nftId);\n\n        require(_amount != 0, \"ERR__AMOUNT_IS_0\");\n        whiteListPeriodManager.beforeLiquidityAddition(_msgSender(), token, _amount);\n\n        uint256 mintedSharesAmount;\n        // Adding liquidity in the pool for the first time\n        if (totalReserve[token] == 0 || totalSharesMinted[token] == 0) {\n            mintedSharesAmount = BASE_DIVISOR * _amount;\n        } else {\n            mintedSharesAmount = (_amount * totalSharesMinted[token]) / totalReserve[token];\n        }\n\n        require(mintedSharesAmount >= BASE_DIVISOR, \"ERR__AMOUNT_BELOW_MIN_LIQUIDITY\");\n\n        totalLiquidity[token] += _amount;\n        totalReserve[token] += _amount;\n        totalSharesMinted[token] += mintedSharesAmount;\n\n        LpTokenMetadata memory data = LpTokenMetadata(\n            token,\n            totalSuppliedLiquidity + _amount,\n            totalShares + mintedSharesAmount\n        );\n        lpToken.updateTokenMetadata(_nftId, data);\n\n        // Increase the current liquidity\n        _increaseCurrentLiquidity(token, _amount);\n        emit LiquidityAdded(token, _amount, _msgSender());\n    }\n\n    /**\n     * @dev Function to allow LPs to add ERC20 token liquidity to existing NFT\n     * @param _nftId ID of NFT for updating the balances\n     * @param _amount Token amount to be added\n     */\n    function increaseTokenLiquidity(uint256 _nftId, uint256 _amount) external nonReentrant whenNotPaused {\n        (address token, , ) = lpToken.tokenMetadata(_nftId);\n        require(_isSupportedToken(token), \"ERR__TOKEN_NOT_SUPPORTED\");\n        require(token != NATIVE, \"ERR__WRONG_FUNCTION\");\n        require(\n            IERC20Upgradeable(token).allowance(_msgSender(), address(this)) >= _amount,\n            \"ERR__INSUFFICIENT_ALLOWANCE\"\n        );\n        SafeERC20Upgradeable.safeTransferFrom(IERC20Upgradeable(token), _msgSender(), address(liquidityPool), _amount);\n        _increaseLiquidity(_nftId, _amount);\n    }\n\n    /**\n     * @dev Function to allow LPs to add native token liquidity to existing NFT\n     */\n    function increaseNativeLiquidity(uint256 _nftId) external payable nonReentrant whenNotPaused {\n        (address token, , ) = lpToken.tokenMetadata(_nftId);\n        require(_isSupportedToken(NATIVE), \"ERR__TOKEN_NOT_SUPPORTED\");\n        require(token == NATIVE, \"ERR__WRONG_FUNCTION\");\n        require(address(liquidityPool) != address(0), \"ERR__LIQUIDITY_POOL_NOT_SET\");\n        (bool success, ) = address(liquidityPool).call{value: msg.value}(\"\");\n        require(success, \"ERR__NATIVE_TRANSFER_FAILED\");\n        _increaseLiquidity(_nftId, msg.value);\n    }\n\n    /**\n     * @dev Function to allow LPs to remove their liquidity from an existing NFT\n     *      Also automatically redeems any earned fee\n     */\n    function removeLiquidity(uint256 _nftId, uint256 _amount)\n        external\n        nonReentrant\n        onlyValidLpToken(_nftId, _msgSender())\n        whenNotPaused\n    {\n        (address _tokenAddress, uint256 nftSuppliedLiquidity, uint256 totalNFTShares) = lpToken.tokenMetadata(_nftId);\n        require(_isSupportedToken(_tokenAddress), \"ERR__TOKEN_NOT_SUPPORTED\");\n\n        require(_amount != 0, \"ERR__INVALID_AMOUNT\");\n        require(nftSuppliedLiquidity >= _amount, \"ERR__INSUFFICIENT_LIQUIDITY\");\n        whiteListPeriodManager.beforeLiquidityRemoval(_msgSender(), _tokenAddress, _amount);\n        // Calculate how much shares represent input amount\n        uint256 lpSharesForInputAmount = _amount * getTokenPriceInLPShares(_tokenAddress);\n\n        // Calculate rewards accumulated\n        uint256 eligibleLiquidity = sharesToTokenAmount(totalNFTShares, _tokenAddress);\n\n        uint256 lpFeeAccumulated;\n\n        // Handle edge cases where eligibleLiquidity is less than what was supplied by very small amount\n        if (nftSuppliedLiquidity > eligibleLiquidity) {\n            lpFeeAccumulated = 0;\n        } else {\n            unchecked {\n                lpFeeAccumulated = eligibleLiquidity - nftSuppliedLiquidity;\n            }\n        }\n        // Calculate amount of lp shares that represent accumulated Fee\n        uint256 lpSharesRepresentingFee = lpFeeAccumulated * getTokenPriceInLPShares(_tokenAddress);\n\n        totalLPFees[_tokenAddress] -= lpFeeAccumulated;\n        uint256 amountToWithdraw = _amount + lpFeeAccumulated;\n        uint256 lpSharesToBurn = lpSharesForInputAmount + lpSharesRepresentingFee;\n\n        // Handle round off errors to avoid dust lp token in contract\n        if (totalNFTShares - lpSharesToBurn < BASE_DIVISOR) {\n            lpSharesToBurn = totalNFTShares;\n        }\n        totalReserve[_tokenAddress] -= amountToWithdraw;\n        totalLiquidity[_tokenAddress] -= _amount;\n        totalSharesMinted[_tokenAddress] -= lpSharesToBurn;\n\n        _decreaseCurrentLiquidity(_tokenAddress, _amount);\n\n        _burnSharesFromNft(_nftId, lpSharesToBurn, _amount, _tokenAddress);\n\n        _transferFromLiquidityPool(_tokenAddress, _msgSender(), amountToWithdraw);\n\n        emit LiquidityRemoved(_tokenAddress, amountToWithdraw, _msgSender());\n    }\n\n    /**\n     * @dev Function to allow LPs to claim the fee earned on their NFT\n     * @param _nftId ID of NFT where liquidity is recorded\n     */\n    function claimFee(uint256 _nftId) external onlyValidLpToken(_nftId, _msgSender()) whenNotPaused nonReentrant {\n        (address _tokenAddress, uint256 nftSuppliedLiquidity, uint256 totalNFTShares) = lpToken.tokenMetadata(_nftId);\n        require(_isSupportedToken(_tokenAddress), \"ERR__TOKEN_NOT_SUPPORTED\");\n\n        uint256 lpSharesForSuppliedLiquidity = nftSuppliedLiquidity * getTokenPriceInLPShares(_tokenAddress);\n\n        // Calculate rewards accumulated\n        uint256 eligibleLiquidity = sharesToTokenAmount(totalNFTShares, _tokenAddress);\n        uint256 lpFeeAccumulated = eligibleLiquidity - nftSuppliedLiquidity;\n        require(lpFeeAccumulated > 0, \"ERR__NO_REWARDS_TO_CLAIM\");\n        // Calculate amount of lp shares that represent accumulated Fee\n        uint256 lpSharesRepresentingFee = totalNFTShares - lpSharesForSuppliedLiquidity;\n\n        totalReserve[_tokenAddress] -= lpFeeAccumulated;\n        totalSharesMinted[_tokenAddress] -= lpSharesRepresentingFee;\n        totalLPFees[_tokenAddress] -= lpFeeAccumulated;\n\n        _burnSharesFromNft(_nftId, lpSharesRepresentingFee, 0, _tokenAddress);\n        _transferFromLiquidityPool(_tokenAddress, _msgSender(), lpFeeAccumulated);\n        emit FeeClaimed(_tokenAddress, lpFeeAccumulated, _msgSender(), lpSharesRepresentingFee);\n    }\n\n    /**\n     * @dev Internal Function to burn LP shares and remove liquidity from existing NFT\n     */\n    function _burnSharesFromNft(\n        uint256 _nftId,\n        uint256 _shares,\n        uint256 _tokenAmount,\n        address _tokenAddress\n    ) internal {\n        (, uint256 nftSuppliedLiquidity, uint256 nftShares) = lpToken.tokenMetadata(_nftId);\n        nftShares -= _shares;\n        nftSuppliedLiquidity -= _tokenAmount;\n\n        lpToken.updateTokenMetadata(_nftId, LpTokenMetadata(_tokenAddress, nftSuppliedLiquidity, nftShares));\n    }\n\n    function _transferFromLiquidityPool(\n        address _tokenAddress,\n        address _receiver,\n        uint256 _tokenAmount\n    ) internal {\n        liquidityPool.transfer(_tokenAddress, _receiver, _tokenAmount);\n    }\n\n    function getSuppliedLiquidity(uint256 _nftId) external view returns (uint256) {\n        (, uint256 totalSuppliedLiquidity, ) = lpToken.tokenMetadata(_nftId);\n        return totalSuppliedLiquidity;\n    }\n\n    function _msgSender()\n        internal\n        view\n        virtual\n        override(ContextUpgradeable, ERC2771ContextUpgradeable)\n        returns (address sender)\n    {\n        return ERC2771ContextUpgradeable._msgSender();\n    }\n\n    function _msgData()\n        internal\n        view\n        virtual\n        override(ContextUpgradeable, ERC2771ContextUpgradeable)\n        returns (bytes calldata)\n    {\n        return ERC2771ContextUpgradeable._msgData();\n    }\n\n    receive() external payable {\n        emit EthReceived(_msgSender(), msg.value);\n    }\n}\n",
  "sourcePath": "/Users/nikhitakale/QA-Hyphen-V2/scribble-fuzzing/contracts/hyphen/LiquidityProviders.sol",
  "compiler": {
    "name": "solc",
    "version": "0.8.15+commit.e14f2714.Emscripten.clang"
  },
  "schemaVersion": "3.4.7",
  "updatedAt": "2022-07-03T18:30:45.650Z",
  "devdoc": {
    "kind": "dev",
    "methods": {
      "addLPFee(address,uint256)": {
        "details": "Records fee being added to total reserve",
        "params": {
          "_amount": "Amount being added",
          "_token": "Address of Token for which LP fee is being added"
        }
      },
      "addNativeLiquidity()": {
        "details": "Function to mint a new NFT for a user, add native liquidity and store the      record in the newly minted NFT"
      },
      "addTokenLiquidity(address,uint256)": {
        "details": "Function to mint a new NFT for a user, add token liquidity and store the      record in the newly minted NFT",
        "params": {
          "_amount": "Amount of liquidity added",
          "_token": "Address of token for which liquidity is to be added"
        }
      },
      "changePauser(address)": {
        "details": "Allows the current pauser to transfer control of the contract to a newPauser.",
        "params": {
          "newPauser": "The address to transfer pauserShip to."
        }
      },
      "claimFee(uint256)": {
        "details": "Function to allow LPs to claim the fee earned on their NFT",
        "params": {
          "_nftId": "ID of NFT where liquidity is recorded"
        }
      },
      "getFeeAccumulatedOnNft(uint256)": {
        "details": "Returns the fee accumulated on a given NFT",
        "params": {
          "_nftId": "Id of NFT"
        },
        "returns": {
          "_0": "accumulated fee"
        }
      },
      "getTokenPriceInLPShares(address)": {
        "details": "Returns price of Base token in terms of LP Shares",
        "params": {
          "_baseToken": "address of baseToken"
        },
        "returns": {
          "_0": "Price of Base token in terms of LP Shares"
        }
      },
      "increaseNativeLiquidity(uint256)": {
        "details": "Function to allow LPs to add native token liquidity to existing NFT"
      },
      "increaseTokenLiquidity(uint256,uint256)": {
        "details": "Function to allow LPs to add ERC20 token liquidity to existing NFT",
        "params": {
          "_amount": "Token amount to be added",
          "_nftId": "ID of NFT for updating the balances"
        }
      },
      "initialize(address,address,address,address)": {
        "details": "initalizes the contract, acts as constructor",
        "params": {
          "_trustedForwarder": "address of trusted forwarder"
        }
      },
      "isPauser(address)": {
        "returns": {
          "_0": "true if `msg.sender` is the owner of the contract."
        }
      },
      "owner()": {
        "details": "Returns the address of the current owner."
      },
      "paused()": {
        "details": "Returns true if the contract is paused, and false otherwise."
      },
      "removeLiquidity(uint256,uint256)": {
        "details": "Function to allow LPs to remove their liquidity from an existing NFT      Also automatically redeems any earned fee"
      },
      "renounceOwnership()": {
        "details": "Leaves the contract without owner. It will not be possible to call `onlyOwner` functions anymore. Can only be called by the current owner. NOTE: Renouncing ownership will leave the contract without an owner, thereby removing any functionality that is only available to the owner."
      },
      "setLiquidityPool(address)": {
        "details": "To be called post initialization, used to set address of LiquidityPool Contract",
        "params": {
          "_liquidityPool": "address of LiquidityPool"
        }
      },
      "setLpToken(address)": {
        "details": "To be called post initialization, used to set address of NFT Contract",
        "params": {
          "_lpToken": "address of lpToken"
        }
      },
      "setWhiteListPeriodManager(address)": {
        "details": "To be called post initialization, used to set address of WhiteListPeriodManager Contract",
        "params": {
          "_whiteListPeriodManager": "address of WhiteListPeriodManager"
        }
      },
      "sharesToTokenAmount(uint256,address)": {
        "details": "Converts shares to token amount"
      },
      "transferOwnership(address)": {
        "details": "Transfers ownership of the contract to a new account (`newOwner`). Can only be called by the current owner."
      }
    },
    "version": 1
  },
  "userdoc": {
    "kind": "user",
    "methods": {
      "setTokenManager(address)": {
        "notice": "Public method to set TokenManager contract."
      }
    },
    "version": 1
  },
  "db": {
    "callBytecode": {
      "id": "0xafb3696f06f0c83f2db534f35ecdc081dbc9022910e5574aa832bc9bf4d0d451"
    },
    "createBytecode": {
      "id": "0x9f27ca9f4c2813784f84d1424de0ae503b9986fc69e945b6c56ee053099c70fd"
    },
    "contract": {
      "id": "0x059934897044a290c75975532e5ea7a988823765a7c704ee6df33268470d7496"
    }
  }
}