{
  "contractName": "TokenManager",
  "abi": [
    {
      "anonymous": false,
      "inputs": [
        {
          "indexed": true,
          "internalType": "address",
          "name": "tokenAddress",
          "type": "address"
        },
        {
          "indexed": true,
          "internalType": "uint256",
          "name": "fee",
          "type": "uint256"
        }
      ],
      "name": "ExcessStateTransferFeePercChanged",
      "type": "event"
    },
    {
      "anonymous": false,
      "inputs": [
        {
          "indexed": true,
          "internalType": "address",
          "name": "tokenAddress",
          "type": "address"
        },
        {
          "indexed": true,
          "internalType": "uint256",
          "name": "equilibriumFee",
          "type": "uint256"
        },
        {
          "indexed": true,
          "internalType": "uint256",
          "name": "maxFee",
          "type": "uint256"
        }
      ],
      "name": "FeeChanged",
      "type": "event"
    },
    {
      "anonymous": false,
      "inputs": [
        {
          "indexed": false,
          "internalType": "uint8",
          "name": "version",
          "type": "uint8"
        }
      ],
      "name": "Initialized",
      "type": "event"
    },
    {
      "anonymous": false,
      "inputs": [
        {
          "indexed": true,
          "internalType": "address",
          "name": "previousOwner",
          "type": "address"
        },
        {
          "indexed": true,
          "internalType": "address",
          "name": "newOwner",
          "type": "address"
        }
      ],
      "name": "OwnershipTransferred",
      "type": "event"
    },
    {
      "anonymous": false,
      "inputs": [
        {
          "indexed": false,
          "internalType": "address",
          "name": "account",
          "type": "address"
        }
      ],
      "name": "Paused",
      "type": "event"
    },
    {
      "anonymous": false,
      "inputs": [
        {
          "indexed": true,
          "internalType": "address",
          "name": "previousPauser",
          "type": "address"
        },
        {
          "indexed": true,
          "internalType": "address",
          "name": "newPauser",
          "type": "address"
        }
      ],
      "name": "PauserChanged",
      "type": "event"
    },
    {
      "anonymous": false,
      "inputs": [
        {
          "indexed": true,
          "internalType": "address",
          "name": "_tf",
          "type": "address"
        }
      ],
      "name": "TrustedForwarderChanged",
      "type": "event"
    },
    {
      "anonymous": false,
      "inputs": [
        {
          "indexed": false,
          "internalType": "address",
          "name": "account",
          "type": "address"
        }
      ],
      "name": "Unpaused",
      "type": "event"
    },
    {
      "inputs": [
        {
          "internalType": "address",
          "name": "newPauser",
          "type": "address"
        }
      ],
      "name": "changePauser",
      "outputs": [],
      "stateMutability": "nonpayable",
      "type": "function"
    },
    {
      "inputs": [
        {
          "internalType": "uint256",
          "name": "",
          "type": "uint256"
        },
        {
          "internalType": "address",
          "name": "",
          "type": "address"
        }
      ],
      "name": "depositConfig",
      "outputs": [
        {
          "internalType": "uint256",
          "name": "min",
          "type": "uint256"
        },
        {
          "internalType": "uint256",
          "name": "max",
          "type": "uint256"
        }
      ],
      "stateMutability": "view",
      "type": "function"
    },
    {
      "inputs": [
        {
          "internalType": "address",
          "name": "",
          "type": "address"
        }
      ],
      "name": "excessStateTransferFeePerc",
      "outputs": [
        {
          "internalType": "uint256",
          "name": "",
          "type": "uint256"
        }
      ],
      "stateMutability": "view",
      "type": "function"
    },
    {
      "inputs": [
        {
          "internalType": "address",
          "name": "pauser",
          "type": "address"
        }
      ],
      "name": "isPauser",
      "outputs": [
        {
          "internalType": "bool",
          "name": "",
          "type": "bool"
        }
      ],
      "stateMutability": "view",
      "type": "function"
    },
    {
      "inputs": [
        {
          "internalType": "address",
          "name": "forwarder",
          "type": "address"
        }
      ],
      "name": "isTrustedForwarder",
      "outputs": [
        {
          "internalType": "bool",
          "name": "",
          "type": "bool"
        }
      ],
      "stateMutability": "view",
      "type": "function"
    },
    {
      "inputs": [],
      "name": "owner",
      "outputs": [
        {
          "internalType": "address",
          "name": "",
          "type": "address"
        }
      ],
      "stateMutability": "view",
      "type": "function"
    },
    {
      "inputs": [],
      "name": "pause",
      "outputs": [],
      "stateMutability": "nonpayable",
      "type": "function"
    },
    {
      "inputs": [],
      "name": "paused",
      "outputs": [
        {
          "internalType": "bool",
          "name": "",
          "type": "bool"
        }
      ],
      "stateMutability": "view",
      "type": "function"
    },
    {
      "inputs": [],
      "name": "renounceOwnership",
      "outputs": [],
      "stateMutability": "nonpayable",
      "type": "function"
    },
    {
      "inputs": [],
      "name": "renouncePauser",
      "outputs": [],
      "stateMutability": "nonpayable",
      "type": "function"
    },
    {
      "inputs": [
        {
          "internalType": "address",
          "name": "",
          "type": "address"
        }
      ],
      "name": "tokensInfo",
      "outputs": [
        {
          "internalType": "uint256",
          "name": "transferOverhead",
          "type": "uint256"
        },
        {
          "internalType": "bool",
          "name": "supportedToken",
          "type": "bool"
        },
        {
          "internalType": "uint256",
          "name": "equilibriumFee",
          "type": "uint256"
        },
        {
          "internalType": "uint256",
          "name": "maxFee",
          "type": "uint256"
        },
        {
          "components": [
            {
              "internalType": "uint256",
              "name": "min",
              "type": "uint256"
            },
            {
              "internalType": "uint256",
              "name": "max",
              "type": "uint256"
            }
          ],
          "internalType": "struct TokenConfig",
          "name": "tokenConfig",
          "type": "tuple"
        }
      ],
      "stateMutability": "view",
      "type": "function"
    },
    {
      "inputs": [
        {
          "internalType": "address",
          "name": "",
          "type": "address"
        }
      ],
      "name": "transferConfig",
      "outputs": [
        {
          "internalType": "uint256",
          "name": "min",
          "type": "uint256"
        },
        {
          "internalType": "uint256",
          "name": "max",
          "type": "uint256"
        }
      ],
      "stateMutability": "view",
      "type": "function"
    },
    {
      "inputs": [
        {
          "internalType": "address",
          "name": "newOwner",
          "type": "address"
        }
      ],
      "name": "transferOwnership",
      "outputs": [],
      "stateMutability": "nonpayable",
      "type": "function"
    },
    {
      "inputs": [],
      "name": "unpause",
      "outputs": [],
      "stateMutability": "nonpayable",
      "type": "function"
    },
    {
      "inputs": [
        {
          "internalType": "address",
          "name": "trustedForwarder",
          "type": "address"
        },
        {
          "internalType": "address",
          "name": "pauser",
          "type": "address"
        }
      ],
      "name": "initialize",
      "outputs": [],
      "stateMutability": "nonpayable",
      "type": "function"
    },
    {
      "inputs": [
        {
          "internalType": "address",
          "name": "tokenAddress",
          "type": "address"
        }
      ],
      "name": "getEquilibriumFee",
      "outputs": [
        {
          "internalType": "uint256",
          "name": "",
          "type": "uint256"
        }
      ],
      "stateMutability": "view",
      "type": "function"
    },
    {
      "inputs": [
        {
          "internalType": "address",
          "name": "tokenAddress",
          "type": "address"
        }
      ],
      "name": "getMaxFee",
      "outputs": [
        {
          "internalType": "uint256",
          "name": "",
          "type": "uint256"
        }
      ],
      "stateMutability": "view",
      "type": "function"
    },
    {
      "inputs": [
        {
          "internalType": "address",
          "name": "tokenAddress",
          "type": "address"
        },
        {
          "internalType": "uint256",
          "name": "_equilibriumFee",
          "type": "uint256"
        },
        {
          "internalType": "uint256",
          "name": "_maxFee",
          "type": "uint256"
        }
      ],
      "name": "changeFee",
      "outputs": [],
      "stateMutability": "nonpayable",
      "type": "function"
    },
    {
      "inputs": [
        {
          "internalType": "address",
          "name": "_tokenAddress",
          "type": "address"
        },
        {
          "internalType": "uint256",
          "name": "_excessStateFeePer",
          "type": "uint256"
        }
      ],
      "name": "changeExcessStateFee",
      "outputs": [],
      "stateMutability": "nonpayable",
      "type": "function"
    },
    {
      "inputs": [
        {
          "internalType": "address",
          "name": "tokenAddress",
          "type": "address"
        },
        {
          "internalType": "uint256",
          "name": "gasOverhead",
          "type": "uint256"
        }
      ],
      "name": "setTokenTransferOverhead",
      "outputs": [],
      "stateMutability": "nonpayable",
      "type": "function"
    },
    {
      "inputs": [
        {
          "internalType": "uint256[]",
          "name": "toChainId",
          "type": "uint256[]"
        },
        {
          "internalType": "address[]",
          "name": "tokenAddresses",
          "type": "address[]"
        },
        {
          "components": [
            {
              "internalType": "uint256",
              "name": "min",
              "type": "uint256"
            },
            {
              "internalType": "uint256",
              "name": "max",
              "type": "uint256"
            }
          ],
          "internalType": "struct TokenConfig[]",
          "name": "tokenConfig",
          "type": "tuple[]"
        }
      ],
      "name": "setDepositConfig",
      "outputs": [],
      "stateMutability": "nonpayable",
      "type": "function"
    },
    {
      "inputs": [
        {
          "internalType": "address",
          "name": "tokenAddress",
          "type": "address"
        },
        {
          "internalType": "uint256",
          "name": "minCapLimit",
          "type": "uint256"
        },
        {
          "internalType": "uint256",
          "name": "maxCapLimit",
          "type": "uint256"
        },
        {
          "internalType": "uint256",
          "name": "equilibriumFee",
          "type": "uint256"
        },
        {
          "internalType": "uint256",
          "name": "maxFee",
          "type": "uint256"
        },
        {
          "internalType": "uint256",
          "name": "transferOverhead",
          "type": "uint256"
        }
      ],
      "name": "addSupportedToken",
      "outputs": [],
      "stateMutability": "nonpayable",
      "type": "function"
    },
    {
      "inputs": [
        {
          "internalType": "address",
          "name": "tokenAddress",
          "type": "address"
        }
      ],
      "name": "removeSupportedToken",
      "outputs": [],
      "stateMutability": "nonpayable",
      "type": "function"
    },
    {
      "inputs": [
        {
          "internalType": "address",
          "name": "tokenAddress",
          "type": "address"
        },
        {
          "internalType": "uint256",
          "name": "minCapLimit",
          "type": "uint256"
        },
        {
          "internalType": "uint256",
          "name": "maxCapLimit",
          "type": "uint256"
        }
      ],
      "name": "updateTokenCap",
      "outputs": [],
      "stateMutability": "nonpayable",
      "type": "function"
    },
    {
      "inputs": [
        {
          "internalType": "address",
          "name": "tokenAddress",
          "type": "address"
        }
      ],
      "name": "getTokensInfo",
      "outputs": [
        {
          "components": [
            {
              "internalType": "uint256",
              "name": "transferOverhead",
              "type": "uint256"
            },
            {
              "internalType": "bool",
              "name": "supportedToken",
              "type": "bool"
            },
            {
              "internalType": "uint256",
              "name": "equilibriumFee",
              "type": "uint256"
            },
            {
              "internalType": "uint256",
              "name": "maxFee",
              "type": "uint256"
            },
            {
              "components": [
                {
                  "internalType": "uint256",
                  "name": "min",
                  "type": "uint256"
                },
                {
                  "internalType": "uint256",
                  "name": "max",
                  "type": "uint256"
                }
              ],
              "internalType": "struct TokenConfig",
              "name": "tokenConfig",
              "type": "tuple"
            }
          ],
          "internalType": "struct TokenInfo",
          "name": "",
          "type": "tuple"
        }
      ],
      "stateMutability": "view",
      "type": "function"
    },
    {
      "inputs": [
        {
          "internalType": "uint256",
          "name": "toChainId",
          "type": "uint256"
        },
        {
          "internalType": "address",
          "name": "tokenAddress",
          "type": "address"
        }
      ],
      "name": "getDepositConfig",
      "outputs": [
        {
          "components": [
            {
              "internalType": "uint256",
              "name": "min",
              "type": "uint256"
            },
            {
              "internalType": "uint256",
              "name": "max",
              "type": "uint256"
            }
          ],
          "internalType": "struct TokenConfig",
          "name": "",
          "type": "tuple"
        }
      ],
      "stateMutability": "view",
      "type": "function"
    },
    {
      "inputs": [
        {
          "internalType": "address",
          "name": "tokenAddress",
          "type": "address"
        }
      ],
      "name": "getTransferConfig",
      "outputs": [
        {
          "components": [
            {
              "internalType": "uint256",
              "name": "min",
              "type": "uint256"
            },
            {
              "internalType": "uint256",
              "name": "max",
              "type": "uint256"
            }
          ],
          "internalType": "struct TokenConfig",
          "name": "",
          "type": "tuple"
        }
      ],
      "stateMutability": "view",
      "type": "function"
    },
    {
      "inputs": [
        {
          "internalType": "address",
          "name": "_tf",
          "type": "address"
        }
      ],
      "name": "setTrustedForwarder",
      "outputs": [],
      "stateMutability": "nonpayable",
      "type": "function"
    }
  ],
  "bytecode": "0x608060405234801561001057600080fd5b506138b8806100206000396000f3fe608060405234801561001057600080fd5b50600436106101c45760003560e01c8063715018a6116100f9578063ab88256711610097578063c0e4d62711610071578063c0e4d627146104df578063da7422281461050f578063f2fde38b1461052b578063fa5e2abc14610547576101c4565b8063ab8825671461045e578063b5ec99991461048f578063ba8dbea2146104ab576101c4565b806385dc3013116100d357806385dc3013146103c35780638b56d0b7146103f35780638da5cb5b1461040f578063a53a225f1461042d576101c4565b8063715018a614610393578063763191901461039d5780638456cb59146103b9576101c4565b80634fe2cf901161016657806357be34681161014057806357be34681461030b5780635c975abb1461033b57806360f5dfda146103595780636ef8d66d14610389576101c4565b80634fe2cf90146102a357806356e3866d146102bf578063572b6c05146102db576101c4565b80632feb4d54116101a25780632feb4d54146102315780633f4ba83a1461024d57806346fbf68e14610257578063485cc95514610287576101c4565b8063128161a8146101c957806320b6d047146101f95780632cd271e714610215575b600080fd5b6101e360048036038101906101de91906127c7565b610577565b6040516101f0919061283c565b60405180910390f35b610213600480360381019061020e9190612883565b6105e4565b005b61022f600480360381019061022a91906127c7565b610732565b005b61024b60048036038101906102469190612bf7565b61078e565b005b61025561095e565b005b610271600480360381019061026c91906127c7565b6109b0565b60405161027e9190612cb9565b60405180910390f35b6102a1600480360381019061029c9190612cd4565b610a0a565b005b6102bd60048036038101906102b89190612d14565b610b5c565b005b6102d960048036038101906102d49190612da1565b610e73565b005b6102f560048036038101906102f091906127c7565b611050565b6040516103029190612cb9565b60405180910390f35b610325600480360381019061032091906127c7565b6110aa565b6040516103329190612e03565b60405180910390f35b6103436110c2565b6040516103509190612cb9565b60405180910390f35b610373600480360381019061036e91906127c7565b6110d9565b6040516103809190612e03565b60405180910390f35b610391611125565b005b61039b611236565b005b6103b760048036038101906103b291906127c7565b61124a565b005b6103c16113b0565b005b6103dd60048036038101906103d891906127c7565b611402565b6040516103ea9190612e03565b60405180910390f35b61040d60048036038101906104089190612883565b61144e565b005b6104176115a1565b6040516104249190612e2d565b60405180910390f35b610447600480360381019061044291906127c7565b6115cb565b604051610455929190612e48565b60405180910390f35b61047860048036038101906104739190612e71565b6115ef565b604051610486929190612e48565b60405180910390f35b6104a960048036038101906104a49190612da1565b611620565b005b6104c560048036038101906104c091906127c7565b611866565b6040516104d6959493929190612eb1565b60405180910390f35b6104f960048036038101906104f49190612e71565b6118c7565b604051610506919061283c565b60405180910390f35b610529600480360381019061052491906127c7565b611946565b005b610545600480360381019061054091906127c7565b61195a565b005b610561600480360381019061055c91906127c7565b6119dd565b60405161056e9190612faa565b60405180910390f35b61057f612704565b60cd60008373ffffffffffffffffffffffffffffffffffffffff1673ffffffffffffffffffffffffffffffffffffffff168152602001908152602001600020604051806040016040529081600082015481526020016001820154815250509050919050565b6105ec611b8d565b6105f4611c0b565b600073ffffffffffffffffffffffffffffffffffffffff168273ffffffffffffffffffffffffffffffffffffffff1603610663576040517f08c379a000000000000000000000000000000000000000000000000000000000815260040161065a90613022565b60405180910390fd5b600081036106a6576040517f08c379a000000000000000000000000000000000000000000000000000000000815260040161069d906130b4565b60405180910390fd5b8060cb60008473ffffffffffffffffffffffffffffffffffffffff1673ffffffffffffffffffffffffffffffffffffffff16815260200190815260200160002081905550808273ffffffffffffffffffffffffffffffffffffffff167f54c6d53cb907f770de602de9044582409b81724f06f763820017fb8ead31706260405160405180910390a35050565b61073b336109b0565b61077a576040517f08c379a000000000000000000000000000000000000000000000000000000000815260040161077190613146565b60405180910390fd5b610782611c0b565b61078b81611c55565b50565b610796611b8d565b815183511480156107a8575080518251145b6107e7576040517f08c379a00000000000000000000000000000000000000000000000000000000081526004016107de906131b2565b60405180910390fd5b60008151905060005b818110156109575782818151811061080b5761080a6131d2565b5b60200260200101516000015160cc600087848151811061082e5761082d6131d2565b5b602002602001015181526020019081526020016000206000868481518110610859576108586131d2565b5b602002602001015173ffffffffffffffffffffffffffffffffffffffff1673ffffffffffffffffffffffffffffffffffffffff168152602001908152602001600020600001819055508281815181106108b5576108b46131d2565b5b60200260200101516020015160cc60008784815181106108d8576108d76131d2565b5b602002602001015181526020019081526020016000206000868481518110610903576109026131d2565b5b602002602001015173ffffffffffffffffffffffffffffffffffffffff1673ffffffffffffffffffffffffffffffffffffffff168152602001908152602001600020600101819055508060010190506107f0565b5050505050565b610967336109b0565b6109a6576040517f08c379a000000000000000000000000000000000000000000000000000000000815260040161099d90613146565b60405180910390fd5b6109ae611d4e565b565b600060c960009054906101000a900473ffffffffffffffffffffffffffffffffffffffff1673ffffffffffffffffffffffffffffffffffffffff168273ffffffffffffffffffffffffffffffffffffffff16149050919050565b60008060019054906101000a900460ff16159050808015610a3b5750600160008054906101000a900460ff1660ff16105b80610a685750610a4a30611db1565b158015610a675750600160008054906101000a900460ff1660ff16145b5b610aa7576040517f08c379a0000000000000000000000000000000000000000000000000000000008152600401610a9e90613273565b60405180910390fd5b60016000806101000a81548160ff021916908360ff1602179055508015610ae4576001600060016101000a81548160ff0219169083151502179055505b610aed83611dd4565b610af5611f1c565b610afe82611f75565b8015610b575760008060016101000a81548160ff0219169083151502179055507f7f26b83ff96e1f2b6a682f133852f6798a09c465da95921460cefb38474024986001604051610b4e91906132e5565b60405180910390a15b505050565b610b64611b8d565b600073ffffffffffffffffffffffffffffffffffffffff168673ffffffffffffffffffffffffffffffffffffffff1603610bd3576040517f08c379a0000000000000000000000000000000000000000000000000000000008152600401610bca90613022565b60405180910390fd5b848411610c15576040517f08c379a0000000000000000000000000000000000000000000000000000000008152600401610c0c9061334c565b60405180910390fd5b600160ca60008873ffffffffffffffffffffffffffffffffffffffff1673ffffffffffffffffffffffffffffffffffffffff16815260200190815260200160002060010160006101000a81548160ff0219169083151502179055508460cd60008873ffffffffffffffffffffffffffffffffffffffff1673ffffffffffffffffffffffffffffffffffffffff168152602001908152602001600020600001819055508360cd60008873ffffffffffffffffffffffffffffffffffffffff1673ffffffffffffffffffffffffffffffffffffffff1681526020019081526020016000206001018190555060cd60008773ffffffffffffffffffffffffffffffffffffffff1673ffffffffffffffffffffffffffffffffffffffff16815260200190815260200160002060ca60008873ffffffffffffffffffffffffffffffffffffffff1673ffffffffffffffffffffffffffffffffffffffff16815260200190815260200160002060040160008201548160000155600182015481600101559050508260ca60008873ffffffffffffffffffffffffffffffffffffffff1673ffffffffffffffffffffffffffffffffffffffff168152602001908152602001600020600201819055508160ca60008873ffffffffffffffffffffffffffffffffffffffff1673ffffffffffffffffffffffffffffffffffffffff168152602001908152602001600020600301819055508060ca60008873ffffffffffffffffffffffffffffffffffffffff1673ffffffffffffffffffffffffffffffffffffffff16815260200190815260200160002060000181905550505050505050565b82600073ffffffffffffffffffffffffffffffffffffffff168173ffffffffffffffffffffffffffffffffffffffff1603610ee3576040517f08c379a0000000000000000000000000000000000000000000000000000000008152600401610eda90613022565b60405180910390fd5b60ca60008273ffffffffffffffffffffffffffffffffffffffff1673ffffffffffffffffffffffffffffffffffffffff16815260200190815260200160002060010160009054906101000a900460ff16610f72576040517f08c379a0000000000000000000000000000000000000000000000000000000008152600401610f69906133b8565b60405180910390fd5b610f7a611b8d565b828211610fbc576040517f08c379a0000000000000000000000000000000000000000000000000000000008152600401610fb39061334c565b60405180910390fd5b8260cd60008673ffffffffffffffffffffffffffffffffffffffff1673ffffffffffffffffffffffffffffffffffffffff168152602001908152602001600020600001819055508160cd60008673ffffffffffffffffffffffffffffffffffffffff1673ffffffffffffffffffffffffffffffffffffffff1681526020019081526020016000206001018190555050505050565b6000603360009054906101000a900473ffffffffffffffffffffffffffffffffffffffff1673ffffffffffffffffffffffffffffffffffffffff168273ffffffffffffffffffffffffffffffffffffffff16149050919050565b60cb6020528060005260406000206000915090505481565b6000609760009054906101000a900460ff16905090565b600060ca60008373ffffffffffffffffffffffffffffffffffffffff1673ffffffffffffffffffffffffffffffffffffffff168152602001908152602001600020600301549050919050565b61112e336109b0565b61116d576040517f08c379a000000000000000000000000000000000000000000000000000000000815260040161116490613146565b60405180910390fd5b611175611c0b565b600073ffffffffffffffffffffffffffffffffffffffff1660c960009054906101000a900473ffffffffffffffffffffffffffffffffffffffff1673ffffffffffffffffffffffffffffffffffffffff167f95bb211a5a393c4d30c3edc9a745825fba4e6ad3e3bb949e6bf8ccdfe431a81160405160405180910390a3600060c960006101000a81548173ffffffffffffffffffffffffffffffffffffffff021916908373ffffffffffffffffffffffffffffffffffffffff160217905550565b61123e611b8d565b6112486000612164565b565b80600073ffffffffffffffffffffffffffffffffffffffff168173ffffffffffffffffffffffffffffffffffffffff16036112ba576040517f08c379a00000000000000000000000000000000000000000000000000000000081526004016112b190613022565b60405180910390fd5b60ca60008273ffffffffffffffffffffffffffffffffffffffff1673ffffffffffffffffffffffffffffffffffffffff16815260200190815260200160002060010160009054906101000a900460ff16611349576040517f08c379a0000000000000000000000000000000000000000000000000000000008152600401611340906133b8565b60405180910390fd5b611351611b8d565b600060ca60008473ffffffffffffffffffffffffffffffffffffffff1673ffffffffffffffffffffffffffffffffffffffff16815260200190815260200160002060010160006101000a81548160ff0219169083151502179055505050565b6113b9336109b0565b6113f8576040517f08c379a00000000000000000000000000000000000000000000000000000000081526004016113ef90613146565b60405180910390fd5b61140061222a565b565b600060ca60008373ffffffffffffffffffffffffffffffffffffffff1673ffffffffffffffffffffffffffffffffffffffff168152602001908152602001600020600201549050919050565b81600073ffffffffffffffffffffffffffffffffffffffff168173ffffffffffffffffffffffffffffffffffffffff16036114be576040517f08c379a00000000000000000000000000000000000000000000000000000000081526004016114b590613022565b60405180910390fd5b60ca60008273ffffffffffffffffffffffffffffffffffffffff1673ffffffffffffffffffffffffffffffffffffffff16815260200190815260200160002060010160009054906101000a900460ff1661154d576040517f08c379a0000000000000000000000000000000000000000000000000000000008152600401611544906133b8565b60405180910390fd5b611555611b8d565b8160ca60008573ffffffffffffffffffffffffffffffffffffffff1673ffffffffffffffffffffffffffffffffffffffff16815260200190815260200160002060000181905550505050565b6000606560009054906101000a900473ffffffffffffffffffffffffffffffffffffffff16905090565b60cd6020528060005260406000206000915090508060000154908060010154905082565b60cc602052816000526040600020602052806000526040600020600091509150508060000154908060010154905082565b611628611b8d565b611630611c0b565b60008203611673576040517f08c379a000000000000000000000000000000000000000000000000000000000815260040161166a90613424565b60405180910390fd5b600081036116b6576040517f08c379a00000000000000000000000000000000000000000000000000000000081526004016116ad90613490565b60405180910390fd5b8082111580156116cb57506402540be4008111155b61170a576040517f08c379a000000000000000000000000000000000000000000000000000000000815260040161170190613522565b60405180910390fd5b8160ca60008573ffffffffffffffffffffffffffffffffffffffff1673ffffffffffffffffffffffffffffffffffffffff168152602001908152602001600020600201819055508060ca60008573ffffffffffffffffffffffffffffffffffffffff1673ffffffffffffffffffffffffffffffffffffffff1681526020019081526020016000206003018190555060ca60008473ffffffffffffffffffffffffffffffffffffffff1673ffffffffffffffffffffffffffffffffffffffff1681526020019081526020016000206003015460ca60008573ffffffffffffffffffffffffffffffffffffffff1673ffffffffffffffffffffffffffffffffffffffff168152602001908152602001600020600201548473ffffffffffffffffffffffffffffffffffffffff167ff98c81ad0a5eb3551c3561de8dc9d1512e8680fb77425ea138ebfe9a9c0065ff60405160405180910390a4505050565b60ca6020528060005260406000206000915090508060000154908060010160009054906101000a900460ff16908060020154908060030154908060040160405180604001604052908160008201548152602001600182015481525050905085565b6118cf612704565b60cc600084815260200190815260200160002060008373ffffffffffffffffffffffffffffffffffffffff1673ffffffffffffffffffffffffffffffffffffffff16815260200190815260200160002060405180604001604052908160008201548152602001600182015481525050905092915050565b61194e611b8d565b6119578161228d565b50565b611962611b8d565b600073ffffffffffffffffffffffffffffffffffffffff168173ffffffffffffffffffffffffffffffffffffffff16036119d1576040517f08c379a00000000000000000000000000000000000000000000000000000000081526004016119c8906135b4565b60405180910390fd5b6119da81612164565b50565b6119e561271e565b60006040518060a0016040528060ca60008673ffffffffffffffffffffffffffffffffffffffff1673ffffffffffffffffffffffffffffffffffffffff16815260200190815260200160002060000154815260200160ca60008673ffffffffffffffffffffffffffffffffffffffff1673ffffffffffffffffffffffffffffffffffffffff16815260200190815260200160002060010160009054906101000a900460ff161515815260200160ca60008673ffffffffffffffffffffffffffffffffffffffff1673ffffffffffffffffffffffffffffffffffffffff16815260200190815260200160002060020154815260200160ca60008673ffffffffffffffffffffffffffffffffffffffff1673ffffffffffffffffffffffffffffffffffffffff16815260200190815260200160002060030154815260200160cd60008673ffffffffffffffffffffffffffffffffffffffff1673ffffffffffffffffffffffffffffffffffffffff16815260200190815260200160002060405180604001604052908160008201548152602001600182015481525050815250905080915050919050565b611b95612383565b73ffffffffffffffffffffffffffffffffffffffff16611bb36115a1565b73ffffffffffffffffffffffffffffffffffffffff1614611c09576040517f08c379a0000000000000000000000000000000000000000000000000000000008152600401611c0090613620565b60405180910390fd5b565b611c136110c2565b15611c53576040517f08c379a0000000000000000000000000000000000000000000000000000000008152600401611c4a9061368c565b60405180910390fd5b565b600073ffffffffffffffffffffffffffffffffffffffff168173ffffffffffffffffffffffffffffffffffffffff1603611c8e57600080fd5b8073ffffffffffffffffffffffffffffffffffffffff1660c960009054906101000a900473ffffffffffffffffffffffffffffffffffffffff1673ffffffffffffffffffffffffffffffffffffffff167f95bb211a5a393c4d30c3edc9a745825fba4e6ad3e3bb949e6bf8ccdfe431a81160405160405180910390a38060c960006101000a81548173ffffffffffffffffffffffffffffffffffffffff021916908373ffffffffffffffffffffffffffffffffffffffff16021790555050565b611d56612392565b6000609760006101000a81548160ff0219169083151502179055507f5db9ee0a495bf2e6ff9c91a7834c1ba4fdd244a5e8aa4e537bd38aeae4b073aa611d9a612383565b604051611da79190612e2d565b60405180910390a1565b6000808273ffffffffffffffffffffffffffffffffffffffff163b119050919050565b60008060019054906101000a900460ff16159050808015611e055750600160008054906101000a900460ff1660ff16105b80611e325750611e1430611db1565b158015611e315750600160008054906101000a900460ff1660ff16145b5b611e71576040517f08c379a0000000000000000000000000000000000000000000000000000000008152600401611e6890613273565b60405180910390fd5b60016000806101000a81548160ff021916908360ff1602179055508015611eae576001600060016101000a81548160ff0219169083151502179055505b611eb66123db565b611ebf8261242c565b8015611f185760008060016101000a81548160ff0219169083151502179055507f7f26b83ff96e1f2b6a682f133852f6798a09c465da95921460cefb38474024986001604051611f0f91906132e5565b60405180910390a15b5050565b600060019054906101000a900460ff16611f6b576040517f08c379a0000000000000000000000000000000000000000000000000000000008152600401611f629061371e565b60405180910390fd5b611f736125a4565b565b60008060019054906101000a900460ff16159050808015611fa65750600160008054906101000a900460ff1660ff16105b80611fd35750611fb530611db1565b158015611fd25750600160008054906101000a900460ff1660ff16145b5b612012576040517f08c379a000000000000000000000000000000000000000000000000000000000815260040161200990613273565b60405180910390fd5b60016000806101000a81548160ff021916908360ff160217905550801561204f576001600060016101000a81548160ff0219169083151502179055505b600073ffffffffffffffffffffffffffffffffffffffff168273ffffffffffffffffffffffffffffffffffffffff16036120be576040517f08c379a00000000000000000000000000000000000000000000000000000000081526004016120b59061378a565b60405180910390fd5b6120c6612605565b8160c960006101000a81548173ffffffffffffffffffffffffffffffffffffffff021916908373ffffffffffffffffffffffffffffffffffffffff16021790555080156121605760008060016101000a81548160ff0219169083151502179055507f7f26b83ff96e1f2b6a682f133852f6798a09c465da95921460cefb3847402498600160405161215791906132e5565b60405180910390a15b5050565b6000606560009054906101000a900473ffffffffffffffffffffffffffffffffffffffff16905081606560006101000a81548173ffffffffffffffffffffffffffffffffffffffff021916908373ffffffffffffffffffffffffffffffffffffffff1602179055508173ffffffffffffffffffffffffffffffffffffffff168173ffffffffffffffffffffffffffffffffffffffff167f8be0079c531659141344cd1fd0a4f28419497f9722a3daafe3b4186f6b6457e060405160405180910390a35050565b612232611c0b565b6001609760006101000a81548160ff0219169083151502179055507f62e78cea01bee320cd4e420270b5ea74000d11b0c9f74754ebdbfc544b05a258612276612383565b6040516122839190612e2d565b60405180910390a1565b600073ffffffffffffffffffffffffffffffffffffffff168173ffffffffffffffffffffffffffffffffffffffff16036122fc576040517f08c379a00000000000000000000000000000000000000000000000000000000081526004016122f3906137f6565b60405180910390fd5b80603360006101000a81548173ffffffffffffffffffffffffffffffffffffffff021916908373ffffffffffffffffffffffffffffffffffffffff1602179055508073ffffffffffffffffffffffffffffffffffffffff167f871264f4293af7d2865ae7eae628b228f4991c57cb45b39c99f0b774ebe2901860405160405180910390a250565b600061238d61265e565b905090565b61239a6110c2565b6123d9576040517f08c379a00000000000000000000000000000000000000000000000000000000081526004016123d090613862565b60405180910390fd5b565b600060019054906101000a900460ff1661242a576040517f08c379a00000000000000000000000000000000000000000000000000000000081526004016124219061371e565b60405180910390fd5b565b60008060019054906101000a900460ff1615905080801561245d5750600160008054906101000a900460ff1660ff16105b8061248a575061246c30611db1565b1580156124895750600160008054906101000a900460ff1660ff16145b5b6124c9576040517f08c379a00000000000000000000000000000000000000000000000000000000081526004016124c090613273565b60405180910390fd5b60016000806101000a81548160ff021916908360ff1602179055508015612506576001600060016101000a81548160ff0219169083151502179055505b81603360006101000a81548173ffffffffffffffffffffffffffffffffffffffff021916908373ffffffffffffffffffffffffffffffffffffffff16021790555080156125a05760008060016101000a81548160ff0219169083151502179055507f7f26b83ff96e1f2b6a682f133852f6798a09c465da95921460cefb3847402498600160405161259791906132e5565b60405180910390a15b5050565b600060019054906101000a900460ff166125f3576040517f08c379a00000000000000000000000000000000000000000000000000000000081526004016125ea9061371e565b60405180910390fd5b6126036125fe612383565b612164565b565b600060019054906101000a900460ff16612654576040517f08c379a000000000000000000000000000000000000000000000000000000000815260040161264b9061371e565b60405180910390fd5b61265c612690565b565b600061266933611050565b1561267d57601436033560601c905061268c565b6126856126fc565b905061268d565b5b90565b600060019054906101000a900460ff166126df576040517f08c379a00000000000000000000000000000000000000000000000000000000081526004016126d69061371e565b60405180910390fd5b6000609760006101000a81548160ff021916908315150217905550565b600033905090565b604051806040016040528060008152602001600081525090565b6040518060a0016040528060008152602001600015158152602001600081526020016000815260200161274f612704565b81525090565b6000604051905090565b600080fd5b600080fd5b600073ffffffffffffffffffffffffffffffffffffffff82169050919050565b600061279482612769565b9050919050565b6127a481612789565b81146127af57600080fd5b50565b6000813590506127c18161279b565b92915050565b6000602082840312156127dd576127dc61275f565b5b60006127eb848285016127b2565b91505092915050565b6000819050919050565b612807816127f4565b82525050565b60408201600082015161282360008501826127fe565b50602082015161283660208501826127fe565b50505050565b6000604082019050612851600083018461280d565b92915050565b612860816127f4565b811461286b57600080fd5b50565b60008135905061287d81612857565b92915050565b6000806040838503121561289a5761289961275f565b5b60006128a8858286016127b2565b92505060206128b98582860161286e565b9150509250929050565b600080fd5b6000601f19601f8301169050919050565b7f4e487b7100000000000000000000000000000000000000000000000000000000600052604160045260246000fd5b612911826128c8565b810181811067ffffffffffffffff821117156129305761292f6128d9565b5b80604052505050565b6000612943612755565b905061294f8282612908565b919050565b600067ffffffffffffffff82111561296f5761296e6128d9565b5b602082029050602081019050919050565b600080fd5b600061299861299384612954565b612939565b905080838252602082019050602084028301858111156129bb576129ba612980565b5b835b818110156129e457806129d0888261286e565b8452602084019350506020810190506129bd565b5050509392505050565b600082601f830112612a0357612a026128c3565b5b8135612a13848260208601612985565b91505092915050565b600067ffffffffffffffff821115612a3757612a366128d9565b5b602082029050602081019050919050565b6000612a5b612a5684612a1c565b612939565b90508083825260208201905060208402830185811115612a7e57612a7d612980565b5b835b81811015612aa75780612a9388826127b2565b845260208401935050602081019050612a80565b5050509392505050565b600082601f830112612ac657612ac56128c3565b5b8135612ad6848260208601612a48565b91505092915050565b600067ffffffffffffffff821115612afa57612af96128d9565b5b602082029050602081019050919050565b600080fd5b600060408284031215612b2657612b25612b0b565b5b612b306040612939565b90506000612b408482850161286e565b6000830152506020612b548482850161286e565b60208301525092915050565b6000612b73612b6e84612adf565b612939565b90508083825260208201905060408402830185811115612b9657612b95612980565b5b835b81811015612bbf5780612bab8882612b10565b845260208401935050604081019050612b98565b5050509392505050565b600082601f830112612bde57612bdd6128c3565b5b8135612bee848260208601612b60565b91505092915050565b600080600060608486031215612c1057612c0f61275f565b5b600084013567ffffffffffffffff811115612c2e57612c2d612764565b5b612c3a868287016129ee565b935050602084013567ffffffffffffffff811115612c5b57612c5a612764565b5b612c6786828701612ab1565b925050604084013567ffffffffffffffff811115612c8857612c87612764565b5b612c9486828701612bc9565b9150509250925092565b60008115159050919050565b612cb381612c9e565b82525050565b6000602082019050612cce6000830184612caa565b92915050565b60008060408385031215612ceb57612cea61275f565b5b6000612cf9858286016127b2565b9250506020612d0a858286016127b2565b9150509250929050565b60008060008060008060c08789031215612d3157612d3061275f565b5b6000612d3f89828a016127b2565b9650506020612d5089828a0161286e565b9550506040612d6189828a0161286e565b9450506060612d7289828a0161286e565b9350506080612d8389828a0161286e565b92505060a0612d9489828a0161286e565b9150509295509295509295565b600080600060608486031215612dba57612db961275f565b5b6000612dc8868287016127b2565b9350506020612dd98682870161286e565b9250506040612dea8682870161286e565b9150509250925092565b612dfd816127f4565b82525050565b6000602082019050612e186000830184612df4565b92915050565b612e2781612789565b82525050565b6000602082019050612e426000830184612e1e565b92915050565b6000604082019050612e5d6000830185612df4565b612e6a6020830184612df4565b9392505050565b60008060408385031215612e8857612e8761275f565b5b6000612e968582860161286e565b9250506020612ea7858286016127b2565b9150509250929050565b600060c082019050612ec66000830188612df4565b612ed36020830187612caa565b612ee06040830186612df4565b612eed6060830185612df4565b612efa608083018461280d565b9695505050505050565b612f0d81612c9e565b82525050565b604082016000820151612f2960008501826127fe565b506020820151612f3c60208501826127fe565b50505050565b60c082016000820151612f5860008501826127fe565b506020820151612f6b6020850182612f04565b506040820151612f7e60408501826127fe565b506060820151612f9160608501826127fe565b506080820151612fa46080850182612f13565b50505050565b600060c082019050612fbf6000830184612f42565b92915050565b600082825260208201905092915050565b7f546f6b656e20616464726573732063616e6e6f74206265203000000000000000600082015250565b600061300c601983612fc5565b915061301782612fd6565b602082019050919050565b6000602082019050818103600083015261303b81612fff565b9050919050565b7f457863657373205374617465204665652050657263656e746167652063616e6e60008201527f6f74206265203000000000000000000000000000000000000000000000000000602082015250565b600061309e602783612fc5565b91506130a982613042565b604082019050919050565b600060208201905081810360008301526130cd81613091565b9050919050565b7f4f6e6c792070617573657220697320616c6c6f77656420746f20706572666f7260008201527f6d2074686973206f7065726174696f6e00000000000000000000000000000000602082015250565b6000613130603083612fc5565b915061313b826130d4565b604082019050919050565b6000602082019050818103600083015261315f81613123565b9050919050565b7f204552525f41525241595f4c454e4754485f4d49534d41544348000000000000600082015250565b600061319c601a83612fc5565b91506131a782613166565b602082019050919050565b600060208201905081810360008301526131cb8161318f565b9050919050565b7f4e487b7100000000000000000000000000000000000000000000000000000000600052603260045260246000fd5b7f496e697469616c697a61626c653a20636f6e747261637420697320616c72656160008201527f647920696e697469616c697a6564000000000000000000000000000000000000602082015250565b600061325d602e83612fc5565b915061326882613201565b604082019050919050565b6000602082019050818103600083015261328c81613250565b9050919050565b6000819050919050565b600060ff82169050919050565b6000819050919050565b60006132cf6132ca6132c584613293565b6132aa565b61329d565b9050919050565b6132df816132b4565b82525050565b60006020820190506132fa60008301846132d6565b92915050565b7f6d61784361704c696d6974203e206d696e4361704c696d697400000000000000600082015250565b6000613336601983612fc5565b915061334182613300565b602082019050919050565b6000602082019050818103600083015261336581613329565b9050919050565b7f546f6b656e206e6f7420737570706f7274656400000000000000000000000000600082015250565b60006133a2601383612fc5565b91506133ad8261336c565b602082019050919050565b600060208201905081810360008301526133d181613395565b9050919050565b7f457175696c69627269756d204665652063616e6e6f7420626520300000000000600082015250565b600061340e601b83612fc5565b9150613419826133d8565b602082019050919050565b6000602082019050818103600083015261343d81613401565b9050919050565b7f4d6178204665652063616e6e6f74206265203000000000000000000000000000600082015250565b600061347a601383612fc5565b915061348582613444565b602082019050919050565b600060208201905081810360008301526134a98161346d565b9050919050565b7f4d6178204665652063616e6e6f742062652067726561746572207468616e203160008201527f3030250000000000000000000000000000000000000000000000000000000000602082015250565b600061350c602383612fc5565b9150613517826134b0565b604082019050919050565b6000602082019050818103600083015261353b816134ff565b9050919050565b7f4f776e61626c653a206e6577206f776e657220697320746865207a65726f206160008201527f6464726573730000000000000000000000000000000000000000000000000000602082015250565b600061359e602683612fc5565b91506135a982613542565b604082019050919050565b600060208201905081810360008301526135cd81613591565b9050919050565b7f4f776e61626c653a2063616c6c6572206973206e6f7420746865206f776e6572600082015250565b600061360a602083612fc5565b9150613615826135d4565b602082019050919050565b60006020820190508181036000830152613639816135fd565b9050919050565b7f5061757361626c653a2070617573656400000000000000000000000000000000600082015250565b6000613676601083612fc5565b915061368182613640565b602082019050919050565b600060208201905081810360008301526136a581613669565b9050919050565b7f496e697469616c697a61626c653a20636f6e7472616374206973206e6f74206960008201527f6e697469616c697a696e67000000000000000000000000000000000000000000602082015250565b6000613708602b83612fc5565b9150613713826136ac565b604082019050919050565b60006020820190508181036000830152613737816136fb565b9050919050565b7f50617573657220416464726573732063616e6e6f742062652030000000000000600082015250565b6000613774601a83612fc5565b915061377f8261373e565b602082019050919050565b600060208201905081810360008301526137a381613767565b9050919050565b7f54727573746564466f727761726465722063616e277420626520300000000000600082015250565b60006137e0601b83612fc5565b91506137eb826137aa565b602082019050919050565b6000602082019050818103600083015261380f816137d3565b9050919050565b7f5061757361626c653a206e6f7420706175736564000000000000000000000000600082015250565b600061384c601483612fc5565b915061385782613816565b602082019050919050565b6000602082019050818103600083015261387b8161383f565b905091905056fea26469706673582212201443131ce1b1981e7bb028d5b45f337f2b687ee05433a1185d93fe36a8d20f2e64736f6c634300080f0033",
  "immutableReferences": {},
  "source": "// $$$$$$$$\\        $$\\                                 $$\\      $$\\\n// \\__$$  __|       $$ |                                $$$\\    $$$ |\n//    $$ | $$$$$$\\  $$ |  $$\\  $$$$$$\\  $$$$$$$\\        $$$$\\  $$$$ | $$$$$$\\  $$$$$$$\\   $$$$$$\\   $$$$$$\\   $$$$$$\\   $$$$$$\\\n//    $$ |$$  __$$\\ $$ | $$  |$$  __$$\\ $$  __$$\\       $$\\$$\\$$ $$ | \\____$$\\ $$  __$$\\  \\____$$\\ $$  __$$\\ $$  __$$\\ $$  __$$\\\n//    $$ |$$ /  $$ |$$$$$$  / $$$$$$$$ |$$ |  $$ |      $$ \\$$$  $$ | $$$$$$$ |$$ |  $$ | $$$$$$$ |$$ /  $$ |$$$$$$$$ |$$ |  \\__|\n//    $$ |$$ |  $$ |$$  _$$<  $$   ____|$$ |  $$ |      $$ |\\$  /$$ |$$  __$$ |$$ |  $$ |$$  __$$ |$$ |  $$ |$$   ____|$$ |\n//    $$ |\\$$$$$$  |$$ | \\$$\\ \\$$$$$$$\\ $$ |  $$ |      $$ | \\_/ $$ |\\$$$$$$$ |$$ |  $$ |\\$$$$$$$ |\\$$$$$$$ |\\$$$$$$$\\ $$ |\n//    \\__| \\______/ \\__|  \\__| \\_______|\\__|  \\__|      \\__|     \\__| \\_______|\\__|  \\__| \\_______| \\____$$ | \\_______|\\__|\n//                                                                                                 $$\\   $$ |\n//                                                                                                 \\$$$$$$  |\n//                                                                                                  \\______/\n// SPDX-License-Identifier: MIT\n\npragma solidity ^0.8.0;\n\nimport \"@openzeppelin/contracts-upgradeable/access/OwnableUpgradeable.sol\";\nimport \"../../security/Pausable.sol\";\nimport \"../metatx/ERC2771ContextUpgradeable.sol\";\nimport \"../interfaces/ITokenManager.sol\";\n\ncontract TokenManager is ITokenManager, ERC2771ContextUpgradeable, OwnableUpgradeable, Pausable {\n    mapping(address => TokenInfo) public override tokensInfo;\n\n    // Excess State Transfer Fee Percentage\n    mapping(address => uint256) public override excessStateTransferFeePerc;\n\n    event FeeChanged(address indexed tokenAddress, uint256 indexed equilibriumFee, uint256 indexed maxFee);\n    event ExcessStateTransferFeePercChanged(address indexed tokenAddress, uint256 indexed fee);\n\n    modifier tokenChecks(address tokenAddress) {\n        require(tokenAddress != address(0), \"Token address cannot be 0\");\n        require(tokensInfo[tokenAddress].supportedToken, \"Token not supported\");\n\n        _;\n    }\n\n    /**\n     * First key is toChainId and second key is token address being deposited on current chain\n     */\n    mapping(uint256 => mapping(address => TokenConfig)) public depositConfig;\n\n    /**\n     * Store min/max amount of token to transfer based on token address\n     */\n    mapping(address => TokenConfig) public transferConfig;\n\n    function initialize(address trustedForwarder, address pauser) external initializer {\n        __ERC2771Context_init(trustedForwarder);\n        __Ownable_init();\n        __Pausable_init(pauser);\n    }\n\n    function getEquilibriumFee(address tokenAddress) public view override returns (uint256) {\n        return tokensInfo[tokenAddress].equilibriumFee;\n    }\n\n    function getMaxFee(address tokenAddress) public view override returns (uint256) {\n        return tokensInfo[tokenAddress].maxFee;\n    }\n\n    function changeFee(\n        address tokenAddress,\n        uint256 _equilibriumFee,\n        uint256 _maxFee\n    ) external override onlyOwner whenNotPaused {\n        require(_equilibriumFee != 0, \"Equilibrium Fee cannot be 0\");\n        require(_maxFee != 0, \"Max Fee cannot be 0\");\n        require(_equilibriumFee <= _maxFee && _maxFee <= 10000000000, \"Max Fee cannot be greater than 100%\");\n        tokensInfo[tokenAddress].equilibriumFee = _equilibriumFee;\n        tokensInfo[tokenAddress].maxFee = _maxFee;\n        emit FeeChanged(tokenAddress, tokensInfo[tokenAddress].equilibriumFee, tokensInfo[tokenAddress].maxFee);\n    }\n\n    function changeExcessStateFee(address _tokenAddress, uint256 _excessStateFeePer)\n        external\n        override\n        onlyOwner\n        whenNotPaused\n    {\n        require(_tokenAddress != address(0), \"Token address cannot be 0\");\n        require(_excessStateFeePer != 0, \"Excess State Fee Percentage cannot be 0\");\n        excessStateTransferFeePerc[_tokenAddress] = _excessStateFeePer;\n        emit ExcessStateTransferFeePercChanged(_tokenAddress, _excessStateFeePer);\n    }\n\n    function setTokenTransferOverhead(address tokenAddress, uint256 gasOverhead)\n        external\n        tokenChecks(tokenAddress)\n        onlyOwner\n    {\n        tokensInfo[tokenAddress].transferOverhead = gasOverhead;\n    }\n\n    /**\n     * Set DepositConfig for the given combination of toChainId, tokenAddress.\n     * This is used while depositing token in Liquidity Pool. Based on the destination chainid\n     * min and max deposit amount is checked.\n     */\n    function setDepositConfig(\n        uint256[] memory toChainId,\n        address[] memory tokenAddresses,\n        TokenConfig[] memory tokenConfig\n    ) external onlyOwner {\n        require(\n            (toChainId.length == tokenAddresses.length) && (tokenAddresses.length == tokenConfig.length),\n            \" ERR_ARRAY_LENGTH_MISMATCH\"\n        );\n        uint256 length = tokenConfig.length;\n        for (uint256 index; index < length; ) {\n            depositConfig[toChainId[index]][tokenAddresses[index]].min = tokenConfig[index].min;\n            depositConfig[toChainId[index]][tokenAddresses[index]].max = tokenConfig[index].max;\n            unchecked {\n                ++index;\n            }\n        }\n    }\n\n    function addSupportedToken(\n        address tokenAddress,\n        uint256 minCapLimit,\n        uint256 maxCapLimit,\n        uint256 equilibriumFee,\n        uint256 maxFee,\n        uint256 transferOverhead\n    ) external onlyOwner {\n        require(tokenAddress != address(0), \"Token address cannot be 0\");\n        require(maxCapLimit > minCapLimit, \"maxCapLimit > minCapLimit\");\n        tokensInfo[tokenAddress].supportedToken = true;\n        transferConfig[tokenAddress].min = minCapLimit;\n        transferConfig[tokenAddress].max = maxCapLimit;\n        tokensInfo[tokenAddress].tokenConfig = transferConfig[tokenAddress];\n        tokensInfo[tokenAddress].equilibriumFee = equilibriumFee;\n        tokensInfo[tokenAddress].maxFee = maxFee;\n        tokensInfo[tokenAddress].transferOverhead = transferOverhead;\n    }\n\n    function removeSupportedToken(address tokenAddress) external tokenChecks(tokenAddress) onlyOwner {\n        tokensInfo[tokenAddress].supportedToken = false;\n    }\n\n    function updateTokenCap(\n        address tokenAddress,\n        uint256 minCapLimit,\n        uint256 maxCapLimit\n    ) external tokenChecks(tokenAddress) onlyOwner {\n        require(maxCapLimit > minCapLimit, \"maxCapLimit > minCapLimit\");\n        transferConfig[tokenAddress].min = minCapLimit;\n        transferConfig[tokenAddress].max = maxCapLimit;\n    }\n\n    function getTokensInfo(address tokenAddress) public view override returns (TokenInfo memory) {\n        TokenInfo memory tokenInfo = TokenInfo(\n            tokensInfo[tokenAddress].transferOverhead,\n            tokensInfo[tokenAddress].supportedToken,\n            tokensInfo[tokenAddress].equilibriumFee,\n            tokensInfo[tokenAddress].maxFee,\n            transferConfig[tokenAddress]\n        );\n        return tokenInfo;\n    }\n\n    function getDepositConfig(uint256 toChainId, address tokenAddress)\n        public\n        view\n        override\n        returns (TokenConfig memory)\n    {\n        return depositConfig[toChainId][tokenAddress];\n    }\n\n    function getTransferConfig(address tokenAddress) public view override returns (TokenConfig memory) {\n        return transferConfig[tokenAddress];\n    }\n\n    function _msgSender()\n        internal\n        view\n        virtual\n        override(ContextUpgradeable, ERC2771ContextUpgradeable)\n        returns (address sender)\n    {\n        return ERC2771ContextUpgradeable._msgSender();\n    }\n\n    function _msgData()\n        internal\n        view\n        virtual\n        override(ContextUpgradeable, ERC2771ContextUpgradeable)\n        returns (bytes calldata)\n    {\n        return ERC2771ContextUpgradeable._msgData();\n    }\n\n    function setTrustedForwarder(address _tf) external onlyOwner {\n        _setTrustedForwarder(_tf);\n    }\n}\n",
  "sourcePath": "/Users/nikhitakale/QA-Hyphen-V2/scribble-fuzzing/contracts/hyphen/token/TokenManager.sol",
  "compiler": {
    "name": "solc",
    "version": "0.8.15+commit.e14f2714.Emscripten.clang"
  },
  "schemaVersion": "3.4.7",
  "updatedAt": "2022-07-03T18:30:45.695Z",
  "devdoc": {
    "kind": "dev",
    "methods": {
      "changePauser(address)": {
        "details": "Allows the current pauser to transfer control of the contract to a newPauser.",
        "params": {
          "newPauser": "The address to transfer pauserShip to."
        }
      },
      "isPauser(address)": {
        "returns": {
          "_0": "true if `msg.sender` is the owner of the contract."
        }
      },
      "owner()": {
        "details": "Returns the address of the current owner."
      },
      "paused()": {
        "details": "Returns true if the contract is paused, and false otherwise."
      },
      "renounceOwnership()": {
        "details": "Leaves the contract without owner. It will not be possible to call `onlyOwner` functions anymore. Can only be called by the current owner. NOTE: Renouncing ownership will leave the contract without an owner, thereby removing any functionality that is only available to the owner."
      },
      "transferOwnership(address)": {
        "details": "Transfers ownership of the contract to a new account (`newOwner`). Can only be called by the current owner."
      }
    },
    "version": 1
  },
  "userdoc": {
    "kind": "user",
    "methods": {
      "depositConfig(uint256,address)": {
        "notice": "First key is toChainId and second key is token address being deposited on current chain"
      },
      "setDepositConfig(uint256[],address[],(uint256,uint256)[])": {
        "notice": "Set DepositConfig for the given combination of toChainId, tokenAddress. This is used while depositing token in Liquidity Pool. Based on the destination chainid min and max deposit amount is checked."
      },
      "transferConfig(address)": {
        "notice": "Store min/max amount of token to transfer based on token address"
      }
    },
    "version": 1
  },
  "db": {
    "callBytecode": {
      "id": "0x7638518c3806e0c4a6e484865d23529ce9e85c1de9fde117289ebf1c1ae5c088"
    },
    "createBytecode": {
      "id": "0xbe92df701278cd677e840801a2e6b09838826b28c22b0d2ee6a5bffd1682a6d1"
    },
    "contract": {
      "id": "0x3e1ceccfea1dbb53541c84d76830101adc39116d949b2c97469affe73033ac48"
    }
  }
}