{
  "contractName": "WhitelistPeriodManager",
  "abi": [
    {
      "anonymous": false,
      "inputs": [
        {
          "indexed": true,
          "internalType": "address",
          "name": "lp",
          "type": "address"
        },
        {
          "indexed": true,
          "internalType": "bool",
          "name": "status",
          "type": "bool"
        }
      ],
      "name": "ExcludedAddressStatusUpdated",
      "type": "event"
    },
    {
      "anonymous": false,
      "inputs": [
        {
          "indexed": false,
          "internalType": "uint8",
          "name": "version",
          "type": "uint8"
        }
      ],
      "name": "Initialized",
      "type": "event"
    },
    {
      "anonymous": false,
      "inputs": [
        {
          "indexed": true,
          "internalType": "address",
          "name": "previousOwner",
          "type": "address"
        },
        {
          "indexed": true,
          "internalType": "address",
          "name": "newOwner",
          "type": "address"
        }
      ],
      "name": "OwnershipTransferred",
      "type": "event"
    },
    {
      "anonymous": false,
      "inputs": [
        {
          "indexed": false,
          "internalType": "address",
          "name": "account",
          "type": "address"
        }
      ],
      "name": "Paused",
      "type": "event"
    },
    {
      "anonymous": false,
      "inputs": [
        {
          "indexed": true,
          "internalType": "address",
          "name": "previousPauser",
          "type": "address"
        },
        {
          "indexed": true,
          "internalType": "address",
          "name": "newPauser",
          "type": "address"
        }
      ],
      "name": "PauserChanged",
      "type": "event"
    },
    {
      "anonymous": false,
      "inputs": [
        {
          "indexed": true,
          "internalType": "address",
          "name": "token",
          "type": "address"
        },
        {
          "indexed": false,
          "internalType": "uint256",
          "name": "perCommunityWalletCap",
          "type": "uint256"
        }
      ],
      "name": "PerTokenWalletCap",
      "type": "event"
    },
    {
      "anonymous": false,
      "inputs": [
        {
          "indexed": true,
          "internalType": "address",
          "name": "token",
          "type": "address"
        },
        {
          "indexed": false,
          "internalType": "uint256",
          "name": "totalCap",
          "type": "uint256"
        }
      ],
      "name": "TotalCapUpdated",
      "type": "event"
    },
    {
      "anonymous": false,
      "inputs": [
        {
          "indexed": true,
          "internalType": "address",
          "name": "_tf",
          "type": "address"
        }
      ],
      "name": "TrustedForwarderChanged",
      "type": "event"
    },
    {
      "anonymous": false,
      "inputs": [
        {
          "indexed": false,
          "internalType": "address",
          "name": "account",
          "type": "address"
        }
      ],
      "name": "Unpaused",
      "type": "event"
    },
    {
      "anonymous": false,
      "inputs": [
        {
          "indexed": false,
          "internalType": "bool",
          "name": "status",
          "type": "bool"
        }
      ],
      "name": "WhiteListStatusUpdated",
      "type": "event"
    },
    {
      "inputs": [],
      "name": "areWhiteListRestrictionsEnabled",
      "outputs": [
        {
          "internalType": "bool",
          "name": "",
          "type": "bool"
        }
      ],
      "stateMutability": "view",
      "type": "function"
    },
    {
      "inputs": [
        {
          "internalType": "address",
          "name": "newPauser",
          "type": "address"
        }
      ],
      "name": "changePauser",
      "outputs": [],
      "stateMutability": "nonpayable",
      "type": "function"
    },
    {
      "inputs": [
        {
          "internalType": "address",
          "name": "",
          "type": "address"
        }
      ],
      "name": "isExcludedAddress",
      "outputs": [
        {
          "internalType": "bool",
          "name": "",
          "type": "bool"
        }
      ],
      "stateMutability": "view",
      "type": "function"
    },
    {
      "inputs": [
        {
          "internalType": "address",
          "name": "pauser",
          "type": "address"
        }
      ],
      "name": "isPauser",
      "outputs": [
        {
          "internalType": "bool",
          "name": "",
          "type": "bool"
        }
      ],
      "stateMutability": "view",
      "type": "function"
    },
    {
      "inputs": [
        {
          "internalType": "address",
          "name": "forwarder",
          "type": "address"
        }
      ],
      "name": "isTrustedForwarder",
      "outputs": [
        {
          "internalType": "bool",
          "name": "",
          "type": "bool"
        }
      ],
      "stateMutability": "view",
      "type": "function"
    },
    {
      "inputs": [],
      "name": "owner",
      "outputs": [
        {
          "internalType": "address",
          "name": "",
          "type": "address"
        }
      ],
      "stateMutability": "view",
      "type": "function"
    },
    {
      "inputs": [],
      "name": "pause",
      "outputs": [],
      "stateMutability": "nonpayable",
      "type": "function"
    },
    {
      "inputs": [],
      "name": "paused",
      "outputs": [
        {
          "internalType": "bool",
          "name": "",
          "type": "bool"
        }
      ],
      "stateMutability": "view",
      "type": "function"
    },
    {
      "inputs": [
        {
          "internalType": "address",
          "name": "",
          "type": "address"
        }
      ],
      "name": "perTokenTotalCap",
      "outputs": [
        {
          "internalType": "uint256",
          "name": "",
          "type": "uint256"
        }
      ],
      "stateMutability": "view",
      "type": "function"
    },
    {
      "inputs": [
        {
          "internalType": "address",
          "name": "",
          "type": "address"
        }
      ],
      "name": "perTokenWalletCap",
      "outputs": [
        {
          "internalType": "uint256",
          "name": "",
          "type": "uint256"
        }
      ],
      "stateMutability": "view",
      "type": "function"
    },
    {
      "inputs": [],
      "name": "renounceOwnership",
      "outputs": [],
      "stateMutability": "nonpayable",
      "type": "function"
    },
    {
      "inputs": [],
      "name": "renouncePauser",
      "outputs": [],
      "stateMutability": "nonpayable",
      "type": "function"
    },
    {
      "inputs": [
        {
          "internalType": "address",
          "name": "",
          "type": "address"
        },
        {
          "internalType": "address",
          "name": "",
          "type": "address"
        }
      ],
      "name": "totalLiquidityByLp",
      "outputs": [
        {
          "internalType": "uint256",
          "name": "",
          "type": "uint256"
        }
      ],
      "stateMutability": "view",
      "type": "function"
    },
    {
      "inputs": [
        {
          "internalType": "address",
          "name": "newOwner",
          "type": "address"
        }
      ],
      "name": "transferOwnership",
      "outputs": [],
      "stateMutability": "nonpayable",
      "type": "function"
    },
    {
      "inputs": [],
      "name": "unpause",
      "outputs": [],
      "stateMutability": "nonpayable",
      "type": "function"
    },
    {
      "inputs": [
        {
          "internalType": "address",
          "name": "_trustedForwarder",
          "type": "address"
        },
        {
          "internalType": "address",
          "name": "_liquidityProviders",
          "type": "address"
        },
        {
          "internalType": "address",
          "name": "_tokenManager",
          "type": "address"
        },
        {
          "internalType": "address",
          "name": "_lpToken",
          "type": "address"
        },
        {
          "internalType": "address",
          "name": "_pauser",
          "type": "address"
        }
      ],
      "name": "initialize",
      "outputs": [],
      "stateMutability": "nonpayable",
      "type": "function"
    },
    {
      "inputs": [
        {
          "internalType": "address",
          "name": "_lp",
          "type": "address"
        },
        {
          "internalType": "address",
          "name": "_token",
          "type": "address"
        },
        {
          "internalType": "uint256",
          "name": "_amount",
          "type": "uint256"
        }
      ],
      "name": "beforeLiquidityAddition",
      "outputs": [],
      "stateMutability": "nonpayable",
      "type": "function"
    },
    {
      "inputs": [
        {
          "internalType": "address",
          "name": "_lp",
          "type": "address"
        },
        {
          "internalType": "address",
          "name": "_token",
          "type": "address"
        },
        {
          "internalType": "uint256",
          "name": "_amount",
          "type": "uint256"
        }
      ],
      "name": "beforeLiquidityRemoval",
      "outputs": [],
      "stateMutability": "view",
      "type": "function"
    },
    {
      "inputs": [
        {
          "internalType": "address",
          "name": "",
          "type": "address"
        },
        {
          "internalType": "address",
          "name": "",
          "type": "address"
        },
        {
          "internalType": "address",
          "name": "",
          "type": "address"
        },
        {
          "internalType": "uint256",
          "name": "",
          "type": "uint256"
        }
      ],
      "name": "beforeLiquidityTransfer",
      "outputs": [],
      "stateMutability": "view",
      "type": "function"
    },
    {
      "inputs": [
        {
          "internalType": "address",
          "name": "_tokenManager",
          "type": "address"
        }
      ],
      "name": "setTokenManager",
      "outputs": [],
      "stateMutability": "nonpayable",
      "type": "function"
    },
    {
      "inputs": [
        {
          "internalType": "address",
          "name": "_liquidityProviders",
          "type": "address"
        }
      ],
      "name": "setLiquidityProviders",
      "outputs": [],
      "stateMutability": "nonpayable",
      "type": "function"
    },
    {
      "inputs": [
        {
          "internalType": "address",
          "name": "_lpToken",
          "type": "address"
        }
      ],
      "name": "setLpToken",
      "outputs": [],
      "stateMutability": "nonpayable",
      "type": "function"
    },
    {
      "inputs": [
        {
          "internalType": "address[]",
          "name": "_addresses",
          "type": "address[]"
        },
        {
          "internalType": "bool[]",
          "name": "_status",
          "type": "bool[]"
        }
      ],
      "name": "setIsExcludedAddressStatus",
      "outputs": [],
      "stateMutability": "nonpayable",
      "type": "function"
    },
    {
      "inputs": [
        {
          "internalType": "address",
          "name": "_token",
          "type": "address"
        },
        {
          "internalType": "uint256",
          "name": "_totalCap",
          "type": "uint256"
        }
      ],
      "name": "setTotalCap",
      "outputs": [],
      "stateMutability": "nonpayable",
      "type": "function"
    },
    {
      "inputs": [
        {
          "internalType": "address",
          "name": "_token",
          "type": "address"
        },
        {
          "internalType": "uint256",
          "name": "_perTokenWalletCap",
          "type": "uint256"
        }
      ],
      "name": "setPerTokenWalletCap",
      "outputs": [],
      "stateMutability": "nonpayable",
      "type": "function"
    },
    {
      "inputs": [
        {
          "internalType": "address",
          "name": "_token",
          "type": "address"
        },
        {
          "internalType": "uint256",
          "name": "_totalCap",
          "type": "uint256"
        },
        {
          "internalType": "uint256",
          "name": "_perTokenWalletCap",
          "type": "uint256"
        }
      ],
      "name": "setCap",
      "outputs": [],
      "stateMutability": "nonpayable",
      "type": "function"
    },
    {
      "inputs": [
        {
          "internalType": "address[]",
          "name": "_tokens",
          "type": "address[]"
        },
        {
          "internalType": "uint256[]",
          "name": "_totalCaps",
          "type": "uint256[]"
        },
        {
          "internalType": "uint256[]",
          "name": "_perTokenWalletCaps",
          "type": "uint256[]"
        }
      ],
      "name": "setCaps",
      "outputs": [],
      "stateMutability": "nonpayable",
      "type": "function"
    },
    {
      "inputs": [
        {
          "internalType": "bool",
          "name": "_status",
          "type": "bool"
        }
      ],
      "name": "setAreWhiteListRestrictionsEnabled",
      "outputs": [],
      "stateMutability": "nonpayable",
      "type": "function"
    },
    {
      "inputs": [
        {
          "internalType": "address",
          "name": "_token",
          "type": "address"
        }
      ],
      "name": "getMaxCommunityLpPositon",
      "outputs": [
        {
          "internalType": "uint256",
          "name": "",
          "type": "uint256"
        }
      ],
      "stateMutability": "view",
      "type": "function"
    }
  ],
  "bytecode": "0x608060405234801561001057600080fd5b50613749806100206000396000f3fe608060405234801561001057600080fd5b50600436106101cf5760003560e01c80636ef8d66d116101045780639ee933b5116100a2578063e3ab5ade11610071578063e3ab5ade146104c4578063f2fde38b146104e2578063f614d9f8146104fe578063f84541331461052e576101cf565b80639ee933b514610454578063b6f1332014610470578063d13602061461048c578063e23fec91146104a8576101cf565b806380f816a7116100de57806380f816a7146103f45780638456cb59146104105780638da5cb5b1461041a5780639cbdba3d14610438576101cf565b80636ef8d66d146103c4578063715018a6146103ce5780637cb2b79c146103d8576101cf565b806344d1841411610171578063572b6c051161014b578063572b6c051461033e57806359ca6c011461036e5780635c975abb1461038a578063645625f3146103a8576101cf565b806344d18414146102c257806346fbf68e146102f25780634fa5569314610322576101cf565b806324a176bb116101ad57806324a176bb1461023c5780632cd271e71461026c5780633281b904146102885780633f4ba83a146102b8576101cf565b806304ca2fe6146101d45780631459457a146101f05780631c97b3661461020c575b600080fd5b6101ee60048036038101906101e99190612518565b61054a565b005b61020a6004803603810190610205919061257f565b6105ef565b005b610226600480360381019061022191906125fa565b61077a565b6040516102339190612649565b60405180910390f35b61025660048036038101906102519190612664565b61079f565b60405161026391906126ac565b60405180910390f35b61028660048036038101906102819190612664565b6107bf565b005b6102a2600480360381019061029d9190612664565b61081b565b6040516102af9190612649565b60405180910390f35b6102c0610833565b005b6102dc60048036038101906102d79190612664565b610885565b6040516102e99190612649565b60405180910390f35b61030c60048036038101906103079190612664565b61089d565b60405161031991906126ac565b60405180910390f35b61033c600480360381019061033791906126c7565b6108f7565b005b61035860048036038101906103539190612664565b610918565b60405161036591906126ac565b60405180910390f35b61038860048036038101906103839190612664565b610972565b005b610392610986565b60405161039f91906126ac565b60405180910390f35b6103c260048036038101906103bd919061271a565b61099d565b005b6103cc610a4c565b005b6103d6610b5d565b005b6103f260048036038101906103ed9190612664565b610b71565b005b61040e60048036038101906104099190612799565b610b85565b005b610418610be1565b005b610422610c33565b60405161042f91906127d5565b60405180910390f35b610452600480360381019061044d9190612a0c565b610c5d565b005b61046e60048036038101906104699190612664565b610dd0565b005b61048a60048036038101906104859190612a84565b610de4565b005b6104a660048036038101906104a19190612a84565b6110e2565b005b6104c260048036038101906104bd919061271a565b611302565b005b6104cc6113b1565b6040516104d991906126ac565b60405180910390f35b6104fc60048036038101906104f79190612664565b6113c4565b005b61051860048036038101906105139190612664565b611447565b6040516105259190612649565b60405180910390f35b61054860048036038101906105439190612b87565b611631565b005b60cc60009054906101000a900473ffffffffffffffffffffffffffffffffffffffff1673ffffffffffffffffffffffffffffffffffffffff1661058b611706565b73ffffffffffffffffffffffffffffffffffffffff16146105e1576040517f08c379a00000000000000000000000000000000000000000000000000000000081526004016105d890612c8b565b60405180910390fd5b6105e9611715565b50505050565b60008060019054906101000a900460ff161590508080156106205750600160008054906101000a900460ff1660ff16105b8061064d575061062f3061175f565b15801561064c5750600160008054906101000a900460ff1660ff16145b5b61068c576040517f08c379a000000000000000000000000000000000000000000000000000000000815260040161068390612d1d565b60405180910390fd5b60016000806101000a81548160ff021916908360ff16021790555080156106c9576001600060016101000a81548160ff0219169083151502179055505b6106d286611782565b6106da6118ca565b6106e382611923565b600160cc60146101000a81548160ff02191690831515021790555061070785611b12565b61071084611b56565b61071983611b9a565b80156107725760008060016101000a81548160ff0219169083151502179055507f7f26b83ff96e1f2b6a682f133852f6798a09c465da95921460cefb384740249860016040516107699190612d8f565b60405180910390a15b505050505050565b60cf602052816000526040600020602052806000526040600020600091509150505481565b60cd6020528060005260406000206000915054906101000a900460ff1681565b6107c83361089d565b610807576040517f08c379a00000000000000000000000000000000000000000000000000000000081526004016107fe90612e1c565b60405180910390fd5b61080f611715565b61081881611bde565b50565b60d06020528060005260406000206000915090505481565b61083c3361089d565b61087b576040517f08c379a000000000000000000000000000000000000000000000000000000000815260040161087290612e1c565b60405180910390fd5b610883611cd7565b565b60d16020528060005260406000206000915090505481565b6000609760009054906101000a900473ffffffffffffffffffffffffffffffffffffffff1673ffffffffffffffffffffffffffffffffffffffff168273ffffffffffffffffffffffffffffffffffffffff16149050919050565b6108ff611d3a565b6109098383610de4565b61091383826110e2565b505050565b6000609860009054906101000a900473ffffffffffffffffffffffffffffffffffffffff1673ffffffffffffffffffffffffffffffffffffffff168273ffffffffffffffffffffffffffffffffffffffff16149050919050565b61097a611d3a565b61098381611b12565b50565b6000606560009054906101000a900460ff16905090565b60ca60009054906101000a900473ffffffffffffffffffffffffffffffffffffffff1673ffffffffffffffffffffffffffffffffffffffff166109de611706565b73ffffffffffffffffffffffffffffffffffffffff1614610a34576040517f08c379a0000000000000000000000000000000000000000000000000000000008152600401610a2b90612c8b565b60405180910390fd5b610a3c611715565b610a47838383611db8565b505050565b610a553361089d565b610a94576040517f08c379a0000000000000000000000000000000000000000000000000000000008152600401610a8b90612e1c565b60405180910390fd5b610a9c611715565b600073ffffffffffffffffffffffffffffffffffffffff16609760009054906101000a900473ffffffffffffffffffffffffffffffffffffffff1673ffffffffffffffffffffffffffffffffffffffff167f95bb211a5a393c4d30c3edc9a745825fba4e6ad3e3bb949e6bf8ccdfe431a81160405160405180910390a36000609760006101000a81548173ffffffffffffffffffffffffffffffffffffffff021916908373ffffffffffffffffffffffffffffffffffffffff160217905550565b610b65611d3a565b610b6f6000611eed565b565b610b79611d3a565b610b8281611b56565b50565b610b8d611d3a565b8060cc60146101000a81548160ff0219169083151502179055507f2b35d8fbed5bcf6ff37cd2cf6a0b23f33cd33efa62eab2329d3a05a16fe7caee81604051610bd691906126ac565b60405180910390a150565b610bea3361089d565b610c29576040517f08c379a0000000000000000000000000000000000000000000000000000000008152600401610c2090612e1c565b60405180910390fd5b610c31611fb3565b565b6000603360009054906101000a900473ffffffffffffffffffffffffffffffffffffffff16905090565b610c65611d3a565b8051825114610ca9576040517f08c379a0000000000000000000000000000000000000000000000000000000008152600401610ca090612e88565b60405180910390fd5b60008251905060005b81811015610dca57828181518110610ccd57610ccc612ea8565b5b602002602001015160cd6000868481518110610cec57610ceb612ea8565b5b602002602001015173ffffffffffffffffffffffffffffffffffffffff1673ffffffffffffffffffffffffffffffffffffffff16815260200190815260200160002060006101000a81548160ff021916908315150217905550828181518110610d5857610d57612ea8565b5b60200260200101511515848281518110610d7557610d74612ea8565b5b602002602001015173ffffffffffffffffffffffffffffffffffffffff167f3b2137fe446a3f8bb68b73e0289caf895d9b3766a9ceebe64e76d5b4ea6aa79c60405160405180910390a3806001019050610cb2565b50505050565b610dd8611d3a565b610de181611b9a565b50565b81600073ffffffffffffffffffffffffffffffffffffffff168173ffffffffffffffffffffffffffffffffffffffff1603610e54576040517f08c379a0000000000000000000000000000000000000000000000000000000008152600401610e4b90612f23565b60405180910390fd5b610e5d81612016565b610e9c576040517f08c379a0000000000000000000000000000000000000000000000000000000008152600401610e9390612f8f565b60405180910390fd5b610ea4611d3a565b8160ca60009054906101000a900473ffffffffffffffffffffffffffffffffffffffff1673ffffffffffffffffffffffffffffffffffffffff1663b3524e30856040518263ffffffff1660e01b8152600401610f0091906127d5565b602060405180830381865afa158015610f1d573d6000803e3d6000fd5b505050506040513d601f19601f82011682018060405250810190610f419190612fc4565b1115610f82576040517f08c379a0000000000000000000000000000000000000000000000000000000008152600401610f799061303d565b60405180910390fd5b60d160008473ffffffffffffffffffffffffffffffffffffffff1673ffffffffffffffffffffffffffffffffffffffff16815260200190815260200160002054821015611004576040517f08c379a0000000000000000000000000000000000000000000000000000000008152600401610ffb906130a9565b60405180910390fd5b8160d060008573ffffffffffffffffffffffffffffffffffffffff1673ffffffffffffffffffffffffffffffffffffffff16815260200190815260200160002054146110dd578160d060008573ffffffffffffffffffffffffffffffffffffffff1673ffffffffffffffffffffffffffffffffffffffff168152602001908152602001600020819055508273ffffffffffffffffffffffffffffffffffffffff167f3aa2b0bd7801c6da16d7df31a52b6a76f235f563c24248d2329a393dc0536019836040516110d49190612649565b60405180910390a25b505050565b81600073ffffffffffffffffffffffffffffffffffffffff168173ffffffffffffffffffffffffffffffffffffffff1603611152576040517f08c379a000000000000000000000000000000000000000000000000000000000815260040161114990612f23565b60405180910390fd5b61115b81612016565b61119a576040517f08c379a000000000000000000000000000000000000000000000000000000000815260040161119190612f8f565b60405180910390fd5b6111a2611d3a565b60d060008473ffffffffffffffffffffffffffffffffffffffff1673ffffffffffffffffffffffffffffffffffffffff16815260200190815260200160002054821115611224576040517f08c379a000000000000000000000000000000000000000000000000000000000815260040161121b90613115565b60405180910390fd5b8160d160008573ffffffffffffffffffffffffffffffffffffffff1673ffffffffffffffffffffffffffffffffffffffff16815260200190815260200160002054146112fd578160d160008573ffffffffffffffffffffffffffffffffffffffff1673ffffffffffffffffffffffffffffffffffffffff168152602001908152602001600020819055508273ffffffffffffffffffffffffffffffffffffffff167f655d8d8c3795ff326faea43770f29b708423d22996c54a6c17e44adeb320dcd0836040516112f49190612649565b60405180910390a25b505050565b60ca60009054906101000a900473ffffffffffffffffffffffffffffffffffffffff1673ffffffffffffffffffffffffffffffffffffffff16611343611706565b73ffffffffffffffffffffffffffffffffffffffff1614611399576040517f08c379a000000000000000000000000000000000000000000000000000000000815260040161139090612c8b565b60405180910390fd5b6113a1611715565b6113ac8383836120bf565b505050565b60cc60149054906101000a900460ff1681565b6113cc611d3a565b600073ffffffffffffffffffffffffffffffffffffffff168173ffffffffffffffffffffffffffffffffffffffff160361143b576040517f08c379a0000000000000000000000000000000000000000000000000000000008152600401611432906131a7565b60405180910390fd5b61144481611eed565b50565b60008060cc60009054906101000a900473ffffffffffffffffffffffffffffffffffffffff1673ffffffffffffffffffffffffffffffffffffffff166318160ddd6040518163ffffffff1660e01b8152600401602060405180830381865afa1580156114b7573d6000803e3d6000fd5b505050506040513d601f19601f820116820180604052508101906114db9190612fc4565b9050600080600190505b82811161162657600060cf60008773ffffffffffffffffffffffffffffffffffffffff1673ffffffffffffffffffffffffffffffffffffffff168152602001908152602001600020600060cc60009054906101000a900473ffffffffffffffffffffffffffffffffffffffff1673ffffffffffffffffffffffffffffffffffffffff16636352211e856040518263ffffffff1660e01b815260040161158a9190612649565b602060405180830381865afa1580156115a7573d6000803e3d6000fd5b505050506040513d601f19601f820116820180604052508101906115cb91906131dc565b73ffffffffffffffffffffffffffffffffffffffff1673ffffffffffffffffffffffffffffffffffffffff16815260200190815260200160002054905082811115611614578092505b508061161f90613238565b90506114e5565b508092505050919050565b611639611d3a565b8151835114801561164b575080518251145b61168a576040517f08c379a0000000000000000000000000000000000000000000000000000000008152600401611681906132cc565b60405180910390fd5b60008351905060005b818110156116ff576116f48582815181106116b1576116b0612ea8565b5b60200260200101518583815181106116cc576116cb612ea8565b5b60200260200101518584815181106116e7576116e6612ea8565b5b60200260200101516108f7565b806001019050611693565b5050505050565b60006117106120c4565b905090565b61171d610986565b1561175d576040517f08c379a000000000000000000000000000000000000000000000000000000000815260040161175490613338565b60405180910390fd5b565b6000808273ffffffffffffffffffffffffffffffffffffffff163b119050919050565b60008060019054906101000a900460ff161590508080156117b35750600160008054906101000a900460ff1660ff16105b806117e057506117c23061175f565b1580156117df5750600160008054906101000a900460ff1660ff16145b5b61181f576040517f08c379a000000000000000000000000000000000000000000000000000000000815260040161181690612d1d565b60405180910390fd5b60016000806101000a81548160ff021916908360ff160217905550801561185c576001600060016101000a81548160ff0219169083151502179055505b6118646120f6565b61186d82612147565b80156118c65760008060016101000a81548160ff0219169083151502179055507f7f26b83ff96e1f2b6a682f133852f6798a09c465da95921460cefb384740249860016040516118bd9190612d8f565b60405180910390a15b5050565b600060019054906101000a900460ff16611919576040517f08c379a0000000000000000000000000000000000000000000000000000000008152600401611910906133ca565b60405180910390fd5b6119216122bf565b565b60008060019054906101000a900460ff161590508080156119545750600160008054906101000a900460ff1660ff16105b8061198157506119633061175f565b1580156119805750600160008054906101000a900460ff1660ff16145b5b6119c0576040517f08c379a00000000000000000000000000000000000000000000000000000000081526004016119b790612d1d565b60405180910390fd5b60016000806101000a81548160ff021916908360ff16021790555080156119fd576001600060016101000a81548160ff0219169083151502179055505b600073ffffffffffffffffffffffffffffffffffffffff168273ffffffffffffffffffffffffffffffffffffffff1603611a6c576040517f08c379a0000000000000000000000000000000000000000000000000000000008152600401611a6390613436565b60405180910390fd5b611a74612320565b81609760006101000a81548173ffffffffffffffffffffffffffffffffffffffff021916908373ffffffffffffffffffffffffffffffffffffffff1602179055508015611b0e5760008060016101000a81548160ff0219169083151502179055507f7f26b83ff96e1f2b6a682f133852f6798a09c465da95921460cefb38474024986001604051611b059190612d8f565b60405180910390a15b5050565b8060ca60006101000a81548173ffffffffffffffffffffffffffffffffffffffff021916908373ffffffffffffffffffffffffffffffffffffffff16021790555050565b8060cb60006101000a81548173ffffffffffffffffffffffffffffffffffffffff021916908373ffffffffffffffffffffffffffffffffffffffff16021790555050565b8060cc60006101000a81548173ffffffffffffffffffffffffffffffffffffffff021916908373ffffffffffffffffffffffffffffffffffffffff16021790555050565b600073ffffffffffffffffffffffffffffffffffffffff168173ffffffffffffffffffffffffffffffffffffffff1603611c1757600080fd5b8073ffffffffffffffffffffffffffffffffffffffff16609760009054906101000a900473ffffffffffffffffffffffffffffffffffffffff1673ffffffffffffffffffffffffffffffffffffffff167f95bb211a5a393c4d30c3edc9a745825fba4e6ad3e3bb949e6bf8ccdfe431a81160405160405180910390a380609760006101000a81548173ffffffffffffffffffffffffffffffffffffffff021916908373ffffffffffffffffffffffffffffffffffffffff16021790555050565b611cdf612379565b6000606560006101000a81548160ff0219169083151502179055507f5db9ee0a495bf2e6ff9c91a7834c1ba4fdd244a5e8aa4e537bd38aeae4b073aa611d23611706565b604051611d3091906127d5565b60405180910390a1565b611d42611706565b73ffffffffffffffffffffffffffffffffffffffff16611d60610c33565b73ffffffffffffffffffffffffffffffffffffffff1614611db6576040517f08c379a0000000000000000000000000000000000000000000000000000000008152600401611dad906134a2565b60405180910390fd5b565b611ea960d060008473ffffffffffffffffffffffffffffffffffffffff1673ffffffffffffffffffffffffffffffffffffffff168152602001908152602001600020548260ca60009054906101000a900473ffffffffffffffffffffffffffffffffffffffff1673ffffffffffffffffffffffffffffffffffffffff1663b3524e30866040518263ffffffff1660e01b8152600401611e5791906127d5565b602060405180830381865afa158015611e74573d6000803e3d6000fd5b505050506040513d601f19601f82011682018060405250810190611e989190612fc4565b611ea291906134c2565b11156123c2565b611ee8576040517f08c379a0000000000000000000000000000000000000000000000000000000008152600401611edf90613564565b60405180910390fd5b505050565b6000603360009054906101000a900473ffffffffffffffffffffffffffffffffffffffff16905081603360006101000a81548173ffffffffffffffffffffffffffffffffffffffff021916908373ffffffffffffffffffffffffffffffffffffffff1602179055508173ffffffffffffffffffffffffffffffffffffffff168173ffffffffffffffffffffffffffffffffffffffff167f8be0079c531659141344cd1fd0a4f28419497f9722a3daafe3b4186f6b6457e060405160405180910390a35050565b611fbb611715565b6001606560006101000a81548160ff0219169083151502179055507f62e78cea01bee320cd4e420270b5ea74000d11b0c9f74754ebdbfc544b05a258611fff611706565b60405161200c91906127d5565b60405180910390a1565b600060cb60009054906101000a900473ffffffffffffffffffffffffffffffffffffffff1673ffffffffffffffffffffffffffffffffffffffff1663fa5e2abc836040518263ffffffff1660e01b815260040161207391906127d5565b60c060405180830381865afa158015612090573d6000803e3d6000fd5b505050506040513d601f19601f820116820180604052508101906120b4919061367a565b602001519050919050565b505050565b60006120cf33610918565b156120e357601436033560601c90506120f2565b6120eb6123fc565b90506120f3565b5b90565b600060019054906101000a900460ff16612145576040517f08c379a000000000000000000000000000000000000000000000000000000000815260040161213c906133ca565b60405180910390fd5b565b60008060019054906101000a900460ff161590508080156121785750600160008054906101000a900460ff1660ff16105b806121a557506121873061175f565b1580156121a45750600160008054906101000a900460ff1660ff16145b5b6121e4576040517f08c379a00000000000000000000000000000000000000000000000000000000081526004016121db90612d1d565b60405180910390fd5b60016000806101000a81548160ff021916908360ff1602179055508015612221576001600060016101000a81548160ff0219169083151502179055505b81609860006101000a81548173ffffffffffffffffffffffffffffffffffffffff021916908373ffffffffffffffffffffffffffffffffffffffff16021790555080156122bb5760008060016101000a81548160ff0219169083151502179055507f7f26b83ff96e1f2b6a682f133852f6798a09c465da95921460cefb384740249860016040516122b29190612d8f565b60405180910390a15b5050565b600060019054906101000a900460ff1661230e576040517f08c379a0000000000000000000000000000000000000000000000000000000008152600401612305906133ca565b60405180910390fd5b61231e612319611706565b611eed565b565b600060019054906101000a900460ff1661236f576040517f08c379a0000000000000000000000000000000000000000000000000000000008152600401612366906133ca565b60405180910390fd5b612377612404565b565b612381610986565b6123c0576040517f08c379a00000000000000000000000000000000000000000000000000000000081526004016123b7906136f3565b60405180910390fd5b565b600060cc60149054906101000a900460ff1615806123f5575060cc60149054906101000a900460ff1680156123f45750815b5b9050919050565b600033905090565b600060019054906101000a900460ff16612453576040517f08c379a000000000000000000000000000000000000000000000000000000000815260040161244a906133ca565b60405180910390fd5b6000606560006101000a81548160ff021916908315150217905550565b6000604051905090565b600080fd5b600080fd5b600073ffffffffffffffffffffffffffffffffffffffff82169050919050565b60006124af82612484565b9050919050565b6124bf816124a4565b81146124ca57600080fd5b50565b6000813590506124dc816124b6565b92915050565b6000819050919050565b6124f5816124e2565b811461250057600080fd5b50565b600081359050612512816124ec565b92915050565b600080600080608085870312156125325761253161247a565b5b6000612540878288016124cd565b9450506020612551878288016124cd565b9350506040612562878288016124cd565b925050606061257387828801612503565b91505092959194509250565b600080600080600060a0868803121561259b5761259a61247a565b5b60006125a9888289016124cd565b95505060206125ba888289016124cd565b94505060406125cb888289016124cd565b93505060606125dc888289016124cd565b92505060806125ed888289016124cd565b9150509295509295909350565b600080604083850312156126115761261061247a565b5b600061261f858286016124cd565b9250506020612630858286016124cd565b9150509250929050565b612643816124e2565b82525050565b600060208201905061265e600083018461263a565b92915050565b60006020828403121561267a5761267961247a565b5b6000612688848285016124cd565b91505092915050565b60008115159050919050565b6126a681612691565b82525050565b60006020820190506126c1600083018461269d565b92915050565b6000806000606084860312156126e0576126df61247a565b5b60006126ee868287016124cd565b93505060206126ff86828701612503565b925050604061271086828701612503565b9150509250925092565b6000806000606084860312156127335761273261247a565b5b6000612741868287016124cd565b9350506020612752868287016124cd565b925050604061276386828701612503565b9150509250925092565b61277681612691565b811461278157600080fd5b50565b6000813590506127938161276d565b92915050565b6000602082840312156127af576127ae61247a565b5b60006127bd84828501612784565b91505092915050565b6127cf816124a4565b82525050565b60006020820190506127ea60008301846127c6565b92915050565b600080fd5b6000601f19601f8301169050919050565b7f4e487b7100000000000000000000000000000000000000000000000000000000600052604160045260246000fd5b61283e826127f5565b810181811067ffffffffffffffff8211171561285d5761285c612806565b5b80604052505050565b6000612870612470565b905061287c8282612835565b919050565b600067ffffffffffffffff82111561289c5761289b612806565b5b602082029050602081019050919050565b600080fd5b60006128c56128c084612881565b612866565b905080838252602082019050602084028301858111156128e8576128e76128ad565b5b835b8181101561291157806128fd88826124cd565b8452602084019350506020810190506128ea565b5050509392505050565b600082601f8301126129305761292f6127f0565b5b81356129408482602086016128b2565b91505092915050565b600067ffffffffffffffff82111561296457612963612806565b5b602082029050602081019050919050565b600061298861298384612949565b612866565b905080838252602082019050602084028301858111156129ab576129aa6128ad565b5b835b818110156129d457806129c08882612784565b8452602084019350506020810190506129ad565b5050509392505050565b600082601f8301126129f3576129f26127f0565b5b8135612a03848260208601612975565b91505092915050565b60008060408385031215612a2357612a2261247a565b5b600083013567ffffffffffffffff811115612a4157612a4061247f565b5b612a4d8582860161291b565b925050602083013567ffffffffffffffff811115612a6e57612a6d61247f565b5b612a7a858286016129de565b9150509250929050565b60008060408385031215612a9b57612a9a61247a565b5b6000612aa9858286016124cd565b9250506020612aba85828601612503565b9150509250929050565b600067ffffffffffffffff821115612adf57612ade612806565b5b602082029050602081019050919050565b6000612b03612afe84612ac4565b612866565b90508083825260208201905060208402830185811115612b2657612b256128ad565b5b835b81811015612b4f5780612b3b8882612503565b845260208401935050602081019050612b28565b5050509392505050565b600082601f830112612b6e57612b6d6127f0565b5b8135612b7e848260208601612af0565b91505092915050565b600080600060608486031215612ba057612b9f61247a565b5b600084013567ffffffffffffffff811115612bbe57612bbd61247f565b5b612bca8682870161291b565b935050602084013567ffffffffffffffff811115612beb57612bea61247f565b5b612bf786828701612b59565b925050604084013567ffffffffffffffff811115612c1857612c1761247f565b5b612c2486828701612b59565b9150509250925092565b600082825260208201905092915050565b7f4552525f5f554e415554484f52495a4544000000000000000000000000000000600082015250565b6000612c75601183612c2e565b9150612c8082612c3f565b602082019050919050565b60006020820190508181036000830152612ca481612c68565b9050919050565b7f496e697469616c697a61626c653a20636f6e747261637420697320616c72656160008201527f647920696e697469616c697a6564000000000000000000000000000000000000602082015250565b6000612d07602e83612c2e565b9150612d1282612cab565b604082019050919050565b60006020820190508181036000830152612d3681612cfa565b9050919050565b6000819050919050565b600060ff82169050919050565b6000819050919050565b6000612d79612d74612d6f84612d3d565b612d54565b612d47565b9050919050565b612d8981612d5e565b82525050565b6000602082019050612da46000830184612d80565b92915050565b7f4f6e6c792070617573657220697320616c6c6f77656420746f20706572666f7260008201527f6d2074686973206f7065726174696f6e00000000000000000000000000000000602082015250565b6000612e06603083612c2e565b9150612e1182612daa565b604082019050919050565b60006020820190508181036000830152612e3581612df9565b9050919050565b7f4552525f5f4c454e4754485f4d49534d41544348000000000000000000000000600082015250565b6000612e72601483612c2e565b9150612e7d82612e3c565b602082019050919050565b60006020820190508181036000830152612ea181612e65565b9050919050565b7f4e487b7100000000000000000000000000000000000000000000000000000000600052603260045260246000fd5b7f546f6b656e20616464726573732063616e6e6f74206265203000000000000000600082015250565b6000612f0d601983612c2e565b9150612f1882612ed7565b602082019050919050565b60006020820190508181036000830152612f3c81612f00565b9050919050565b7f546f6b656e206e6f7420737570706f7274656400000000000000000000000000600082015250565b6000612f79601383612c2e565b9150612f8482612f43565b602082019050919050565b60006020820190508181036000830152612fa881612f6c565b9050919050565b600081519050612fbe816124ec565b92915050565b600060208284031215612fda57612fd961247a565b5b6000612fe884828501612faf565b91505092915050565b7f4552525f5f544f54414c5f4341505f4c4553535f5448414e5f534c0000000000600082015250565b6000613027601b83612c2e565b915061303282612ff1565b602082019050919050565b600060208201905081810360008301526130568161301a565b9050919050565b7f4552525f5f544f54414c5f4341505f4c545f5054574300000000000000000000600082015250565b6000613093601683612c2e565b915061309e8261305d565b602082019050919050565b600060208201905081810360008301526130c281613086565b9050919050565b7f4552525f5f5057435f47545f5054544300000000000000000000000000000000600082015250565b60006130ff601083612c2e565b915061310a826130c9565b602082019050919050565b6000602082019050818103600083015261312e816130f2565b9050919050565b7f4f776e61626c653a206e6577206f776e657220697320746865207a65726f206160008201527f6464726573730000000000000000000000000000000000000000000000000000602082015250565b6000613191602683612c2e565b915061319c82613135565b604082019050919050565b600060208201905081810360008301526131c081613184565b9050919050565b6000815190506131d6816124b6565b92915050565b6000602082840312156131f2576131f161247a565b5b6000613200848285016131c7565b91505092915050565b7f4e487b7100000000000000000000000000000000000000000000000000000000600052601160045260246000fd5b6000613243826124e2565b91507fffffffffffffffffffffffffffffffffffffffffffffffffffffffffffffffff820361327557613274613209565b5b600182019050919050565b7f4552525f5f4c454e4754485f4d49534d41434800000000000000000000000000600082015250565b60006132b6601383612c2e565b91506132c182613280565b602082019050919050565b600060208201905081810360008301526132e5816132a9565b9050919050565b7f5061757361626c653a2070617573656400000000000000000000000000000000600082015250565b6000613322601083612c2e565b915061332d826132ec565b602082019050919050565b6000602082019050818103600083015261335181613315565b9050919050565b7f496e697469616c697a61626c653a20636f6e7472616374206973206e6f74206960008201527f6e697469616c697a696e67000000000000000000000000000000000000000000602082015250565b60006133b4602b83612c2e565b91506133bf82613358565b604082019050919050565b600060208201905081810360008301526133e3816133a7565b9050919050565b7f50617573657220416464726573732063616e6e6f742062652030000000000000600082015250565b6000613420601a83612c2e565b915061342b826133ea565b602082019050919050565b6000602082019050818103600083015261344f81613413565b9050919050565b7f4f776e61626c653a2063616c6c6572206973206e6f7420746865206f776e6572600082015250565b600061348c602083612c2e565b915061349782613456565b602082019050919050565b600060208201905081810360008301526134bb8161347f565b9050919050565b60006134cd826124e2565b91506134d8836124e2565b9250827fffffffffffffffffffffffffffffffffffffffffffffffffffffffffffffffff0382111561350d5761350c613209565b5b828201905092915050565b7f4552525f5f4c49515549444954595f455843454544535f505454430000000000600082015250565b600061354e601b83612c2e565b915061355982613518565b602082019050919050565b6000602082019050818103600083015261357d81613541565b9050919050565b600080fd5b6000815190506135988161276d565b92915050565b6000604082840312156135b4576135b3613584565b5b6135be6040612866565b905060006135ce84828501612faf565b60008301525060206135e284828501612faf565b60208301525092915050565b600060c0828403121561360457613603613584565b5b61360e60a0612866565b9050600061361e84828501612faf565b600083015250602061363284828501613589565b602083015250604061364684828501612faf565b604083015250606061365a84828501612faf565b606083015250608061366e8482850161359e565b60808301525092915050565b600060c082840312156136905761368f61247a565b5b600061369e848285016135ee565b91505092915050565b7f5061757361626c653a206e6f7420706175736564000000000000000000000000600082015250565b60006136dd601483612c2e565b91506136e8826136a7565b602082019050919050565b6000602082019050818103600083015261370c816136d0565b905091905056fea26469706673582212202b0cd155142e3d43ac9e55a1dd1b781b59922aaec4e65ea2ff5fc1f11fd56dc764736f6c634300080f0033",
  "immutableReferences": {},
  "source": "// $$\\      $$\\                                                         $$\\       $$\\       $$\\                     $$\\       $$\\ $$\\   $$\\\n// $$$\\    $$$ |                                                        $$ |      $$ |      \\__|                    \\__|      $$ |\\__|  $$ |\n// $$$$\\  $$$$ | $$$$$$\\  $$$$$$$\\   $$$$$$\\   $$$$$$\\   $$$$$$\\   $$$$$$$ |      $$ |      $$\\  $$$$$$\\  $$\\   $$\\ $$\\  $$$$$$$ |$$\\ $$$$$$\\   $$\\   $$\\\n// $$\\$$\\$$ $$ | \\____$$\\ $$  __$$\\  \\____$$\\ $$  __$$\\ $$  __$$\\ $$  __$$ |      $$ |      $$ |$$  __$$\\ $$ |  $$ |$$ |$$  __$$ |$$ |\\_$$  _|  $$ |  $$ |\n// $$ \\$$$  $$ | $$$$$$$ |$$ |  $$ | $$$$$$$ |$$ /  $$ |$$$$$$$$ |$$ /  $$ |      $$ |      $$ |$$ /  $$ |$$ |  $$ |$$ |$$ /  $$ |$$ |  $$ |    $$ |  $$ |\n// $$ |\\$  /$$ |$$  __$$ |$$ |  $$ |$$  __$$ |$$ |  $$ |$$   ____|$$ |  $$ |      $$ |      $$ |$$ |  $$ |$$ |  $$ |$$ |$$ |  $$ |$$ |  $$ |$$\\ $$ |  $$ |\n// $$ | \\_/ $$ |\\$$$$$$$ |$$ |  $$ |\\$$$$$$$ |\\$$$$$$$ |\\$$$$$$$\\ \\$$$$$$$ |      $$$$$$$$\\ $$ |\\$$$$$$$ |\\$$$$$$  |$$ |\\$$$$$$$ |$$ |  \\$$$$  |\\$$$$$$$ |\n// \\__|     \\__| \\_______|\\__|  \\__| \\_______| \\____$$ | \\_______| \\_______|      \\________|\\__| \\____$$ | \\______/ \\__| \\_______|\\__|   \\____/  \\____$$ |\n//                                            $$\\   $$ |                                              $$ |                                      $$\\   $$ |\n//                                            \\$$$$$$  |                                              $$ |                                      \\$$$$$$  |\n//                                             \\______/                                               \\__|                                       \\______/\n//\n// SPDX-License-Identifier: MIT\npragma solidity ^0.8.0;\n\nimport \"@openzeppelin/contracts-upgradeable/access/OwnableUpgradeable.sol\";\nimport \"@openzeppelin/contracts-upgradeable/proxy/utils/Initializable.sol\";\n\nimport \"../security/Pausable.sol\";\nimport \"./metatx/ERC2771ContextUpgradeable.sol\";\nimport \"./interfaces/ILiquidityProviders.sol\";\nimport \"./interfaces/ITokenManager.sol\";\nimport \"./interfaces/ILPToken.sol\";\n\ncontract WhitelistPeriodManager is Initializable, OwnableUpgradeable, Pausable, ERC2771ContextUpgradeable {\n    ILiquidityProviders private liquidityProviders;\n    ITokenManager private tokenManager;\n    ILPToken private lpToken;\n    bool public areWhiteListRestrictionsEnabled;\n\n    /* LP Status */\n    // EOA? -> status, stores addresses that we want to ignore, like staking contracts.\n    mapping(address => bool) public isExcludedAddress;\n    // WARNING: DEPRECIATED, DO NOT USE\n    // Token -> TVL\n    mapping(address => uint256) private totalLiquidity;\n    // WARNING: DEPRECIATED, DO NOT USE\n    // Token -> TVL\n    mapping(address => mapping(address => uint256)) public totalLiquidityByLp;\n\n    /* Caps */\n    // Token Address -> Limit\n    mapping(address => uint256) public perTokenTotalCap;\n    // Token Address -> Limit\n    mapping(address => uint256) public perTokenWalletCap;\n\n    event ExcludedAddressStatusUpdated(address indexed lp, bool indexed status);\n    event TotalCapUpdated(address indexed token, uint256 totalCap);\n    event PerTokenWalletCap(address indexed token, uint256 perCommunityWalletCap);\n    event WhiteListStatusUpdated(bool status);\n\n    modifier onlyLiquidityPool() {\n        require(_msgSender() == address(liquidityProviders), \"ERR__UNAUTHORIZED\");\n        _;\n    }\n\n    modifier onlyLpNft() {\n        require(_msgSender() == address(lpToken), \"ERR__UNAUTHORIZED\");\n        _;\n    }\n\n    modifier tokenChecks(address tokenAddress) {\n        require(tokenAddress != address(0), \"Token address cannot be 0\");\n        require(_isSupportedToken(tokenAddress), \"Token not supported\");\n        _;\n    }\n\n    /**\n     * @dev initalizes the contract, acts as constructor\n     * @param _trustedForwarder address of trusted forwarder\n     */\n    function initialize(\n        address _trustedForwarder,\n        address _liquidityProviders,\n        address _tokenManager,\n        address _lpToken,\n        address _pauser\n    ) external initializer {\n        __ERC2771Context_init(_trustedForwarder);\n        __Ownable_init();\n        __Pausable_init(_pauser);\n        areWhiteListRestrictionsEnabled = true;\n        _setLiquidityProviders(_liquidityProviders);\n        _setTokenManager(_tokenManager);\n        _setLpToken(_lpToken);\n    }\n\n    function _isSupportedToken(address _token) private view returns (bool) {\n        return tokenManager.getTokensInfo(_token).supportedToken;\n    }\n\n    /**\n     * @dev Internal Function which checks for various caps before allowing LP to add liqudity\n     */\n    function _beforeLiquidityAddition(\n        address,\n        address _token,\n        uint256 _amount\n    ) internal {\n        // Per Token Total Cap or PTTC\n        require(\n            ifEnabled(liquidityProviders.getSuppliedLiquidityByToken(_token) + _amount <= perTokenTotalCap[_token]),\n            \"ERR__LIQUIDITY_EXCEEDS_PTTC\"\n        );\n    }\n\n    /**\n     * @dev External Function which checks for various caps before allowing LP to add liqudity. Only callable by LiquidityPoolManager\n     */\n    function beforeLiquidityAddition(\n        address _lp,\n        address _token,\n        uint256 _amount\n    ) external onlyLiquidityPool whenNotPaused {\n        _beforeLiquidityAddition(_lp, _token, _amount);\n    }\n\n    /**\n     * @dev Internal Function which checks for various caps before allowing LP to remove liqudity\n     */\n    function _beforeLiquidityRemoval(\n        address,\n        address,\n        uint256\n    ) internal pure {\n        return;\n    }\n\n    /**\n     * @dev External Function which checks for various caps before allowing LP to remove liqudity. Only callable by LiquidityPoolManager\n     */\n    function beforeLiquidityRemoval(\n        address _lp,\n        address _token,\n        uint256 _amount\n    ) external view onlyLiquidityPool whenNotPaused {\n        _beforeLiquidityRemoval(_lp, _token, _amount);\n    }\n\n    /**\n     * @dev External Function which checks for various caps before allowing LP to transfer their LpNFT. Only callable by LpNFT contract\n     */\n    function beforeLiquidityTransfer(\n        address,\n        address,\n        address,\n        uint256\n    ) external view onlyLpNft whenNotPaused {\n        return;\n    }\n\n    function _setTokenManager(address _tokenManager) internal {\n        tokenManager = ITokenManager(_tokenManager);\n    }\n\n    function setTokenManager(address _tokenManager) external onlyOwner {\n        _setTokenManager(_tokenManager);\n    }\n\n    function _setLiquidityProviders(address _liquidityProviders) internal {\n        liquidityProviders = ILiquidityProviders(_liquidityProviders);\n    }\n\n    function setLiquidityProviders(address _liquidityProviders) external onlyOwner {\n        _setLiquidityProviders(_liquidityProviders);\n    }\n\n    function _setLpToken(address _lpToken) internal {\n        lpToken = ILPToken(_lpToken);\n    }\n\n    function setLpToken(address _lpToken) external onlyOwner {\n        _setLpToken(_lpToken);\n    }\n\n    function setIsExcludedAddressStatus(address[] memory _addresses, bool[] memory _status) external onlyOwner {\n        require(_addresses.length == _status.length, \"ERR__LENGTH_MISMATCH\");\n        uint256 length = _addresses.length;\n        for (uint256 i; i < length; ) {\n            isExcludedAddress[_addresses[i]] = _status[i];\n            emit ExcludedAddressStatusUpdated(_addresses[i], _status[i]);\n            unchecked {\n                ++i;\n            }\n        }\n    }\n\n    function setTotalCap(address _token, uint256 _totalCap) public tokenChecks(_token) onlyOwner {\n        require(liquidityProviders.getSuppliedLiquidityByToken(_token) <= _totalCap, \"ERR__TOTAL_CAP_LESS_THAN_SL\");\n        require(_totalCap >= perTokenWalletCap[_token], \"ERR__TOTAL_CAP_LT_PTWC\");\n        if (perTokenTotalCap[_token] != _totalCap) {\n            perTokenTotalCap[_token] = _totalCap;\n            emit TotalCapUpdated(_token, _totalCap);\n        }\n    }\n\n    /**\n     * @dev Special care must be taken when calling this function\n     *      There are no checks for _perTokenWalletCap (since it's onlyOwner), but it's essential that it\n     *      should be >= max lp provided by an lp.\n     *      Checking this on chain will probably require implementing a bbst, which needs more bandwidth\n     *      Call the view function getMaxCommunityLpPositon() separately before changing this value\n     */\n    function setPerTokenWalletCap(address _token, uint256 _perTokenWalletCap) public tokenChecks(_token) onlyOwner {\n        require(_perTokenWalletCap <= perTokenTotalCap[_token], \"ERR__PWC_GT_PTTC\");\n        if (perTokenWalletCap[_token] != _perTokenWalletCap) {\n            perTokenWalletCap[_token] = _perTokenWalletCap;\n            emit PerTokenWalletCap(_token, _perTokenWalletCap);\n        }\n    }\n\n    function setCap(\n        address _token,\n        uint256 _totalCap,\n        uint256 _perTokenWalletCap\n    ) public onlyOwner {\n        setTotalCap(_token, _totalCap);\n        setPerTokenWalletCap(_token, _perTokenWalletCap);\n    }\n\n    function setCaps(\n        address[] memory _tokens,\n        uint256[] memory _totalCaps,\n        uint256[] memory _perTokenWalletCaps\n    ) external onlyOwner {\n        require(\n            _tokens.length == _totalCaps.length && _totalCaps.length == _perTokenWalletCaps.length,\n            \"ERR__LENGTH_MISMACH\"\n        );\n        uint256 length = _tokens.length;\n        for (uint256 i; i < length; ) {\n            setCap(_tokens[i], _totalCaps[i], _perTokenWalletCaps[i]);\n            unchecked {\n                ++i;\n            }\n        }\n    }\n\n    /**\n     * @dev Enables (or disables) reverts if liquidity exceeds caps.\n     *      Even if this is disabled, the contract will continue to track LP's positions\n     */\n    function setAreWhiteListRestrictionsEnabled(bool _status) external onlyOwner {\n        areWhiteListRestrictionsEnabled = _status;\n        emit WhiteListStatusUpdated(_status);\n    }\n\n    /**\n     * @dev Returns the maximum amount a single community LP has provided\n     */\n    function getMaxCommunityLpPositon(address _token) external view returns (uint256) {\n        uint256 totalSupply = lpToken.totalSupply();\n        uint256 maxLp = 0;\n        for (uint256 i = 1; i <= totalSupply; ++i) {\n            uint256 liquidity = totalLiquidityByLp[_token][lpToken.ownerOf(i)];\n            if (liquidity > maxLp) {\n                maxLp = liquidity;\n            }\n        }\n        return maxLp;\n    }\n\n    /**\n     * @dev returns the value of if (areWhiteListEnabled) then (_cond)\n     */\n    function ifEnabled(bool _cond) private view returns (bool) {\n        return !areWhiteListRestrictionsEnabled || (areWhiteListRestrictionsEnabled && _cond);\n    }\n\n    /**\n     * @dev Meta-Transaction Helper, returns msgSender\n     */\n    function _msgSender()\n        internal\n        view\n        virtual\n        override(ContextUpgradeable, ERC2771ContextUpgradeable)\n        returns (address)\n    {\n        return ERC2771ContextUpgradeable._msgSender();\n    }\n\n    /**\n     * @dev Meta-Transaction Helper, returns msgData\n     */\n    function _msgData()\n        internal\n        view\n        virtual\n        override(ContextUpgradeable, ERC2771ContextUpgradeable)\n        returns (bytes calldata)\n    {\n        return ERC2771ContextUpgradeable._msgData();\n    }\n}\n",
  "sourcePath": "/Users/nikhitakale/QA-Hyphen-V2/scribble-fuzzing/contracts/hyphen/WhitelistPeriodManager.sol",
  "compiler": {
    "name": "solc",
    "version": "0.8.15+commit.e14f2714.Emscripten.clang"
  },
  "schemaVersion": "3.4.7",
  "updatedAt": "2022-07-03T18:30:45.681Z",
  "devdoc": {
    "kind": "dev",
    "methods": {
      "beforeLiquidityAddition(address,address,uint256)": {
        "details": "External Function which checks for various caps before allowing LP to add liqudity. Only callable by LiquidityPoolManager"
      },
      "beforeLiquidityRemoval(address,address,uint256)": {
        "details": "External Function which checks for various caps before allowing LP to remove liqudity. Only callable by LiquidityPoolManager"
      },
      "beforeLiquidityTransfer(address,address,address,uint256)": {
        "details": "External Function which checks for various caps before allowing LP to transfer their LpNFT. Only callable by LpNFT contract"
      },
      "changePauser(address)": {
        "details": "Allows the current pauser to transfer control of the contract to a newPauser.",
        "params": {
          "newPauser": "The address to transfer pauserShip to."
        }
      },
      "getMaxCommunityLpPositon(address)": {
        "details": "Returns the maximum amount a single community LP has provided"
      },
      "initialize(address,address,address,address,address)": {
        "details": "initalizes the contract, acts as constructor",
        "params": {
          "_trustedForwarder": "address of trusted forwarder"
        }
      },
      "isPauser(address)": {
        "returns": {
          "_0": "true if `msg.sender` is the owner of the contract."
        }
      },
      "owner()": {
        "details": "Returns the address of the current owner."
      },
      "paused()": {
        "details": "Returns true if the contract is paused, and false otherwise."
      },
      "renounceOwnership()": {
        "details": "Leaves the contract without owner. It will not be possible to call `onlyOwner` functions anymore. Can only be called by the current owner. NOTE: Renouncing ownership will leave the contract without an owner, thereby removing any functionality that is only available to the owner."
      },
      "setAreWhiteListRestrictionsEnabled(bool)": {
        "details": "Enables (or disables) reverts if liquidity exceeds caps.      Even if this is disabled, the contract will continue to track LP's positions"
      },
      "setPerTokenWalletCap(address,uint256)": {
        "details": "Special care must be taken when calling this function      There are no checks for _perTokenWalletCap (since it's onlyOwner), but it's essential that it      should be >= max lp provided by an lp.      Checking this on chain will probably require implementing a bbst, which needs more bandwidth      Call the view function getMaxCommunityLpPositon() separately before changing this value"
      },
      "transferOwnership(address)": {
        "details": "Transfers ownership of the contract to a new account (`newOwner`). Can only be called by the current owner."
      }
    },
    "version": 1
  },
  "userdoc": {
    "kind": "user",
    "methods": {},
    "version": 1
  },
  "db": {
    "callBytecode": {
      "id": "0xb347e36a0d35a93dcf0654bc90b02e89ba55ee3521fbeff961b4bcb359f14ecd"
    },
    "createBytecode": {
      "id": "0x8fefa0516fce75c471f8b85fcfff35265d3210064fe11d0e0a4568a11754ebbd"
    },
    "contract": {
      "id": "0x98145faf6f5876c4bab5f8f776560121e2e3bfee8450810244f1cd465c80e3d4"
    }
  }
}